{
	"data": {
		"bytecode": {
			"linkReferences": {},
			"object": "60a06040523073ffffffffffffffffffffffffffffffffffffffff1660809073ffffffffffffffffffffffffffffffffffffffff168152503480156200004457600080fd5b50620000556200005b60201b60201c565b62000206565b600060019054906101000a900460ff1615620000ae576040517f08c379a0000000000000000000000000000000000000000000000000000000008152600401620000a590620001a9565b60405180910390fd5b60ff801660008054906101000a900460ff1660ff161015620001205760ff6000806101000a81548160ff021916908360ff1602179055507f7f26b83ff96e1f2b6a682f133852f6798a09c465da95921460cefb384740249860ff604051620001179190620001e9565b60405180910390a15b565b600082825260208201905092915050565b7f496e697469616c697a61626c653a20636f6e747261637420697320696e69746960008201527f616c697a696e6700000000000000000000000000000000000000000000000000602082015250565b60006200019160278362000122565b91506200019e8262000133565b604082019050919050565b60006020820190508181036000830152620001c48162000182565b9050919050565b600060ff82169050919050565b620001e381620001cb565b82525050565b6000602082019050620002006000830184620001d8565b92915050565b6080516152626200023e60003960008181610ab001528181610b3e01528181610c5801528181610ce60152610d9601526152626000f3fe6080604052600436106101d85760003560e01c8063715018a611610102578063b88d4fde11610095578063c8a27f2411610064578063c8a27f24146106be578063e985e9c5146106da578063ed3b0eca14610717578063f2fde38b14610754576101d8565b8063b88d4fde146105ef578063c0a094fd14610618578063c6bbd5a714610656578063c87b56dd14610681576101d8565b806395d89b41116100d157806395d89b4114610521578063a22cb4651461054c578063ada8b83d14610575578063b5d74c08146105b2576101d8565b8063715018a61461048b5780638129fc1c146104a2578063871caa98146104b95780638da5cb5b146104f6576101d8565b80634f1ef2861161017a578063625c593f11610149578063625c593f146103bf5780636352211e146103e85780636f5547b61461042557806370a082311461044e576101d8565b80634f1ef2861461032657806352d1902d146103425780635db0cb941461036d5780635e2e7e8e14610396576101d8565b8063095ea7b3116101b6578063095ea7b31461028257806323b872dd146102ab5780633659cfe6146102d457806342842e0e146102fd576101d8565b806301ffc9a7146101dd57806306fdde031461021a578063081812fc14610245575b600080fd5b3480156101e957600080fd5b5061020460048036038101906101ff91906131d2565b61077d565b604051610211919061321a565b60405180910390f35b34801561022657600080fd5b5061022f61085f565b60405161023c91906132c5565b60405180910390f35b34801561025157600080fd5b5061026c6004803603810190610267919061331d565b6108f1565b604051610279919061338b565b60405180910390f35b34801561028e57600080fd5b506102a960048036038101906102a491906133d2565b610937565b005b3480156102b757600080fd5b506102d260048036038101906102cd9190613412565b610a4e565b005b3480156102e057600080fd5b506102fb60048036038101906102f69190613465565b610aae565b005b34801561030957600080fd5b50610324600480360381019061031f9190613412565b610c36565b005b610340600480360381019061033b91906135c7565b610c56565b005b34801561034e57600080fd5b50610357610d92565b604051610364919061363c565b60405180910390f35b34801561037957600080fd5b50610394600480360381019061038f9190613695565b610e4b565b005b3480156103a257600080fd5b506103bd60048036038101906103b8919061331d565b610e98565b005b3480156103cb57600080fd5b506103e660048036038101906103e1919061331d565b610eab565b005b3480156103f457600080fd5b5061040f600480360381019061040a919061331d565b610ebe565b60405161041c919061338b565b60405180910390f35b34801561043157600080fd5b5061044c60048036038101906104479190613722565b610f6f565b005b34801561045a57600080fd5b5061047560048036038101906104709190613465565b611083565b604051610482919061377e565b60405180910390f35b34801561049757600080fd5b506104a061113a565b005b3480156104ae57600080fd5b506104b761114e565b005b3480156104c557600080fd5b506104e060048036038101906104db919061331d565b611323565b6040516104ed9190613832565b60405180910390f35b34801561050257600080fd5b5061050b6114bd565b604051610518919061338b565b60405180910390f35b34801561052d57600080fd5b506105366114e7565b60405161054391906132c5565b60405180910390f35b34801561055857600080fd5b50610573600480360381019061056e9190613880565b611579565b005b34801561058157600080fd5b5061059c6004803603810190610597919061331d565b61158f565b6040516105a9919061377e565b60405180910390f35b3480156105be57600080fd5b506105d960048036038101906105d491906138ec565b61166e565b6040516105e6919061321a565b60405180910390f35b3480156105fb57600080fd5b5061061660048036038101906106119190613919565b61168f565b005b34801561062457600080fd5b5061063f600480360381019061063a919061331d565b6116f1565b60405161064d9291906139e6565b60405180910390f35b34801561066257600080fd5b5061066b611826565b6040516106789190613a7c565b60405180910390f35b34801561068d57600080fd5b506106a860048036038101906106a3919061331d565b61183e565b6040516106b591906132c5565b60405180910390f35b6106d860048036038101906106d39190613a97565b6118a6565b005b3480156106e657600080fd5b5061070160048036038101906106fc9190613b36565b611c47565b60405161070e919061321a565b60405180910390f35b34801561072357600080fd5b5061073e60048036038101906107399190613b76565b611cdb565b60405161074b919061338b565b60405180910390f35b34801561076057600080fd5b5061077b60048036038101906107769190613465565b611d25565b005b60007f80ac58cd000000000000000000000000000000000000000000000000000000007bffffffffffffffffffffffffffffffffffffffffffffffffffffffff1916827bffffffffffffffffffffffffffffffffffffffffffffffffffffffff1916148061084857507f5b5e139f000000000000000000000000000000000000000000000000000000007bffffffffffffffffffffffffffffffffffffffffffffffffffffffff1916827bffffffffffffffffffffffffffffffffffffffffffffffffffffffff1916145b80610858575061085782611da8565b5b9050919050565b60606065805461086e90613bee565b80601f016020809104026020016040519081016040528092919081815260200182805461089a90613bee565b80156108e75780601f106108bc576101008083540402835291602001916108e7565b820191906000526020600020905b8154815290600101906020018083116108ca57829003601f168201915b5050505050905090565b60006108fc82611e12565b6069600083815260200190815260200160002060009054906101000a900473ffffffffffffffffffffffffffffffffffffffff169050919050565b600061094282610ebe565b90508073ffffffffffffffffffffffffffffffffffffffff168373ffffffffffffffffffffffffffffffffffffffff16036109b2576040517f08c379a00000000000000000000000000000000000000000000000000000000081526004016109a990613c91565b60405180910390fd5b8073ffffffffffffffffffffffffffffffffffffffff166109d1611e5d565b73ffffffffffffffffffffffffffffffffffffffff161480610a0057506109ff816109fa611e5d565b611c47565b5b610a3f576040517f08c379a0000000000000000000000000000000000000000000000000000000008152600401610a3690613d23565b60405180910390fd5b610a498383611e65565b505050565b610a5f610a59611e5d565b82611f1e565b610a9e576040517f08c379a0000000000000000000000000000000000000000000000000000000008152600401610a9590613db5565b60405180910390fd5b610aa9838383611fb3565b505050565b7f000000000000000000000000000000000000000000000000000000000000000073ffffffffffffffffffffffffffffffffffffffff163073ffffffffffffffffffffffffffffffffffffffff1603610b3c576040517f08c379a0000000000000000000000000000000000000000000000000000000008152600401610b3390613e47565b60405180910390fd5b7f000000000000000000000000000000000000000000000000000000000000000073ffffffffffffffffffffffffffffffffffffffff16610b7b612219565b73ffffffffffffffffffffffffffffffffffffffff1614610bd1576040517f08c379a0000000000000000000000000000000000000000000000000000000008152600401610bc890613ed9565b60405180910390fd5b610bda81612270565b610c3381600067ffffffffffffffff811115610bf957610bf861349c565b5b6040519080825280601f01601f191660200182016040528015610c2b5781602001600182028036833780820191505090505b50600061227b565b50565b610c518383836040518060200160405280600081525061168f565b505050565b7f000000000000000000000000000000000000000000000000000000000000000073ffffffffffffffffffffffffffffffffffffffff163073ffffffffffffffffffffffffffffffffffffffff1603610ce4576040517f08c379a0000000000000000000000000000000000000000000000000000000008152600401610cdb90613e47565b60405180910390fd5b7f000000000000000000000000000000000000000000000000000000000000000073ffffffffffffffffffffffffffffffffffffffff16610d23612219565b73ffffffffffffffffffffffffffffffffffffffff1614610d79576040517f08c379a0000000000000000000000000000000000000000000000000000000008152600401610d7090613ed9565b60405180910390fd5b610d8282612270565b610d8e8282600161227b565b5050565b60007f000000000000000000000000000000000000000000000000000000000000000073ffffffffffffffffffffffffffffffffffffffff163073ffffffffffffffffffffffffffffffffffffffff1614610e22576040517f08c379a0000000000000000000000000000000000000000000000000000000008152600401610e1990613f6b565b60405180910390fd5b7f360894a13ba1a3210667c828492db98dca3e2076cc3735a920a3ca505d382bbc60001b905090565b610e536123e9565b8061013360006101000a81548173ffffffffffffffffffffffffffffffffffffffff021916908373ffffffffffffffffffffffffffffffffffffffff16021790555050565b610ea06123e9565b806101328190555050565b610eb36123e9565b806101318190555050565b6000806067600084815260200190815260200160002060009054906101000a900473ffffffffffffffffffffffffffffffffffffffff169050600073ffffffffffffffffffffffffffffffffffffffff168173ffffffffffffffffffffffffffffffffffffffff1603610f66576040517f08c379a0000000000000000000000000000000000000000000000000000000008152600401610f5d90613fd7565b60405180910390fd5b80915050919050565b600073ffffffffffffffffffffffffffffffffffffffff1661012f8383604051610f9a929190614027565b908152602001604051809103902060009054906101000a900473ffffffffffffffffffffffffffffffffffffffff1673ffffffffffffffffffffffffffffffffffffffff161461101f576040517f08c379a00000000000000000000000000000000000000000000000000000000081526004016110169061408c565b60405180910390fd5b3361012f8383604051611033929190614027565b908152602001604051809103902060006101000a81548173ffffffffffffffffffffffffffffffffffffffff021916908373ffffffffffffffffffffffffffffffffffffffff1602179055505050565b60008073ffffffffffffffffffffffffffffffffffffffff168273ffffffffffffffffffffffffffffffffffffffff16036110f3576040517f08c379a00000000000000000000000000000000000000000000000000000000081526004016110ea9061411e565b60405180910390fd5b606860008373ffffffffffffffffffffffffffffffffffffffff1673ffffffffffffffffffffffffffffffffffffffff168152602001908152602001600020549050919050565b6111426123e9565b61114c6000612467565b565b60008060019054906101000a900460ff1615905080801561117f5750600160008054906101000a900460ff1660ff16105b806111ac575061118e3061252d565b1580156111ab5750600160008054906101000a900460ff1660ff16145b5b6111eb576040517f08c379a00000000000000000000000000000000000000000000000000000000081526004016111e2906141b0565b60405180910390fd5b60016000806101000a81548160ff021916908360ff1602179055508015611228576001600060016101000a81548160ff0219169083151502179055505b61129c6040518060400160405280600781526020017f47616e50756e6b000000000000000000000000000000000000000000000000008152506040518060400160405280600581526020017f4750756e6b000000000000000000000000000000000000000000000000000000815250612550565b6112a46125ad565b6112ac612606565b603261013081905550603c6101318190555060286101328190555080156113205760008060016101000a81548160ff0219169083151502179055507f7f26b83ff96e1f2b6a682f133852f6798a09c465da95921460cefb384740249860016040516113179190614218565b60405180910390a15b50565b61132b61314c565b61133482612657565b611373576040517f08c379a000000000000000000000000000000000000000000000000000000000815260040161136a9061427f565b60405180910390fd5b61012e60008381526020019081526020016000206040518060400160405290816000820180546113a290613bee565b80601f01602080910402602001604051908101604052809291908181526020018280546113ce90613bee565b801561141b5780601f106113f05761010080835404028352916020019161141b565b820191906000526020600020905b8154815290600101906020018083116113fe57829003601f168201915b5050505050815260200160018201805461143490613bee565b80601f016020809104026020016040519081016040528092919081815260200182805461146090613bee565b80156114ad5780601f10611482576101008083540402835291602001916114ad565b820191906000526020600020905b81548152906001019060200180831161149057829003601f168201915b5050505050815250509050919050565b6000609760009054906101000a900473ffffffffffffffffffffffffffffffffffffffff16905090565b6060606680546114f690613bee565b80601f016020809104026020016040519081016040528092919081815260200182805461152290613bee565b801561156f5780601f106115445761010080835404028352916020019161156f565b820191906000526020600020905b81548152906001019060200180831161155257829003601f168201915b5050505050905090565b61158b611584611e5d565b83836126c3565b5050565b600080736b175474e89094c44da98b954eedeac495271d0f9050600073c02aaa39b223fe8d0a0e5c4f27ead9083c756cc2905060006101f49050600073b27308f9f90d607463bb33ea1bebb41c27ce5ab673ffffffffffffffffffffffffffffffffffffffff1663f7729d438585858a866040518663ffffffff1660e01b81526004016116209594939291906142cc565b6020604051808303816000875af115801561163f573d6000803e3d6000fd5b505050506040513d601f19601f820116820180604052508101906116639190614334565b945050505050919050565b61012d6020528060005260406000206000915054906101000a900460ff1681565b6116a061169a611e5d565b83611f1e565b6116df576040517f08c379a00000000000000000000000000000000000000000000000000000000081526004016116d690613db5565b60405180910390fd5b6116eb8484848461282f565b50505050565b61012e60205280600052604060002060009150905080600001805461171590613bee565b80601f016020809104026020016040519081016040528092919081815260200182805461174190613bee565b801561178e5780601f106117635761010080835404028352916020019161178e565b820191906000526020600020905b81548152906001019060200180831161177157829003601f168201915b5050505050908060010180546117a390613bee565b80601f01602080910402602001604051908101604052809291908181526020018280546117cf90613bee565b801561181c5780601f106117f15761010080835404028352916020019161181c565b820191906000526020600020905b8154815290600101906020018083116117ff57829003601f168201915b5050505050905082565b73b27308f9f90d607463bb33ea1bebb41c27ce5ab681565b606061184982611e12565b600061185361288b565b90506000815111611873576040518060200160405280600081525061189e565b8061187d846128a2565b60405160200161188e92919061439d565b6040516020818303038152906040525b915050919050565b600084846040516020016118bb9291906139e6565b6040516020818303038152906040528051906020012090506000151561012d600083815260200190815260200160002060009054906101000a900460ff1615151461193b576040517f08c379a00000000000000000000000000000000000000000000000000000000081526004016119329061440d565b60405180910390fd5b60405180604001604052808681526020018581525061012e6000848152602001908152602001600020600082015181600001908161197991906145cf565b50602082015181600101908161198f91906145cf565b50905050600161012d600083815260200190815260200160002060006101000a81548160ff021916908315150217905550600073ffffffffffffffffffffffffffffffffffffffff1661013360009054906101000a900473ffffffffffffffffffffffffffffffffffffffff1673ffffffffffffffffffffffffffffffffffffffff1614611adf5760003403611a5a576040517f08c379a0000000000000000000000000000000000000000000000000000000008152600401611a51906146ed565b60405180910390fd5b61013360009054906101000a900473ffffffffffffffffffffffffffffffffffffffff1673ffffffffffffffffffffffffffffffffffffffff166108fc60646101325434611aa8919061473c565b611ab291906147ad565b9081150290604051600060405180830381858888f19350505050158015611add573d6000803e3d6000fd5b505b600073ffffffffffffffffffffffffffffffffffffffff1661012f86604051611b08919061480f565b908152602001604051809103902060009054906101000a900473ffffffffffffffffffffffffffffffffffffffff1673ffffffffffffffffffffffffffffffffffffffff1614611c365760003403611b95576040517f08c379a0000000000000000000000000000000000000000000000000000000008152600401611b8c906146ed565b60405180910390fd5b61012f85604051611ba6919061480f565b908152602001604051809103902060009054906101000a900473ffffffffffffffffffffffffffffffffffffffff1673ffffffffffffffffffffffffffffffffffffffff166108fc60646101315434611bff919061473c565b611c0991906147ad565b9081150290604051600060405180830381858888f19350505050158015611c34573d6000803e3d6000fd5b505b611c408383612a02565b5050505050565b6000606a60008473ffffffffffffffffffffffffffffffffffffffff1673ffffffffffffffffffffffffffffffffffffffff16815260200190815260200160002060008373ffffffffffffffffffffffffffffffffffffffff1673ffffffffffffffffffffffffffffffffffffffff16815260200190815260200160002060009054906101000a900460ff16905092915050565b61012f818051602081018201805184825260208301602085012081835280955050505050506000915054906101000a900473ffffffffffffffffffffffffffffffffffffffff1681565b611d2d6123e9565b600073ffffffffffffffffffffffffffffffffffffffff168173ffffffffffffffffffffffffffffffffffffffff1603611d9c576040517f08c379a0000000000000000000000000000000000000000000000000000000008152600401611d9390614898565b60405180910390fd5b611da581612467565b50565b60007f01ffc9a7000000000000000000000000000000000000000000000000000000007bffffffffffffffffffffffffffffffffffffffffffffffffffffffff1916827bffffffffffffffffffffffffffffffffffffffffffffffffffffffff1916149050919050565b611e1b81612657565b611e5a576040517f08c379a0000000000000000000000000000000000000000000000000000000008152600401611e5190613fd7565b60405180910390fd5b50565b600033905090565b816069600083815260200190815260200160002060006101000a81548173ffffffffffffffffffffffffffffffffffffffff021916908373ffffffffffffffffffffffffffffffffffffffff160217905550808273ffffffffffffffffffffffffffffffffffffffff16611ed883610ebe565b73ffffffffffffffffffffffffffffffffffffffff167f8c5be1e5ebec7d5bd14f71427d1e84f3dd0314c0f7b2291e5b200ac8c7c3b92560405160405180910390a45050565b600080611f2a83610ebe565b90508073ffffffffffffffffffffffffffffffffffffffff168473ffffffffffffffffffffffffffffffffffffffff161480611f6c5750611f6b8185611c47565b5b80611faa57508373ffffffffffffffffffffffffffffffffffffffff16611f92846108f1565b73ffffffffffffffffffffffffffffffffffffffff16145b91505092915050565b8273ffffffffffffffffffffffffffffffffffffffff16611fd382610ebe565b73ffffffffffffffffffffffffffffffffffffffff1614612029576040517f08c379a00000000000000000000000000000000000000000000000000000000081526004016120209061492a565b60405180910390fd5b600073ffffffffffffffffffffffffffffffffffffffff168273ffffffffffffffffffffffffffffffffffffffff1603612098576040517f08c379a000000000000000000000000000000000000000000000000000000000815260040161208f906149bc565b60405180910390fd5b6120a3838383612a20565b6120ae600082611e65565b6001606860008573ffffffffffffffffffffffffffffffffffffffff1673ffffffffffffffffffffffffffffffffffffffff16815260200190815260200160002060008282546120fe91906149dc565b925050819055506001606860008473ffffffffffffffffffffffffffffffffffffffff1673ffffffffffffffffffffffffffffffffffffffff16815260200190815260200160002060008282546121559190614a10565b92505081905550816067600083815260200190815260200160002060006101000a81548173ffffffffffffffffffffffffffffffffffffffff021916908373ffffffffffffffffffffffffffffffffffffffff160217905550808273ffffffffffffffffffffffffffffffffffffffff168473ffffffffffffffffffffffffffffffffffffffff167fddf252ad1be2c89b69c2b068fc378daa952ba7f163c4a11628f55a4df523b3ef60405160405180910390a4612214838383612a25565b505050565b60006122477f360894a13ba1a3210667c828492db98dca3e2076cc3735a920a3ca505d382bbc60001b612a2a565b60000160009054906101000a900473ffffffffffffffffffffffffffffffffffffffff16905090565b6122786123e9565b50565b6122a77f4910fdfa16fed3260ed0e7147f7cc6da11a60208b5b9406d12a635614ffd914360001b612a34565b60000160009054906101000a900460ff16156122cb576122c683612a3e565b6123e4565b8273ffffffffffffffffffffffffffffffffffffffff166352d1902d6040518163ffffffff1660e01b8152600401602060405180830381865afa92505050801561233357506040513d601f19601f820116820180604052508101906123309190614a59565b60015b612372576040517f08c379a000000000000000000000000000000000000000000000000000000000815260040161236990614af8565b60405180910390fd5b7f360894a13ba1a3210667c828492db98dca3e2076cc3735a920a3ca505d382bbc60001b81146123d7576040517f08c379a00000000000000000000000000000000000000000000000000000000081526004016123ce90614b8a565b60405180910390fd5b506123e3838383612af7565b5b505050565b6123f1611e5d565b73ffffffffffffffffffffffffffffffffffffffff1661240f6114bd565b73ffffffffffffffffffffffffffffffffffffffff1614612465576040517f08c379a000000000000000000000000000000000000000000000000000000000815260040161245c90614bf6565b60405180910390fd5b565b6000609760009054906101000a900473ffffffffffffffffffffffffffffffffffffffff16905081609760006101000a81548173ffffffffffffffffffffffffffffffffffffffff021916908373ffffffffffffffffffffffffffffffffffffffff1602179055508173ffffffffffffffffffffffffffffffffffffffff168173ffffffffffffffffffffffffffffffffffffffff167f8be0079c531659141344cd1fd0a4f28419497f9722a3daafe3b4186f6b6457e060405160405180910390a35050565b6000808273ffffffffffffffffffffffffffffffffffffffff163b119050919050565b600060019054906101000a900460ff1661259f576040517f08c379a000000000000000000000000000000000000000000000000000000000815260040161259690614c88565b60405180910390fd5b6125a98282612b23565b5050565b600060019054906101000a900460ff166125fc576040517f08c379a00000000000000000000000000000000000000000000000000000000081526004016125f390614c88565b60405180910390fd5b612604612b96565b565b600060019054906101000a900460ff16612655576040517f08c379a000000000000000000000000000000000000000000000000000000000815260040161264c90614c88565b60405180910390fd5b565b60008073ffffffffffffffffffffffffffffffffffffffff166067600084815260200190815260200160002060009054906101000a900473ffffffffffffffffffffffffffffffffffffffff1673ffffffffffffffffffffffffffffffffffffffff1614159050919050565b8173ffffffffffffffffffffffffffffffffffffffff168373ffffffffffffffffffffffffffffffffffffffff1603612731576040517f08c379a000000000000000000000000000000000000000000000000000000000815260040161272890614cf4565b60405180910390fd5b80606a60008573ffffffffffffffffffffffffffffffffffffffff1673ffffffffffffffffffffffffffffffffffffffff16815260200190815260200160002060008473ffffffffffffffffffffffffffffffffffffffff1673ffffffffffffffffffffffffffffffffffffffff16815260200190815260200160002060006101000a81548160ff0219169083151502179055508173ffffffffffffffffffffffffffffffffffffffff168373ffffffffffffffffffffffffffffffffffffffff167f17307eab39ab6107e8899845ad3d59bd9653f200f220920489ca2b5937696c3183604051612822919061321a565b60405180910390a3505050565b61283a848484611fb3565b61284684848484612bf7565b612885576040517f08c379a000000000000000000000000000000000000000000000000000000000815260040161287c90614d86565b60405180910390fd5b50505050565b606060405180602001604052806000815250905090565b6060600082036128e9576040518060400160405280600181526020017f300000000000000000000000000000000000000000000000000000000000000081525090506129fd565b600082905060005b6000821461291b57808061290490614da6565b915050600a8261291491906147ad565b91506128f1565b60008167ffffffffffffffff8111156129375761293661349c565b5b6040519080825280601f01601f1916602001820160405280156129695781602001600182028036833780820191505090505b5090505b600085146129f65760018261298291906149dc565b9150600a856129919190614dee565b603061299d9190614a10565b60f81b8183815181106129b3576129b2614e1f565b5b60200101907effffffffffffffffffffffffffffffffffffffffffffffffffffffffffffff1916908160001a905350600a856129ef91906147ad565b945061296d565b8093505050505b919050565b612a1c828260405180602001604052806000815250612d7e565b5050565b505050565b505050565b6000819050919050565b6000819050919050565b612a478161252d565b612a86576040517f08c379a0000000000000000000000000000000000000000000000000000000008152600401612a7d90614ec0565b60405180910390fd5b80612ab37f360894a13ba1a3210667c828492db98dca3e2076cc3735a920a3ca505d382bbc60001b612a2a565b60000160006101000a81548173ffffffffffffffffffffffffffffffffffffffff021916908373ffffffffffffffffffffffffffffffffffffffff16021790555050565b612b0083612dd9565b600082511180612b0d5750805b15612b1e57612b1c8383612e28565b505b505050565b600060019054906101000a900460ff16612b72576040517f08c379a0000000000000000000000000000000000000000000000000000000008152600401612b6990614c88565b60405180910390fd5b8160659081612b819190614f3b565b508060669081612b919190614f3b565b505050565b600060019054906101000a900460ff16612be5576040517f08c379a0000000000000000000000000000000000000000000000000000000008152600401612bdc90614c88565b60405180910390fd5b612bf5612bf0611e5d565b612467565b565b6000612c188473ffffffffffffffffffffffffffffffffffffffff1661252d565b15612d71578373ffffffffffffffffffffffffffffffffffffffff1663150b7a02612c41611e5d565b8786866040518563ffffffff1660e01b8152600401612c63949392919061500d565b6020604051808303816000875af1925050508015612c9f57506040513d601f19601f82011682018060405250810190612c9c919061506e565b60015b612d21573d8060008114612ccf576040519150601f19603f3d011682016040523d82523d6000602084013e612cd4565b606091505b506000815103612d19576040517f08c379a0000000000000000000000000000000000000000000000000000000008152600401612d1090614d86565b60405180910390fd5b805181602001fd5b63150b7a0260e01b7bffffffffffffffffffffffffffffffffffffffffffffffffffffffff1916817bffffffffffffffffffffffffffffffffffffffffffffffffffffffff191614915050612d76565b600190505b949350505050565b612d888383612f0c565b612d956000848484612bf7565b612dd4576040517f08c379a0000000000000000000000000000000000000000000000000000000008152600401612dcb90614d86565b60405180910390fd5b505050565b612de281612a3e565b8073ffffffffffffffffffffffffffffffffffffffff167fbc7cd75a20ee27fd9adebab32041f755214dbc6bffa90cc0225b39da2e5c2d3b60405160405180910390a250565b6060612e338361252d565b612e72576040517f08c379a0000000000000000000000000000000000000000000000000000000008152600401612e699061510d565b60405180910390fd5b6000808473ffffffffffffffffffffffffffffffffffffffff1684604051612e9a919061480f565b600060405180830381855af49150503d8060008114612ed5576040519150601f19603f3d011682016040523d82523d6000602084013e612eda565b606091505b5091509150612f028282604051806060016040528060278152602001615206602791396130e5565b9250505092915050565b600073ffffffffffffffffffffffffffffffffffffffff168273ffffffffffffffffffffffffffffffffffffffff1603612f7b576040517f08c379a0000000000000000000000000000000000000000000000000000000008152600401612f7290615179565b60405180910390fd5b612f8481612657565b15612fc4576040517f08c379a0000000000000000000000000000000000000000000000000000000008152600401612fbb906151e5565b60405180910390fd5b612fd060008383612a20565b6001606860008473ffffffffffffffffffffffffffffffffffffffff1673ffffffffffffffffffffffffffffffffffffffff16815260200190815260200160002060008282546130209190614a10565b92505081905550816067600083815260200190815260200160002060006101000a81548173ffffffffffffffffffffffffffffffffffffffff021916908373ffffffffffffffffffffffffffffffffffffffff160217905550808273ffffffffffffffffffffffffffffffffffffffff16600073ffffffffffffffffffffffffffffffffffffffff167fddf252ad1be2c89b69c2b068fc378daa952ba7f163c4a11628f55a4df523b3ef60405160405180910390a46130e160008383612a25565b5050565b606083156130f557829050613145565b6000835111156131085782518084602001fd5b816040517f08c379a000000000000000000000000000000000000000000000000000000000815260040161313c91906132c5565b60405180910390fd5b9392505050565b604051806040016040528060608152602001606081525090565b6000604051905090565b600080fd5b600080fd5b60007fffffffff0000000000000000000000000000000000000000000000000000000082169050919050565b6131af8161317a565b81146131ba57600080fd5b50565b6000813590506131cc816131a6565b92915050565b6000602082840312156131e8576131e7613170565b5b60006131f6848285016131bd565b91505092915050565b60008115159050919050565b613214816131ff565b82525050565b600060208201905061322f600083018461320b565b92915050565b600081519050919050565b600082825260208201905092915050565b60005b8381101561326f578082015181840152602081019050613254565b60008484015250505050565b6000601f19601f8301169050919050565b600061329782613235565b6132a18185613240565b93506132b1818560208601613251565b6132ba8161327b565b840191505092915050565b600060208201905081810360008301526132df818461328c565b905092915050565b6000819050919050565b6132fa816132e7565b811461330557600080fd5b50565b600081359050613317816132f1565b92915050565b60006020828403121561333357613332613170565b5b600061334184828501613308565b91505092915050565b600073ffffffffffffffffffffffffffffffffffffffff82169050919050565b60006133758261334a565b9050919050565b6133858161336a565b82525050565b60006020820190506133a0600083018461337c565b92915050565b6133af8161336a565b81146133ba57600080fd5b50565b6000813590506133cc816133a6565b92915050565b600080604083850312156133e9576133e8613170565b5b60006133f7858286016133bd565b925050602061340885828601613308565b9150509250929050565b60008060006060848603121561342b5761342a613170565b5b6000613439868287016133bd565b935050602061344a868287016133bd565b925050604061345b86828701613308565b9150509250925092565b60006020828403121561347b5761347a613170565b5b6000613489848285016133bd565b91505092915050565b600080fd5b600080fd5b7f4e487b7100000000000000000000000000000000000000000000000000000000600052604160045260246000fd5b6134d48261327b565b810181811067ffffffffffffffff821117156134f3576134f261349c565b5b80604052505050565b6000613506613166565b905061351282826134cb565b919050565b600067ffffffffffffffff8211156135325761353161349c565b5b61353b8261327b565b9050602081019050919050565b82818337600083830152505050565b600061356a61356584613517565b6134fc565b90508281526020810184848401111561358657613585613497565b5b613591848285613548565b509392505050565b600082601f8301126135ae576135ad613492565b5b81356135be848260208601613557565b91505092915050565b600080604083850312156135de576135dd613170565b5b60006135ec858286016133bd565b925050602083013567ffffffffffffffff81111561360d5761360c613175565b5b61361985828601613599565b9150509250929050565b6000819050919050565b61363681613623565b82525050565b6000602082019050613651600083018461362d565b92915050565b60006136628261334a565b9050919050565b61367281613657565b811461367d57600080fd5b50565b60008135905061368f81613669565b92915050565b6000602082840312156136ab576136aa613170565b5b60006136b984828501613680565b91505092915050565b600080fd5b600080fd5b60008083601f8401126136e2576136e1613492565b5b8235905067ffffffffffffffff8111156136ff576136fe6136c2565b5b60208301915083600182028301111561371b5761371a6136c7565b5b9250929050565b6000806020838503121561373957613738613170565b5b600083013567ffffffffffffffff81111561375757613756613175565b5b613763858286016136cc565b92509250509250929050565b613778816132e7565b82525050565b6000602082019050613793600083018461376f565b92915050565b600081519050919050565b600082825260208201905092915050565b60006137c082613799565b6137ca81856137a4565b93506137da818560208601613251565b6137e38161327b565b840191505092915050565b6000604083016000830151848203600086015261380b82826137b5565b9150506020830151848203602086015261382582826137b5565b9150508091505092915050565b6000602082019050818103600083015261384c81846137ee565b905092915050565b61385d816131ff565b811461386857600080fd5b50565b60008135905061387a81613854565b92915050565b6000806040838503121561389757613896613170565b5b60006138a5858286016133bd565b92505060206138b68582860161386b565b9150509250929050565b6138c981613623565b81146138d457600080fd5b50565b6000813590506138e6816138c0565b92915050565b60006020828403121561390257613901613170565b5b6000613910848285016138d7565b91505092915050565b6000806000806080858703121561393357613932613170565b5b6000613941878288016133bd565b9450506020613952878288016133bd565b935050604061396387828801613308565b925050606085013567ffffffffffffffff81111561398457613983613175565b5b61399087828801613599565b91505092959194509250565b600082825260208201905092915050565b60006139b882613799565b6139c2818561399c565b93506139d2818560208601613251565b6139db8161327b565b840191505092915050565b60006040820190508181036000830152613a0081856139ad565b90508181036020830152613a1481846139ad565b90509392505050565b6000819050919050565b6000613a42613a3d613a388461334a565b613a1d565b61334a565b9050919050565b6000613a5482613a27565b9050919050565b6000613a6682613a49565b9050919050565b613a7681613a5b565b82525050565b6000602082019050613a916000830184613a6d565b92915050565b60008060008060808587031215613ab157613ab0613170565b5b600085013567ffffffffffffffff811115613acf57613ace613175565b5b613adb87828801613599565b945050602085013567ffffffffffffffff811115613afc57613afb613175565b5b613b0887828801613599565b9350506040613b19878288016133bd565b9250506060613b2a87828801613308565b91505092959194509250565b60008060408385031215613b4d57613b4c613170565b5b6000613b5b858286016133bd565b9250506020613b6c858286016133bd565b9150509250929050565b600060208284031215613b8c57613b8b613170565b5b600082013567ffffffffffffffff811115613baa57613ba9613175565b5b613bb684828501613599565b91505092915050565b7f4e487b7100000000000000000000000000000000000000000000000000000000600052602260045260246000fd5b60006002820490506001821680613c0657607f821691505b602082108103613c1957613c18613bbf565b5b50919050565b7f4552433732313a20617070726f76616c20746f2063757272656e74206f776e6560008201527f7200000000000000000000000000000000000000000000000000000000000000602082015250565b6000613c7b602183613240565b9150613c8682613c1f565b604082019050919050565b60006020820190508181036000830152613caa81613c6e565b9050919050565b7f4552433732313a20617070726f76652063616c6c6572206973206e6f7420746f60008201527f6b656e206f776e6572206e6f7220617070726f76656420666f7220616c6c0000602082015250565b6000613d0d603e83613240565b9150613d1882613cb1565b604082019050919050565b60006020820190508181036000830152613d3c81613d00565b9050919050565b7f4552433732313a2063616c6c6572206973206e6f7420746f6b656e206f776e6560008201527f72206e6f7220617070726f766564000000000000000000000000000000000000602082015250565b6000613d9f602e83613240565b9150613daa82613d43565b604082019050919050565b60006020820190508181036000830152613dce81613d92565b9050919050565b7f46756e6374696f6e206d7573742062652063616c6c6564207468726f7567682060008201527f64656c656761746563616c6c0000000000000000000000000000000000000000602082015250565b6000613e31602c83613240565b9150613e3c82613dd5565b604082019050919050565b60006020820190508181036000830152613e6081613e24565b9050919050565b7f46756e6374696f6e206d7573742062652063616c6c6564207468726f7567682060008201527f6163746976652070726f78790000000000000000000000000000000000000000602082015250565b6000613ec3602c83613240565b9150613ece82613e67565b604082019050919050565b60006020820190508181036000830152613ef281613eb6565b9050919050565b7f555550535570677261646561626c653a206d757374206e6f742062652063616c60008201527f6c6564207468726f7567682064656c656761746563616c6c0000000000000000602082015250565b6000613f55603883613240565b9150613f6082613ef9565b604082019050919050565b60006020820190508181036000830152613f8481613f48565b9050919050565b7f4552433732313a20696e76616c696420746f6b656e2049440000000000000000600082015250565b6000613fc1601883613240565b9150613fcc82613f8b565b602082019050919050565b60006020820190508181036000830152613ff081613fb4565b9050919050565b600081905092915050565b600061400e8385613ff7565b935061401b838584613548565b82840190509392505050565b6000614034828486614002565b91508190509392505050565b7f6d6f64656c2073686f756c646e277420626520616c7265616479207365740000600082015250565b6000614076601e83613240565b915061408182614040565b602082019050919050565b600060208201905081810360008301526140a581614069565b9050919050565b7f4552433732313a2061646472657373207a65726f206973206e6f74206120766160008201527f6c6964206f776e65720000000000000000000000000000000000000000000000602082015250565b6000614108602983613240565b9150614113826140ac565b604082019050919050565b60006020820190508181036000830152614137816140fb565b9050919050565b7f496e697469616c697a61626c653a20636f6e747261637420697320616c72656160008201527f647920696e697469616c697a6564000000000000000000000000000000000000602082015250565b600061419a602e83613240565b91506141a58261413e565b604082019050919050565b600060208201905081810360008301526141c98161418d565b9050919050565b6000819050919050565b600060ff82169050919050565b60006142026141fd6141f8846141d0565b613a1d565b6141da565b9050919050565b614212816141e7565b82525050565b600060208201905061422d6000830184614209565b92915050565b7f746f6b656e20646f6573206e6f74206578697374000000000000000000000000600082015250565b6000614269601483613240565b915061427482614233565b602082019050919050565b600060208201905081810360008301526142988161425c565b9050919050565b600062ffffff82169050919050565b6142b78161429f565b82525050565b6142c68161334a565b82525050565b600060a0820190506142e1600083018861337c565b6142ee602083018761337c565b6142fb60408301866142ae565b614308606083018561376f565b61431560808301846142bd565b9695505050505050565b60008151905061432e816132f1565b92915050565b60006020828403121561434a57614349613170565b5b60006143588482850161431f565b91505092915050565b600081905092915050565b600061437782613235565b6143818185614361565b9350614391818560208601613251565b80840191505092915050565b60006143a9828561436c565b91506143b5828461436c565b91508190509392505050565b7f6c6174656e7420737061636520616c7265616479207573656400000000000000600082015250565b60006143f7601983613240565b9150614402826143c1565b602082019050919050565b60006020820190508181036000830152614426816143ea565b9050919050565b60008190508160005260206000209050919050565b60006020601f8301049050919050565b600082821b905092915050565b60006008830261448f7fffffffffffffffffffffffffffffffffffffffffffffffffffffffffffffffff82614452565b6144998683614452565b95508019841693508086168417925050509392505050565b60006144cc6144c76144c2846132e7565b613a1d565b6132e7565b9050919050565b6000819050919050565b6144e6836144b1565b6144fa6144f2826144d3565b84845461445f565b825550505050565b600090565b61450f614502565b61451a8184846144dd565b505050565b5b8181101561453e57614533600082614507565b600181019050614520565b5050565b601f821115614583576145548161442d565b61455d84614442565b8101602085101561456c578190505b61458061457885614442565b83018261451f565b50505b505050565b600082821c905092915050565b60006145a660001984600802614588565b1980831691505092915050565b60006145bf8383614595565b9150826002028217905092915050565b6145d882613799565b67ffffffffffffffff8111156145f1576145f061349c565b5b6145fb8254613bee565b614606828285614542565b600060209050601f8311600181146146395760008415614627578287015190505b61463185826145b3565b865550614699565b601f1984166146478661442d565b60005b8281101561466f5784890151825560018201915060208501945060208101905061464a565b8683101561468c5784890151614688601f891682614595565b8355505b6001600288020188555050505b505050505050565b7f76616c75652069732073657420746f2030000000000000000000000000000000600082015250565b60006146d7601183613240565b91506146e2826146a1565b602082019050919050565b60006020820190508181036000830152614706816146ca565b9050919050565b7f4e487b7100000000000000000000000000000000000000000000000000000000600052601160045260246000fd5b6000614747826132e7565b9150614752836132e7565b9250828202614760816132e7565b915082820484148315176147775761477661470d565b5b5092915050565b7f4e487b7100000000000000000000000000000000000000000000000000000000600052601260045260246000fd5b60006147b8826132e7565b91506147c3836132e7565b9250826147d3576147d261477e565b5b828204905092915050565b60006147e982613799565b6147f38185613ff7565b9350614803818560208601613251565b80840191505092915050565b600061481b82846147de565b915081905092915050565b7f4f776e61626c653a206e6577206f776e657220697320746865207a65726f206160008201527f6464726573730000000000000000000000000000000000000000000000000000602082015250565b6000614882602683613240565b915061488d82614826565b604082019050919050565b600060208201905081810360008301526148b181614875565b9050919050565b7f4552433732313a207472616e736665722066726f6d20696e636f72726563742060008201527f6f776e6572000000000000000000000000000000000000000000000000000000602082015250565b6000614914602583613240565b915061491f826148b8565b604082019050919050565b6000602082019050818103600083015261494381614907565b9050919050565b7f4552433732313a207472616e7366657220746f20746865207a65726f2061646460008201527f7265737300000000000000000000000000000000000000000000000000000000602082015250565b60006149a6602483613240565b91506149b18261494a565b604082019050919050565b600060208201905081810360008301526149d581614999565b9050919050565b60006149e7826132e7565b91506149f2836132e7565b9250828203905081811115614a0a57614a0961470d565b5b92915050565b6000614a1b826132e7565b9150614a26836132e7565b9250828201905080821115614a3e57614a3d61470d565b5b92915050565b600081519050614a53816138c0565b92915050565b600060208284031215614a6f57614a6e613170565b5b6000614a7d84828501614a44565b91505092915050565b7f45524331393637557067726164653a206e657720696d706c656d656e7461746960008201527f6f6e206973206e6f742055555053000000000000000000000000000000000000602082015250565b6000614ae2602e83613240565b9150614aed82614a86565b604082019050919050565b60006020820190508181036000830152614b1181614ad5565b9050919050565b7f45524331393637557067726164653a20756e737570706f727465642070726f7860008201527f6961626c65555549440000000000000000000000000000000000000000000000602082015250565b6000614b74602983613240565b9150614b7f82614b18565b604082019050919050565b60006020820190508181036000830152614ba381614b67565b9050919050565b7f4f776e61626c653a2063616c6c6572206973206e6f7420746865206f776e6572600082015250565b6000614be0602083613240565b9150614beb82614baa565b602082019050919050565b60006020820190508181036000830152614c0f81614bd3565b9050919050565b7f496e697469616c697a61626c653a20636f6e7472616374206973206e6f74206960008201527f6e697469616c697a696e67000000000000000000000000000000000000000000602082015250565b6000614c72602b83613240565b9150614c7d82614c16565b604082019050919050565b60006020820190508181036000830152614ca181614c65565b9050919050565b7f4552433732313a20617070726f766520746f2063616c6c657200000000000000600082015250565b6000614cde601983613240565b9150614ce982614ca8565b602082019050919050565b60006020820190508181036000830152614d0d81614cd1565b9050919050565b7f4552433732313a207472616e7366657220746f206e6f6e20455243373231526560008201527f63656976657220696d706c656d656e7465720000000000000000000000000000602082015250565b6000614d70603283613240565b9150614d7b82614d14565b604082019050919050565b60006020820190508181036000830152614d9f81614d63565b9050919050565b6000614db1826132e7565b91507fffffffffffffffffffffffffffffffffffffffffffffffffffffffffffffffff8203614de357614de261470d565b5b600182019050919050565b6000614df9826132e7565b9150614e04836132e7565b925082614e1457614e1361477e565b5b828206905092915050565b7f4e487b7100000000000000000000000000000000000000000000000000000000600052603260045260246000fd5b7f455243313936373a206e657720696d706c656d656e746174696f6e206973206e60008201527f6f74206120636f6e747261637400000000000000000000000000000000000000602082015250565b6000614eaa602d83613240565b9150614eb582614e4e565b604082019050919050565b60006020820190508181036000830152614ed981614e9d565b9050919050565b60008190508160005260206000209050919050565b601f821115614f3657614f0781614ee0565b614f1084614442565b81016020851015614f1f578190505b614f33614f2b85614442565b83018261451f565b50505b505050565b614f4482613235565b67ffffffffffffffff811115614f5d57614f5c61349c565b5b614f678254613bee565b614f72828285614ef5565b600060209050601f831160018114614fa55760008415614f93578287015190505b614f9d85826145b3565b865550615005565b601f198416614fb386614ee0565b60005b82811015614fdb57848901518255600182019150602085019450602081019050614fb6565b86831015614ff85784890151614ff4601f891682614595565b8355505b6001600288020188555050505b505050505050565b6000608082019050615022600083018761337c565b61502f602083018661337c565b61503c604083018561376f565b818103606083015261504e81846139ad565b905095945050505050565b600081519050615068816131a6565b92915050565b60006020828403121561508457615083613170565b5b600061509284828501615059565b91505092915050565b7f416464726573733a2064656c65676174652063616c6c20746f206e6f6e2d636f60008201527f6e74726163740000000000000000000000000000000000000000000000000000602082015250565b60006150f7602683613240565b91506151028261509b565b604082019050919050565b60006020820190508181036000830152615126816150ea565b9050919050565b7f4552433732313a206d696e7420746f20746865207a65726f2061646472657373600082015250565b6000615163602083613240565b915061516e8261512d565b602082019050919050565b6000602082019050818103600083015261519281615156565b9050919050565b7f4552433732313a20746f6b656e20616c7265616479206d696e74656400000000600082015250565b60006151cf601c83613240565b91506151da82615199565b602082019050919050565b600060208201905081810360008301526151fe816151c2565b905091905056fe416464726573733a206c6f772d6c6576656c2064656c65676174652063616c6c206661696c6564a2646970667358221220362f20fe5259e6fc41938aed769173c7102b600e51570a37461881aa1810e31864736f6c63430008120033",
			"opcodes": "PUSH1 0xA0 PUSH1 0x40 MSTORE ADDRESS PUSH20 0xFFFFFFFFFFFFFFFFFFFFFFFFFFFFFFFFFFFFFFFF AND PUSH1 0x80 SWAP1 PUSH20 0xFFFFFFFFFFFFFFFFFFFFFFFFFFFFFFFFFFFFFFFF AND DUP2 MSTORE POP CALLVALUE DUP1 ISZERO PUSH3 0x44 JUMPI PUSH1 0x0 DUP1 REVERT JUMPDEST POP PUSH3 0x55 PUSH3 0x5B PUSH1 0x20 SHL PUSH1 0x20 SHR JUMP JUMPDEST PUSH3 0x206 JUMP JUMPDEST PUSH1 0x0 PUSH1 0x1 SWAP1 SLOAD SWAP1 PUSH2 0x100 EXP SWAP1 DIV PUSH1 0xFF AND ISZERO PUSH3 0xAE JUMPI PUSH1 0x40 MLOAD PUSH32 0x8C379A000000000000000000000000000000000000000000000000000000000 DUP2 MSTORE PUSH1 0x4 ADD PUSH3 0xA5 SWAP1 PUSH3 0x1A9 JUMP JUMPDEST PUSH1 0x40 MLOAD DUP1 SWAP2 SUB SWAP1 REVERT JUMPDEST PUSH1 0xFF DUP1 AND PUSH1 0x0 DUP1 SLOAD SWAP1 PUSH2 0x100 EXP SWAP1 DIV PUSH1 0xFF AND PUSH1 0xFF AND LT ISZERO PUSH3 0x120 JUMPI PUSH1 0xFF PUSH1 0x0 DUP1 PUSH2 0x100 EXP DUP2 SLOAD DUP2 PUSH1 0xFF MUL NOT AND SWAP1 DUP4 PUSH1 0xFF AND MUL OR SWAP1 SSTORE POP PUSH32 0x7F26B83FF96E1F2B6A682F133852F6798A09C465DA95921460CEFB3847402498 PUSH1 0xFF PUSH1 0x40 MLOAD PUSH3 0x117 SWAP2 SWAP1 PUSH3 0x1E9 JUMP JUMPDEST PUSH1 0x40 MLOAD DUP1 SWAP2 SUB SWAP1 LOG1 JUMPDEST JUMP JUMPDEST PUSH1 0x0 DUP3 DUP3 MSTORE PUSH1 0x20 DUP3 ADD SWAP1 POP SWAP3 SWAP2 POP POP JUMP JUMPDEST PUSH32 0x496E697469616C697A61626C653A20636F6E747261637420697320696E697469 PUSH1 0x0 DUP3 ADD MSTORE PUSH32 0x616C697A696E6700000000000000000000000000000000000000000000000000 PUSH1 0x20 DUP3 ADD MSTORE POP JUMP JUMPDEST PUSH1 0x0 PUSH3 0x191 PUSH1 0x27 DUP4 PUSH3 0x122 JUMP JUMPDEST SWAP2 POP PUSH3 0x19E DUP3 PUSH3 0x133 JUMP JUMPDEST PUSH1 0x40 DUP3 ADD SWAP1 POP SWAP2 SWAP1 POP JUMP JUMPDEST PUSH1 0x0 PUSH1 0x20 DUP3 ADD SWAP1 POP DUP2 DUP2 SUB PUSH1 0x0 DUP4 ADD MSTORE PUSH3 0x1C4 DUP2 PUSH3 0x182 JUMP JUMPDEST SWAP1 POP SWAP2 SWAP1 POP JUMP JUMPDEST PUSH1 0x0 PUSH1 0xFF DUP3 AND SWAP1 POP SWAP2 SWAP1 POP JUMP JUMPDEST PUSH3 0x1E3 DUP2 PUSH3 0x1CB JUMP JUMPDEST DUP3 MSTORE POP POP JUMP JUMPDEST PUSH1 0x0 PUSH1 0x20 DUP3 ADD SWAP1 POP PUSH3 0x200 PUSH1 0x0 DUP4 ADD DUP5 PUSH3 0x1D8 JUMP JUMPDEST SWAP3 SWAP2 POP POP JUMP JUMPDEST PUSH1 0x80 MLOAD PUSH2 0x5262 PUSH3 0x23E PUSH1 0x0 CODECOPY PUSH1 0x0 DUP2 DUP2 PUSH2 0xAB0 ADD MSTORE DUP2 DUP2 PUSH2 0xB3E ADD MSTORE DUP2 DUP2 PUSH2 0xC58 ADD MSTORE DUP2 DUP2 PUSH2 0xCE6 ADD MSTORE PUSH2 0xD96 ADD MSTORE PUSH2 0x5262 PUSH1 0x0 RETURN INVALID PUSH1 0x80 PUSH1 0x40 MSTORE PUSH1 0x4 CALLDATASIZE LT PUSH2 0x1D8 JUMPI PUSH1 0x0 CALLDATALOAD PUSH1 0xE0 SHR DUP1 PUSH4 0x715018A6 GT PUSH2 0x102 JUMPI DUP1 PUSH4 0xB88D4FDE GT PUSH2 0x95 JUMPI DUP1 PUSH4 0xC8A27F24 GT PUSH2 0x64 JUMPI DUP1 PUSH4 0xC8A27F24 EQ PUSH2 0x6BE JUMPI DUP1 PUSH4 0xE985E9C5 EQ PUSH2 0x6DA JUMPI DUP1 PUSH4 0xED3B0ECA EQ PUSH2 0x717 JUMPI DUP1 PUSH4 0xF2FDE38B EQ PUSH2 0x754 JUMPI PUSH2 0x1D8 JUMP JUMPDEST DUP1 PUSH4 0xB88D4FDE EQ PUSH2 0x5EF JUMPI DUP1 PUSH4 0xC0A094FD EQ PUSH2 0x618 JUMPI DUP1 PUSH4 0xC6BBD5A7 EQ PUSH2 0x656 JUMPI DUP1 PUSH4 0xC87B56DD EQ PUSH2 0x681 JUMPI PUSH2 0x1D8 JUMP JUMPDEST DUP1 PUSH4 0x95D89B41 GT PUSH2 0xD1 JUMPI DUP1 PUSH4 0x95D89B41 EQ PUSH2 0x521 JUMPI DUP1 PUSH4 0xA22CB465 EQ PUSH2 0x54C JUMPI DUP1 PUSH4 0xADA8B83D EQ PUSH2 0x575 JUMPI DUP1 PUSH4 0xB5D74C08 EQ PUSH2 0x5B2 JUMPI PUSH2 0x1D8 JUMP JUMPDEST DUP1 PUSH4 0x715018A6 EQ PUSH2 0x48B JUMPI DUP1 PUSH4 0x8129FC1C EQ PUSH2 0x4A2 JUMPI DUP1 PUSH4 0x871CAA98 EQ PUSH2 0x4B9 JUMPI DUP1 PUSH4 0x8DA5CB5B EQ PUSH2 0x4F6 JUMPI PUSH2 0x1D8 JUMP JUMPDEST DUP1 PUSH4 0x4F1EF286 GT PUSH2 0x17A JUMPI DUP1 PUSH4 0x625C593F GT PUSH2 0x149 JUMPI DUP1 PUSH4 0x625C593F EQ PUSH2 0x3BF JUMPI DUP1 PUSH4 0x6352211E EQ PUSH2 0x3E8 JUMPI DUP1 PUSH4 0x6F5547B6 EQ PUSH2 0x425 JUMPI DUP1 PUSH4 0x70A08231 EQ PUSH2 0x44E JUMPI PUSH2 0x1D8 JUMP JUMPDEST DUP1 PUSH4 0x4F1EF286 EQ PUSH2 0x326 JUMPI DUP1 PUSH4 0x52D1902D EQ PUSH2 0x342 JUMPI DUP1 PUSH4 0x5DB0CB94 EQ PUSH2 0x36D JUMPI DUP1 PUSH4 0x5E2E7E8E EQ PUSH2 0x396 JUMPI PUSH2 0x1D8 JUMP JUMPDEST DUP1 PUSH4 0x95EA7B3 GT PUSH2 0x1B6 JUMPI DUP1 PUSH4 0x95EA7B3 EQ PUSH2 0x282 JUMPI DUP1 PUSH4 0x23B872DD EQ PUSH2 0x2AB JUMPI DUP1 PUSH4 0x3659CFE6 EQ PUSH2 0x2D4 JUMPI DUP1 PUSH4 0x42842E0E EQ PUSH2 0x2FD JUMPI PUSH2 0x1D8 JUMP JUMPDEST DUP1 PUSH4 0x1FFC9A7 EQ PUSH2 0x1DD JUMPI DUP1 PUSH4 0x6FDDE03 EQ PUSH2 0x21A JUMPI DUP1 PUSH4 0x81812FC EQ PUSH2 0x245 JUMPI JUMPDEST PUSH1 0x0 DUP1 REVERT JUMPDEST CALLVALUE DUP1 ISZERO PUSH2 0x1E9 JUMPI PUSH1 0x0 DUP1 REVERT JUMPDEST POP PUSH2 0x204 PUSH1 0x4 DUP1 CALLDATASIZE SUB DUP2 ADD SWAP1 PUSH2 0x1FF SWAP2 SWAP1 PUSH2 0x31D2 JUMP JUMPDEST PUSH2 0x77D JUMP JUMPDEST PUSH1 0x40 MLOAD PUSH2 0x211 SWAP2 SWAP1 PUSH2 0x321A JUMP JUMPDEST PUSH1 0x40 MLOAD DUP1 SWAP2 SUB SWAP1 RETURN JUMPDEST CALLVALUE DUP1 ISZERO PUSH2 0x226 JUMPI PUSH1 0x0 DUP1 REVERT JUMPDEST POP PUSH2 0x22F PUSH2 0x85F JUMP JUMPDEST PUSH1 0x40 MLOAD PUSH2 0x23C SWAP2 SWAP1 PUSH2 0x32C5 JUMP JUMPDEST PUSH1 0x40 MLOAD DUP1 SWAP2 SUB SWAP1 RETURN JUMPDEST CALLVALUE DUP1 ISZERO PUSH2 0x251 JUMPI PUSH1 0x0 DUP1 REVERT JUMPDEST POP PUSH2 0x26C PUSH1 0x4 DUP1 CALLDATASIZE SUB DUP2 ADD SWAP1 PUSH2 0x267 SWAP2 SWAP1 PUSH2 0x331D JUMP JUMPDEST PUSH2 0x8F1 JUMP JUMPDEST PUSH1 0x40 MLOAD PUSH2 0x279 SWAP2 SWAP1 PUSH2 0x338B JUMP JUMPDEST PUSH1 0x40 MLOAD DUP1 SWAP2 SUB SWAP1 RETURN JUMPDEST CALLVALUE DUP1 ISZERO PUSH2 0x28E JUMPI PUSH1 0x0 DUP1 REVERT JUMPDEST POP PUSH2 0x2A9 PUSH1 0x4 DUP1 CALLDATASIZE SUB DUP2 ADD SWAP1 PUSH2 0x2A4 SWAP2 SWAP1 PUSH2 0x33D2 JUMP JUMPDEST PUSH2 0x937 JUMP JUMPDEST STOP JUMPDEST CALLVALUE DUP1 ISZERO PUSH2 0x2B7 JUMPI PUSH1 0x0 DUP1 REVERT JUMPDEST POP PUSH2 0x2D2 PUSH1 0x4 DUP1 CALLDATASIZE SUB DUP2 ADD SWAP1 PUSH2 0x2CD SWAP2 SWAP1 PUSH2 0x3412 JUMP JUMPDEST PUSH2 0xA4E JUMP JUMPDEST STOP JUMPDEST CALLVALUE DUP1 ISZERO PUSH2 0x2E0 JUMPI PUSH1 0x0 DUP1 REVERT JUMPDEST POP PUSH2 0x2FB PUSH1 0x4 DUP1 CALLDATASIZE SUB DUP2 ADD SWAP1 PUSH2 0x2F6 SWAP2 SWAP1 PUSH2 0x3465 JUMP JUMPDEST PUSH2 0xAAE JUMP JUMPDEST STOP JUMPDEST CALLVALUE DUP1 ISZERO PUSH2 0x309 JUMPI PUSH1 0x0 DUP1 REVERT JUMPDEST POP PUSH2 0x324 PUSH1 0x4 DUP1 CALLDATASIZE SUB DUP2 ADD SWAP1 PUSH2 0x31F SWAP2 SWAP1 PUSH2 0x3412 JUMP JUMPDEST PUSH2 0xC36 JUMP JUMPDEST STOP JUMPDEST PUSH2 0x340 PUSH1 0x4 DUP1 CALLDATASIZE SUB DUP2 ADD SWAP1 PUSH2 0x33B SWAP2 SWAP1 PUSH2 0x35C7 JUMP JUMPDEST PUSH2 0xC56 JUMP JUMPDEST STOP JUMPDEST CALLVALUE DUP1 ISZERO PUSH2 0x34E JUMPI PUSH1 0x0 DUP1 REVERT JUMPDEST POP PUSH2 0x357 PUSH2 0xD92 JUMP JUMPDEST PUSH1 0x40 MLOAD PUSH2 0x364 SWAP2 SWAP1 PUSH2 0x363C JUMP JUMPDEST PUSH1 0x40 MLOAD DUP1 SWAP2 SUB SWAP1 RETURN JUMPDEST CALLVALUE DUP1 ISZERO PUSH2 0x379 JUMPI PUSH1 0x0 DUP1 REVERT JUMPDEST POP PUSH2 0x394 PUSH1 0x4 DUP1 CALLDATASIZE SUB DUP2 ADD SWAP1 PUSH2 0x38F SWAP2 SWAP1 PUSH2 0x3695 JUMP JUMPDEST PUSH2 0xE4B JUMP JUMPDEST STOP JUMPDEST CALLVALUE DUP1 ISZERO PUSH2 0x3A2 JUMPI PUSH1 0x0 DUP1 REVERT JUMPDEST POP PUSH2 0x3BD PUSH1 0x4 DUP1 CALLDATASIZE SUB DUP2 ADD SWAP1 PUSH2 0x3B8 SWAP2 SWAP1 PUSH2 0x331D JUMP JUMPDEST PUSH2 0xE98 JUMP JUMPDEST STOP JUMPDEST CALLVALUE DUP1 ISZERO PUSH2 0x3CB JUMPI PUSH1 0x0 DUP1 REVERT JUMPDEST POP PUSH2 0x3E6 PUSH1 0x4 DUP1 CALLDATASIZE SUB DUP2 ADD SWAP1 PUSH2 0x3E1 SWAP2 SWAP1 PUSH2 0x331D JUMP JUMPDEST PUSH2 0xEAB JUMP JUMPDEST STOP JUMPDEST CALLVALUE DUP1 ISZERO PUSH2 0x3F4 JUMPI PUSH1 0x0 DUP1 REVERT JUMPDEST POP PUSH2 0x40F PUSH1 0x4 DUP1 CALLDATASIZE SUB DUP2 ADD SWAP1 PUSH2 0x40A SWAP2 SWAP1 PUSH2 0x331D JUMP JUMPDEST PUSH2 0xEBE JUMP JUMPDEST PUSH1 0x40 MLOAD PUSH2 0x41C SWAP2 SWAP1 PUSH2 0x338B JUMP JUMPDEST PUSH1 0x40 MLOAD DUP1 SWAP2 SUB SWAP1 RETURN JUMPDEST CALLVALUE DUP1 ISZERO PUSH2 0x431 JUMPI PUSH1 0x0 DUP1 REVERT JUMPDEST POP PUSH2 0x44C PUSH1 0x4 DUP1 CALLDATASIZE SUB DUP2 ADD SWAP1 PUSH2 0x447 SWAP2 SWAP1 PUSH2 0x3722 JUMP JUMPDEST PUSH2 0xF6F JUMP JUMPDEST STOP JUMPDEST CALLVALUE DUP1 ISZERO PUSH2 0x45A JUMPI PUSH1 0x0 DUP1 REVERT JUMPDEST POP PUSH2 0x475 PUSH1 0x4 DUP1 CALLDATASIZE SUB DUP2 ADD SWAP1 PUSH2 0x470 SWAP2 SWAP1 PUSH2 0x3465 JUMP JUMPDEST PUSH2 0x1083 JUMP JUMPDEST PUSH1 0x40 MLOAD PUSH2 0x482 SWAP2 SWAP1 PUSH2 0x377E JUMP JUMPDEST PUSH1 0x40 MLOAD DUP1 SWAP2 SUB SWAP1 RETURN JUMPDEST CALLVALUE DUP1 ISZERO PUSH2 0x497 JUMPI PUSH1 0x0 DUP1 REVERT JUMPDEST POP PUSH2 0x4A0 PUSH2 0x113A JUMP JUMPDEST STOP JUMPDEST CALLVALUE DUP1 ISZERO PUSH2 0x4AE JUMPI PUSH1 0x0 DUP1 REVERT JUMPDEST POP PUSH2 0x4B7 PUSH2 0x114E JUMP JUMPDEST STOP JUMPDEST CALLVALUE DUP1 ISZERO PUSH2 0x4C5 JUMPI PUSH1 0x0 DUP1 REVERT JUMPDEST POP PUSH2 0x4E0 PUSH1 0x4 DUP1 CALLDATASIZE SUB DUP2 ADD SWAP1 PUSH2 0x4DB SWAP2 SWAP1 PUSH2 0x331D JUMP JUMPDEST PUSH2 0x1323 JUMP JUMPDEST PUSH1 0x40 MLOAD PUSH2 0x4ED SWAP2 SWAP1 PUSH2 0x3832 JUMP JUMPDEST PUSH1 0x40 MLOAD DUP1 SWAP2 SUB SWAP1 RETURN JUMPDEST CALLVALUE DUP1 ISZERO PUSH2 0x502 JUMPI PUSH1 0x0 DUP1 REVERT JUMPDEST POP PUSH2 0x50B PUSH2 0x14BD JUMP JUMPDEST PUSH1 0x40 MLOAD PUSH2 0x518 SWAP2 SWAP1 PUSH2 0x338B JUMP JUMPDEST PUSH1 0x40 MLOAD DUP1 SWAP2 SUB SWAP1 RETURN JUMPDEST CALLVALUE DUP1 ISZERO PUSH2 0x52D JUMPI PUSH1 0x0 DUP1 REVERT JUMPDEST POP PUSH2 0x536 PUSH2 0x14E7 JUMP JUMPDEST PUSH1 0x40 MLOAD PUSH2 0x543 SWAP2 SWAP1 PUSH2 0x32C5 JUMP JUMPDEST PUSH1 0x40 MLOAD DUP1 SWAP2 SUB SWAP1 RETURN JUMPDEST CALLVALUE DUP1 ISZERO PUSH2 0x558 JUMPI PUSH1 0x0 DUP1 REVERT JUMPDEST POP PUSH2 0x573 PUSH1 0x4 DUP1 CALLDATASIZE SUB DUP2 ADD SWAP1 PUSH2 0x56E SWAP2 SWAP1 PUSH2 0x3880 JUMP JUMPDEST PUSH2 0x1579 JUMP JUMPDEST STOP JUMPDEST CALLVALUE DUP1 ISZERO PUSH2 0x581 JUMPI PUSH1 0x0 DUP1 REVERT JUMPDEST POP PUSH2 0x59C PUSH1 0x4 DUP1 CALLDATASIZE SUB DUP2 ADD SWAP1 PUSH2 0x597 SWAP2 SWAP1 PUSH2 0x331D JUMP JUMPDEST PUSH2 0x158F JUMP JUMPDEST PUSH1 0x40 MLOAD PUSH2 0x5A9 SWAP2 SWAP1 PUSH2 0x377E JUMP JUMPDEST PUSH1 0x40 MLOAD DUP1 SWAP2 SUB SWAP1 RETURN JUMPDEST CALLVALUE DUP1 ISZERO PUSH2 0x5BE JUMPI PUSH1 0x0 DUP1 REVERT JUMPDEST POP PUSH2 0x5D9 PUSH1 0x4 DUP1 CALLDATASIZE SUB DUP2 ADD SWAP1 PUSH2 0x5D4 SWAP2 SWAP1 PUSH2 0x38EC JUMP JUMPDEST PUSH2 0x166E JUMP JUMPDEST PUSH1 0x40 MLOAD PUSH2 0x5E6 SWAP2 SWAP1 PUSH2 0x321A JUMP JUMPDEST PUSH1 0x40 MLOAD DUP1 SWAP2 SUB SWAP1 RETURN JUMPDEST CALLVALUE DUP1 ISZERO PUSH2 0x5FB JUMPI PUSH1 0x0 DUP1 REVERT JUMPDEST POP PUSH2 0x616 PUSH1 0x4 DUP1 CALLDATASIZE SUB DUP2 ADD SWAP1 PUSH2 0x611 SWAP2 SWAP1 PUSH2 0x3919 JUMP JUMPDEST PUSH2 0x168F JUMP JUMPDEST STOP JUMPDEST CALLVALUE DUP1 ISZERO PUSH2 0x624 JUMPI PUSH1 0x0 DUP1 REVERT JUMPDEST POP PUSH2 0x63F PUSH1 0x4 DUP1 CALLDATASIZE SUB DUP2 ADD SWAP1 PUSH2 0x63A SWAP2 SWAP1 PUSH2 0x331D JUMP JUMPDEST PUSH2 0x16F1 JUMP JUMPDEST PUSH1 0x40 MLOAD PUSH2 0x64D SWAP3 SWAP2 SWAP1 PUSH2 0x39E6 JUMP JUMPDEST PUSH1 0x40 MLOAD DUP1 SWAP2 SUB SWAP1 RETURN JUMPDEST CALLVALUE DUP1 ISZERO PUSH2 0x662 JUMPI PUSH1 0x0 DUP1 REVERT JUMPDEST POP PUSH2 0x66B PUSH2 0x1826 JUMP JUMPDEST PUSH1 0x40 MLOAD PUSH2 0x678 SWAP2 SWAP1 PUSH2 0x3A7C JUMP JUMPDEST PUSH1 0x40 MLOAD DUP1 SWAP2 SUB SWAP1 RETURN JUMPDEST CALLVALUE DUP1 ISZERO PUSH2 0x68D JUMPI PUSH1 0x0 DUP1 REVERT JUMPDEST POP PUSH2 0x6A8 PUSH1 0x4 DUP1 CALLDATASIZE SUB DUP2 ADD SWAP1 PUSH2 0x6A3 SWAP2 SWAP1 PUSH2 0x331D JUMP JUMPDEST PUSH2 0x183E JUMP JUMPDEST PUSH1 0x40 MLOAD PUSH2 0x6B5 SWAP2 SWAP1 PUSH2 0x32C5 JUMP JUMPDEST PUSH1 0x40 MLOAD DUP1 SWAP2 SUB SWAP1 RETURN JUMPDEST PUSH2 0x6D8 PUSH1 0x4 DUP1 CALLDATASIZE SUB DUP2 ADD SWAP1 PUSH2 0x6D3 SWAP2 SWAP1 PUSH2 0x3A97 JUMP JUMPDEST PUSH2 0x18A6 JUMP JUMPDEST STOP JUMPDEST CALLVALUE DUP1 ISZERO PUSH2 0x6E6 JUMPI PUSH1 0x0 DUP1 REVERT JUMPDEST POP PUSH2 0x701 PUSH1 0x4 DUP1 CALLDATASIZE SUB DUP2 ADD SWAP1 PUSH2 0x6FC SWAP2 SWAP1 PUSH2 0x3B36 JUMP JUMPDEST PUSH2 0x1C47 JUMP JUMPDEST PUSH1 0x40 MLOAD PUSH2 0x70E SWAP2 SWAP1 PUSH2 0x321A JUMP JUMPDEST PUSH1 0x40 MLOAD DUP1 SWAP2 SUB SWAP1 RETURN JUMPDEST CALLVALUE DUP1 ISZERO PUSH2 0x723 JUMPI PUSH1 0x0 DUP1 REVERT JUMPDEST POP PUSH2 0x73E PUSH1 0x4 DUP1 CALLDATASIZE SUB DUP2 ADD SWAP1 PUSH2 0x739 SWAP2 SWAP1 PUSH2 0x3B76 JUMP JUMPDEST PUSH2 0x1CDB JUMP JUMPDEST PUSH1 0x40 MLOAD PUSH2 0x74B SWAP2 SWAP1 PUSH2 0x338B JUMP JUMPDEST PUSH1 0x40 MLOAD DUP1 SWAP2 SUB SWAP1 RETURN JUMPDEST CALLVALUE DUP1 ISZERO PUSH2 0x760 JUMPI PUSH1 0x0 DUP1 REVERT JUMPDEST POP PUSH2 0x77B PUSH1 0x4 DUP1 CALLDATASIZE SUB DUP2 ADD SWAP1 PUSH2 0x776 SWAP2 SWAP1 PUSH2 0x3465 JUMP JUMPDEST PUSH2 0x1D25 JUMP JUMPDEST STOP JUMPDEST PUSH1 0x0 PUSH32 0x80AC58CD00000000000000000000000000000000000000000000000000000000 PUSH28 0xFFFFFFFFFFFFFFFFFFFFFFFFFFFFFFFFFFFFFFFFFFFFFFFFFFFFFFFF NOT AND DUP3 PUSH28 0xFFFFFFFFFFFFFFFFFFFFFFFFFFFFFFFFFFFFFFFFFFFFFFFFFFFFFFFF NOT AND EQ DUP1 PUSH2 0x848 JUMPI POP PUSH32 0x5B5E139F00000000000000000000000000000000000000000000000000000000 PUSH28 0xFFFFFFFFFFFFFFFFFFFFFFFFFFFFFFFFFFFFFFFFFFFFFFFFFFFFFFFF NOT AND DUP3 PUSH28 0xFFFFFFFFFFFFFFFFFFFFFFFFFFFFFFFFFFFFFFFFFFFFFFFFFFFFFFFF NOT AND EQ JUMPDEST DUP1 PUSH2 0x858 JUMPI POP PUSH2 0x857 DUP3 PUSH2 0x1DA8 JUMP JUMPDEST JUMPDEST SWAP1 POP SWAP2 SWAP1 POP JUMP JUMPDEST PUSH1 0x60 PUSH1 0x65 DUP1 SLOAD PUSH2 0x86E SWAP1 PUSH2 0x3BEE JUMP JUMPDEST DUP1 PUSH1 0x1F ADD PUSH1 0x20 DUP1 SWAP2 DIV MUL PUSH1 0x20 ADD PUSH1 0x40 MLOAD SWAP1 DUP2 ADD PUSH1 0x40 MSTORE DUP1 SWAP3 SWAP2 SWAP1 DUP2 DUP2 MSTORE PUSH1 0x20 ADD DUP3 DUP1 SLOAD PUSH2 0x89A SWAP1 PUSH2 0x3BEE JUMP JUMPDEST DUP1 ISZERO PUSH2 0x8E7 JUMPI DUP1 PUSH1 0x1F LT PUSH2 0x8BC JUMPI PUSH2 0x100 DUP1 DUP4 SLOAD DIV MUL DUP4 MSTORE SWAP2 PUSH1 0x20 ADD SWAP2 PUSH2 0x8E7 JUMP JUMPDEST DUP3 ADD SWAP2 SWAP1 PUSH1 0x0 MSTORE PUSH1 0x20 PUSH1 0x0 KECCAK256 SWAP1 JUMPDEST DUP2 SLOAD DUP2 MSTORE SWAP1 PUSH1 0x1 ADD SWAP1 PUSH1 0x20 ADD DUP1 DUP4 GT PUSH2 0x8CA JUMPI DUP3 SWAP1 SUB PUSH1 0x1F AND DUP3 ADD SWAP2 JUMPDEST POP POP POP POP POP SWAP1 POP SWAP1 JUMP JUMPDEST PUSH1 0x0 PUSH2 0x8FC DUP3 PUSH2 0x1E12 JUMP JUMPDEST PUSH1 0x69 PUSH1 0x0 DUP4 DUP2 MSTORE PUSH1 0x20 ADD SWAP1 DUP2 MSTORE PUSH1 0x20 ADD PUSH1 0x0 KECCAK256 PUSH1 0x0 SWAP1 SLOAD SWAP1 PUSH2 0x100 EXP SWAP1 DIV PUSH20 0xFFFFFFFFFFFFFFFFFFFFFFFFFFFFFFFFFFFFFFFF AND SWAP1 POP SWAP2 SWAP1 POP JUMP JUMPDEST PUSH1 0x0 PUSH2 0x942 DUP3 PUSH2 0xEBE JUMP JUMPDEST SWAP1 POP DUP1 PUSH20 0xFFFFFFFFFFFFFFFFFFFFFFFFFFFFFFFFFFFFFFFF AND DUP4 PUSH20 0xFFFFFFFFFFFFFFFFFFFFFFFFFFFFFFFFFFFFFFFF AND SUB PUSH2 0x9B2 JUMPI PUSH1 0x40 MLOAD PUSH32 0x8C379A000000000000000000000000000000000000000000000000000000000 DUP2 MSTORE PUSH1 0x4 ADD PUSH2 0x9A9 SWAP1 PUSH2 0x3C91 JUMP JUMPDEST PUSH1 0x40 MLOAD DUP1 SWAP2 SUB SWAP1 REVERT JUMPDEST DUP1 PUSH20 0xFFFFFFFFFFFFFFFFFFFFFFFFFFFFFFFFFFFFFFFF AND PUSH2 0x9D1 PUSH2 0x1E5D JUMP JUMPDEST PUSH20 0xFFFFFFFFFFFFFFFFFFFFFFFFFFFFFFFFFFFFFFFF AND EQ DUP1 PUSH2 0xA00 JUMPI POP PUSH2 0x9FF DUP2 PUSH2 0x9FA PUSH2 0x1E5D JUMP JUMPDEST PUSH2 0x1C47 JUMP JUMPDEST JUMPDEST PUSH2 0xA3F JUMPI PUSH1 0x40 MLOAD PUSH32 0x8C379A000000000000000000000000000000000000000000000000000000000 DUP2 MSTORE PUSH1 0x4 ADD PUSH2 0xA36 SWAP1 PUSH2 0x3D23 JUMP JUMPDEST PUSH1 0x40 MLOAD DUP1 SWAP2 SUB SWAP1 REVERT JUMPDEST PUSH2 0xA49 DUP4 DUP4 PUSH2 0x1E65 JUMP JUMPDEST POP POP POP JUMP JUMPDEST PUSH2 0xA5F PUSH2 0xA59 PUSH2 0x1E5D JUMP JUMPDEST DUP3 PUSH2 0x1F1E JUMP JUMPDEST PUSH2 0xA9E JUMPI PUSH1 0x40 MLOAD PUSH32 0x8C379A000000000000000000000000000000000000000000000000000000000 DUP2 MSTORE PUSH1 0x4 ADD PUSH2 0xA95 SWAP1 PUSH2 0x3DB5 JUMP JUMPDEST PUSH1 0x40 MLOAD DUP1 SWAP2 SUB SWAP1 REVERT JUMPDEST PUSH2 0xAA9 DUP4 DUP4 DUP4 PUSH2 0x1FB3 JUMP JUMPDEST POP POP POP JUMP JUMPDEST PUSH32 0x0 PUSH20 0xFFFFFFFFFFFFFFFFFFFFFFFFFFFFFFFFFFFFFFFF AND ADDRESS PUSH20 0xFFFFFFFFFFFFFFFFFFFFFFFFFFFFFFFFFFFFFFFF AND SUB PUSH2 0xB3C JUMPI PUSH1 0x40 MLOAD PUSH32 0x8C379A000000000000000000000000000000000000000000000000000000000 DUP2 MSTORE PUSH1 0x4 ADD PUSH2 0xB33 SWAP1 PUSH2 0x3E47 JUMP JUMPDEST PUSH1 0x40 MLOAD DUP1 SWAP2 SUB SWAP1 REVERT JUMPDEST PUSH32 0x0 PUSH20 0xFFFFFFFFFFFFFFFFFFFFFFFFFFFFFFFFFFFFFFFF AND PUSH2 0xB7B PUSH2 0x2219 JUMP JUMPDEST PUSH20 0xFFFFFFFFFFFFFFFFFFFFFFFFFFFFFFFFFFFFFFFF AND EQ PUSH2 0xBD1 JUMPI PUSH1 0x40 MLOAD PUSH32 0x8C379A000000000000000000000000000000000000000000000000000000000 DUP2 MSTORE PUSH1 0x4 ADD PUSH2 0xBC8 SWAP1 PUSH2 0x3ED9 JUMP JUMPDEST PUSH1 0x40 MLOAD DUP1 SWAP2 SUB SWAP1 REVERT JUMPDEST PUSH2 0xBDA DUP2 PUSH2 0x2270 JUMP JUMPDEST PUSH2 0xC33 DUP2 PUSH1 0x0 PUSH8 0xFFFFFFFFFFFFFFFF DUP2 GT ISZERO PUSH2 0xBF9 JUMPI PUSH2 0xBF8 PUSH2 0x349C JUMP JUMPDEST JUMPDEST PUSH1 0x40 MLOAD SWAP1 DUP1 DUP3 MSTORE DUP1 PUSH1 0x1F ADD PUSH1 0x1F NOT AND PUSH1 0x20 ADD DUP3 ADD PUSH1 0x40 MSTORE DUP1 ISZERO PUSH2 0xC2B JUMPI DUP2 PUSH1 0x20 ADD PUSH1 0x1 DUP3 MUL DUP1 CALLDATASIZE DUP4 CALLDATACOPY DUP1 DUP3 ADD SWAP2 POP POP SWAP1 POP JUMPDEST POP PUSH1 0x0 PUSH2 0x227B JUMP JUMPDEST POP JUMP JUMPDEST PUSH2 0xC51 DUP4 DUP4 DUP4 PUSH1 0x40 MLOAD DUP1 PUSH1 0x20 ADD PUSH1 0x40 MSTORE DUP1 PUSH1 0x0 DUP2 MSTORE POP PUSH2 0x168F JUMP JUMPDEST POP POP POP JUMP JUMPDEST PUSH32 0x0 PUSH20 0xFFFFFFFFFFFFFFFFFFFFFFFFFFFFFFFFFFFFFFFF AND ADDRESS PUSH20 0xFFFFFFFFFFFFFFFFFFFFFFFFFFFFFFFFFFFFFFFF AND SUB PUSH2 0xCE4 JUMPI PUSH1 0x40 MLOAD PUSH32 0x8C379A000000000000000000000000000000000000000000000000000000000 DUP2 MSTORE PUSH1 0x4 ADD PUSH2 0xCDB SWAP1 PUSH2 0x3E47 JUMP JUMPDEST PUSH1 0x40 MLOAD DUP1 SWAP2 SUB SWAP1 REVERT JUMPDEST PUSH32 0x0 PUSH20 0xFFFFFFFFFFFFFFFFFFFFFFFFFFFFFFFFFFFFFFFF AND PUSH2 0xD23 PUSH2 0x2219 JUMP JUMPDEST PUSH20 0xFFFFFFFFFFFFFFFFFFFFFFFFFFFFFFFFFFFFFFFF AND EQ PUSH2 0xD79 JUMPI PUSH1 0x40 MLOAD PUSH32 0x8C379A000000000000000000000000000000000000000000000000000000000 DUP2 MSTORE PUSH1 0x4 ADD PUSH2 0xD70 SWAP1 PUSH2 0x3ED9 JUMP JUMPDEST PUSH1 0x40 MLOAD DUP1 SWAP2 SUB SWAP1 REVERT JUMPDEST PUSH2 0xD82 DUP3 PUSH2 0x2270 JUMP JUMPDEST PUSH2 0xD8E DUP3 DUP3 PUSH1 0x1 PUSH2 0x227B JUMP JUMPDEST POP POP JUMP JUMPDEST PUSH1 0x0 PUSH32 0x0 PUSH20 0xFFFFFFFFFFFFFFFFFFFFFFFFFFFFFFFFFFFFFFFF AND ADDRESS PUSH20 0xFFFFFFFFFFFFFFFFFFFFFFFFFFFFFFFFFFFFFFFF AND EQ PUSH2 0xE22 JUMPI PUSH1 0x40 MLOAD PUSH32 0x8C379A000000000000000000000000000000000000000000000000000000000 DUP2 MSTORE PUSH1 0x4 ADD PUSH2 0xE19 SWAP1 PUSH2 0x3F6B JUMP JUMPDEST PUSH1 0x40 MLOAD DUP1 SWAP2 SUB SWAP1 REVERT JUMPDEST PUSH32 0x360894A13BA1A3210667C828492DB98DCA3E2076CC3735A920A3CA505D382BBC PUSH1 0x0 SHL SWAP1 POP SWAP1 JUMP JUMPDEST PUSH2 0xE53 PUSH2 0x23E9 JUMP JUMPDEST DUP1 PUSH2 0x133 PUSH1 0x0 PUSH2 0x100 EXP DUP2 SLOAD DUP2 PUSH20 0xFFFFFFFFFFFFFFFFFFFFFFFFFFFFFFFFFFFFFFFF MUL NOT AND SWAP1 DUP4 PUSH20 0xFFFFFFFFFFFFFFFFFFFFFFFFFFFFFFFFFFFFFFFF AND MUL OR SWAP1 SSTORE POP POP JUMP JUMPDEST PUSH2 0xEA0 PUSH2 0x23E9 JUMP JUMPDEST DUP1 PUSH2 0x132 DUP2 SWAP1 SSTORE POP POP JUMP JUMPDEST PUSH2 0xEB3 PUSH2 0x23E9 JUMP JUMPDEST DUP1 PUSH2 0x131 DUP2 SWAP1 SSTORE POP POP JUMP JUMPDEST PUSH1 0x0 DUP1 PUSH1 0x67 PUSH1 0x0 DUP5 DUP2 MSTORE PUSH1 0x20 ADD SWAP1 DUP2 MSTORE PUSH1 0x20 ADD PUSH1 0x0 KECCAK256 PUSH1 0x0 SWAP1 SLOAD SWAP1 PUSH2 0x100 EXP SWAP1 DIV PUSH20 0xFFFFFFFFFFFFFFFFFFFFFFFFFFFFFFFFFFFFFFFF AND SWAP1 POP PUSH1 0x0 PUSH20 0xFFFFFFFFFFFFFFFFFFFFFFFFFFFFFFFFFFFFFFFF AND DUP2 PUSH20 0xFFFFFFFFFFFFFFFFFFFFFFFFFFFFFFFFFFFFFFFF AND SUB PUSH2 0xF66 JUMPI PUSH1 0x40 MLOAD PUSH32 0x8C379A000000000000000000000000000000000000000000000000000000000 DUP2 MSTORE PUSH1 0x4 ADD PUSH2 0xF5D SWAP1 PUSH2 0x3FD7 JUMP JUMPDEST PUSH1 0x40 MLOAD DUP1 SWAP2 SUB SWAP1 REVERT JUMPDEST DUP1 SWAP2 POP POP SWAP2 SWAP1 POP JUMP JUMPDEST PUSH1 0x0 PUSH20 0xFFFFFFFFFFFFFFFFFFFFFFFFFFFFFFFFFFFFFFFF AND PUSH2 0x12F DUP4 DUP4 PUSH1 0x40 MLOAD PUSH2 0xF9A SWAP3 SWAP2 SWAP1 PUSH2 0x4027 JUMP JUMPDEST SWAP1 DUP2 MSTORE PUSH1 0x20 ADD PUSH1 0x40 MLOAD DUP1 SWAP2 SUB SWAP1 KECCAK256 PUSH1 0x0 SWAP1 SLOAD SWAP1 PUSH2 0x100 EXP SWAP1 DIV PUSH20 0xFFFFFFFFFFFFFFFFFFFFFFFFFFFFFFFFFFFFFFFF AND PUSH20 0xFFFFFFFFFFFFFFFFFFFFFFFFFFFFFFFFFFFFFFFF AND EQ PUSH2 0x101F JUMPI PUSH1 0x40 MLOAD PUSH32 0x8C379A000000000000000000000000000000000000000000000000000000000 DUP2 MSTORE PUSH1 0x4 ADD PUSH2 0x1016 SWAP1 PUSH2 0x408C JUMP JUMPDEST PUSH1 0x40 MLOAD DUP1 SWAP2 SUB SWAP1 REVERT JUMPDEST CALLER PUSH2 0x12F DUP4 DUP4 PUSH1 0x40 MLOAD PUSH2 0x1033 SWAP3 SWAP2 SWAP1 PUSH2 0x4027 JUMP JUMPDEST SWAP1 DUP2 MSTORE PUSH1 0x20 ADD PUSH1 0x40 MLOAD DUP1 SWAP2 SUB SWAP1 KECCAK256 PUSH1 0x0 PUSH2 0x100 EXP DUP2 SLOAD DUP2 PUSH20 0xFFFFFFFFFFFFFFFFFFFFFFFFFFFFFFFFFFFFFFFF MUL NOT AND SWAP1 DUP4 PUSH20 0xFFFFFFFFFFFFFFFFFFFFFFFFFFFFFFFFFFFFFFFF AND MUL OR SWAP1 SSTORE POP POP POP JUMP JUMPDEST PUSH1 0x0 DUP1 PUSH20 0xFFFFFFFFFFFFFFFFFFFFFFFFFFFFFFFFFFFFFFFF AND DUP3 PUSH20 0xFFFFFFFFFFFFFFFFFFFFFFFFFFFFFFFFFFFFFFFF AND SUB PUSH2 0x10F3 JUMPI PUSH1 0x40 MLOAD PUSH32 0x8C379A000000000000000000000000000000000000000000000000000000000 DUP2 MSTORE PUSH1 0x4 ADD PUSH2 0x10EA SWAP1 PUSH2 0x411E JUMP JUMPDEST PUSH1 0x40 MLOAD DUP1 SWAP2 SUB SWAP1 REVERT JUMPDEST PUSH1 0x68 PUSH1 0x0 DUP4 PUSH20 0xFFFFFFFFFFFFFFFFFFFFFFFFFFFFFFFFFFFFFFFF AND PUSH20 0xFFFFFFFFFFFFFFFFFFFFFFFFFFFFFFFFFFFFFFFF AND DUP2 MSTORE PUSH1 0x20 ADD SWAP1 DUP2 MSTORE PUSH1 0x20 ADD PUSH1 0x0 KECCAK256 SLOAD SWAP1 POP SWAP2 SWAP1 POP JUMP JUMPDEST PUSH2 0x1142 PUSH2 0x23E9 JUMP JUMPDEST PUSH2 0x114C PUSH1 0x0 PUSH2 0x2467 JUMP JUMPDEST JUMP JUMPDEST PUSH1 0x0 DUP1 PUSH1 0x1 SWAP1 SLOAD SWAP1 PUSH2 0x100 EXP SWAP1 DIV PUSH1 0xFF AND ISZERO SWAP1 POP DUP1 DUP1 ISZERO PUSH2 0x117F JUMPI POP PUSH1 0x1 PUSH1 0x0 DUP1 SLOAD SWAP1 PUSH2 0x100 EXP SWAP1 DIV PUSH1 0xFF AND PUSH1 0xFF AND LT JUMPDEST DUP1 PUSH2 0x11AC JUMPI POP PUSH2 0x118E ADDRESS PUSH2 0x252D JUMP JUMPDEST ISZERO DUP1 ISZERO PUSH2 0x11AB JUMPI POP PUSH1 0x1 PUSH1 0x0 DUP1 SLOAD SWAP1 PUSH2 0x100 EXP SWAP1 DIV PUSH1 0xFF AND PUSH1 0xFF AND EQ JUMPDEST JUMPDEST PUSH2 0x11EB JUMPI PUSH1 0x40 MLOAD PUSH32 0x8C379A000000000000000000000000000000000000000000000000000000000 DUP2 MSTORE PUSH1 0x4 ADD PUSH2 0x11E2 SWAP1 PUSH2 0x41B0 JUMP JUMPDEST PUSH1 0x40 MLOAD DUP1 SWAP2 SUB SWAP1 REVERT JUMPDEST PUSH1 0x1 PUSH1 0x0 DUP1 PUSH2 0x100 EXP DUP2 SLOAD DUP2 PUSH1 0xFF MUL NOT AND SWAP1 DUP4 PUSH1 0xFF AND MUL OR SWAP1 SSTORE POP DUP1 ISZERO PUSH2 0x1228 JUMPI PUSH1 0x1 PUSH1 0x0 PUSH1 0x1 PUSH2 0x100 EXP DUP2 SLOAD DUP2 PUSH1 0xFF MUL NOT AND SWAP1 DUP4 ISZERO ISZERO MUL OR SWAP1 SSTORE POP JUMPDEST PUSH2 0x129C PUSH1 0x40 MLOAD DUP1 PUSH1 0x40 ADD PUSH1 0x40 MSTORE DUP1 PUSH1 0x7 DUP2 MSTORE PUSH1 0x20 ADD PUSH32 0x47616E50756E6B00000000000000000000000000000000000000000000000000 DUP2 MSTORE POP PUSH1 0x40 MLOAD DUP1 PUSH1 0x40 ADD PUSH1 0x40 MSTORE DUP1 PUSH1 0x5 DUP2 MSTORE PUSH1 0x20 ADD PUSH32 0x4750756E6B000000000000000000000000000000000000000000000000000000 DUP2 MSTORE POP PUSH2 0x2550 JUMP JUMPDEST PUSH2 0x12A4 PUSH2 0x25AD JUMP JUMPDEST PUSH2 0x12AC PUSH2 0x2606 JUMP JUMPDEST PUSH1 0x32 PUSH2 0x130 DUP2 SWAP1 SSTORE POP PUSH1 0x3C PUSH2 0x131 DUP2 SWAP1 SSTORE POP PUSH1 0x28 PUSH2 0x132 DUP2 SWAP1 SSTORE POP DUP1 ISZERO PUSH2 0x1320 JUMPI PUSH1 0x0 DUP1 PUSH1 0x1 PUSH2 0x100 EXP DUP2 SLOAD DUP2 PUSH1 0xFF MUL NOT AND SWAP1 DUP4 ISZERO ISZERO MUL OR SWAP1 SSTORE POP PUSH32 0x7F26B83FF96E1F2B6A682F133852F6798A09C465DA95921460CEFB3847402498 PUSH1 0x1 PUSH1 0x40 MLOAD PUSH2 0x1317 SWAP2 SWAP1 PUSH2 0x4218 JUMP JUMPDEST PUSH1 0x40 MLOAD DUP1 SWAP2 SUB SWAP1 LOG1 JUMPDEST POP JUMP JUMPDEST PUSH2 0x132B PUSH2 0x314C JUMP JUMPDEST PUSH2 0x1334 DUP3 PUSH2 0x2657 JUMP JUMPDEST PUSH2 0x1373 JUMPI PUSH1 0x40 MLOAD PUSH32 0x8C379A000000000000000000000000000000000000000000000000000000000 DUP2 MSTORE PUSH1 0x4 ADD PUSH2 0x136A SWAP1 PUSH2 0x427F JUMP JUMPDEST PUSH1 0x40 MLOAD DUP1 SWAP2 SUB SWAP1 REVERT JUMPDEST PUSH2 0x12E PUSH1 0x0 DUP4 DUP2 MSTORE PUSH1 0x20 ADD SWAP1 DUP2 MSTORE PUSH1 0x20 ADD PUSH1 0x0 KECCAK256 PUSH1 0x40 MLOAD DUP1 PUSH1 0x40 ADD PUSH1 0x40 MSTORE SWAP1 DUP2 PUSH1 0x0 DUP3 ADD DUP1 SLOAD PUSH2 0x13A2 SWAP1 PUSH2 0x3BEE JUMP JUMPDEST DUP1 PUSH1 0x1F ADD PUSH1 0x20 DUP1 SWAP2 DIV MUL PUSH1 0x20 ADD PUSH1 0x40 MLOAD SWAP1 DUP2 ADD PUSH1 0x40 MSTORE DUP1 SWAP3 SWAP2 SWAP1 DUP2 DUP2 MSTORE PUSH1 0x20 ADD DUP3 DUP1 SLOAD PUSH2 0x13CE SWAP1 PUSH2 0x3BEE JUMP JUMPDEST DUP1 ISZERO PUSH2 0x141B JUMPI DUP1 PUSH1 0x1F LT PUSH2 0x13F0 JUMPI PUSH2 0x100 DUP1 DUP4 SLOAD DIV MUL DUP4 MSTORE SWAP2 PUSH1 0x20 ADD SWAP2 PUSH2 0x141B JUMP JUMPDEST DUP3 ADD SWAP2 SWAP1 PUSH1 0x0 MSTORE PUSH1 0x20 PUSH1 0x0 KECCAK256 SWAP1 JUMPDEST DUP2 SLOAD DUP2 MSTORE SWAP1 PUSH1 0x1 ADD SWAP1 PUSH1 0x20 ADD DUP1 DUP4 GT PUSH2 0x13FE JUMPI DUP3 SWAP1 SUB PUSH1 0x1F AND DUP3 ADD SWAP2 JUMPDEST POP POP POP POP POP DUP2 MSTORE PUSH1 0x20 ADD PUSH1 0x1 DUP3 ADD DUP1 SLOAD PUSH2 0x1434 SWAP1 PUSH2 0x3BEE JUMP JUMPDEST DUP1 PUSH1 0x1F ADD PUSH1 0x20 DUP1 SWAP2 DIV MUL PUSH1 0x20 ADD PUSH1 0x40 MLOAD SWAP1 DUP2 ADD PUSH1 0x40 MSTORE DUP1 SWAP3 SWAP2 SWAP1 DUP2 DUP2 MSTORE PUSH1 0x20 ADD DUP3 DUP1 SLOAD PUSH2 0x1460 SWAP1 PUSH2 0x3BEE JUMP JUMPDEST DUP1 ISZERO PUSH2 0x14AD JUMPI DUP1 PUSH1 0x1F LT PUSH2 0x1482 JUMPI PUSH2 0x100 DUP1 DUP4 SLOAD DIV MUL DUP4 MSTORE SWAP2 PUSH1 0x20 ADD SWAP2 PUSH2 0x14AD JUMP JUMPDEST DUP3 ADD SWAP2 SWAP1 PUSH1 0x0 MSTORE PUSH1 0x20 PUSH1 0x0 KECCAK256 SWAP1 JUMPDEST DUP2 SLOAD DUP2 MSTORE SWAP1 PUSH1 0x1 ADD SWAP1 PUSH1 0x20 ADD DUP1 DUP4 GT PUSH2 0x1490 JUMPI DUP3 SWAP1 SUB PUSH1 0x1F AND DUP3 ADD SWAP2 JUMPDEST POP POP POP POP POP DUP2 MSTORE POP POP SWAP1 POP SWAP2 SWAP1 POP JUMP JUMPDEST PUSH1 0x0 PUSH1 0x97 PUSH1 0x0 SWAP1 SLOAD SWAP1 PUSH2 0x100 EXP SWAP1 DIV PUSH20 0xFFFFFFFFFFFFFFFFFFFFFFFFFFFFFFFFFFFFFFFF AND SWAP1 POP SWAP1 JUMP JUMPDEST PUSH1 0x60 PUSH1 0x66 DUP1 SLOAD PUSH2 0x14F6 SWAP1 PUSH2 0x3BEE JUMP JUMPDEST DUP1 PUSH1 0x1F ADD PUSH1 0x20 DUP1 SWAP2 DIV MUL PUSH1 0x20 ADD PUSH1 0x40 MLOAD SWAP1 DUP2 ADD PUSH1 0x40 MSTORE DUP1 SWAP3 SWAP2 SWAP1 DUP2 DUP2 MSTORE PUSH1 0x20 ADD DUP3 DUP1 SLOAD PUSH2 0x1522 SWAP1 PUSH2 0x3BEE JUMP JUMPDEST DUP1 ISZERO PUSH2 0x156F JUMPI DUP1 PUSH1 0x1F LT PUSH2 0x1544 JUMPI PUSH2 0x100 DUP1 DUP4 SLOAD DIV MUL DUP4 MSTORE SWAP2 PUSH1 0x20 ADD SWAP2 PUSH2 0x156F JUMP JUMPDEST DUP3 ADD SWAP2 SWAP1 PUSH1 0x0 MSTORE PUSH1 0x20 PUSH1 0x0 KECCAK256 SWAP1 JUMPDEST DUP2 SLOAD DUP2 MSTORE SWAP1 PUSH1 0x1 ADD SWAP1 PUSH1 0x20 ADD DUP1 DUP4 GT PUSH2 0x1552 JUMPI DUP3 SWAP1 SUB PUSH1 0x1F AND DUP3 ADD SWAP2 JUMPDEST POP POP POP POP POP SWAP1 POP SWAP1 JUMP JUMPDEST PUSH2 0x158B PUSH2 0x1584 PUSH2 0x1E5D JUMP JUMPDEST DUP4 DUP4 PUSH2 0x26C3 JUMP JUMPDEST POP POP JUMP JUMPDEST PUSH1 0x0 DUP1 PUSH20 0x6B175474E89094C44DA98B954EEDEAC495271D0F SWAP1 POP PUSH1 0x0 PUSH20 0xC02AAA39B223FE8D0A0E5C4F27EAD9083C756CC2 SWAP1 POP PUSH1 0x0 PUSH2 0x1F4 SWAP1 POP PUSH1 0x0 PUSH20 0xB27308F9F90D607463BB33EA1BEBB41C27CE5AB6 PUSH20 0xFFFFFFFFFFFFFFFFFFFFFFFFFFFFFFFFFFFFFFFF AND PUSH4 0xF7729D43 DUP6 DUP6 DUP6 DUP11 DUP7 PUSH1 0x40 MLOAD DUP7 PUSH4 0xFFFFFFFF AND PUSH1 0xE0 SHL DUP2 MSTORE PUSH1 0x4 ADD PUSH2 0x1620 SWAP6 SWAP5 SWAP4 SWAP3 SWAP2 SWAP1 PUSH2 0x42CC JUMP JUMPDEST PUSH1 0x20 PUSH1 0x40 MLOAD DUP1 DUP4 SUB DUP2 PUSH1 0x0 DUP8 GAS CALL ISZERO DUP1 ISZERO PUSH2 0x163F JUMPI RETURNDATASIZE PUSH1 0x0 DUP1 RETURNDATACOPY RETURNDATASIZE PUSH1 0x0 REVERT JUMPDEST POP POP POP POP PUSH1 0x40 MLOAD RETURNDATASIZE PUSH1 0x1F NOT PUSH1 0x1F DUP3 ADD AND DUP3 ADD DUP1 PUSH1 0x40 MSTORE POP DUP2 ADD SWAP1 PUSH2 0x1663 SWAP2 SWAP1 PUSH2 0x4334 JUMP JUMPDEST SWAP5 POP POP POP POP POP SWAP2 SWAP1 POP JUMP JUMPDEST PUSH2 0x12D PUSH1 0x20 MSTORE DUP1 PUSH1 0x0 MSTORE PUSH1 0x40 PUSH1 0x0 KECCAK256 PUSH1 0x0 SWAP2 POP SLOAD SWAP1 PUSH2 0x100 EXP SWAP1 DIV PUSH1 0xFF AND DUP2 JUMP JUMPDEST PUSH2 0x16A0 PUSH2 0x169A PUSH2 0x1E5D JUMP JUMPDEST DUP4 PUSH2 0x1F1E JUMP JUMPDEST PUSH2 0x16DF JUMPI PUSH1 0x40 MLOAD PUSH32 0x8C379A000000000000000000000000000000000000000000000000000000000 DUP2 MSTORE PUSH1 0x4 ADD PUSH2 0x16D6 SWAP1 PUSH2 0x3DB5 JUMP JUMPDEST PUSH1 0x40 MLOAD DUP1 SWAP2 SUB SWAP1 REVERT JUMPDEST PUSH2 0x16EB DUP5 DUP5 DUP5 DUP5 PUSH2 0x282F JUMP JUMPDEST POP POP POP POP JUMP JUMPDEST PUSH2 0x12E PUSH1 0x20 MSTORE DUP1 PUSH1 0x0 MSTORE PUSH1 0x40 PUSH1 0x0 KECCAK256 PUSH1 0x0 SWAP2 POP SWAP1 POP DUP1 PUSH1 0x0 ADD DUP1 SLOAD PUSH2 0x1715 SWAP1 PUSH2 0x3BEE JUMP JUMPDEST DUP1 PUSH1 0x1F ADD PUSH1 0x20 DUP1 SWAP2 DIV MUL PUSH1 0x20 ADD PUSH1 0x40 MLOAD SWAP1 DUP2 ADD PUSH1 0x40 MSTORE DUP1 SWAP3 SWAP2 SWAP1 DUP2 DUP2 MSTORE PUSH1 0x20 ADD DUP3 DUP1 SLOAD PUSH2 0x1741 SWAP1 PUSH2 0x3BEE JUMP JUMPDEST DUP1 ISZERO PUSH2 0x178E JUMPI DUP1 PUSH1 0x1F LT PUSH2 0x1763 JUMPI PUSH2 0x100 DUP1 DUP4 SLOAD DIV MUL DUP4 MSTORE SWAP2 PUSH1 0x20 ADD SWAP2 PUSH2 0x178E JUMP JUMPDEST DUP3 ADD SWAP2 SWAP1 PUSH1 0x0 MSTORE PUSH1 0x20 PUSH1 0x0 KECCAK256 SWAP1 JUMPDEST DUP2 SLOAD DUP2 MSTORE SWAP1 PUSH1 0x1 ADD SWAP1 PUSH1 0x20 ADD DUP1 DUP4 GT PUSH2 0x1771 JUMPI DUP3 SWAP1 SUB PUSH1 0x1F AND DUP3 ADD SWAP2 JUMPDEST POP POP POP POP POP SWAP1 DUP1 PUSH1 0x1 ADD DUP1 SLOAD PUSH2 0x17A3 SWAP1 PUSH2 0x3BEE JUMP JUMPDEST DUP1 PUSH1 0x1F ADD PUSH1 0x20 DUP1 SWAP2 DIV MUL PUSH1 0x20 ADD PUSH1 0x40 MLOAD SWAP1 DUP2 ADD PUSH1 0x40 MSTORE DUP1 SWAP3 SWAP2 SWAP1 DUP2 DUP2 MSTORE PUSH1 0x20 ADD DUP3 DUP1 SLOAD PUSH2 0x17CF SWAP1 PUSH2 0x3BEE JUMP JUMPDEST DUP1 ISZERO PUSH2 0x181C JUMPI DUP1 PUSH1 0x1F LT PUSH2 0x17F1 JUMPI PUSH2 0x100 DUP1 DUP4 SLOAD DIV MUL DUP4 MSTORE SWAP2 PUSH1 0x20 ADD SWAP2 PUSH2 0x181C JUMP JUMPDEST DUP3 ADD SWAP2 SWAP1 PUSH1 0x0 MSTORE PUSH1 0x20 PUSH1 0x0 KECCAK256 SWAP1 JUMPDEST DUP2 SLOAD DUP2 MSTORE SWAP1 PUSH1 0x1 ADD SWAP1 PUSH1 0x20 ADD DUP1 DUP4 GT PUSH2 0x17FF JUMPI DUP3 SWAP1 SUB PUSH1 0x1F AND DUP3 ADD SWAP2 JUMPDEST POP POP POP POP POP SWAP1 POP DUP3 JUMP JUMPDEST PUSH20 0xB27308F9F90D607463BB33EA1BEBB41C27CE5AB6 DUP2 JUMP JUMPDEST PUSH1 0x60 PUSH2 0x1849 DUP3 PUSH2 0x1E12 JUMP JUMPDEST PUSH1 0x0 PUSH2 0x1853 PUSH2 0x288B JUMP JUMPDEST SWAP1 POP PUSH1 0x0 DUP2 MLOAD GT PUSH2 0x1873 JUMPI PUSH1 0x40 MLOAD DUP1 PUSH1 0x20 ADD PUSH1 0x40 MSTORE DUP1 PUSH1 0x0 DUP2 MSTORE POP PUSH2 0x189E JUMP JUMPDEST DUP1 PUSH2 0x187D DUP5 PUSH2 0x28A2 JUMP JUMPDEST PUSH1 0x40 MLOAD PUSH1 0x20 ADD PUSH2 0x188E SWAP3 SWAP2 SWAP1 PUSH2 0x439D JUMP JUMPDEST PUSH1 0x40 MLOAD PUSH1 0x20 DUP2 DUP4 SUB SUB DUP2 MSTORE SWAP1 PUSH1 0x40 MSTORE JUMPDEST SWAP2 POP POP SWAP2 SWAP1 POP JUMP JUMPDEST PUSH1 0x0 DUP5 DUP5 PUSH1 0x40 MLOAD PUSH1 0x20 ADD PUSH2 0x18BB SWAP3 SWAP2 SWAP1 PUSH2 0x39E6 JUMP JUMPDEST PUSH1 0x40 MLOAD PUSH1 0x20 DUP2 DUP4 SUB SUB DUP2 MSTORE SWAP1 PUSH1 0x40 MSTORE DUP1 MLOAD SWAP1 PUSH1 0x20 ADD KECCAK256 SWAP1 POP PUSH1 0x0 ISZERO ISZERO PUSH2 0x12D PUSH1 0x0 DUP4 DUP2 MSTORE PUSH1 0x20 ADD SWAP1 DUP2 MSTORE PUSH1 0x20 ADD PUSH1 0x0 KECCAK256 PUSH1 0x0 SWAP1 SLOAD SWAP1 PUSH2 0x100 EXP SWAP1 DIV PUSH1 0xFF AND ISZERO ISZERO EQ PUSH2 0x193B JUMPI PUSH1 0x40 MLOAD PUSH32 0x8C379A000000000000000000000000000000000000000000000000000000000 DUP2 MSTORE PUSH1 0x4 ADD PUSH2 0x1932 SWAP1 PUSH2 0x440D JUMP JUMPDEST PUSH1 0x40 MLOAD DUP1 SWAP2 SUB SWAP1 REVERT JUMPDEST PUSH1 0x40 MLOAD DUP1 PUSH1 0x40 ADD PUSH1 0x40 MSTORE DUP1 DUP7 DUP2 MSTORE PUSH1 0x20 ADD DUP6 DUP2 MSTORE POP PUSH2 0x12E PUSH1 0x0 DUP5 DUP2 MSTORE PUSH1 0x20 ADD SWAP1 DUP2 MSTORE PUSH1 0x20 ADD PUSH1 0x0 KECCAK256 PUSH1 0x0 DUP3 ADD MLOAD DUP2 PUSH1 0x0 ADD SWAP1 DUP2 PUSH2 0x1979 SWAP2 SWAP1 PUSH2 0x45CF JUMP JUMPDEST POP PUSH1 0x20 DUP3 ADD MLOAD DUP2 PUSH1 0x1 ADD SWAP1 DUP2 PUSH2 0x198F SWAP2 SWAP1 PUSH2 0x45CF JUMP JUMPDEST POP SWAP1 POP POP PUSH1 0x1 PUSH2 0x12D PUSH1 0x0 DUP4 DUP2 MSTORE PUSH1 0x20 ADD SWAP1 DUP2 MSTORE PUSH1 0x20 ADD PUSH1 0x0 KECCAK256 PUSH1 0x0 PUSH2 0x100 EXP DUP2 SLOAD DUP2 PUSH1 0xFF MUL NOT AND SWAP1 DUP4 ISZERO ISZERO MUL OR SWAP1 SSTORE POP PUSH1 0x0 PUSH20 0xFFFFFFFFFFFFFFFFFFFFFFFFFFFFFFFFFFFFFFFF AND PUSH2 0x133 PUSH1 0x0 SWAP1 SLOAD SWAP1 PUSH2 0x100 EXP SWAP1 DIV PUSH20 0xFFFFFFFFFFFFFFFFFFFFFFFFFFFFFFFFFFFFFFFF AND PUSH20 0xFFFFFFFFFFFFFFFFFFFFFFFFFFFFFFFFFFFFFFFF AND EQ PUSH2 0x1ADF JUMPI PUSH1 0x0 CALLVALUE SUB PUSH2 0x1A5A JUMPI PUSH1 0x40 MLOAD PUSH32 0x8C379A000000000000000000000000000000000000000000000000000000000 DUP2 MSTORE PUSH1 0x4 ADD PUSH2 0x1A51 SWAP1 PUSH2 0x46ED JUMP JUMPDEST PUSH1 0x40 MLOAD DUP1 SWAP2 SUB SWAP1 REVERT JUMPDEST PUSH2 0x133 PUSH1 0x0 SWAP1 SLOAD SWAP1 PUSH2 0x100 EXP SWAP1 DIV PUSH20 0xFFFFFFFFFFFFFFFFFFFFFFFFFFFFFFFFFFFFFFFF AND PUSH20 0xFFFFFFFFFFFFFFFFFFFFFFFFFFFFFFFFFFFFFFFF AND PUSH2 0x8FC PUSH1 0x64 PUSH2 0x132 SLOAD CALLVALUE PUSH2 0x1AA8 SWAP2 SWAP1 PUSH2 0x473C JUMP JUMPDEST PUSH2 0x1AB2 SWAP2 SWAP1 PUSH2 0x47AD JUMP JUMPDEST SWAP1 DUP2 ISZERO MUL SWAP1 PUSH1 0x40 MLOAD PUSH1 0x0 PUSH1 0x40 MLOAD DUP1 DUP4 SUB DUP2 DUP6 DUP9 DUP9 CALL SWAP4 POP POP POP POP ISZERO DUP1 ISZERO PUSH2 0x1ADD JUMPI RETURNDATASIZE PUSH1 0x0 DUP1 RETURNDATACOPY RETURNDATASIZE PUSH1 0x0 REVERT JUMPDEST POP JUMPDEST PUSH1 0x0 PUSH20 0xFFFFFFFFFFFFFFFFFFFFFFFFFFFFFFFFFFFFFFFF AND PUSH2 0x12F DUP7 PUSH1 0x40 MLOAD PUSH2 0x1B08 SWAP2 SWAP1 PUSH2 0x480F JUMP JUMPDEST SWAP1 DUP2 MSTORE PUSH1 0x20 ADD PUSH1 0x40 MLOAD DUP1 SWAP2 SUB SWAP1 KECCAK256 PUSH1 0x0 SWAP1 SLOAD SWAP1 PUSH2 0x100 EXP SWAP1 DIV PUSH20 0xFFFFFFFFFFFFFFFFFFFFFFFFFFFFFFFFFFFFFFFF AND PUSH20 0xFFFFFFFFFFFFFFFFFFFFFFFFFFFFFFFFFFFFFFFF AND EQ PUSH2 0x1C36 JUMPI PUSH1 0x0 CALLVALUE SUB PUSH2 0x1B95 JUMPI PUSH1 0x40 MLOAD PUSH32 0x8C379A000000000000000000000000000000000000000000000000000000000 DUP2 MSTORE PUSH1 0x4 ADD PUSH2 0x1B8C SWAP1 PUSH2 0x46ED JUMP JUMPDEST PUSH1 0x40 MLOAD DUP1 SWAP2 SUB SWAP1 REVERT JUMPDEST PUSH2 0x12F DUP6 PUSH1 0x40 MLOAD PUSH2 0x1BA6 SWAP2 SWAP1 PUSH2 0x480F JUMP JUMPDEST SWAP1 DUP2 MSTORE PUSH1 0x20 ADD PUSH1 0x40 MLOAD DUP1 SWAP2 SUB SWAP1 KECCAK256 PUSH1 0x0 SWAP1 SLOAD SWAP1 PUSH2 0x100 EXP SWAP1 DIV PUSH20 0xFFFFFFFFFFFFFFFFFFFFFFFFFFFFFFFFFFFFFFFF AND PUSH20 0xFFFFFFFFFFFFFFFFFFFFFFFFFFFFFFFFFFFFFFFF AND PUSH2 0x8FC PUSH1 0x64 PUSH2 0x131 SLOAD CALLVALUE PUSH2 0x1BFF SWAP2 SWAP1 PUSH2 0x473C JUMP JUMPDEST PUSH2 0x1C09 SWAP2 SWAP1 PUSH2 0x47AD JUMP JUMPDEST SWAP1 DUP2 ISZERO MUL SWAP1 PUSH1 0x40 MLOAD PUSH1 0x0 PUSH1 0x40 MLOAD DUP1 DUP4 SUB DUP2 DUP6 DUP9 DUP9 CALL SWAP4 POP POP POP POP ISZERO DUP1 ISZERO PUSH2 0x1C34 JUMPI RETURNDATASIZE PUSH1 0x0 DUP1 RETURNDATACOPY RETURNDATASIZE PUSH1 0x0 REVERT JUMPDEST POP JUMPDEST PUSH2 0x1C40 DUP4 DUP4 PUSH2 0x2A02 JUMP JUMPDEST POP POP POP POP POP JUMP JUMPDEST PUSH1 0x0 PUSH1 0x6A PUSH1 0x0 DUP5 PUSH20 0xFFFFFFFFFFFFFFFFFFFFFFFFFFFFFFFFFFFFFFFF AND PUSH20 0xFFFFFFFFFFFFFFFFFFFFFFFFFFFFFFFFFFFFFFFF AND DUP2 MSTORE PUSH1 0x20 ADD SWAP1 DUP2 MSTORE PUSH1 0x20 ADD PUSH1 0x0 KECCAK256 PUSH1 0x0 DUP4 PUSH20 0xFFFFFFFFFFFFFFFFFFFFFFFFFFFFFFFFFFFFFFFF AND PUSH20 0xFFFFFFFFFFFFFFFFFFFFFFFFFFFFFFFFFFFFFFFF AND DUP2 MSTORE PUSH1 0x20 ADD SWAP1 DUP2 MSTORE PUSH1 0x20 ADD PUSH1 0x0 KECCAK256 PUSH1 0x0 SWAP1 SLOAD SWAP1 PUSH2 0x100 EXP SWAP1 DIV PUSH1 0xFF AND SWAP1 POP SWAP3 SWAP2 POP POP JUMP JUMPDEST PUSH2 0x12F DUP2 DUP1 MLOAD PUSH1 0x20 DUP2 ADD DUP3 ADD DUP1 MLOAD DUP5 DUP3 MSTORE PUSH1 0x20 DUP4 ADD PUSH1 0x20 DUP6 ADD KECCAK256 DUP2 DUP4 MSTORE DUP1 SWAP6 POP POP POP POP POP POP PUSH1 0x0 SWAP2 POP SLOAD SWAP1 PUSH2 0x100 EXP SWAP1 DIV PUSH20 0xFFFFFFFFFFFFFFFFFFFFFFFFFFFFFFFFFFFFFFFF AND DUP2 JUMP JUMPDEST PUSH2 0x1D2D PUSH2 0x23E9 JUMP JUMPDEST PUSH1 0x0 PUSH20 0xFFFFFFFFFFFFFFFFFFFFFFFFFFFFFFFFFFFFFFFF AND DUP2 PUSH20 0xFFFFFFFFFFFFFFFFFFFFFFFFFFFFFFFFFFFFFFFF AND SUB PUSH2 0x1D9C JUMPI PUSH1 0x40 MLOAD PUSH32 0x8C379A000000000000000000000000000000000000000000000000000000000 DUP2 MSTORE PUSH1 0x4 ADD PUSH2 0x1D93 SWAP1 PUSH2 0x4898 JUMP JUMPDEST PUSH1 0x40 MLOAD DUP1 SWAP2 SUB SWAP1 REVERT JUMPDEST PUSH2 0x1DA5 DUP2 PUSH2 0x2467 JUMP JUMPDEST POP JUMP JUMPDEST PUSH1 0x0 PUSH32 0x1FFC9A700000000000000000000000000000000000000000000000000000000 PUSH28 0xFFFFFFFFFFFFFFFFFFFFFFFFFFFFFFFFFFFFFFFFFFFFFFFFFFFFFFFF NOT AND DUP3 PUSH28 0xFFFFFFFFFFFFFFFFFFFFFFFFFFFFFFFFFFFFFFFFFFFFFFFFFFFFFFFF NOT AND EQ SWAP1 POP SWAP2 SWAP1 POP JUMP JUMPDEST PUSH2 0x1E1B DUP2 PUSH2 0x2657 JUMP JUMPDEST PUSH2 0x1E5A JUMPI PUSH1 0x40 MLOAD PUSH32 0x8C379A000000000000000000000000000000000000000000000000000000000 DUP2 MSTORE PUSH1 0x4 ADD PUSH2 0x1E51 SWAP1 PUSH2 0x3FD7 JUMP JUMPDEST PUSH1 0x40 MLOAD DUP1 SWAP2 SUB SWAP1 REVERT JUMPDEST POP JUMP JUMPDEST PUSH1 0x0 CALLER SWAP1 POP SWAP1 JUMP JUMPDEST DUP2 PUSH1 0x69 PUSH1 0x0 DUP4 DUP2 MSTORE PUSH1 0x20 ADD SWAP1 DUP2 MSTORE PUSH1 0x20 ADD PUSH1 0x0 KECCAK256 PUSH1 0x0 PUSH2 0x100 EXP DUP2 SLOAD DUP2 PUSH20 0xFFFFFFFFFFFFFFFFFFFFFFFFFFFFFFFFFFFFFFFF MUL NOT AND SWAP1 DUP4 PUSH20 0xFFFFFFFFFFFFFFFFFFFFFFFFFFFFFFFFFFFFFFFF AND MUL OR SWAP1 SSTORE POP DUP1 DUP3 PUSH20 0xFFFFFFFFFFFFFFFFFFFFFFFFFFFFFFFFFFFFFFFF AND PUSH2 0x1ED8 DUP4 PUSH2 0xEBE JUMP JUMPDEST PUSH20 0xFFFFFFFFFFFFFFFFFFFFFFFFFFFFFFFFFFFFFFFF AND PUSH32 0x8C5BE1E5EBEC7D5BD14F71427D1E84F3DD0314C0F7B2291E5B200AC8C7C3B925 PUSH1 0x40 MLOAD PUSH1 0x40 MLOAD DUP1 SWAP2 SUB SWAP1 LOG4 POP POP JUMP JUMPDEST PUSH1 0x0 DUP1 PUSH2 0x1F2A DUP4 PUSH2 0xEBE JUMP JUMPDEST SWAP1 POP DUP1 PUSH20 0xFFFFFFFFFFFFFFFFFFFFFFFFFFFFFFFFFFFFFFFF AND DUP5 PUSH20 0xFFFFFFFFFFFFFFFFFFFFFFFFFFFFFFFFFFFFFFFF AND EQ DUP1 PUSH2 0x1F6C JUMPI POP PUSH2 0x1F6B DUP2 DUP6 PUSH2 0x1C47 JUMP JUMPDEST JUMPDEST DUP1 PUSH2 0x1FAA JUMPI POP DUP4 PUSH20 0xFFFFFFFFFFFFFFFFFFFFFFFFFFFFFFFFFFFFFFFF AND PUSH2 0x1F92 DUP5 PUSH2 0x8F1 JUMP JUMPDEST PUSH20 0xFFFFFFFFFFFFFFFFFFFFFFFFFFFFFFFFFFFFFFFF AND EQ JUMPDEST SWAP2 POP POP SWAP3 SWAP2 POP POP JUMP JUMPDEST DUP3 PUSH20 0xFFFFFFFFFFFFFFFFFFFFFFFFFFFFFFFFFFFFFFFF AND PUSH2 0x1FD3 DUP3 PUSH2 0xEBE JUMP JUMPDEST PUSH20 0xFFFFFFFFFFFFFFFFFFFFFFFFFFFFFFFFFFFFFFFF AND EQ PUSH2 0x2029 JUMPI PUSH1 0x40 MLOAD PUSH32 0x8C379A000000000000000000000000000000000000000000000000000000000 DUP2 MSTORE PUSH1 0x4 ADD PUSH2 0x2020 SWAP1 PUSH2 0x492A JUMP JUMPDEST PUSH1 0x40 MLOAD DUP1 SWAP2 SUB SWAP1 REVERT JUMPDEST PUSH1 0x0 PUSH20 0xFFFFFFFFFFFFFFFFFFFFFFFFFFFFFFFFFFFFFFFF AND DUP3 PUSH20 0xFFFFFFFFFFFFFFFFFFFFFFFFFFFFFFFFFFFFFFFF AND SUB PUSH2 0x2098 JUMPI PUSH1 0x40 MLOAD PUSH32 0x8C379A000000000000000000000000000000000000000000000000000000000 DUP2 MSTORE PUSH1 0x4 ADD PUSH2 0x208F SWAP1 PUSH2 0x49BC JUMP JUMPDEST PUSH1 0x40 MLOAD DUP1 SWAP2 SUB SWAP1 REVERT JUMPDEST PUSH2 0x20A3 DUP4 DUP4 DUP4 PUSH2 0x2A20 JUMP JUMPDEST PUSH2 0x20AE PUSH1 0x0 DUP3 PUSH2 0x1E65 JUMP JUMPDEST PUSH1 0x1 PUSH1 0x68 PUSH1 0x0 DUP6 PUSH20 0xFFFFFFFFFFFFFFFFFFFFFFFFFFFFFFFFFFFFFFFF AND PUSH20 0xFFFFFFFFFFFFFFFFFFFFFFFFFFFFFFFFFFFFFFFF AND DUP2 MSTORE PUSH1 0x20 ADD SWAP1 DUP2 MSTORE PUSH1 0x20 ADD PUSH1 0x0 KECCAK256 PUSH1 0x0 DUP3 DUP3 SLOAD PUSH2 0x20FE SWAP2 SWAP1 PUSH2 0x49DC JUMP JUMPDEST SWAP3 POP POP DUP2 SWAP1 SSTORE POP PUSH1 0x1 PUSH1 0x68 PUSH1 0x0 DUP5 PUSH20 0xFFFFFFFFFFFFFFFFFFFFFFFFFFFFFFFFFFFFFFFF AND PUSH20 0xFFFFFFFFFFFFFFFFFFFFFFFFFFFFFFFFFFFFFFFF AND DUP2 MSTORE PUSH1 0x20 ADD SWAP1 DUP2 MSTORE PUSH1 0x20 ADD PUSH1 0x0 KECCAK256 PUSH1 0x0 DUP3 DUP3 SLOAD PUSH2 0x2155 SWAP2 SWAP1 PUSH2 0x4A10 JUMP JUMPDEST SWAP3 POP POP DUP2 SWAP1 SSTORE POP DUP2 PUSH1 0x67 PUSH1 0x0 DUP4 DUP2 MSTORE PUSH1 0x20 ADD SWAP1 DUP2 MSTORE PUSH1 0x20 ADD PUSH1 0x0 KECCAK256 PUSH1 0x0 PUSH2 0x100 EXP DUP2 SLOAD DUP2 PUSH20 0xFFFFFFFFFFFFFFFFFFFFFFFFFFFFFFFFFFFFFFFF MUL NOT AND SWAP1 DUP4 PUSH20 0xFFFFFFFFFFFFFFFFFFFFFFFFFFFFFFFFFFFFFFFF AND MUL OR SWAP1 SSTORE POP DUP1 DUP3 PUSH20 0xFFFFFFFFFFFFFFFFFFFFFFFFFFFFFFFFFFFFFFFF AND DUP5 PUSH20 0xFFFFFFFFFFFFFFFFFFFFFFFFFFFFFFFFFFFFFFFF AND PUSH32 0xDDF252AD1BE2C89B69C2B068FC378DAA952BA7F163C4A11628F55A4DF523B3EF PUSH1 0x40 MLOAD PUSH1 0x40 MLOAD DUP1 SWAP2 SUB SWAP1 LOG4 PUSH2 0x2214 DUP4 DUP4 DUP4 PUSH2 0x2A25 JUMP JUMPDEST POP POP POP JUMP JUMPDEST PUSH1 0x0 PUSH2 0x2247 PUSH32 0x360894A13BA1A3210667C828492DB98DCA3E2076CC3735A920A3CA505D382BBC PUSH1 0x0 SHL PUSH2 0x2A2A JUMP JUMPDEST PUSH1 0x0 ADD PUSH1 0x0 SWAP1 SLOAD SWAP1 PUSH2 0x100 EXP SWAP1 DIV PUSH20 0xFFFFFFFFFFFFFFFFFFFFFFFFFFFFFFFFFFFFFFFF AND SWAP1 POP SWAP1 JUMP JUMPDEST PUSH2 0x2278 PUSH2 0x23E9 JUMP JUMPDEST POP JUMP JUMPDEST PUSH2 0x22A7 PUSH32 0x4910FDFA16FED3260ED0E7147F7CC6DA11A60208B5B9406D12A635614FFD9143 PUSH1 0x0 SHL PUSH2 0x2A34 JUMP JUMPDEST PUSH1 0x0 ADD PUSH1 0x0 SWAP1 SLOAD SWAP1 PUSH2 0x100 EXP SWAP1 DIV PUSH1 0xFF AND ISZERO PUSH2 0x22CB JUMPI PUSH2 0x22C6 DUP4 PUSH2 0x2A3E JUMP JUMPDEST PUSH2 0x23E4 JUMP JUMPDEST DUP3 PUSH20 0xFFFFFFFFFFFFFFFFFFFFFFFFFFFFFFFFFFFFFFFF AND PUSH4 0x52D1902D PUSH1 0x40 MLOAD DUP2 PUSH4 0xFFFFFFFF AND PUSH1 0xE0 SHL DUP2 MSTORE PUSH1 0x4 ADD PUSH1 0x20 PUSH1 0x40 MLOAD DUP1 DUP4 SUB DUP2 DUP7 GAS STATICCALL SWAP3 POP POP POP DUP1 ISZERO PUSH2 0x2333 JUMPI POP PUSH1 0x40 MLOAD RETURNDATASIZE PUSH1 0x1F NOT PUSH1 0x1F DUP3 ADD AND DUP3 ADD DUP1 PUSH1 0x40 MSTORE POP DUP2 ADD SWAP1 PUSH2 0x2330 SWAP2 SWAP1 PUSH2 0x4A59 JUMP JUMPDEST PUSH1 0x1 JUMPDEST PUSH2 0x2372 JUMPI PUSH1 0x40 MLOAD PUSH32 0x8C379A000000000000000000000000000000000000000000000000000000000 DUP2 MSTORE PUSH1 0x4 ADD PUSH2 0x2369 SWAP1 PUSH2 0x4AF8 JUMP JUMPDEST PUSH1 0x40 MLOAD DUP1 SWAP2 SUB SWAP1 REVERT JUMPDEST PUSH32 0x360894A13BA1A3210667C828492DB98DCA3E2076CC3735A920A3CA505D382BBC PUSH1 0x0 SHL DUP2 EQ PUSH2 0x23D7 JUMPI PUSH1 0x40 MLOAD PUSH32 0x8C379A000000000000000000000000000000000000000000000000000000000 DUP2 MSTORE PUSH1 0x4 ADD PUSH2 0x23CE SWAP1 PUSH2 0x4B8A JUMP JUMPDEST PUSH1 0x40 MLOAD DUP1 SWAP2 SUB SWAP1 REVERT JUMPDEST POP PUSH2 0x23E3 DUP4 DUP4 DUP4 PUSH2 0x2AF7 JUMP JUMPDEST JUMPDEST POP POP POP JUMP JUMPDEST PUSH2 0x23F1 PUSH2 0x1E5D JUMP JUMPDEST PUSH20 0xFFFFFFFFFFFFFFFFFFFFFFFFFFFFFFFFFFFFFFFF AND PUSH2 0x240F PUSH2 0x14BD JUMP JUMPDEST PUSH20 0xFFFFFFFFFFFFFFFFFFFFFFFFFFFFFFFFFFFFFFFF AND EQ PUSH2 0x2465 JUMPI PUSH1 0x40 MLOAD PUSH32 0x8C379A000000000000000000000000000000000000000000000000000000000 DUP2 MSTORE PUSH1 0x4 ADD PUSH2 0x245C SWAP1 PUSH2 0x4BF6 JUMP JUMPDEST PUSH1 0x40 MLOAD DUP1 SWAP2 SUB SWAP1 REVERT JUMPDEST JUMP JUMPDEST PUSH1 0x0 PUSH1 0x97 PUSH1 0x0 SWAP1 SLOAD SWAP1 PUSH2 0x100 EXP SWAP1 DIV PUSH20 0xFFFFFFFFFFFFFFFFFFFFFFFFFFFFFFFFFFFFFFFF AND SWAP1 POP DUP2 PUSH1 0x97 PUSH1 0x0 PUSH2 0x100 EXP DUP2 SLOAD DUP2 PUSH20 0xFFFFFFFFFFFFFFFFFFFFFFFFFFFFFFFFFFFFFFFF MUL NOT AND SWAP1 DUP4 PUSH20 0xFFFFFFFFFFFFFFFFFFFFFFFFFFFFFFFFFFFFFFFF AND MUL OR SWAP1 SSTORE POP DUP2 PUSH20 0xFFFFFFFFFFFFFFFFFFFFFFFFFFFFFFFFFFFFFFFF AND DUP2 PUSH20 0xFFFFFFFFFFFFFFFFFFFFFFFFFFFFFFFFFFFFFFFF AND PUSH32 0x8BE0079C531659141344CD1FD0A4F28419497F9722A3DAAFE3B4186F6B6457E0 PUSH1 0x40 MLOAD PUSH1 0x40 MLOAD DUP1 SWAP2 SUB SWAP1 LOG3 POP POP JUMP JUMPDEST PUSH1 0x0 DUP1 DUP3 PUSH20 0xFFFFFFFFFFFFFFFFFFFFFFFFFFFFFFFFFFFFFFFF AND EXTCODESIZE GT SWAP1 POP SWAP2 SWAP1 POP JUMP JUMPDEST PUSH1 0x0 PUSH1 0x1 SWAP1 SLOAD SWAP1 PUSH2 0x100 EXP SWAP1 DIV PUSH1 0xFF AND PUSH2 0x259F JUMPI PUSH1 0x40 MLOAD PUSH32 0x8C379A000000000000000000000000000000000000000000000000000000000 DUP2 MSTORE PUSH1 0x4 ADD PUSH2 0x2596 SWAP1 PUSH2 0x4C88 JUMP JUMPDEST PUSH1 0x40 MLOAD DUP1 SWAP2 SUB SWAP1 REVERT JUMPDEST PUSH2 0x25A9 DUP3 DUP3 PUSH2 0x2B23 JUMP JUMPDEST POP POP JUMP JUMPDEST PUSH1 0x0 PUSH1 0x1 SWAP1 SLOAD SWAP1 PUSH2 0x100 EXP SWAP1 DIV PUSH1 0xFF AND PUSH2 0x25FC JUMPI PUSH1 0x40 MLOAD PUSH32 0x8C379A000000000000000000000000000000000000000000000000000000000 DUP2 MSTORE PUSH1 0x4 ADD PUSH2 0x25F3 SWAP1 PUSH2 0x4C88 JUMP JUMPDEST PUSH1 0x40 MLOAD DUP1 SWAP2 SUB SWAP1 REVERT JUMPDEST PUSH2 0x2604 PUSH2 0x2B96 JUMP JUMPDEST JUMP JUMPDEST PUSH1 0x0 PUSH1 0x1 SWAP1 SLOAD SWAP1 PUSH2 0x100 EXP SWAP1 DIV PUSH1 0xFF AND PUSH2 0x2655 JUMPI PUSH1 0x40 MLOAD PUSH32 0x8C379A000000000000000000000000000000000000000000000000000000000 DUP2 MSTORE PUSH1 0x4 ADD PUSH2 0x264C SWAP1 PUSH2 0x4C88 JUMP JUMPDEST PUSH1 0x40 MLOAD DUP1 SWAP2 SUB SWAP1 REVERT JUMPDEST JUMP JUMPDEST PUSH1 0x0 DUP1 PUSH20 0xFFFFFFFFFFFFFFFFFFFFFFFFFFFFFFFFFFFFFFFF AND PUSH1 0x67 PUSH1 0x0 DUP5 DUP2 MSTORE PUSH1 0x20 ADD SWAP1 DUP2 MSTORE PUSH1 0x20 ADD PUSH1 0x0 KECCAK256 PUSH1 0x0 SWAP1 SLOAD SWAP1 PUSH2 0x100 EXP SWAP1 DIV PUSH20 0xFFFFFFFFFFFFFFFFFFFFFFFFFFFFFFFFFFFFFFFF AND PUSH20 0xFFFFFFFFFFFFFFFFFFFFFFFFFFFFFFFFFFFFFFFF AND EQ ISZERO SWAP1 POP SWAP2 SWAP1 POP JUMP JUMPDEST DUP2 PUSH20 0xFFFFFFFFFFFFFFFFFFFFFFFFFFFFFFFFFFFFFFFF AND DUP4 PUSH20 0xFFFFFFFFFFFFFFFFFFFFFFFFFFFFFFFFFFFFFFFF AND SUB PUSH2 0x2731 JUMPI PUSH1 0x40 MLOAD PUSH32 0x8C379A000000000000000000000000000000000000000000000000000000000 DUP2 MSTORE PUSH1 0x4 ADD PUSH2 0x2728 SWAP1 PUSH2 0x4CF4 JUMP JUMPDEST PUSH1 0x40 MLOAD DUP1 SWAP2 SUB SWAP1 REVERT JUMPDEST DUP1 PUSH1 0x6A PUSH1 0x0 DUP6 PUSH20 0xFFFFFFFFFFFFFFFFFFFFFFFFFFFFFFFFFFFFFFFF AND PUSH20 0xFFFFFFFFFFFFFFFFFFFFFFFFFFFFFFFFFFFFFFFF AND DUP2 MSTORE PUSH1 0x20 ADD SWAP1 DUP2 MSTORE PUSH1 0x20 ADD PUSH1 0x0 KECCAK256 PUSH1 0x0 DUP5 PUSH20 0xFFFFFFFFFFFFFFFFFFFFFFFFFFFFFFFFFFFFFFFF AND PUSH20 0xFFFFFFFFFFFFFFFFFFFFFFFFFFFFFFFFFFFFFFFF AND DUP2 MSTORE PUSH1 0x20 ADD SWAP1 DUP2 MSTORE PUSH1 0x20 ADD PUSH1 0x0 KECCAK256 PUSH1 0x0 PUSH2 0x100 EXP DUP2 SLOAD DUP2 PUSH1 0xFF MUL NOT AND SWAP1 DUP4 ISZERO ISZERO MUL OR SWAP1 SSTORE POP DUP2 PUSH20 0xFFFFFFFFFFFFFFFFFFFFFFFFFFFFFFFFFFFFFFFF AND DUP4 PUSH20 0xFFFFFFFFFFFFFFFFFFFFFFFFFFFFFFFFFFFFFFFF AND PUSH32 0x17307EAB39AB6107E8899845AD3D59BD9653F200F220920489CA2B5937696C31 DUP4 PUSH1 0x40 MLOAD PUSH2 0x2822 SWAP2 SWAP1 PUSH2 0x321A JUMP JUMPDEST PUSH1 0x40 MLOAD DUP1 SWAP2 SUB SWAP1 LOG3 POP POP POP JUMP JUMPDEST PUSH2 0x283A DUP5 DUP5 DUP5 PUSH2 0x1FB3 JUMP JUMPDEST PUSH2 0x2846 DUP5 DUP5 DUP5 DUP5 PUSH2 0x2BF7 JUMP JUMPDEST PUSH2 0x2885 JUMPI PUSH1 0x40 MLOAD PUSH32 0x8C379A000000000000000000000000000000000000000000000000000000000 DUP2 MSTORE PUSH1 0x4 ADD PUSH2 0x287C SWAP1 PUSH2 0x4D86 JUMP JUMPDEST PUSH1 0x40 MLOAD DUP1 SWAP2 SUB SWAP1 REVERT JUMPDEST POP POP POP POP JUMP JUMPDEST PUSH1 0x60 PUSH1 0x40 MLOAD DUP1 PUSH1 0x20 ADD PUSH1 0x40 MSTORE DUP1 PUSH1 0x0 DUP2 MSTORE POP SWAP1 POP SWAP1 JUMP JUMPDEST PUSH1 0x60 PUSH1 0x0 DUP3 SUB PUSH2 0x28E9 JUMPI PUSH1 0x40 MLOAD DUP1 PUSH1 0x40 ADD PUSH1 0x40 MSTORE DUP1 PUSH1 0x1 DUP2 MSTORE PUSH1 0x20 ADD PUSH32 0x3000000000000000000000000000000000000000000000000000000000000000 DUP2 MSTORE POP SWAP1 POP PUSH2 0x29FD JUMP JUMPDEST PUSH1 0x0 DUP3 SWAP1 POP PUSH1 0x0 JUMPDEST PUSH1 0x0 DUP3 EQ PUSH2 0x291B JUMPI DUP1 DUP1 PUSH2 0x2904 SWAP1 PUSH2 0x4DA6 JUMP JUMPDEST SWAP2 POP POP PUSH1 0xA DUP3 PUSH2 0x2914 SWAP2 SWAP1 PUSH2 0x47AD JUMP JUMPDEST SWAP2 POP PUSH2 0x28F1 JUMP JUMPDEST PUSH1 0x0 DUP2 PUSH8 0xFFFFFFFFFFFFFFFF DUP2 GT ISZERO PUSH2 0x2937 JUMPI PUSH2 0x2936 PUSH2 0x349C JUMP JUMPDEST JUMPDEST PUSH1 0x40 MLOAD SWAP1 DUP1 DUP3 MSTORE DUP1 PUSH1 0x1F ADD PUSH1 0x1F NOT AND PUSH1 0x20 ADD DUP3 ADD PUSH1 0x40 MSTORE DUP1 ISZERO PUSH2 0x2969 JUMPI DUP2 PUSH1 0x20 ADD PUSH1 0x1 DUP3 MUL DUP1 CALLDATASIZE DUP4 CALLDATACOPY DUP1 DUP3 ADD SWAP2 POP POP SWAP1 POP JUMPDEST POP SWAP1 POP JUMPDEST PUSH1 0x0 DUP6 EQ PUSH2 0x29F6 JUMPI PUSH1 0x1 DUP3 PUSH2 0x2982 SWAP2 SWAP1 PUSH2 0x49DC JUMP JUMPDEST SWAP2 POP PUSH1 0xA DUP6 PUSH2 0x2991 SWAP2 SWAP1 PUSH2 0x4DEE JUMP JUMPDEST PUSH1 0x30 PUSH2 0x299D SWAP2 SWAP1 PUSH2 0x4A10 JUMP JUMPDEST PUSH1 0xF8 SHL DUP2 DUP4 DUP2 MLOAD DUP2 LT PUSH2 0x29B3 JUMPI PUSH2 0x29B2 PUSH2 0x4E1F JUMP JUMPDEST JUMPDEST PUSH1 0x20 ADD ADD SWAP1 PUSH31 0xFFFFFFFFFFFFFFFFFFFFFFFFFFFFFFFFFFFFFFFFFFFFFFFFFFFFFFFFFFFFFF NOT AND SWAP1 DUP2 PUSH1 0x0 BYTE SWAP1 MSTORE8 POP PUSH1 0xA DUP6 PUSH2 0x29EF SWAP2 SWAP1 PUSH2 0x47AD JUMP JUMPDEST SWAP5 POP PUSH2 0x296D JUMP JUMPDEST DUP1 SWAP4 POP POP POP POP JUMPDEST SWAP2 SWAP1 POP JUMP JUMPDEST PUSH2 0x2A1C DUP3 DUP3 PUSH1 0x40 MLOAD DUP1 PUSH1 0x20 ADD PUSH1 0x40 MSTORE DUP1 PUSH1 0x0 DUP2 MSTORE POP PUSH2 0x2D7E JUMP JUMPDEST POP POP JUMP JUMPDEST POP POP POP JUMP JUMPDEST POP POP POP JUMP JUMPDEST PUSH1 0x0 DUP2 SWAP1 POP SWAP2 SWAP1 POP JUMP JUMPDEST PUSH1 0x0 DUP2 SWAP1 POP SWAP2 SWAP1 POP JUMP JUMPDEST PUSH2 0x2A47 DUP2 PUSH2 0x252D JUMP JUMPDEST PUSH2 0x2A86 JUMPI PUSH1 0x40 MLOAD PUSH32 0x8C379A000000000000000000000000000000000000000000000000000000000 DUP2 MSTORE PUSH1 0x4 ADD PUSH2 0x2A7D SWAP1 PUSH2 0x4EC0 JUMP JUMPDEST PUSH1 0x40 MLOAD DUP1 SWAP2 SUB SWAP1 REVERT JUMPDEST DUP1 PUSH2 0x2AB3 PUSH32 0x360894A13BA1A3210667C828492DB98DCA3E2076CC3735A920A3CA505D382BBC PUSH1 0x0 SHL PUSH2 0x2A2A JUMP JUMPDEST PUSH1 0x0 ADD PUSH1 0x0 PUSH2 0x100 EXP DUP2 SLOAD DUP2 PUSH20 0xFFFFFFFFFFFFFFFFFFFFFFFFFFFFFFFFFFFFFFFF MUL NOT AND SWAP1 DUP4 PUSH20 0xFFFFFFFFFFFFFFFFFFFFFFFFFFFFFFFFFFFFFFFF AND MUL OR SWAP1 SSTORE POP POP JUMP JUMPDEST PUSH2 0x2B00 DUP4 PUSH2 0x2DD9 JUMP JUMPDEST PUSH1 0x0 DUP3 MLOAD GT DUP1 PUSH2 0x2B0D JUMPI POP DUP1 JUMPDEST ISZERO PUSH2 0x2B1E JUMPI PUSH2 0x2B1C DUP4 DUP4 PUSH2 0x2E28 JUMP JUMPDEST POP JUMPDEST POP POP POP JUMP JUMPDEST PUSH1 0x0 PUSH1 0x1 SWAP1 SLOAD SWAP1 PUSH2 0x100 EXP SWAP1 DIV PUSH1 0xFF AND PUSH2 0x2B72 JUMPI PUSH1 0x40 MLOAD PUSH32 0x8C379A000000000000000000000000000000000000000000000000000000000 DUP2 MSTORE PUSH1 0x4 ADD PUSH2 0x2B69 SWAP1 PUSH2 0x4C88 JUMP JUMPDEST PUSH1 0x40 MLOAD DUP1 SWAP2 SUB SWAP1 REVERT JUMPDEST DUP2 PUSH1 0x65 SWAP1 DUP2 PUSH2 0x2B81 SWAP2 SWAP1 PUSH2 0x4F3B JUMP JUMPDEST POP DUP1 PUSH1 0x66 SWAP1 DUP2 PUSH2 0x2B91 SWAP2 SWAP1 PUSH2 0x4F3B JUMP JUMPDEST POP POP POP JUMP JUMPDEST PUSH1 0x0 PUSH1 0x1 SWAP1 SLOAD SWAP1 PUSH2 0x100 EXP SWAP1 DIV PUSH1 0xFF AND PUSH2 0x2BE5 JUMPI PUSH1 0x40 MLOAD PUSH32 0x8C379A000000000000000000000000000000000000000000000000000000000 DUP2 MSTORE PUSH1 0x4 ADD PUSH2 0x2BDC SWAP1 PUSH2 0x4C88 JUMP JUMPDEST PUSH1 0x40 MLOAD DUP1 SWAP2 SUB SWAP1 REVERT JUMPDEST PUSH2 0x2BF5 PUSH2 0x2BF0 PUSH2 0x1E5D JUMP JUMPDEST PUSH2 0x2467 JUMP JUMPDEST JUMP JUMPDEST PUSH1 0x0 PUSH2 0x2C18 DUP5 PUSH20 0xFFFFFFFFFFFFFFFFFFFFFFFFFFFFFFFFFFFFFFFF AND PUSH2 0x252D JUMP JUMPDEST ISZERO PUSH2 0x2D71 JUMPI DUP4 PUSH20 0xFFFFFFFFFFFFFFFFFFFFFFFFFFFFFFFFFFFFFFFF AND PUSH4 0x150B7A02 PUSH2 0x2C41 PUSH2 0x1E5D JUMP JUMPDEST DUP8 DUP7 DUP7 PUSH1 0x40 MLOAD DUP6 PUSH4 0xFFFFFFFF AND PUSH1 0xE0 SHL DUP2 MSTORE PUSH1 0x4 ADD PUSH2 0x2C63 SWAP5 SWAP4 SWAP3 SWAP2 SWAP1 PUSH2 0x500D JUMP JUMPDEST PUSH1 0x20 PUSH1 0x40 MLOAD DUP1 DUP4 SUB DUP2 PUSH1 0x0 DUP8 GAS CALL SWAP3 POP POP POP DUP1 ISZERO PUSH2 0x2C9F JUMPI POP PUSH1 0x40 MLOAD RETURNDATASIZE PUSH1 0x1F NOT PUSH1 0x1F DUP3 ADD AND DUP3 ADD DUP1 PUSH1 0x40 MSTORE POP DUP2 ADD SWAP1 PUSH2 0x2C9C SWAP2 SWAP1 PUSH2 0x506E JUMP JUMPDEST PUSH1 0x1 JUMPDEST PUSH2 0x2D21 JUMPI RETURNDATASIZE DUP1 PUSH1 0x0 DUP2 EQ PUSH2 0x2CCF JUMPI PUSH1 0x40 MLOAD SWAP2 POP PUSH1 0x1F NOT PUSH1 0x3F RETURNDATASIZE ADD AND DUP3 ADD PUSH1 0x40 MSTORE RETURNDATASIZE DUP3 MSTORE RETURNDATASIZE PUSH1 0x0 PUSH1 0x20 DUP5 ADD RETURNDATACOPY PUSH2 0x2CD4 JUMP JUMPDEST PUSH1 0x60 SWAP2 POP JUMPDEST POP PUSH1 0x0 DUP2 MLOAD SUB PUSH2 0x2D19 JUMPI PUSH1 0x40 MLOAD PUSH32 0x8C379A000000000000000000000000000000000000000000000000000000000 DUP2 MSTORE PUSH1 0x4 ADD PUSH2 0x2D10 SWAP1 PUSH2 0x4D86 JUMP JUMPDEST PUSH1 0x40 MLOAD DUP1 SWAP2 SUB SWAP1 REVERT JUMPDEST DUP1 MLOAD DUP2 PUSH1 0x20 ADD REVERT JUMPDEST PUSH4 0x150B7A02 PUSH1 0xE0 SHL PUSH28 0xFFFFFFFFFFFFFFFFFFFFFFFFFFFFFFFFFFFFFFFFFFFFFFFFFFFFFFFF NOT AND DUP2 PUSH28 0xFFFFFFFFFFFFFFFFFFFFFFFFFFFFFFFFFFFFFFFFFFFFFFFFFFFFFFFF NOT AND EQ SWAP2 POP POP PUSH2 0x2D76 JUMP JUMPDEST PUSH1 0x1 SWAP1 POP JUMPDEST SWAP5 SWAP4 POP POP POP POP JUMP JUMPDEST PUSH2 0x2D88 DUP4 DUP4 PUSH2 0x2F0C JUMP JUMPDEST PUSH2 0x2D95 PUSH1 0x0 DUP5 DUP5 DUP5 PUSH2 0x2BF7 JUMP JUMPDEST PUSH2 0x2DD4 JUMPI PUSH1 0x40 MLOAD PUSH32 0x8C379A000000000000000000000000000000000000000000000000000000000 DUP2 MSTORE PUSH1 0x4 ADD PUSH2 0x2DCB SWAP1 PUSH2 0x4D86 JUMP JUMPDEST PUSH1 0x40 MLOAD DUP1 SWAP2 SUB SWAP1 REVERT JUMPDEST POP POP POP JUMP JUMPDEST PUSH2 0x2DE2 DUP2 PUSH2 0x2A3E JUMP JUMPDEST DUP1 PUSH20 0xFFFFFFFFFFFFFFFFFFFFFFFFFFFFFFFFFFFFFFFF AND PUSH32 0xBC7CD75A20EE27FD9ADEBAB32041F755214DBC6BFFA90CC0225B39DA2E5C2D3B PUSH1 0x40 MLOAD PUSH1 0x40 MLOAD DUP1 SWAP2 SUB SWAP1 LOG2 POP JUMP JUMPDEST PUSH1 0x60 PUSH2 0x2E33 DUP4 PUSH2 0x252D JUMP JUMPDEST PUSH2 0x2E72 JUMPI PUSH1 0x40 MLOAD PUSH32 0x8C379A000000000000000000000000000000000000000000000000000000000 DUP2 MSTORE PUSH1 0x4 ADD PUSH2 0x2E69 SWAP1 PUSH2 0x510D JUMP JUMPDEST PUSH1 0x40 MLOAD DUP1 SWAP2 SUB SWAP1 REVERT JUMPDEST PUSH1 0x0 DUP1 DUP5 PUSH20 0xFFFFFFFFFFFFFFFFFFFFFFFFFFFFFFFFFFFFFFFF AND DUP5 PUSH1 0x40 MLOAD PUSH2 0x2E9A SWAP2 SWAP1 PUSH2 0x480F JUMP JUMPDEST PUSH1 0x0 PUSH1 0x40 MLOAD DUP1 DUP4 SUB DUP2 DUP6 GAS DELEGATECALL SWAP2 POP POP RETURNDATASIZE DUP1 PUSH1 0x0 DUP2 EQ PUSH2 0x2ED5 JUMPI PUSH1 0x40 MLOAD SWAP2 POP PUSH1 0x1F NOT PUSH1 0x3F RETURNDATASIZE ADD AND DUP3 ADD PUSH1 0x40 MSTORE RETURNDATASIZE DUP3 MSTORE RETURNDATASIZE PUSH1 0x0 PUSH1 0x20 DUP5 ADD RETURNDATACOPY PUSH2 0x2EDA JUMP JUMPDEST PUSH1 0x60 SWAP2 POP JUMPDEST POP SWAP2 POP SWAP2 POP PUSH2 0x2F02 DUP3 DUP3 PUSH1 0x40 MLOAD DUP1 PUSH1 0x60 ADD PUSH1 0x40 MSTORE DUP1 PUSH1 0x27 DUP2 MSTORE PUSH1 0x20 ADD PUSH2 0x5206 PUSH1 0x27 SWAP2 CODECOPY PUSH2 0x30E5 JUMP JUMPDEST SWAP3 POP POP POP SWAP3 SWAP2 POP POP JUMP JUMPDEST PUSH1 0x0 PUSH20 0xFFFFFFFFFFFFFFFFFFFFFFFFFFFFFFFFFFFFFFFF AND DUP3 PUSH20 0xFFFFFFFFFFFFFFFFFFFFFFFFFFFFFFFFFFFFFFFF AND SUB PUSH2 0x2F7B JUMPI PUSH1 0x40 MLOAD PUSH32 0x8C379A000000000000000000000000000000000000000000000000000000000 DUP2 MSTORE PUSH1 0x4 ADD PUSH2 0x2F72 SWAP1 PUSH2 0x5179 JUMP JUMPDEST PUSH1 0x40 MLOAD DUP1 SWAP2 SUB SWAP1 REVERT JUMPDEST PUSH2 0x2F84 DUP2 PUSH2 0x2657 JUMP JUMPDEST ISZERO PUSH2 0x2FC4 JUMPI PUSH1 0x40 MLOAD PUSH32 0x8C379A000000000000000000000000000000000000000000000000000000000 DUP2 MSTORE PUSH1 0x4 ADD PUSH2 0x2FBB SWAP1 PUSH2 0x51E5 JUMP JUMPDEST PUSH1 0x40 MLOAD DUP1 SWAP2 SUB SWAP1 REVERT JUMPDEST PUSH2 0x2FD0 PUSH1 0x0 DUP4 DUP4 PUSH2 0x2A20 JUMP JUMPDEST PUSH1 0x1 PUSH1 0x68 PUSH1 0x0 DUP5 PUSH20 0xFFFFFFFFFFFFFFFFFFFFFFFFFFFFFFFFFFFFFFFF AND PUSH20 0xFFFFFFFFFFFFFFFFFFFFFFFFFFFFFFFFFFFFFFFF AND DUP2 MSTORE PUSH1 0x20 ADD SWAP1 DUP2 MSTORE PUSH1 0x20 ADD PUSH1 0x0 KECCAK256 PUSH1 0x0 DUP3 DUP3 SLOAD PUSH2 0x3020 SWAP2 SWAP1 PUSH2 0x4A10 JUMP JUMPDEST SWAP3 POP POP DUP2 SWAP1 SSTORE POP DUP2 PUSH1 0x67 PUSH1 0x0 DUP4 DUP2 MSTORE PUSH1 0x20 ADD SWAP1 DUP2 MSTORE PUSH1 0x20 ADD PUSH1 0x0 KECCAK256 PUSH1 0x0 PUSH2 0x100 EXP DUP2 SLOAD DUP2 PUSH20 0xFFFFFFFFFFFFFFFFFFFFFFFFFFFFFFFFFFFFFFFF MUL NOT AND SWAP1 DUP4 PUSH20 0xFFFFFFFFFFFFFFFFFFFFFFFFFFFFFFFFFFFFFFFF AND MUL OR SWAP1 SSTORE POP DUP1 DUP3 PUSH20 0xFFFFFFFFFFFFFFFFFFFFFFFFFFFFFFFFFFFFFFFF AND PUSH1 0x0 PUSH20 0xFFFFFFFFFFFFFFFFFFFFFFFFFFFFFFFFFFFFFFFF AND PUSH32 0xDDF252AD1BE2C89B69C2B068FC378DAA952BA7F163C4A11628F55A4DF523B3EF PUSH1 0x40 MLOAD PUSH1 0x40 MLOAD DUP1 SWAP2 SUB SWAP1 LOG4 PUSH2 0x30E1 PUSH1 0x0 DUP4 DUP4 PUSH2 0x2A25 JUMP JUMPDEST POP POP JUMP JUMPDEST PUSH1 0x60 DUP4 ISZERO PUSH2 0x30F5 JUMPI DUP3 SWAP1 POP PUSH2 0x3145 JUMP JUMPDEST PUSH1 0x0 DUP4 MLOAD GT ISZERO PUSH2 0x3108 JUMPI DUP3 MLOAD DUP1 DUP5 PUSH1 0x20 ADD REVERT JUMPDEST DUP2 PUSH1 0x40 MLOAD PUSH32 0x8C379A000000000000000000000000000000000000000000000000000000000 DUP2 MSTORE PUSH1 0x4 ADD PUSH2 0x313C SWAP2 SWAP1 PUSH2 0x32C5 JUMP JUMPDEST PUSH1 0x40 MLOAD DUP1 SWAP2 SUB SWAP1 REVERT JUMPDEST SWAP4 SWAP3 POP POP POP JUMP JUMPDEST PUSH1 0x40 MLOAD DUP1 PUSH1 0x40 ADD PUSH1 0x40 MSTORE DUP1 PUSH1 0x60 DUP2 MSTORE PUSH1 0x20 ADD PUSH1 0x60 DUP2 MSTORE POP SWAP1 JUMP JUMPDEST PUSH1 0x0 PUSH1 0x40 MLOAD SWAP1 POP SWAP1 JUMP JUMPDEST PUSH1 0x0 DUP1 REVERT JUMPDEST PUSH1 0x0 DUP1 REVERT JUMPDEST PUSH1 0x0 PUSH32 0xFFFFFFFF00000000000000000000000000000000000000000000000000000000 DUP3 AND SWAP1 POP SWAP2 SWAP1 POP JUMP JUMPDEST PUSH2 0x31AF DUP2 PUSH2 0x317A JUMP JUMPDEST DUP2 EQ PUSH2 0x31BA JUMPI PUSH1 0x0 DUP1 REVERT JUMPDEST POP JUMP JUMPDEST PUSH1 0x0 DUP2 CALLDATALOAD SWAP1 POP PUSH2 0x31CC DUP2 PUSH2 0x31A6 JUMP JUMPDEST SWAP3 SWAP2 POP POP JUMP JUMPDEST PUSH1 0x0 PUSH1 0x20 DUP3 DUP5 SUB SLT ISZERO PUSH2 0x31E8 JUMPI PUSH2 0x31E7 PUSH2 0x3170 JUMP JUMPDEST JUMPDEST PUSH1 0x0 PUSH2 0x31F6 DUP5 DUP3 DUP6 ADD PUSH2 0x31BD JUMP JUMPDEST SWAP2 POP POP SWAP3 SWAP2 POP POP JUMP JUMPDEST PUSH1 0x0 DUP2 ISZERO ISZERO SWAP1 POP SWAP2 SWAP1 POP JUMP JUMPDEST PUSH2 0x3214 DUP2 PUSH2 0x31FF JUMP JUMPDEST DUP3 MSTORE POP POP JUMP JUMPDEST PUSH1 0x0 PUSH1 0x20 DUP3 ADD SWAP1 POP PUSH2 0x322F PUSH1 0x0 DUP4 ADD DUP5 PUSH2 0x320B JUMP JUMPDEST SWAP3 SWAP2 POP POP JUMP JUMPDEST PUSH1 0x0 DUP2 MLOAD SWAP1 POP SWAP2 SWAP1 POP JUMP JUMPDEST PUSH1 0x0 DUP3 DUP3 MSTORE PUSH1 0x20 DUP3 ADD SWAP1 POP SWAP3 SWAP2 POP POP JUMP JUMPDEST PUSH1 0x0 JUMPDEST DUP4 DUP2 LT ISZERO PUSH2 0x326F JUMPI DUP1 DUP3 ADD MLOAD DUP2 DUP5 ADD MSTORE PUSH1 0x20 DUP2 ADD SWAP1 POP PUSH2 0x3254 JUMP JUMPDEST PUSH1 0x0 DUP5 DUP5 ADD MSTORE POP POP POP POP JUMP JUMPDEST PUSH1 0x0 PUSH1 0x1F NOT PUSH1 0x1F DUP4 ADD AND SWAP1 POP SWAP2 SWAP1 POP JUMP JUMPDEST PUSH1 0x0 PUSH2 0x3297 DUP3 PUSH2 0x3235 JUMP JUMPDEST PUSH2 0x32A1 DUP2 DUP6 PUSH2 0x3240 JUMP JUMPDEST SWAP4 POP PUSH2 0x32B1 DUP2 DUP6 PUSH1 0x20 DUP7 ADD PUSH2 0x3251 JUMP JUMPDEST PUSH2 0x32BA DUP2 PUSH2 0x327B JUMP JUMPDEST DUP5 ADD SWAP2 POP POP SWAP3 SWAP2 POP POP JUMP JUMPDEST PUSH1 0x0 PUSH1 0x20 DUP3 ADD SWAP1 POP DUP2 DUP2 SUB PUSH1 0x0 DUP4 ADD MSTORE PUSH2 0x32DF DUP2 DUP5 PUSH2 0x328C JUMP JUMPDEST SWAP1 POP SWAP3 SWAP2 POP POP JUMP JUMPDEST PUSH1 0x0 DUP2 SWAP1 POP SWAP2 SWAP1 POP JUMP JUMPDEST PUSH2 0x32FA DUP2 PUSH2 0x32E7 JUMP JUMPDEST DUP2 EQ PUSH2 0x3305 JUMPI PUSH1 0x0 DUP1 REVERT JUMPDEST POP JUMP JUMPDEST PUSH1 0x0 DUP2 CALLDATALOAD SWAP1 POP PUSH2 0x3317 DUP2 PUSH2 0x32F1 JUMP JUMPDEST SWAP3 SWAP2 POP POP JUMP JUMPDEST PUSH1 0x0 PUSH1 0x20 DUP3 DUP5 SUB SLT ISZERO PUSH2 0x3333 JUMPI PUSH2 0x3332 PUSH2 0x3170 JUMP JUMPDEST JUMPDEST PUSH1 0x0 PUSH2 0x3341 DUP5 DUP3 DUP6 ADD PUSH2 0x3308 JUMP JUMPDEST SWAP2 POP POP SWAP3 SWAP2 POP POP JUMP JUMPDEST PUSH1 0x0 PUSH20 0xFFFFFFFFFFFFFFFFFFFFFFFFFFFFFFFFFFFFFFFF DUP3 AND SWAP1 POP SWAP2 SWAP1 POP JUMP JUMPDEST PUSH1 0x0 PUSH2 0x3375 DUP3 PUSH2 0x334A JUMP JUMPDEST SWAP1 POP SWAP2 SWAP1 POP JUMP JUMPDEST PUSH2 0x3385 DUP2 PUSH2 0x336A JUMP JUMPDEST DUP3 MSTORE POP POP JUMP JUMPDEST PUSH1 0x0 PUSH1 0x20 DUP3 ADD SWAP1 POP PUSH2 0x33A0 PUSH1 0x0 DUP4 ADD DUP5 PUSH2 0x337C JUMP JUMPDEST SWAP3 SWAP2 POP POP JUMP JUMPDEST PUSH2 0x33AF DUP2 PUSH2 0x336A JUMP JUMPDEST DUP2 EQ PUSH2 0x33BA JUMPI PUSH1 0x0 DUP1 REVERT JUMPDEST POP JUMP JUMPDEST PUSH1 0x0 DUP2 CALLDATALOAD SWAP1 POP PUSH2 0x33CC DUP2 PUSH2 0x33A6 JUMP JUMPDEST SWAP3 SWAP2 POP POP JUMP JUMPDEST PUSH1 0x0 DUP1 PUSH1 0x40 DUP4 DUP6 SUB SLT ISZERO PUSH2 0x33E9 JUMPI PUSH2 0x33E8 PUSH2 0x3170 JUMP JUMPDEST JUMPDEST PUSH1 0x0 PUSH2 0x33F7 DUP6 DUP3 DUP7 ADD PUSH2 0x33BD JUMP JUMPDEST SWAP3 POP POP PUSH1 0x20 PUSH2 0x3408 DUP6 DUP3 DUP7 ADD PUSH2 0x3308 JUMP JUMPDEST SWAP2 POP POP SWAP3 POP SWAP3 SWAP1 POP JUMP JUMPDEST PUSH1 0x0 DUP1 PUSH1 0x0 PUSH1 0x60 DUP5 DUP7 SUB SLT ISZERO PUSH2 0x342B JUMPI PUSH2 0x342A PUSH2 0x3170 JUMP JUMPDEST JUMPDEST PUSH1 0x0 PUSH2 0x3439 DUP7 DUP3 DUP8 ADD PUSH2 0x33BD JUMP JUMPDEST SWAP4 POP POP PUSH1 0x20 PUSH2 0x344A DUP7 DUP3 DUP8 ADD PUSH2 0x33BD JUMP JUMPDEST SWAP3 POP POP PUSH1 0x40 PUSH2 0x345B DUP7 DUP3 DUP8 ADD PUSH2 0x3308 JUMP JUMPDEST SWAP2 POP POP SWAP3 POP SWAP3 POP SWAP3 JUMP JUMPDEST PUSH1 0x0 PUSH1 0x20 DUP3 DUP5 SUB SLT ISZERO PUSH2 0x347B JUMPI PUSH2 0x347A PUSH2 0x3170 JUMP JUMPDEST JUMPDEST PUSH1 0x0 PUSH2 0x3489 DUP5 DUP3 DUP6 ADD PUSH2 0x33BD JUMP JUMPDEST SWAP2 POP POP SWAP3 SWAP2 POP POP JUMP JUMPDEST PUSH1 0x0 DUP1 REVERT JUMPDEST PUSH1 0x0 DUP1 REVERT JUMPDEST PUSH32 0x4E487B7100000000000000000000000000000000000000000000000000000000 PUSH1 0x0 MSTORE PUSH1 0x41 PUSH1 0x4 MSTORE PUSH1 0x24 PUSH1 0x0 REVERT JUMPDEST PUSH2 0x34D4 DUP3 PUSH2 0x327B JUMP JUMPDEST DUP2 ADD DUP2 DUP2 LT PUSH8 0xFFFFFFFFFFFFFFFF DUP3 GT OR ISZERO PUSH2 0x34F3 JUMPI PUSH2 0x34F2 PUSH2 0x349C JUMP JUMPDEST JUMPDEST DUP1 PUSH1 0x40 MSTORE POP POP POP JUMP JUMPDEST PUSH1 0x0 PUSH2 0x3506 PUSH2 0x3166 JUMP JUMPDEST SWAP1 POP PUSH2 0x3512 DUP3 DUP3 PUSH2 0x34CB JUMP JUMPDEST SWAP2 SWAP1 POP JUMP JUMPDEST PUSH1 0x0 PUSH8 0xFFFFFFFFFFFFFFFF DUP3 GT ISZERO PUSH2 0x3532 JUMPI PUSH2 0x3531 PUSH2 0x349C JUMP JUMPDEST JUMPDEST PUSH2 0x353B DUP3 PUSH2 0x327B JUMP JUMPDEST SWAP1 POP PUSH1 0x20 DUP2 ADD SWAP1 POP SWAP2 SWAP1 POP JUMP JUMPDEST DUP3 DUP2 DUP4 CALLDATACOPY PUSH1 0x0 DUP4 DUP4 ADD MSTORE POP POP POP JUMP JUMPDEST PUSH1 0x0 PUSH2 0x356A PUSH2 0x3565 DUP5 PUSH2 0x3517 JUMP JUMPDEST PUSH2 0x34FC JUMP JUMPDEST SWAP1 POP DUP3 DUP2 MSTORE PUSH1 0x20 DUP2 ADD DUP5 DUP5 DUP5 ADD GT ISZERO PUSH2 0x3586 JUMPI PUSH2 0x3585 PUSH2 0x3497 JUMP JUMPDEST JUMPDEST PUSH2 0x3591 DUP5 DUP3 DUP6 PUSH2 0x3548 JUMP JUMPDEST POP SWAP4 SWAP3 POP POP POP JUMP JUMPDEST PUSH1 0x0 DUP3 PUSH1 0x1F DUP4 ADD SLT PUSH2 0x35AE JUMPI PUSH2 0x35AD PUSH2 0x3492 JUMP JUMPDEST JUMPDEST DUP2 CALLDATALOAD PUSH2 0x35BE DUP5 DUP3 PUSH1 0x20 DUP7 ADD PUSH2 0x3557 JUMP JUMPDEST SWAP2 POP POP SWAP3 SWAP2 POP POP JUMP JUMPDEST PUSH1 0x0 DUP1 PUSH1 0x40 DUP4 DUP6 SUB SLT ISZERO PUSH2 0x35DE JUMPI PUSH2 0x35DD PUSH2 0x3170 JUMP JUMPDEST JUMPDEST PUSH1 0x0 PUSH2 0x35EC DUP6 DUP3 DUP7 ADD PUSH2 0x33BD JUMP JUMPDEST SWAP3 POP POP PUSH1 0x20 DUP4 ADD CALLDATALOAD PUSH8 0xFFFFFFFFFFFFFFFF DUP2 GT ISZERO PUSH2 0x360D JUMPI PUSH2 0x360C PUSH2 0x3175 JUMP JUMPDEST JUMPDEST PUSH2 0x3619 DUP6 DUP3 DUP7 ADD PUSH2 0x3599 JUMP JUMPDEST SWAP2 POP POP SWAP3 POP SWAP3 SWAP1 POP JUMP JUMPDEST PUSH1 0x0 DUP2 SWAP1 POP SWAP2 SWAP1 POP JUMP JUMPDEST PUSH2 0x3636 DUP2 PUSH2 0x3623 JUMP JUMPDEST DUP3 MSTORE POP POP JUMP JUMPDEST PUSH1 0x0 PUSH1 0x20 DUP3 ADD SWAP1 POP PUSH2 0x3651 PUSH1 0x0 DUP4 ADD DUP5 PUSH2 0x362D JUMP JUMPDEST SWAP3 SWAP2 POP POP JUMP JUMPDEST PUSH1 0x0 PUSH2 0x3662 DUP3 PUSH2 0x334A JUMP JUMPDEST SWAP1 POP SWAP2 SWAP1 POP JUMP JUMPDEST PUSH2 0x3672 DUP2 PUSH2 0x3657 JUMP JUMPDEST DUP2 EQ PUSH2 0x367D JUMPI PUSH1 0x0 DUP1 REVERT JUMPDEST POP JUMP JUMPDEST PUSH1 0x0 DUP2 CALLDATALOAD SWAP1 POP PUSH2 0x368F DUP2 PUSH2 0x3669 JUMP JUMPDEST SWAP3 SWAP2 POP POP JUMP JUMPDEST PUSH1 0x0 PUSH1 0x20 DUP3 DUP5 SUB SLT ISZERO PUSH2 0x36AB JUMPI PUSH2 0x36AA PUSH2 0x3170 JUMP JUMPDEST JUMPDEST PUSH1 0x0 PUSH2 0x36B9 DUP5 DUP3 DUP6 ADD PUSH2 0x3680 JUMP JUMPDEST SWAP2 POP POP SWAP3 SWAP2 POP POP JUMP JUMPDEST PUSH1 0x0 DUP1 REVERT JUMPDEST PUSH1 0x0 DUP1 REVERT JUMPDEST PUSH1 0x0 DUP1 DUP4 PUSH1 0x1F DUP5 ADD SLT PUSH2 0x36E2 JUMPI PUSH2 0x36E1 PUSH2 0x3492 JUMP JUMPDEST JUMPDEST DUP3 CALLDATALOAD SWAP1 POP PUSH8 0xFFFFFFFFFFFFFFFF DUP2 GT ISZERO PUSH2 0x36FF JUMPI PUSH2 0x36FE PUSH2 0x36C2 JUMP JUMPDEST JUMPDEST PUSH1 0x20 DUP4 ADD SWAP2 POP DUP4 PUSH1 0x1 DUP3 MUL DUP4 ADD GT ISZERO PUSH2 0x371B JUMPI PUSH2 0x371A PUSH2 0x36C7 JUMP JUMPDEST JUMPDEST SWAP3 POP SWAP3 SWAP1 POP JUMP JUMPDEST PUSH1 0x0 DUP1 PUSH1 0x20 DUP4 DUP6 SUB SLT ISZERO PUSH2 0x3739 JUMPI PUSH2 0x3738 PUSH2 0x3170 JUMP JUMPDEST JUMPDEST PUSH1 0x0 DUP4 ADD CALLDATALOAD PUSH8 0xFFFFFFFFFFFFFFFF DUP2 GT ISZERO PUSH2 0x3757 JUMPI PUSH2 0x3756 PUSH2 0x3175 JUMP JUMPDEST JUMPDEST PUSH2 0x3763 DUP6 DUP3 DUP7 ADD PUSH2 0x36CC JUMP JUMPDEST SWAP3 POP SWAP3 POP POP SWAP3 POP SWAP3 SWAP1 POP JUMP JUMPDEST PUSH2 0x3778 DUP2 PUSH2 0x32E7 JUMP JUMPDEST DUP3 MSTORE POP POP JUMP JUMPDEST PUSH1 0x0 PUSH1 0x20 DUP3 ADD SWAP1 POP PUSH2 0x3793 PUSH1 0x0 DUP4 ADD DUP5 PUSH2 0x376F JUMP JUMPDEST SWAP3 SWAP2 POP POP JUMP JUMPDEST PUSH1 0x0 DUP2 MLOAD SWAP1 POP SWAP2 SWAP1 POP JUMP JUMPDEST PUSH1 0x0 DUP3 DUP3 MSTORE PUSH1 0x20 DUP3 ADD SWAP1 POP SWAP3 SWAP2 POP POP JUMP JUMPDEST PUSH1 0x0 PUSH2 0x37C0 DUP3 PUSH2 0x3799 JUMP JUMPDEST PUSH2 0x37CA DUP2 DUP6 PUSH2 0x37A4 JUMP JUMPDEST SWAP4 POP PUSH2 0x37DA DUP2 DUP6 PUSH1 0x20 DUP7 ADD PUSH2 0x3251 JUMP JUMPDEST PUSH2 0x37E3 DUP2 PUSH2 0x327B JUMP JUMPDEST DUP5 ADD SWAP2 POP POP SWAP3 SWAP2 POP POP JUMP JUMPDEST PUSH1 0x0 PUSH1 0x40 DUP4 ADD PUSH1 0x0 DUP4 ADD MLOAD DUP5 DUP3 SUB PUSH1 0x0 DUP7 ADD MSTORE PUSH2 0x380B DUP3 DUP3 PUSH2 0x37B5 JUMP JUMPDEST SWAP2 POP POP PUSH1 0x20 DUP4 ADD MLOAD DUP5 DUP3 SUB PUSH1 0x20 DUP7 ADD MSTORE PUSH2 0x3825 DUP3 DUP3 PUSH2 0x37B5 JUMP JUMPDEST SWAP2 POP POP DUP1 SWAP2 POP POP SWAP3 SWAP2 POP POP JUMP JUMPDEST PUSH1 0x0 PUSH1 0x20 DUP3 ADD SWAP1 POP DUP2 DUP2 SUB PUSH1 0x0 DUP4 ADD MSTORE PUSH2 0x384C DUP2 DUP5 PUSH2 0x37EE JUMP JUMPDEST SWAP1 POP SWAP3 SWAP2 POP POP JUMP JUMPDEST PUSH2 0x385D DUP2 PUSH2 0x31FF JUMP JUMPDEST DUP2 EQ PUSH2 0x3868 JUMPI PUSH1 0x0 DUP1 REVERT JUMPDEST POP JUMP JUMPDEST PUSH1 0x0 DUP2 CALLDATALOAD SWAP1 POP PUSH2 0x387A DUP2 PUSH2 0x3854 JUMP JUMPDEST SWAP3 SWAP2 POP POP JUMP JUMPDEST PUSH1 0x0 DUP1 PUSH1 0x40 DUP4 DUP6 SUB SLT ISZERO PUSH2 0x3897 JUMPI PUSH2 0x3896 PUSH2 0x3170 JUMP JUMPDEST JUMPDEST PUSH1 0x0 PUSH2 0x38A5 DUP6 DUP3 DUP7 ADD PUSH2 0x33BD JUMP JUMPDEST SWAP3 POP POP PUSH1 0x20 PUSH2 0x38B6 DUP6 DUP3 DUP7 ADD PUSH2 0x386B JUMP JUMPDEST SWAP2 POP POP SWAP3 POP SWAP3 SWAP1 POP JUMP JUMPDEST PUSH2 0x38C9 DUP2 PUSH2 0x3623 JUMP JUMPDEST DUP2 EQ PUSH2 0x38D4 JUMPI PUSH1 0x0 DUP1 REVERT JUMPDEST POP JUMP JUMPDEST PUSH1 0x0 DUP2 CALLDATALOAD SWAP1 POP PUSH2 0x38E6 DUP2 PUSH2 0x38C0 JUMP JUMPDEST SWAP3 SWAP2 POP POP JUMP JUMPDEST PUSH1 0x0 PUSH1 0x20 DUP3 DUP5 SUB SLT ISZERO PUSH2 0x3902 JUMPI PUSH2 0x3901 PUSH2 0x3170 JUMP JUMPDEST JUMPDEST PUSH1 0x0 PUSH2 0x3910 DUP5 DUP3 DUP6 ADD PUSH2 0x38D7 JUMP JUMPDEST SWAP2 POP POP SWAP3 SWAP2 POP POP JUMP JUMPDEST PUSH1 0x0 DUP1 PUSH1 0x0 DUP1 PUSH1 0x80 DUP6 DUP8 SUB SLT ISZERO PUSH2 0x3933 JUMPI PUSH2 0x3932 PUSH2 0x3170 JUMP JUMPDEST JUMPDEST PUSH1 0x0 PUSH2 0x3941 DUP8 DUP3 DUP9 ADD PUSH2 0x33BD JUMP JUMPDEST SWAP5 POP POP PUSH1 0x20 PUSH2 0x3952 DUP8 DUP3 DUP9 ADD PUSH2 0x33BD JUMP JUMPDEST SWAP4 POP POP PUSH1 0x40 PUSH2 0x3963 DUP8 DUP3 DUP9 ADD PUSH2 0x3308 JUMP JUMPDEST SWAP3 POP POP PUSH1 0x60 DUP6 ADD CALLDATALOAD PUSH8 0xFFFFFFFFFFFFFFFF DUP2 GT ISZERO PUSH2 0x3984 JUMPI PUSH2 0x3983 PUSH2 0x3175 JUMP JUMPDEST JUMPDEST PUSH2 0x3990 DUP8 DUP3 DUP9 ADD PUSH2 0x3599 JUMP JUMPDEST SWAP2 POP POP SWAP3 SWAP6 SWAP2 SWAP5 POP SWAP3 POP JUMP JUMPDEST PUSH1 0x0 DUP3 DUP3 MSTORE PUSH1 0x20 DUP3 ADD SWAP1 POP SWAP3 SWAP2 POP POP JUMP JUMPDEST PUSH1 0x0 PUSH2 0x39B8 DUP3 PUSH2 0x3799 JUMP JUMPDEST PUSH2 0x39C2 DUP2 DUP6 PUSH2 0x399C JUMP JUMPDEST SWAP4 POP PUSH2 0x39D2 DUP2 DUP6 PUSH1 0x20 DUP7 ADD PUSH2 0x3251 JUMP JUMPDEST PUSH2 0x39DB DUP2 PUSH2 0x327B JUMP JUMPDEST DUP5 ADD SWAP2 POP POP SWAP3 SWAP2 POP POP JUMP JUMPDEST PUSH1 0x0 PUSH1 0x40 DUP3 ADD SWAP1 POP DUP2 DUP2 SUB PUSH1 0x0 DUP4 ADD MSTORE PUSH2 0x3A00 DUP2 DUP6 PUSH2 0x39AD JUMP JUMPDEST SWAP1 POP DUP2 DUP2 SUB PUSH1 0x20 DUP4 ADD MSTORE PUSH2 0x3A14 DUP2 DUP5 PUSH2 0x39AD JUMP JUMPDEST SWAP1 POP SWAP4 SWAP3 POP POP POP JUMP JUMPDEST PUSH1 0x0 DUP2 SWAP1 POP SWAP2 SWAP1 POP JUMP JUMPDEST PUSH1 0x0 PUSH2 0x3A42 PUSH2 0x3A3D PUSH2 0x3A38 DUP5 PUSH2 0x334A JUMP JUMPDEST PUSH2 0x3A1D JUMP JUMPDEST PUSH2 0x334A JUMP JUMPDEST SWAP1 POP SWAP2 SWAP1 POP JUMP JUMPDEST PUSH1 0x0 PUSH2 0x3A54 DUP3 PUSH2 0x3A27 JUMP JUMPDEST SWAP1 POP SWAP2 SWAP1 POP JUMP JUMPDEST PUSH1 0x0 PUSH2 0x3A66 DUP3 PUSH2 0x3A49 JUMP JUMPDEST SWAP1 POP SWAP2 SWAP1 POP JUMP JUMPDEST PUSH2 0x3A76 DUP2 PUSH2 0x3A5B JUMP JUMPDEST DUP3 MSTORE POP POP JUMP JUMPDEST PUSH1 0x0 PUSH1 0x20 DUP3 ADD SWAP1 POP PUSH2 0x3A91 PUSH1 0x0 DUP4 ADD DUP5 PUSH2 0x3A6D JUMP JUMPDEST SWAP3 SWAP2 POP POP JUMP JUMPDEST PUSH1 0x0 DUP1 PUSH1 0x0 DUP1 PUSH1 0x80 DUP6 DUP8 SUB SLT ISZERO PUSH2 0x3AB1 JUMPI PUSH2 0x3AB0 PUSH2 0x3170 JUMP JUMPDEST JUMPDEST PUSH1 0x0 DUP6 ADD CALLDATALOAD PUSH8 0xFFFFFFFFFFFFFFFF DUP2 GT ISZERO PUSH2 0x3ACF JUMPI PUSH2 0x3ACE PUSH2 0x3175 JUMP JUMPDEST JUMPDEST PUSH2 0x3ADB DUP8 DUP3 DUP9 ADD PUSH2 0x3599 JUMP JUMPDEST SWAP5 POP POP PUSH1 0x20 DUP6 ADD CALLDATALOAD PUSH8 0xFFFFFFFFFFFFFFFF DUP2 GT ISZERO PUSH2 0x3AFC JUMPI PUSH2 0x3AFB PUSH2 0x3175 JUMP JUMPDEST JUMPDEST PUSH2 0x3B08 DUP8 DUP3 DUP9 ADD PUSH2 0x3599 JUMP JUMPDEST SWAP4 POP POP PUSH1 0x40 PUSH2 0x3B19 DUP8 DUP3 DUP9 ADD PUSH2 0x33BD JUMP JUMPDEST SWAP3 POP POP PUSH1 0x60 PUSH2 0x3B2A DUP8 DUP3 DUP9 ADD PUSH2 0x3308 JUMP JUMPDEST SWAP2 POP POP SWAP3 SWAP6 SWAP2 SWAP5 POP SWAP3 POP JUMP JUMPDEST PUSH1 0x0 DUP1 PUSH1 0x40 DUP4 DUP6 SUB SLT ISZERO PUSH2 0x3B4D JUMPI PUSH2 0x3B4C PUSH2 0x3170 JUMP JUMPDEST JUMPDEST PUSH1 0x0 PUSH2 0x3B5B DUP6 DUP3 DUP7 ADD PUSH2 0x33BD JUMP JUMPDEST SWAP3 POP POP PUSH1 0x20 PUSH2 0x3B6C DUP6 DUP3 DUP7 ADD PUSH2 0x33BD JUMP JUMPDEST SWAP2 POP POP SWAP3 POP SWAP3 SWAP1 POP JUMP JUMPDEST PUSH1 0x0 PUSH1 0x20 DUP3 DUP5 SUB SLT ISZERO PUSH2 0x3B8C JUMPI PUSH2 0x3B8B PUSH2 0x3170 JUMP JUMPDEST JUMPDEST PUSH1 0x0 DUP3 ADD CALLDATALOAD PUSH8 0xFFFFFFFFFFFFFFFF DUP2 GT ISZERO PUSH2 0x3BAA JUMPI PUSH2 0x3BA9 PUSH2 0x3175 JUMP JUMPDEST JUMPDEST PUSH2 0x3BB6 DUP5 DUP3 DUP6 ADD PUSH2 0x3599 JUMP JUMPDEST SWAP2 POP POP SWAP3 SWAP2 POP POP JUMP JUMPDEST PUSH32 0x4E487B7100000000000000000000000000000000000000000000000000000000 PUSH1 0x0 MSTORE PUSH1 0x22 PUSH1 0x4 MSTORE PUSH1 0x24 PUSH1 0x0 REVERT JUMPDEST PUSH1 0x0 PUSH1 0x2 DUP3 DIV SWAP1 POP PUSH1 0x1 DUP3 AND DUP1 PUSH2 0x3C06 JUMPI PUSH1 0x7F DUP3 AND SWAP2 POP JUMPDEST PUSH1 0x20 DUP3 LT DUP2 SUB PUSH2 0x3C19 JUMPI PUSH2 0x3C18 PUSH2 0x3BBF JUMP JUMPDEST JUMPDEST POP SWAP2 SWAP1 POP JUMP JUMPDEST PUSH32 0x4552433732313A20617070726F76616C20746F2063757272656E74206F776E65 PUSH1 0x0 DUP3 ADD MSTORE PUSH32 0x7200000000000000000000000000000000000000000000000000000000000000 PUSH1 0x20 DUP3 ADD MSTORE POP JUMP JUMPDEST PUSH1 0x0 PUSH2 0x3C7B PUSH1 0x21 DUP4 PUSH2 0x3240 JUMP JUMPDEST SWAP2 POP PUSH2 0x3C86 DUP3 PUSH2 0x3C1F JUMP JUMPDEST PUSH1 0x40 DUP3 ADD SWAP1 POP SWAP2 SWAP1 POP JUMP JUMPDEST PUSH1 0x0 PUSH1 0x20 DUP3 ADD SWAP1 POP DUP2 DUP2 SUB PUSH1 0x0 DUP4 ADD MSTORE PUSH2 0x3CAA DUP2 PUSH2 0x3C6E JUMP JUMPDEST SWAP1 POP SWAP2 SWAP1 POP JUMP JUMPDEST PUSH32 0x4552433732313A20617070726F76652063616C6C6572206973206E6F7420746F PUSH1 0x0 DUP3 ADD MSTORE PUSH32 0x6B656E206F776E6572206E6F7220617070726F76656420666F7220616C6C0000 PUSH1 0x20 DUP3 ADD MSTORE POP JUMP JUMPDEST PUSH1 0x0 PUSH2 0x3D0D PUSH1 0x3E DUP4 PUSH2 0x3240 JUMP JUMPDEST SWAP2 POP PUSH2 0x3D18 DUP3 PUSH2 0x3CB1 JUMP JUMPDEST PUSH1 0x40 DUP3 ADD SWAP1 POP SWAP2 SWAP1 POP JUMP JUMPDEST PUSH1 0x0 PUSH1 0x20 DUP3 ADD SWAP1 POP DUP2 DUP2 SUB PUSH1 0x0 DUP4 ADD MSTORE PUSH2 0x3D3C DUP2 PUSH2 0x3D00 JUMP JUMPDEST SWAP1 POP SWAP2 SWAP1 POP JUMP JUMPDEST PUSH32 0x4552433732313A2063616C6C6572206973206E6F7420746F6B656E206F776E65 PUSH1 0x0 DUP3 ADD MSTORE PUSH32 0x72206E6F7220617070726F766564000000000000000000000000000000000000 PUSH1 0x20 DUP3 ADD MSTORE POP JUMP JUMPDEST PUSH1 0x0 PUSH2 0x3D9F PUSH1 0x2E DUP4 PUSH2 0x3240 JUMP JUMPDEST SWAP2 POP PUSH2 0x3DAA DUP3 PUSH2 0x3D43 JUMP JUMPDEST PUSH1 0x40 DUP3 ADD SWAP1 POP SWAP2 SWAP1 POP JUMP JUMPDEST PUSH1 0x0 PUSH1 0x20 DUP3 ADD SWAP1 POP DUP2 DUP2 SUB PUSH1 0x0 DUP4 ADD MSTORE PUSH2 0x3DCE DUP2 PUSH2 0x3D92 JUMP JUMPDEST SWAP1 POP SWAP2 SWAP1 POP JUMP JUMPDEST PUSH32 0x46756E6374696F6E206D7573742062652063616C6C6564207468726F75676820 PUSH1 0x0 DUP3 ADD MSTORE PUSH32 0x64656C656761746563616C6C0000000000000000000000000000000000000000 PUSH1 0x20 DUP3 ADD MSTORE POP JUMP JUMPDEST PUSH1 0x0 PUSH2 0x3E31 PUSH1 0x2C DUP4 PUSH2 0x3240 JUMP JUMPDEST SWAP2 POP PUSH2 0x3E3C DUP3 PUSH2 0x3DD5 JUMP JUMPDEST PUSH1 0x40 DUP3 ADD SWAP1 POP SWAP2 SWAP1 POP JUMP JUMPDEST PUSH1 0x0 PUSH1 0x20 DUP3 ADD SWAP1 POP DUP2 DUP2 SUB PUSH1 0x0 DUP4 ADD MSTORE PUSH2 0x3E60 DUP2 PUSH2 0x3E24 JUMP JUMPDEST SWAP1 POP SWAP2 SWAP1 POP JUMP JUMPDEST PUSH32 0x46756E6374696F6E206D7573742062652063616C6C6564207468726F75676820 PUSH1 0x0 DUP3 ADD MSTORE PUSH32 0x6163746976652070726F78790000000000000000000000000000000000000000 PUSH1 0x20 DUP3 ADD MSTORE POP JUMP JUMPDEST PUSH1 0x0 PUSH2 0x3EC3 PUSH1 0x2C DUP4 PUSH2 0x3240 JUMP JUMPDEST SWAP2 POP PUSH2 0x3ECE DUP3 PUSH2 0x3E67 JUMP JUMPDEST PUSH1 0x40 DUP3 ADD SWAP1 POP SWAP2 SWAP1 POP JUMP JUMPDEST PUSH1 0x0 PUSH1 0x20 DUP3 ADD SWAP1 POP DUP2 DUP2 SUB PUSH1 0x0 DUP4 ADD MSTORE PUSH2 0x3EF2 DUP2 PUSH2 0x3EB6 JUMP JUMPDEST SWAP1 POP SWAP2 SWAP1 POP JUMP JUMPDEST PUSH32 0x555550535570677261646561626C653A206D757374206E6F742062652063616C PUSH1 0x0 DUP3 ADD MSTORE PUSH32 0x6C6564207468726F7567682064656C656761746563616C6C0000000000000000 PUSH1 0x20 DUP3 ADD MSTORE POP JUMP JUMPDEST PUSH1 0x0 PUSH2 0x3F55 PUSH1 0x38 DUP4 PUSH2 0x3240 JUMP JUMPDEST SWAP2 POP PUSH2 0x3F60 DUP3 PUSH2 0x3EF9 JUMP JUMPDEST PUSH1 0x40 DUP3 ADD SWAP1 POP SWAP2 SWAP1 POP JUMP JUMPDEST PUSH1 0x0 PUSH1 0x20 DUP3 ADD SWAP1 POP DUP2 DUP2 SUB PUSH1 0x0 DUP4 ADD MSTORE PUSH2 0x3F84 DUP2 PUSH2 0x3F48 JUMP JUMPDEST SWAP1 POP SWAP2 SWAP1 POP JUMP JUMPDEST PUSH32 0x4552433732313A20696E76616C696420746F6B656E2049440000000000000000 PUSH1 0x0 DUP3 ADD MSTORE POP JUMP JUMPDEST PUSH1 0x0 PUSH2 0x3FC1 PUSH1 0x18 DUP4 PUSH2 0x3240 JUMP JUMPDEST SWAP2 POP PUSH2 0x3FCC DUP3 PUSH2 0x3F8B JUMP JUMPDEST PUSH1 0x20 DUP3 ADD SWAP1 POP SWAP2 SWAP1 POP JUMP JUMPDEST PUSH1 0x0 PUSH1 0x20 DUP3 ADD SWAP1 POP DUP2 DUP2 SUB PUSH1 0x0 DUP4 ADD MSTORE PUSH2 0x3FF0 DUP2 PUSH2 0x3FB4 JUMP JUMPDEST SWAP1 POP SWAP2 SWAP1 POP JUMP JUMPDEST PUSH1 0x0 DUP2 SWAP1 POP SWAP3 SWAP2 POP POP JUMP JUMPDEST PUSH1 0x0 PUSH2 0x400E DUP4 DUP6 PUSH2 0x3FF7 JUMP JUMPDEST SWAP4 POP PUSH2 0x401B DUP4 DUP6 DUP5 PUSH2 0x3548 JUMP JUMPDEST DUP3 DUP5 ADD SWAP1 POP SWAP4 SWAP3 POP POP POP JUMP JUMPDEST PUSH1 0x0 PUSH2 0x4034 DUP3 DUP5 DUP7 PUSH2 0x4002 JUMP JUMPDEST SWAP2 POP DUP2 SWAP1 POP SWAP4 SWAP3 POP POP POP JUMP JUMPDEST PUSH32 0x6D6F64656C2073686F756C646E277420626520616C7265616479207365740000 PUSH1 0x0 DUP3 ADD MSTORE POP JUMP JUMPDEST PUSH1 0x0 PUSH2 0x4076 PUSH1 0x1E DUP4 PUSH2 0x3240 JUMP JUMPDEST SWAP2 POP PUSH2 0x4081 DUP3 PUSH2 0x4040 JUMP JUMPDEST PUSH1 0x20 DUP3 ADD SWAP1 POP SWAP2 SWAP1 POP JUMP JUMPDEST PUSH1 0x0 PUSH1 0x20 DUP3 ADD SWAP1 POP DUP2 DUP2 SUB PUSH1 0x0 DUP4 ADD MSTORE PUSH2 0x40A5 DUP2 PUSH2 0x4069 JUMP JUMPDEST SWAP1 POP SWAP2 SWAP1 POP JUMP JUMPDEST PUSH32 0x4552433732313A2061646472657373207A65726F206973206E6F742061207661 PUSH1 0x0 DUP3 ADD MSTORE PUSH32 0x6C6964206F776E65720000000000000000000000000000000000000000000000 PUSH1 0x20 DUP3 ADD MSTORE POP JUMP JUMPDEST PUSH1 0x0 PUSH2 0x4108 PUSH1 0x29 DUP4 PUSH2 0x3240 JUMP JUMPDEST SWAP2 POP PUSH2 0x4113 DUP3 PUSH2 0x40AC JUMP JUMPDEST PUSH1 0x40 DUP3 ADD SWAP1 POP SWAP2 SWAP1 POP JUMP JUMPDEST PUSH1 0x0 PUSH1 0x20 DUP3 ADD SWAP1 POP DUP2 DUP2 SUB PUSH1 0x0 DUP4 ADD MSTORE PUSH2 0x4137 DUP2 PUSH2 0x40FB JUMP JUMPDEST SWAP1 POP SWAP2 SWAP1 POP JUMP JUMPDEST PUSH32 0x496E697469616C697A61626C653A20636F6E747261637420697320616C726561 PUSH1 0x0 DUP3 ADD MSTORE PUSH32 0x647920696E697469616C697A6564000000000000000000000000000000000000 PUSH1 0x20 DUP3 ADD MSTORE POP JUMP JUMPDEST PUSH1 0x0 PUSH2 0x419A PUSH1 0x2E DUP4 PUSH2 0x3240 JUMP JUMPDEST SWAP2 POP PUSH2 0x41A5 DUP3 PUSH2 0x413E JUMP JUMPDEST PUSH1 0x40 DUP3 ADD SWAP1 POP SWAP2 SWAP1 POP JUMP JUMPDEST PUSH1 0x0 PUSH1 0x20 DUP3 ADD SWAP1 POP DUP2 DUP2 SUB PUSH1 0x0 DUP4 ADD MSTORE PUSH2 0x41C9 DUP2 PUSH2 0x418D JUMP JUMPDEST SWAP1 POP SWAP2 SWAP1 POP JUMP JUMPDEST PUSH1 0x0 DUP2 SWAP1 POP SWAP2 SWAP1 POP JUMP JUMPDEST PUSH1 0x0 PUSH1 0xFF DUP3 AND SWAP1 POP SWAP2 SWAP1 POP JUMP JUMPDEST PUSH1 0x0 PUSH2 0x4202 PUSH2 0x41FD PUSH2 0x41F8 DUP5 PUSH2 0x41D0 JUMP JUMPDEST PUSH2 0x3A1D JUMP JUMPDEST PUSH2 0x41DA JUMP JUMPDEST SWAP1 POP SWAP2 SWAP1 POP JUMP JUMPDEST PUSH2 0x4212 DUP2 PUSH2 0x41E7 JUMP JUMPDEST DUP3 MSTORE POP POP JUMP JUMPDEST PUSH1 0x0 PUSH1 0x20 DUP3 ADD SWAP1 POP PUSH2 0x422D PUSH1 0x0 DUP4 ADD DUP5 PUSH2 0x4209 JUMP JUMPDEST SWAP3 SWAP2 POP POP JUMP JUMPDEST PUSH32 0x746F6B656E20646F6573206E6F74206578697374000000000000000000000000 PUSH1 0x0 DUP3 ADD MSTORE POP JUMP JUMPDEST PUSH1 0x0 PUSH2 0x4269 PUSH1 0x14 DUP4 PUSH2 0x3240 JUMP JUMPDEST SWAP2 POP PUSH2 0x4274 DUP3 PUSH2 0x4233 JUMP JUMPDEST PUSH1 0x20 DUP3 ADD SWAP1 POP SWAP2 SWAP1 POP JUMP JUMPDEST PUSH1 0x0 PUSH1 0x20 DUP3 ADD SWAP1 POP DUP2 DUP2 SUB PUSH1 0x0 DUP4 ADD MSTORE PUSH2 0x4298 DUP2 PUSH2 0x425C JUMP JUMPDEST SWAP1 POP SWAP2 SWAP1 POP JUMP JUMPDEST PUSH1 0x0 PUSH3 0xFFFFFF DUP3 AND SWAP1 POP SWAP2 SWAP1 POP JUMP JUMPDEST PUSH2 0x42B7 DUP2 PUSH2 0x429F JUMP JUMPDEST DUP3 MSTORE POP POP JUMP JUMPDEST PUSH2 0x42C6 DUP2 PUSH2 0x334A JUMP JUMPDEST DUP3 MSTORE POP POP JUMP JUMPDEST PUSH1 0x0 PUSH1 0xA0 DUP3 ADD SWAP1 POP PUSH2 0x42E1 PUSH1 0x0 DUP4 ADD DUP9 PUSH2 0x337C JUMP JUMPDEST PUSH2 0x42EE PUSH1 0x20 DUP4 ADD DUP8 PUSH2 0x337C JUMP JUMPDEST PUSH2 0x42FB PUSH1 0x40 DUP4 ADD DUP7 PUSH2 0x42AE JUMP JUMPDEST PUSH2 0x4308 PUSH1 0x60 DUP4 ADD DUP6 PUSH2 0x376F JUMP JUMPDEST PUSH2 0x4315 PUSH1 0x80 DUP4 ADD DUP5 PUSH2 0x42BD JUMP JUMPDEST SWAP7 SWAP6 POP POP POP POP POP POP JUMP JUMPDEST PUSH1 0x0 DUP2 MLOAD SWAP1 POP PUSH2 0x432E DUP2 PUSH2 0x32F1 JUMP JUMPDEST SWAP3 SWAP2 POP POP JUMP JUMPDEST PUSH1 0x0 PUSH1 0x20 DUP3 DUP5 SUB SLT ISZERO PUSH2 0x434A JUMPI PUSH2 0x4349 PUSH2 0x3170 JUMP JUMPDEST JUMPDEST PUSH1 0x0 PUSH2 0x4358 DUP5 DUP3 DUP6 ADD PUSH2 0x431F JUMP JUMPDEST SWAP2 POP POP SWAP3 SWAP2 POP POP JUMP JUMPDEST PUSH1 0x0 DUP2 SWAP1 POP SWAP3 SWAP2 POP POP JUMP JUMPDEST PUSH1 0x0 PUSH2 0x4377 DUP3 PUSH2 0x3235 JUMP JUMPDEST PUSH2 0x4381 DUP2 DUP6 PUSH2 0x4361 JUMP JUMPDEST SWAP4 POP PUSH2 0x4391 DUP2 DUP6 PUSH1 0x20 DUP7 ADD PUSH2 0x3251 JUMP JUMPDEST DUP1 DUP5 ADD SWAP2 POP POP SWAP3 SWAP2 POP POP JUMP JUMPDEST PUSH1 0x0 PUSH2 0x43A9 DUP3 DUP6 PUSH2 0x436C JUMP JUMPDEST SWAP2 POP PUSH2 0x43B5 DUP3 DUP5 PUSH2 0x436C JUMP JUMPDEST SWAP2 POP DUP2 SWAP1 POP SWAP4 SWAP3 POP POP POP JUMP JUMPDEST PUSH32 0x6C6174656E7420737061636520616C7265616479207573656400000000000000 PUSH1 0x0 DUP3 ADD MSTORE POP JUMP JUMPDEST PUSH1 0x0 PUSH2 0x43F7 PUSH1 0x19 DUP4 PUSH2 0x3240 JUMP JUMPDEST SWAP2 POP PUSH2 0x4402 DUP3 PUSH2 0x43C1 JUMP JUMPDEST PUSH1 0x20 DUP3 ADD SWAP1 POP SWAP2 SWAP1 POP JUMP JUMPDEST PUSH1 0x0 PUSH1 0x20 DUP3 ADD SWAP1 POP DUP2 DUP2 SUB PUSH1 0x0 DUP4 ADD MSTORE PUSH2 0x4426 DUP2 PUSH2 0x43EA JUMP JUMPDEST SWAP1 POP SWAP2 SWAP1 POP JUMP JUMPDEST PUSH1 0x0 DUP2 SWAP1 POP DUP2 PUSH1 0x0 MSTORE PUSH1 0x20 PUSH1 0x0 KECCAK256 SWAP1 POP SWAP2 SWAP1 POP JUMP JUMPDEST PUSH1 0x0 PUSH1 0x20 PUSH1 0x1F DUP4 ADD DIV SWAP1 POP SWAP2 SWAP1 POP JUMP JUMPDEST PUSH1 0x0 DUP3 DUP3 SHL SWAP1 POP SWAP3 SWAP2 POP POP JUMP JUMPDEST PUSH1 0x0 PUSH1 0x8 DUP4 MUL PUSH2 0x448F PUSH32 0xFFFFFFFFFFFFFFFFFFFFFFFFFFFFFFFFFFFFFFFFFFFFFFFFFFFFFFFFFFFFFFFF DUP3 PUSH2 0x4452 JUMP JUMPDEST PUSH2 0x4499 DUP7 DUP4 PUSH2 0x4452 JUMP JUMPDEST SWAP6 POP DUP1 NOT DUP5 AND SWAP4 POP DUP1 DUP7 AND DUP5 OR SWAP3 POP POP POP SWAP4 SWAP3 POP POP POP JUMP JUMPDEST PUSH1 0x0 PUSH2 0x44CC PUSH2 0x44C7 PUSH2 0x44C2 DUP5 PUSH2 0x32E7 JUMP JUMPDEST PUSH2 0x3A1D JUMP JUMPDEST PUSH2 0x32E7 JUMP JUMPDEST SWAP1 POP SWAP2 SWAP1 POP JUMP JUMPDEST PUSH1 0x0 DUP2 SWAP1 POP SWAP2 SWAP1 POP JUMP JUMPDEST PUSH2 0x44E6 DUP4 PUSH2 0x44B1 JUMP JUMPDEST PUSH2 0x44FA PUSH2 0x44F2 DUP3 PUSH2 0x44D3 JUMP JUMPDEST DUP5 DUP5 SLOAD PUSH2 0x445F JUMP JUMPDEST DUP3 SSTORE POP POP POP POP JUMP JUMPDEST PUSH1 0x0 SWAP1 JUMP JUMPDEST PUSH2 0x450F PUSH2 0x4502 JUMP JUMPDEST PUSH2 0x451A DUP2 DUP5 DUP5 PUSH2 0x44DD JUMP JUMPDEST POP POP POP JUMP JUMPDEST JUMPDEST DUP2 DUP2 LT ISZERO PUSH2 0x453E JUMPI PUSH2 0x4533 PUSH1 0x0 DUP3 PUSH2 0x4507 JUMP JUMPDEST PUSH1 0x1 DUP2 ADD SWAP1 POP PUSH2 0x4520 JUMP JUMPDEST POP POP JUMP JUMPDEST PUSH1 0x1F DUP3 GT ISZERO PUSH2 0x4583 JUMPI PUSH2 0x4554 DUP2 PUSH2 0x442D JUMP JUMPDEST PUSH2 0x455D DUP5 PUSH2 0x4442 JUMP JUMPDEST DUP2 ADD PUSH1 0x20 DUP6 LT ISZERO PUSH2 0x456C JUMPI DUP2 SWAP1 POP JUMPDEST PUSH2 0x4580 PUSH2 0x4578 DUP6 PUSH2 0x4442 JUMP JUMPDEST DUP4 ADD DUP3 PUSH2 0x451F JUMP JUMPDEST POP POP JUMPDEST POP POP POP JUMP JUMPDEST PUSH1 0x0 DUP3 DUP3 SHR SWAP1 POP SWAP3 SWAP2 POP POP JUMP JUMPDEST PUSH1 0x0 PUSH2 0x45A6 PUSH1 0x0 NOT DUP5 PUSH1 0x8 MUL PUSH2 0x4588 JUMP JUMPDEST NOT DUP1 DUP4 AND SWAP2 POP POP SWAP3 SWAP2 POP POP JUMP JUMPDEST PUSH1 0x0 PUSH2 0x45BF DUP4 DUP4 PUSH2 0x4595 JUMP JUMPDEST SWAP2 POP DUP3 PUSH1 0x2 MUL DUP3 OR SWAP1 POP SWAP3 SWAP2 POP POP JUMP JUMPDEST PUSH2 0x45D8 DUP3 PUSH2 0x3799 JUMP JUMPDEST PUSH8 0xFFFFFFFFFFFFFFFF DUP2 GT ISZERO PUSH2 0x45F1 JUMPI PUSH2 0x45F0 PUSH2 0x349C JUMP JUMPDEST JUMPDEST PUSH2 0x45FB DUP3 SLOAD PUSH2 0x3BEE JUMP JUMPDEST PUSH2 0x4606 DUP3 DUP3 DUP6 PUSH2 0x4542 JUMP JUMPDEST PUSH1 0x0 PUSH1 0x20 SWAP1 POP PUSH1 0x1F DUP4 GT PUSH1 0x1 DUP2 EQ PUSH2 0x4639 JUMPI PUSH1 0x0 DUP5 ISZERO PUSH2 0x4627 JUMPI DUP3 DUP8 ADD MLOAD SWAP1 POP JUMPDEST PUSH2 0x4631 DUP6 DUP3 PUSH2 0x45B3 JUMP JUMPDEST DUP7 SSTORE POP PUSH2 0x4699 JUMP JUMPDEST PUSH1 0x1F NOT DUP5 AND PUSH2 0x4647 DUP7 PUSH2 0x442D JUMP JUMPDEST PUSH1 0x0 JUMPDEST DUP3 DUP2 LT ISZERO PUSH2 0x466F JUMPI DUP5 DUP10 ADD MLOAD DUP3 SSTORE PUSH1 0x1 DUP3 ADD SWAP2 POP PUSH1 0x20 DUP6 ADD SWAP5 POP PUSH1 0x20 DUP2 ADD SWAP1 POP PUSH2 0x464A JUMP JUMPDEST DUP7 DUP4 LT ISZERO PUSH2 0x468C JUMPI DUP5 DUP10 ADD MLOAD PUSH2 0x4688 PUSH1 0x1F DUP10 AND DUP3 PUSH2 0x4595 JUMP JUMPDEST DUP4 SSTORE POP JUMPDEST PUSH1 0x1 PUSH1 0x2 DUP9 MUL ADD DUP9 SSTORE POP POP POP JUMPDEST POP POP POP POP POP POP JUMP JUMPDEST PUSH32 0x76616C75652069732073657420746F2030000000000000000000000000000000 PUSH1 0x0 DUP3 ADD MSTORE POP JUMP JUMPDEST PUSH1 0x0 PUSH2 0x46D7 PUSH1 0x11 DUP4 PUSH2 0x3240 JUMP JUMPDEST SWAP2 POP PUSH2 0x46E2 DUP3 PUSH2 0x46A1 JUMP JUMPDEST PUSH1 0x20 DUP3 ADD SWAP1 POP SWAP2 SWAP1 POP JUMP JUMPDEST PUSH1 0x0 PUSH1 0x20 DUP3 ADD SWAP1 POP DUP2 DUP2 SUB PUSH1 0x0 DUP4 ADD MSTORE PUSH2 0x4706 DUP2 PUSH2 0x46CA JUMP JUMPDEST SWAP1 POP SWAP2 SWAP1 POP JUMP JUMPDEST PUSH32 0x4E487B7100000000000000000000000000000000000000000000000000000000 PUSH1 0x0 MSTORE PUSH1 0x11 PUSH1 0x4 MSTORE PUSH1 0x24 PUSH1 0x0 REVERT JUMPDEST PUSH1 0x0 PUSH2 0x4747 DUP3 PUSH2 0x32E7 JUMP JUMPDEST SWAP2 POP PUSH2 0x4752 DUP4 PUSH2 0x32E7 JUMP JUMPDEST SWAP3 POP DUP3 DUP3 MUL PUSH2 0x4760 DUP2 PUSH2 0x32E7 JUMP JUMPDEST SWAP2 POP DUP3 DUP3 DIV DUP5 EQ DUP4 ISZERO OR PUSH2 0x4777 JUMPI PUSH2 0x4776 PUSH2 0x470D JUMP JUMPDEST JUMPDEST POP SWAP3 SWAP2 POP POP JUMP JUMPDEST PUSH32 0x4E487B7100000000000000000000000000000000000000000000000000000000 PUSH1 0x0 MSTORE PUSH1 0x12 PUSH1 0x4 MSTORE PUSH1 0x24 PUSH1 0x0 REVERT JUMPDEST PUSH1 0x0 PUSH2 0x47B8 DUP3 PUSH2 0x32E7 JUMP JUMPDEST SWAP2 POP PUSH2 0x47C3 DUP4 PUSH2 0x32E7 JUMP JUMPDEST SWAP3 POP DUP3 PUSH2 0x47D3 JUMPI PUSH2 0x47D2 PUSH2 0x477E JUMP JUMPDEST JUMPDEST DUP3 DUP3 DIV SWAP1 POP SWAP3 SWAP2 POP POP JUMP JUMPDEST PUSH1 0x0 PUSH2 0x47E9 DUP3 PUSH2 0x3799 JUMP JUMPDEST PUSH2 0x47F3 DUP2 DUP6 PUSH2 0x3FF7 JUMP JUMPDEST SWAP4 POP PUSH2 0x4803 DUP2 DUP6 PUSH1 0x20 DUP7 ADD PUSH2 0x3251 JUMP JUMPDEST DUP1 DUP5 ADD SWAP2 POP POP SWAP3 SWAP2 POP POP JUMP JUMPDEST PUSH1 0x0 PUSH2 0x481B DUP3 DUP5 PUSH2 0x47DE JUMP JUMPDEST SWAP2 POP DUP2 SWAP1 POP SWAP3 SWAP2 POP POP JUMP JUMPDEST PUSH32 0x4F776E61626C653A206E6577206F776E657220697320746865207A65726F2061 PUSH1 0x0 DUP3 ADD MSTORE PUSH32 0x6464726573730000000000000000000000000000000000000000000000000000 PUSH1 0x20 DUP3 ADD MSTORE POP JUMP JUMPDEST PUSH1 0x0 PUSH2 0x4882 PUSH1 0x26 DUP4 PUSH2 0x3240 JUMP JUMPDEST SWAP2 POP PUSH2 0x488D DUP3 PUSH2 0x4826 JUMP JUMPDEST PUSH1 0x40 DUP3 ADD SWAP1 POP SWAP2 SWAP1 POP JUMP JUMPDEST PUSH1 0x0 PUSH1 0x20 DUP3 ADD SWAP1 POP DUP2 DUP2 SUB PUSH1 0x0 DUP4 ADD MSTORE PUSH2 0x48B1 DUP2 PUSH2 0x4875 JUMP JUMPDEST SWAP1 POP SWAP2 SWAP1 POP JUMP JUMPDEST PUSH32 0x4552433732313A207472616E736665722066726F6D20696E636F727265637420 PUSH1 0x0 DUP3 ADD MSTORE PUSH32 0x6F776E6572000000000000000000000000000000000000000000000000000000 PUSH1 0x20 DUP3 ADD MSTORE POP JUMP JUMPDEST PUSH1 0x0 PUSH2 0x4914 PUSH1 0x25 DUP4 PUSH2 0x3240 JUMP JUMPDEST SWAP2 POP PUSH2 0x491F DUP3 PUSH2 0x48B8 JUMP JUMPDEST PUSH1 0x40 DUP3 ADD SWAP1 POP SWAP2 SWAP1 POP JUMP JUMPDEST PUSH1 0x0 PUSH1 0x20 DUP3 ADD SWAP1 POP DUP2 DUP2 SUB PUSH1 0x0 DUP4 ADD MSTORE PUSH2 0x4943 DUP2 PUSH2 0x4907 JUMP JUMPDEST SWAP1 POP SWAP2 SWAP1 POP JUMP JUMPDEST PUSH32 0x4552433732313A207472616E7366657220746F20746865207A65726F20616464 PUSH1 0x0 DUP3 ADD MSTORE PUSH32 0x7265737300000000000000000000000000000000000000000000000000000000 PUSH1 0x20 DUP3 ADD MSTORE POP JUMP JUMPDEST PUSH1 0x0 PUSH2 0x49A6 PUSH1 0x24 DUP4 PUSH2 0x3240 JUMP JUMPDEST SWAP2 POP PUSH2 0x49B1 DUP3 PUSH2 0x494A JUMP JUMPDEST PUSH1 0x40 DUP3 ADD SWAP1 POP SWAP2 SWAP1 POP JUMP JUMPDEST PUSH1 0x0 PUSH1 0x20 DUP3 ADD SWAP1 POP DUP2 DUP2 SUB PUSH1 0x0 DUP4 ADD MSTORE PUSH2 0x49D5 DUP2 PUSH2 0x4999 JUMP JUMPDEST SWAP1 POP SWAP2 SWAP1 POP JUMP JUMPDEST PUSH1 0x0 PUSH2 0x49E7 DUP3 PUSH2 0x32E7 JUMP JUMPDEST SWAP2 POP PUSH2 0x49F2 DUP4 PUSH2 0x32E7 JUMP JUMPDEST SWAP3 POP DUP3 DUP3 SUB SWAP1 POP DUP2 DUP2 GT ISZERO PUSH2 0x4A0A JUMPI PUSH2 0x4A09 PUSH2 0x470D JUMP JUMPDEST JUMPDEST SWAP3 SWAP2 POP POP JUMP JUMPDEST PUSH1 0x0 PUSH2 0x4A1B DUP3 PUSH2 0x32E7 JUMP JUMPDEST SWAP2 POP PUSH2 0x4A26 DUP4 PUSH2 0x32E7 JUMP JUMPDEST SWAP3 POP DUP3 DUP3 ADD SWAP1 POP DUP1 DUP3 GT ISZERO PUSH2 0x4A3E JUMPI PUSH2 0x4A3D PUSH2 0x470D JUMP JUMPDEST JUMPDEST SWAP3 SWAP2 POP POP JUMP JUMPDEST PUSH1 0x0 DUP2 MLOAD SWAP1 POP PUSH2 0x4A53 DUP2 PUSH2 0x38C0 JUMP JUMPDEST SWAP3 SWAP2 POP POP JUMP JUMPDEST PUSH1 0x0 PUSH1 0x20 DUP3 DUP5 SUB SLT ISZERO PUSH2 0x4A6F JUMPI PUSH2 0x4A6E PUSH2 0x3170 JUMP JUMPDEST JUMPDEST PUSH1 0x0 PUSH2 0x4A7D DUP5 DUP3 DUP6 ADD PUSH2 0x4A44 JUMP JUMPDEST SWAP2 POP POP SWAP3 SWAP2 POP POP JUMP JUMPDEST PUSH32 0x45524331393637557067726164653A206E657720696D706C656D656E74617469 PUSH1 0x0 DUP3 ADD MSTORE PUSH32 0x6F6E206973206E6F742055555053000000000000000000000000000000000000 PUSH1 0x20 DUP3 ADD MSTORE POP JUMP JUMPDEST PUSH1 0x0 PUSH2 0x4AE2 PUSH1 0x2E DUP4 PUSH2 0x3240 JUMP JUMPDEST SWAP2 POP PUSH2 0x4AED DUP3 PUSH2 0x4A86 JUMP JUMPDEST PUSH1 0x40 DUP3 ADD SWAP1 POP SWAP2 SWAP1 POP JUMP JUMPDEST PUSH1 0x0 PUSH1 0x20 DUP3 ADD SWAP1 POP DUP2 DUP2 SUB PUSH1 0x0 DUP4 ADD MSTORE PUSH2 0x4B11 DUP2 PUSH2 0x4AD5 JUMP JUMPDEST SWAP1 POP SWAP2 SWAP1 POP JUMP JUMPDEST PUSH32 0x45524331393637557067726164653A20756E737570706F727465642070726F78 PUSH1 0x0 DUP3 ADD MSTORE PUSH32 0x6961626C65555549440000000000000000000000000000000000000000000000 PUSH1 0x20 DUP3 ADD MSTORE POP JUMP JUMPDEST PUSH1 0x0 PUSH2 0x4B74 PUSH1 0x29 DUP4 PUSH2 0x3240 JUMP JUMPDEST SWAP2 POP PUSH2 0x4B7F DUP3 PUSH2 0x4B18 JUMP JUMPDEST PUSH1 0x40 DUP3 ADD SWAP1 POP SWAP2 SWAP1 POP JUMP JUMPDEST PUSH1 0x0 PUSH1 0x20 DUP3 ADD SWAP1 POP DUP2 DUP2 SUB PUSH1 0x0 DUP4 ADD MSTORE PUSH2 0x4BA3 DUP2 PUSH2 0x4B67 JUMP JUMPDEST SWAP1 POP SWAP2 SWAP1 POP JUMP JUMPDEST PUSH32 0x4F776E61626C653A2063616C6C6572206973206E6F7420746865206F776E6572 PUSH1 0x0 DUP3 ADD MSTORE POP JUMP JUMPDEST PUSH1 0x0 PUSH2 0x4BE0 PUSH1 0x20 DUP4 PUSH2 0x3240 JUMP JUMPDEST SWAP2 POP PUSH2 0x4BEB DUP3 PUSH2 0x4BAA JUMP JUMPDEST PUSH1 0x20 DUP3 ADD SWAP1 POP SWAP2 SWAP1 POP JUMP JUMPDEST PUSH1 0x0 PUSH1 0x20 DUP3 ADD SWAP1 POP DUP2 DUP2 SUB PUSH1 0x0 DUP4 ADD MSTORE PUSH2 0x4C0F DUP2 PUSH2 0x4BD3 JUMP JUMPDEST SWAP1 POP SWAP2 SWAP1 POP JUMP JUMPDEST PUSH32 0x496E697469616C697A61626C653A20636F6E7472616374206973206E6F742069 PUSH1 0x0 DUP3 ADD MSTORE PUSH32 0x6E697469616C697A696E67000000000000000000000000000000000000000000 PUSH1 0x20 DUP3 ADD MSTORE POP JUMP JUMPDEST PUSH1 0x0 PUSH2 0x4C72 PUSH1 0x2B DUP4 PUSH2 0x3240 JUMP JUMPDEST SWAP2 POP PUSH2 0x4C7D DUP3 PUSH2 0x4C16 JUMP JUMPDEST PUSH1 0x40 DUP3 ADD SWAP1 POP SWAP2 SWAP1 POP JUMP JUMPDEST PUSH1 0x0 PUSH1 0x20 DUP3 ADD SWAP1 POP DUP2 DUP2 SUB PUSH1 0x0 DUP4 ADD MSTORE PUSH2 0x4CA1 DUP2 PUSH2 0x4C65 JUMP JUMPDEST SWAP1 POP SWAP2 SWAP1 POP JUMP JUMPDEST PUSH32 0x4552433732313A20617070726F766520746F2063616C6C657200000000000000 PUSH1 0x0 DUP3 ADD MSTORE POP JUMP JUMPDEST PUSH1 0x0 PUSH2 0x4CDE PUSH1 0x19 DUP4 PUSH2 0x3240 JUMP JUMPDEST SWAP2 POP PUSH2 0x4CE9 DUP3 PUSH2 0x4CA8 JUMP JUMPDEST PUSH1 0x20 DUP3 ADD SWAP1 POP SWAP2 SWAP1 POP JUMP JUMPDEST PUSH1 0x0 PUSH1 0x20 DUP3 ADD SWAP1 POP DUP2 DUP2 SUB PUSH1 0x0 DUP4 ADD MSTORE PUSH2 0x4D0D DUP2 PUSH2 0x4CD1 JUMP JUMPDEST SWAP1 POP SWAP2 SWAP1 POP JUMP JUMPDEST PUSH32 0x4552433732313A207472616E7366657220746F206E6F6E204552433732315265 PUSH1 0x0 DUP3 ADD MSTORE PUSH32 0x63656976657220696D706C656D656E7465720000000000000000000000000000 PUSH1 0x20 DUP3 ADD MSTORE POP JUMP JUMPDEST PUSH1 0x0 PUSH2 0x4D70 PUSH1 0x32 DUP4 PUSH2 0x3240 JUMP JUMPDEST SWAP2 POP PUSH2 0x4D7B DUP3 PUSH2 0x4D14 JUMP JUMPDEST PUSH1 0x40 DUP3 ADD SWAP1 POP SWAP2 SWAP1 POP JUMP JUMPDEST PUSH1 0x0 PUSH1 0x20 DUP3 ADD SWAP1 POP DUP2 DUP2 SUB PUSH1 0x0 DUP4 ADD MSTORE PUSH2 0x4D9F DUP2 PUSH2 0x4D63 JUMP JUMPDEST SWAP1 POP SWAP2 SWAP1 POP JUMP JUMPDEST PUSH1 0x0 PUSH2 0x4DB1 DUP3 PUSH2 0x32E7 JUMP JUMPDEST SWAP2 POP PUSH32 0xFFFFFFFFFFFFFFFFFFFFFFFFFFFFFFFFFFFFFFFFFFFFFFFFFFFFFFFFFFFFFFFF DUP3 SUB PUSH2 0x4DE3 JUMPI PUSH2 0x4DE2 PUSH2 0x470D JUMP JUMPDEST JUMPDEST PUSH1 0x1 DUP3 ADD SWAP1 POP SWAP2 SWAP1 POP JUMP JUMPDEST PUSH1 0x0 PUSH2 0x4DF9 DUP3 PUSH2 0x32E7 JUMP JUMPDEST SWAP2 POP PUSH2 0x4E04 DUP4 PUSH2 0x32E7 JUMP JUMPDEST SWAP3 POP DUP3 PUSH2 0x4E14 JUMPI PUSH2 0x4E13 PUSH2 0x477E JUMP JUMPDEST JUMPDEST DUP3 DUP3 MOD SWAP1 POP SWAP3 SWAP2 POP POP JUMP JUMPDEST PUSH32 0x4E487B7100000000000000000000000000000000000000000000000000000000 PUSH1 0x0 MSTORE PUSH1 0x32 PUSH1 0x4 MSTORE PUSH1 0x24 PUSH1 0x0 REVERT JUMPDEST PUSH32 0x455243313936373A206E657720696D706C656D656E746174696F6E206973206E PUSH1 0x0 DUP3 ADD MSTORE PUSH32 0x6F74206120636F6E747261637400000000000000000000000000000000000000 PUSH1 0x20 DUP3 ADD MSTORE POP JUMP JUMPDEST PUSH1 0x0 PUSH2 0x4EAA PUSH1 0x2D DUP4 PUSH2 0x3240 JUMP JUMPDEST SWAP2 POP PUSH2 0x4EB5 DUP3 PUSH2 0x4E4E JUMP JUMPDEST PUSH1 0x40 DUP3 ADD SWAP1 POP SWAP2 SWAP1 POP JUMP JUMPDEST PUSH1 0x0 PUSH1 0x20 DUP3 ADD SWAP1 POP DUP2 DUP2 SUB PUSH1 0x0 DUP4 ADD MSTORE PUSH2 0x4ED9 DUP2 PUSH2 0x4E9D JUMP JUMPDEST SWAP1 POP SWAP2 SWAP1 POP JUMP JUMPDEST PUSH1 0x0 DUP2 SWAP1 POP DUP2 PUSH1 0x0 MSTORE PUSH1 0x20 PUSH1 0x0 KECCAK256 SWAP1 POP SWAP2 SWAP1 POP JUMP JUMPDEST PUSH1 0x1F DUP3 GT ISZERO PUSH2 0x4F36 JUMPI PUSH2 0x4F07 DUP2 PUSH2 0x4EE0 JUMP JUMPDEST PUSH2 0x4F10 DUP5 PUSH2 0x4442 JUMP JUMPDEST DUP2 ADD PUSH1 0x20 DUP6 LT ISZERO PUSH2 0x4F1F JUMPI DUP2 SWAP1 POP JUMPDEST PUSH2 0x4F33 PUSH2 0x4F2B DUP6 PUSH2 0x4442 JUMP JUMPDEST DUP4 ADD DUP3 PUSH2 0x451F JUMP JUMPDEST POP POP JUMPDEST POP POP POP JUMP JUMPDEST PUSH2 0x4F44 DUP3 PUSH2 0x3235 JUMP JUMPDEST PUSH8 0xFFFFFFFFFFFFFFFF DUP2 GT ISZERO PUSH2 0x4F5D JUMPI PUSH2 0x4F5C PUSH2 0x349C JUMP JUMPDEST JUMPDEST PUSH2 0x4F67 DUP3 SLOAD PUSH2 0x3BEE JUMP JUMPDEST PUSH2 0x4F72 DUP3 DUP3 DUP6 PUSH2 0x4EF5 JUMP JUMPDEST PUSH1 0x0 PUSH1 0x20 SWAP1 POP PUSH1 0x1F DUP4 GT PUSH1 0x1 DUP2 EQ PUSH2 0x4FA5 JUMPI PUSH1 0x0 DUP5 ISZERO PUSH2 0x4F93 JUMPI DUP3 DUP8 ADD MLOAD SWAP1 POP JUMPDEST PUSH2 0x4F9D DUP6 DUP3 PUSH2 0x45B3 JUMP JUMPDEST DUP7 SSTORE POP PUSH2 0x5005 JUMP JUMPDEST PUSH1 0x1F NOT DUP5 AND PUSH2 0x4FB3 DUP7 PUSH2 0x4EE0 JUMP JUMPDEST PUSH1 0x0 JUMPDEST DUP3 DUP2 LT ISZERO PUSH2 0x4FDB JUMPI DUP5 DUP10 ADD MLOAD DUP3 SSTORE PUSH1 0x1 DUP3 ADD SWAP2 POP PUSH1 0x20 DUP6 ADD SWAP5 POP PUSH1 0x20 DUP2 ADD SWAP1 POP PUSH2 0x4FB6 JUMP JUMPDEST DUP7 DUP4 LT ISZERO PUSH2 0x4FF8 JUMPI DUP5 DUP10 ADD MLOAD PUSH2 0x4FF4 PUSH1 0x1F DUP10 AND DUP3 PUSH2 0x4595 JUMP JUMPDEST DUP4 SSTORE POP JUMPDEST PUSH1 0x1 PUSH1 0x2 DUP9 MUL ADD DUP9 SSTORE POP POP POP JUMPDEST POP POP POP POP POP POP JUMP JUMPDEST PUSH1 0x0 PUSH1 0x80 DUP3 ADD SWAP1 POP PUSH2 0x5022 PUSH1 0x0 DUP4 ADD DUP8 PUSH2 0x337C JUMP JUMPDEST PUSH2 0x502F PUSH1 0x20 DUP4 ADD DUP7 PUSH2 0x337C JUMP JUMPDEST PUSH2 0x503C PUSH1 0x40 DUP4 ADD DUP6 PUSH2 0x376F JUMP JUMPDEST DUP2 DUP2 SUB PUSH1 0x60 DUP4 ADD MSTORE PUSH2 0x504E DUP2 DUP5 PUSH2 0x39AD JUMP JUMPDEST SWAP1 POP SWAP6 SWAP5 POP POP POP POP POP JUMP JUMPDEST PUSH1 0x0 DUP2 MLOAD SWAP1 POP PUSH2 0x5068 DUP2 PUSH2 0x31A6 JUMP JUMPDEST SWAP3 SWAP2 POP POP JUMP JUMPDEST PUSH1 0x0 PUSH1 0x20 DUP3 DUP5 SUB SLT ISZERO PUSH2 0x5084 JUMPI PUSH2 0x5083 PUSH2 0x3170 JUMP JUMPDEST JUMPDEST PUSH1 0x0 PUSH2 0x5092 DUP5 DUP3 DUP6 ADD PUSH2 0x5059 JUMP JUMPDEST SWAP2 POP POP SWAP3 SWAP2 POP POP JUMP JUMPDEST PUSH32 0x416464726573733A2064656C65676174652063616C6C20746F206E6F6E2D636F PUSH1 0x0 DUP3 ADD MSTORE PUSH32 0x6E74726163740000000000000000000000000000000000000000000000000000 PUSH1 0x20 DUP3 ADD MSTORE POP JUMP JUMPDEST PUSH1 0x0 PUSH2 0x50F7 PUSH1 0x26 DUP4 PUSH2 0x3240 JUMP JUMPDEST SWAP2 POP PUSH2 0x5102 DUP3 PUSH2 0x509B JUMP JUMPDEST PUSH1 0x40 DUP3 ADD SWAP1 POP SWAP2 SWAP1 POP JUMP JUMPDEST PUSH1 0x0 PUSH1 0x20 DUP3 ADD SWAP1 POP DUP2 DUP2 SUB PUSH1 0x0 DUP4 ADD MSTORE PUSH2 0x5126 DUP2 PUSH2 0x50EA JUMP JUMPDEST SWAP1 POP SWAP2 SWAP1 POP JUMP JUMPDEST PUSH32 0x4552433732313A206D696E7420746F20746865207A65726F2061646472657373 PUSH1 0x0 DUP3 ADD MSTORE POP JUMP JUMPDEST PUSH1 0x0 PUSH2 0x5163 PUSH1 0x20 DUP4 PUSH2 0x3240 JUMP JUMPDEST SWAP2 POP PUSH2 0x516E DUP3 PUSH2 0x512D JUMP JUMPDEST PUSH1 0x20 DUP3 ADD SWAP1 POP SWAP2 SWAP1 POP JUMP JUMPDEST PUSH1 0x0 PUSH1 0x20 DUP3 ADD SWAP1 POP DUP2 DUP2 SUB PUSH1 0x0 DUP4 ADD MSTORE PUSH2 0x5192 DUP2 PUSH2 0x5156 JUMP JUMPDEST SWAP1 POP SWAP2 SWAP1 POP JUMP JUMPDEST PUSH32 0x4552433732313A20746F6B656E20616C7265616479206D696E74656400000000 PUSH1 0x0 DUP3 ADD MSTORE POP JUMP JUMPDEST PUSH1 0x0 PUSH2 0x51CF PUSH1 0x1C DUP4 PUSH2 0x3240 JUMP JUMPDEST SWAP2 POP PUSH2 0x51DA DUP3 PUSH2 0x5199 JUMP JUMPDEST PUSH1 0x20 DUP3 ADD SWAP1 POP SWAP2 SWAP1 POP JUMP JUMPDEST PUSH1 0x0 PUSH1 0x20 DUP3 ADD SWAP1 POP DUP2 DUP2 SUB PUSH1 0x0 DUP4 ADD MSTORE PUSH2 0x51FE DUP2 PUSH2 0x51C2 JUMP JUMPDEST SWAP1 POP SWAP2 SWAP1 POP JUMP INVALID COINBASE PUSH5 0x6472657373 GASPRICE KECCAK256 PUSH13 0x6F772D6C6576656C2064656C65 PUSH8 0x6174652063616C6C KECCAK256 PUSH7 0x61696C6564A264 PUSH10 0x70667358221220362F20 INVALID MSTORE MSIZE 0xE6 0xFC COINBASE SWAP4 DUP11 0xED PUSH23 0x9173C7102B600E51570A37461881AA1810E31864736F6C PUSH4 0x43000812 STOP CALLER "
		},
		"gasEstimates": {
			"creation": {
				"codeDepositCost": "4218000",
				"executionCost": "infinite",
				"totalCost": "infinite"
			},
			"external": {
				"approve(address,uint256)": "infinite",
				"balanceOf(address)": "2987",
				"dataOf(uint256)": "infinite",
				"datas(uint256)": "infinite",
				"getApproved(uint256)": "5280",
				"getEstimatedETHforDAI(uint256)": "infinite",
				"initialize()": "infinite",
				"isApprovedForAll(address,address)": "infinite",
				"latentSpaceHashes(bytes32)": "2907",
				"mint(bytes,bytes,address,uint256)": "infinite",
				"modelOwner(bytes)": "infinite",
				"name()": "infinite",
				"owner()": "2634",
				"ownerOf(uint256)": "3023",
				"proxiableUUID()": "infinite",
				"quoter()": "infinite",
				"renounceOwnership()": "30444",
				"safeTransferFrom(address,address,uint256)": "infinite",
				"safeTransferFrom(address,address,uint256,bytes)": "infinite",
				"setApprovalForAll(address,bool)": "infinite",
				"setModel(bytes)": "infinite",
				"setModelOwnerPercent(uint256)": "24829",
				"setSafe(address)": "27076",
				"setSafePercent(uint256)": "24896",
				"supportsInterface(bytes4)": "820",
				"symbol()": "infinite",
				"tokenURI(uint256)": "3461",
				"transferFrom(address,address,uint256)": "infinite",
				"transferOwnership(address)": "30854",
				"upgradeTo(address)": "infinite",
				"upgradeToAndCall(address,bytes)": "infinite"
			},
			"internal": {
				"_authorizeUpgrade(address)": "infinite"
			}
		},
		"methodIdentifiers": {
			"approve(address,uint256)": "095ea7b3",
			"balanceOf(address)": "70a08231",
			"dataOf(uint256)": "871caa98",
			"datas(uint256)": "c0a094fd",
			"getApproved(uint256)": "081812fc",
			"getEstimatedETHforDAI(uint256)": "ada8b83d",
			"initialize()": "8129fc1c",
			"isApprovedForAll(address,address)": "e985e9c5",
			"latentSpaceHashes(bytes32)": "b5d74c08",
			"mint(bytes,bytes,address,uint256)": "c8a27f24",
			"modelOwner(bytes)": "ed3b0eca",
			"name()": "06fdde03",
			"owner()": "8da5cb5b",
			"ownerOf(uint256)": "6352211e",
			"proxiableUUID()": "52d1902d",
			"quoter()": "c6bbd5a7",
			"renounceOwnership()": "715018a6",
			"safeTransferFrom(address,address,uint256)": "42842e0e",
			"safeTransferFrom(address,address,uint256,bytes)": "b88d4fde",
			"setApprovalForAll(address,bool)": "a22cb465",
			"setModel(bytes)": "6f5547b6",
			"setModelOwnerPercent(uint256)": "625c593f",
			"setSafe(address)": "5db0cb94",
			"setSafePercent(uint256)": "5e2e7e8e",
			"supportsInterface(bytes4)": "01ffc9a7",
			"symbol()": "95d89b41",
			"tokenURI(uint256)": "c87b56dd",
			"transferFrom(address,address,uint256)": "23b872dd",
			"transferOwnership(address)": "f2fde38b",
			"upgradeTo(address)": "3659cfe6",
			"upgradeToAndCall(address,bytes)": "4f1ef286"
		}
	},
	"abi": [
		{
			"inputs": [],
			"stateMutability": "nonpayable",
			"type": "constructor"
		},
		{
			"anonymous": false,
			"inputs": [
				{
					"indexed": false,
					"internalType": "address",
					"name": "previousAdmin",
					"type": "address"
				},
				{
					"indexed": false,
					"internalType": "address",
					"name": "newAdmin",
					"type": "address"
				}
			],
			"name": "AdminChanged",
			"type": "event"
		},
		{
			"anonymous": false,
			"inputs": [
				{
					"indexed": true,
					"internalType": "address",
					"name": "owner",
					"type": "address"
				},
				{
					"indexed": true,
					"internalType": "address",
					"name": "approved",
					"type": "address"
				},
				{
					"indexed": true,
					"internalType": "uint256",
					"name": "tokenId",
					"type": "uint256"
				}
			],
			"name": "Approval",
			"type": "event"
		},
		{
			"anonymous": false,
			"inputs": [
				{
					"indexed": true,
					"internalType": "address",
					"name": "owner",
					"type": "address"
				},
				{
					"indexed": true,
					"internalType": "address",
					"name": "operator",
					"type": "address"
				},
				{
					"indexed": false,
					"internalType": "bool",
					"name": "approved",
					"type": "bool"
				}
			],
			"name": "ApprovalForAll",
			"type": "event"
		},
		{
			"anonymous": false,
			"inputs": [
				{
					"indexed": true,
					"internalType": "address",
					"name": "beacon",
					"type": "address"
				}
			],
			"name": "BeaconUpgraded",
			"type": "event"
		},
		{
			"anonymous": false,
			"inputs": [
				{
					"indexed": false,
					"internalType": "uint8",
					"name": "version",
					"type": "uint8"
				}
			],
			"name": "Initialized",
			"type": "event"
		},
		{
			"anonymous": false,
			"inputs": [
				{
					"indexed": true,
					"internalType": "address",
					"name": "previousOwner",
					"type": "address"
				},
				{
					"indexed": true,
					"internalType": "address",
					"name": "newOwner",
					"type": "address"
				}
			],
			"name": "OwnershipTransferred",
			"type": "event"
		},
		{
			"anonymous": false,
			"inputs": [
				{
					"indexed": true,
					"internalType": "address",
					"name": "from",
					"type": "address"
				},
				{
					"indexed": true,
					"internalType": "address",
					"name": "to",
					"type": "address"
				},
				{
					"indexed": true,
					"internalType": "uint256",
					"name": "tokenId",
					"type": "uint256"
				}
			],
			"name": "Transfer",
			"type": "event"
		},
		{
			"anonymous": false,
			"inputs": [
				{
					"indexed": true,
					"internalType": "address",
					"name": "implementation",
					"type": "address"
				}
			],
			"name": "Upgraded",
			"type": "event"
		},
		{
			"inputs": [
				{
					"internalType": "address",
					"name": "to",
					"type": "address"
				},
				{
					"internalType": "uint256",
					"name": "tokenId",
					"type": "uint256"
				}
			],
			"name": "approve",
			"outputs": [],
			"stateMutability": "nonpayable",
			"type": "function"
		},
		{
			"inputs": [
				{
					"internalType": "address",
					"name": "owner",
					"type": "address"
				}
			],
			"name": "balanceOf",
			"outputs": [
				{
					"internalType": "uint256",
					"name": "",
					"type": "uint256"
				}
			],
			"stateMutability": "view",
			"type": "function"
		},
		{
			"inputs": [
				{
					"internalType": "uint256",
					"name": "tokenId",
					"type": "uint256"
				}
			],
			"name": "dataOf",
			"outputs": [
				{
					"components": [
						{
							"internalType": "bytes",
							"name": "model",
							"type": "bytes"
						},
						{
							"internalType": "bytes",
							"name": "latentSpace",
							"type": "bytes"
						}
					],
					"internalType": "struct GanPunk.data",
					"name": "",
					"type": "tuple"
				}
			],
			"stateMutability": "view",
			"type": "function"
		},
		{
			"inputs": [
				{
					"internalType": "uint256",
					"name": "",
					"type": "uint256"
				}
			],
			"name": "datas",
			"outputs": [
				{
					"internalType": "bytes",
					"name": "model",
					"type": "bytes"
				},
				{
					"internalType": "bytes",
					"name": "latentSpace",
					"type": "bytes"
				}
			],
			"stateMutability": "view",
			"type": "function"
		},
		{
			"inputs": [
				{
					"internalType": "uint256",
					"name": "tokenId",
					"type": "uint256"
				}
			],
			"name": "getApproved",
			"outputs": [
				{
					"internalType": "address",
					"name": "",
					"type": "address"
				}
			],
			"stateMutability": "view",
			"type": "function"
		},
		{
			"inputs": [
				{
					"internalType": "uint256",
					"name": "daiAmount",
					"type": "uint256"
				}
			],
			"name": "getEstimatedETHforDAI",
			"outputs": [
				{
					"internalType": "uint256",
					"name": "",
					"type": "uint256"
				}
			],
			"stateMutability": "nonpayable",
			"type": "function"
		},
		{
			"inputs": [],
			"name": "initialize",
			"outputs": [],
			"stateMutability": "nonpayable",
			"type": "function"
		},
		{
			"inputs": [
				{
					"internalType": "address",
					"name": "owner",
					"type": "address"
				},
				{
					"internalType": "address",
					"name": "operator",
					"type": "address"
				}
			],
			"name": "isApprovedForAll",
			"outputs": [
				{
					"internalType": "bool",
					"name": "",
					"type": "bool"
				}
			],
			"stateMutability": "view",
			"type": "function"
		},
		{
			"inputs": [
				{
					"internalType": "bytes32",
					"name": "",
					"type": "bytes32"
				}
			],
			"name": "latentSpaceHashes",
			"outputs": [
				{
					"internalType": "bool",
					"name": "",
					"type": "bool"
				}
			],
			"stateMutability": "view",
			"type": "function"
		},
		{
			"inputs": [
				{
					"internalType": "bytes",
					"name": "_model",
					"type": "bytes"
				},
				{
					"internalType": "bytes",
					"name": "_input",
					"type": "bytes"
				},
				{
					"internalType": "address",
					"name": "_to",
					"type": "address"
				},
				{
					"internalType": "uint256",
					"name": "tokenId",
					"type": "uint256"
				}
			],
			"name": "mint",
			"outputs": [],
			"stateMutability": "payable",
			"type": "function"
		},
		{
			"inputs": [
				{
					"internalType": "bytes",
					"name": "",
					"type": "bytes"
				}
			],
			"name": "modelOwner",
			"outputs": [
				{
					"internalType": "address",
					"name": "",
					"type": "address"
				}
			],
			"stateMutability": "view",
			"type": "function"
		},
		{
			"inputs": [],
			"name": "name",
			"outputs": [
				{
					"internalType": "string",
					"name": "",
					"type": "string"
				}
			],
			"stateMutability": "view",
			"type": "function"
		},
		{
			"inputs": [],
			"name": "owner",
			"outputs": [
				{
					"internalType": "address",
					"name": "",
					"type": "address"
				}
			],
			"stateMutability": "view",
			"type": "function"
		},
		{
			"inputs": [
				{
					"internalType": "uint256",
					"name": "tokenId",
					"type": "uint256"
				}
			],
			"name": "ownerOf",
			"outputs": [
				{
					"internalType": "address",
					"name": "",
					"type": "address"
				}
			],
			"stateMutability": "view",
			"type": "function"
		},
		{
			"inputs": [],
			"name": "proxiableUUID",
			"outputs": [
				{
					"internalType": "bytes32",
					"name": "",
					"type": "bytes32"
				}
			],
			"stateMutability": "view",
			"type": "function"
		},
		{
			"inputs": [],
			"name": "quoter",
			"outputs": [
				{
					"internalType": "contract IQuoter",
					"name": "",
					"type": "address"
				}
			],
			"stateMutability": "view",
			"type": "function"
		},
		{
			"inputs": [],
			"name": "renounceOwnership",
			"outputs": [],
			"stateMutability": "nonpayable",
			"type": "function"
		},
		{
			"inputs": [
				{
					"internalType": "address",
					"name": "from",
					"type": "address"
				},
				{
					"internalType": "address",
					"name": "to",
					"type": "address"
				},
				{
					"internalType": "uint256",
					"name": "tokenId",
					"type": "uint256"
				}
			],
			"name": "safeTransferFrom",
			"outputs": [],
			"stateMutability": "nonpayable",
			"type": "function"
		},
		{
			"inputs": [
				{
					"internalType": "address",
					"name": "from",
					"type": "address"
				},
				{
					"internalType": "address",
					"name": "to",
					"type": "address"
				},
				{
					"internalType": "uint256",
					"name": "tokenId",
					"type": "uint256"
				},
				{
					"internalType": "bytes",
					"name": "data",
					"type": "bytes"
				}
			],
			"name": "safeTransferFrom",
			"outputs": [],
			"stateMutability": "nonpayable",
			"type": "function"
		},
		{
			"inputs": [
				{
					"internalType": "address",
					"name": "operator",
					"type": "address"
				},
				{
					"internalType": "bool",
					"name": "approved",
					"type": "bool"
				}
			],
			"name": "setApprovalForAll",
			"outputs": [],
			"stateMutability": "nonpayable",
			"type": "function"
		},
		{
			"inputs": [
				{
					"internalType": "bytes",
					"name": "_model",
					"type": "bytes"
				}
			],
			"name": "setModel",
			"outputs": [],
			"stateMutability": "nonpayable",
			"type": "function"
		},
		{
			"inputs": [
				{
					"internalType": "uint256",
					"name": "percent",
					"type": "uint256"
				}
			],
			"name": "setModelOwnerPercent",
			"outputs": [],
			"stateMutability": "nonpayable",
			"type": "function"
		},
		{
			"inputs": [
				{
					"internalType": "address payable",
					"name": "_safe",
					"type": "address"
				}
			],
			"name": "setSafe",
			"outputs": [],
			"stateMutability": "nonpayable",
			"type": "function"
		},
		{
			"inputs": [
				{
					"internalType": "uint256",
					"name": "percent",
					"type": "uint256"
				}
			],
			"name": "setSafePercent",
			"outputs": [],
			"stateMutability": "nonpayable",
			"type": "function"
		},
		{
			"inputs": [
				{
					"internalType": "bytes4",
					"name": "interfaceId",
					"type": "bytes4"
				}
			],
			"name": "supportsInterface",
			"outputs": [
				{
					"internalType": "bool",
					"name": "",
					"type": "bool"
				}
			],
			"stateMutability": "view",
			"type": "function"
		},
		{
			"inputs": [],
			"name": "symbol",
			"outputs": [
				{
					"internalType": "string",
					"name": "",
					"type": "string"
				}
			],
			"stateMutability": "view",
			"type": "function"
		},
		{
			"inputs": [
				{
					"internalType": "uint256",
					"name": "tokenId",
					"type": "uint256"
				}
			],
			"name": "tokenURI",
			"outputs": [
				{
					"internalType": "string",
					"name": "",
					"type": "string"
				}
			],
			"stateMutability": "view",
			"type": "function"
		},
		{
			"inputs": [
				{
					"internalType": "address",
					"name": "from",
					"type": "address"
				},
				{
					"internalType": "address",
					"name": "to",
					"type": "address"
				},
				{
					"internalType": "uint256",
					"name": "tokenId",
					"type": "uint256"
				}
			],
			"name": "transferFrom",
			"outputs": [],
			"stateMutability": "nonpayable",
			"type": "function"
		},
		{
			"inputs": [
				{
					"internalType": "address",
					"name": "newOwner",
					"type": "address"
				}
			],
			"name": "transferOwnership",
			"outputs": [],
			"stateMutability": "nonpayable",
			"type": "function"
		},
		{
			"inputs": [
				{
					"internalType": "address",
					"name": "newImplementation",
					"type": "address"
				}
			],
			"name": "upgradeTo",
			"outputs": [],
			"stateMutability": "nonpayable",
			"type": "function"
		},
		{
			"inputs": [
				{
					"internalType": "address",
					"name": "newImplementation",
					"type": "address"
				},
				{
					"internalType": "bytes",
					"name": "data",
					"type": "bytes"
				}
			],
			"name": "upgradeToAndCall",
			"outputs": [],
			"stateMutability": "payable",
			"type": "function"
		}
	]
}