{
	"data": {
		"bytecode": {
			"linkReferences": {},
			"object": "60a06040523073ffffffffffffffffffffffffffffffffffffffff1660809073ffffffffffffffffffffffffffffffffffffffff168152503480156200004457600080fd5b50620000556200005b60201b60201c565b62000206565b600060019054906101000a900460ff1615620000ae576040517f08c379a0000000000000000000000000000000000000000000000000000000008152600401620000a590620001a9565b60405180910390fd5b60ff801660008054906101000a900460ff1660ff161015620001205760ff6000806101000a81548160ff021916908360ff1602179055507f7f26b83ff96e1f2b6a682f133852f6798a09c465da95921460cefb384740249860ff604051620001179190620001e9565b60405180910390a15b565b600082825260208201905092915050565b7f496e697469616c697a61626c653a20636f6e747261637420697320696e69746960008201527f616c697a696e6700000000000000000000000000000000000000000000000000602082015250565b60006200019160278362000122565b91506200019e8262000133565b604082019050919050565b60006020820190508181036000830152620001c48162000182565b9050919050565b600060ff82169050919050565b620001e381620001cb565b82525050565b6000602082019050620002006000830184620001d8565b92915050565b60805161504c6200023e60003960008181610a7a01528181610b0801528181610c2201528181610cb00152610d60015261504c6000f3fe6080604052600436106101cd5760003560e01c8063715018a6116100f7578063b5d74c0811610095578063c8a27f2411610064578063c8a27f2414610688578063e985e9c5146106a4578063ed3b0eca146106e1578063f2fde38b1461071e576101cd565b8063b5d74c08146105a7578063b88d4fde146105e4578063c0a094fd1461060d578063c87b56dd1461064b576101cd565b80638da5cb5b116100d15780638da5cb5b146104eb57806395d89b4114610516578063a22cb46514610541578063ada8b83d1461056a576101cd565b8063715018a6146104805780638129fc1c14610497578063871caa98146104ae576101cd565b80634f1ef2861161016f578063625c593f1161013e578063625c593f146103b45780636352211e146103dd5780636f5547b61461041a57806370a0823114610443576101cd565b80634f1ef2861461031b57806352d1902d146103375780635db0cb94146103625780635e2e7e8e1461038b576101cd565b8063095ea7b3116101ab578063095ea7b31461027757806323b872dd146102a05780633659cfe6146102c957806342842e0e146102f2576101cd565b806301ffc9a7146101d257806306fdde031461020f578063081812fc1461023a575b600080fd5b3480156101de57600080fd5b506101f960048036038101906101f491906130ee565b610747565b6040516102069190613136565b60405180910390f35b34801561021b57600080fd5b50610224610829565b60405161023191906131e1565b60405180910390f35b34801561024657600080fd5b50610261600480360381019061025c9190613239565b6108bb565b60405161026e91906132a7565b60405180910390f35b34801561028357600080fd5b5061029e600480360381019061029991906132ee565b610901565b005b3480156102ac57600080fd5b506102c760048036038101906102c2919061332e565b610a18565b005b3480156102d557600080fd5b506102f060048036038101906102eb9190613381565b610a78565b005b3480156102fe57600080fd5b506103196004803603810190610314919061332e565b610c00565b005b610335600480360381019061033091906134e3565b610c20565b005b34801561034357600080fd5b5061034c610d5c565b6040516103599190613558565b60405180910390f35b34801561036e57600080fd5b50610389600480360381019061038491906135b1565b610e15565b005b34801561039757600080fd5b506103b260048036038101906103ad9190613239565b610e62565b005b3480156103c057600080fd5b506103db60048036038101906103d69190613239565b610e75565b005b3480156103e957600080fd5b5061040460048036038101906103ff9190613239565b610e88565b60405161041191906132a7565b60405180910390f35b34801561042657600080fd5b50610441600480360381019061043c919061363e565b610f39565b005b34801561044f57600080fd5b5061046a60048036038101906104659190613381565b61104d565b604051610477919061369a565b60405180910390f35b34801561048c57600080fd5b50610495611104565b005b3480156104a357600080fd5b506104ac611118565b005b3480156104ba57600080fd5b506104d560048036038101906104d09190613239565b6112ed565b6040516104e2919061374e565b60405180910390f35b3480156104f757600080fd5b50610500611487565b60405161050d91906132a7565b60405180910390f35b34801561052257600080fd5b5061052b6114b1565b60405161053891906131e1565b60405180910390f35b34801561054d57600080fd5b506105686004803603810190610563919061379c565b611543565b005b34801561057657600080fd5b50610591600480360381019061058c9190613239565b611559565b60405161059e919061369a565b60405180910390f35b3480156105b357600080fd5b506105ce60048036038101906105c99190613808565b6115a2565b6040516105db9190613136565b60405180910390f35b3480156105f057600080fd5b5061060b60048036038101906106069190613835565b6115c3565b005b34801561061957600080fd5b50610634600480360381019061062f9190613239565b611625565b604051610642929190613902565b60405180910390f35b34801561065757600080fd5b50610672600480360381019061066d9190613239565b61175a565b60405161067f91906131e1565b60405180910390f35b6106a2600480360381019061069d9190613939565b6117c2565b005b3480156106b057600080fd5b506106cb60048036038101906106c691906139d8565b611b63565b6040516106d89190613136565b60405180910390f35b3480156106ed57600080fd5b5061070860048036038101906107039190613a18565b611bf7565b60405161071591906132a7565b60405180910390f35b34801561072a57600080fd5b5061074560048036038101906107409190613381565b611c41565b005b60007f80ac58cd000000000000000000000000000000000000000000000000000000007bffffffffffffffffffffffffffffffffffffffffffffffffffffffff1916827bffffffffffffffffffffffffffffffffffffffffffffffffffffffff1916148061081257507f5b5e139f000000000000000000000000000000000000000000000000000000007bffffffffffffffffffffffffffffffffffffffffffffffffffffffff1916827bffffffffffffffffffffffffffffffffffffffffffffffffffffffff1916145b80610822575061082182611cc4565b5b9050919050565b60606065805461083890613a90565b80601f016020809104026020016040519081016040528092919081815260200182805461086490613a90565b80156108b15780601f10610886576101008083540402835291602001916108b1565b820191906000526020600020905b81548152906001019060200180831161089457829003601f168201915b5050505050905090565b60006108c682611d2e565b6069600083815260200190815260200160002060009054906101000a900473ffffffffffffffffffffffffffffffffffffffff169050919050565b600061090c82610e88565b90508073ffffffffffffffffffffffffffffffffffffffff168373ffffffffffffffffffffffffffffffffffffffff160361097c576040517f08c379a000000000000000000000000000000000000000000000000000000000815260040161097390613b33565b60405180910390fd5b8073ffffffffffffffffffffffffffffffffffffffff1661099b611d79565b73ffffffffffffffffffffffffffffffffffffffff1614806109ca57506109c9816109c4611d79565b611b63565b5b610a09576040517f08c379a0000000000000000000000000000000000000000000000000000000008152600401610a0090613bc5565b60405180910390fd5b610a138383611d81565b505050565b610a29610a23611d79565b82611e3a565b610a68576040517f08c379a0000000000000000000000000000000000000000000000000000000008152600401610a5f90613c57565b60405180910390fd5b610a73838383611ecf565b505050565b7f000000000000000000000000000000000000000000000000000000000000000073ffffffffffffffffffffffffffffffffffffffff163073ffffffffffffffffffffffffffffffffffffffff1603610b06576040517f08c379a0000000000000000000000000000000000000000000000000000000008152600401610afd90613ce9565b60405180910390fd5b7f000000000000000000000000000000000000000000000000000000000000000073ffffffffffffffffffffffffffffffffffffffff16610b45612135565b73ffffffffffffffffffffffffffffffffffffffff1614610b9b576040517f08c379a0000000000000000000000000000000000000000000000000000000008152600401610b9290613d7b565b60405180910390fd5b610ba48161218c565b610bfd81600067ffffffffffffffff811115610bc357610bc26133b8565b5b6040519080825280601f01601f191660200182016040528015610bf55781602001600182028036833780820191505090505b506000612197565b50565b610c1b838383604051806020016040528060008152506115c3565b505050565b7f000000000000000000000000000000000000000000000000000000000000000073ffffffffffffffffffffffffffffffffffffffff163073ffffffffffffffffffffffffffffffffffffffff1603610cae576040517f08c379a0000000000000000000000000000000000000000000000000000000008152600401610ca590613ce9565b60405180910390fd5b7f000000000000000000000000000000000000000000000000000000000000000073ffffffffffffffffffffffffffffffffffffffff16610ced612135565b73ffffffffffffffffffffffffffffffffffffffff1614610d43576040517f08c379a0000000000000000000000000000000000000000000000000000000008152600401610d3a90613d7b565b60405180910390fd5b610d4c8261218c565b610d5882826001612197565b5050565b60007f000000000000000000000000000000000000000000000000000000000000000073ffffffffffffffffffffffffffffffffffffffff163073ffffffffffffffffffffffffffffffffffffffff1614610dec576040517f08c379a0000000000000000000000000000000000000000000000000000000008152600401610de390613e0d565b60405180910390fd5b7f360894a13ba1a3210667c828492db98dca3e2076cc3735a920a3ca505d382bbc60001b905090565b610e1d612305565b8061013360006101000a81548173ffffffffffffffffffffffffffffffffffffffff021916908373ffffffffffffffffffffffffffffffffffffffff16021790555050565b610e6a612305565b806101328190555050565b610e7d612305565b806101318190555050565b6000806067600084815260200190815260200160002060009054906101000a900473ffffffffffffffffffffffffffffffffffffffff169050600073ffffffffffffffffffffffffffffffffffffffff168173ffffffffffffffffffffffffffffffffffffffff1603610f30576040517f08c379a0000000000000000000000000000000000000000000000000000000008152600401610f2790613e79565b60405180910390fd5b80915050919050565b600073ffffffffffffffffffffffffffffffffffffffff1661012f8383604051610f64929190613ec9565b908152602001604051809103902060009054906101000a900473ffffffffffffffffffffffffffffffffffffffff1673ffffffffffffffffffffffffffffffffffffffff1614610fe9576040517f08c379a0000000000000000000000000000000000000000000000000000000008152600401610fe090613f2e565b60405180910390fd5b3361012f8383604051610ffd929190613ec9565b908152602001604051809103902060006101000a81548173ffffffffffffffffffffffffffffffffffffffff021916908373ffffffffffffffffffffffffffffffffffffffff1602179055505050565b60008073ffffffffffffffffffffffffffffffffffffffff168273ffffffffffffffffffffffffffffffffffffffff16036110bd576040517f08c379a00000000000000000000000000000000000000000000000000000000081526004016110b490613fc0565b60405180910390fd5b606860008373ffffffffffffffffffffffffffffffffffffffff1673ffffffffffffffffffffffffffffffffffffffff168152602001908152602001600020549050919050565b61110c612305565b6111166000612383565b565b60008060019054906101000a900460ff161590508080156111495750600160008054906101000a900460ff1660ff16105b80611176575061115830612449565b1580156111755750600160008054906101000a900460ff1660ff16145b5b6111b5576040517f08c379a00000000000000000000000000000000000000000000000000000000081526004016111ac90614052565b60405180910390fd5b60016000806101000a81548160ff021916908360ff16021790555080156111f2576001600060016101000a81548160ff0219169083151502179055505b6112666040518060400160405280600781526020017f47616e50756e6b000000000000000000000000000000000000000000000000008152506040518060400160405280600581526020017f4750756e6b00000000000000000000000000000000000000000000000000000081525061246c565b61126e6124c9565b611276612522565b603261013081905550603c6101318190555060286101328190555080156112ea5760008060016101000a81548160ff0219169083151502179055507f7f26b83ff96e1f2b6a682f133852f6798a09c465da95921460cefb384740249860016040516112e191906140c4565b60405180910390a15b50565b6112f5613068565b6112fe82612573565b61133d576040517f08c379a00000000000000000000000000000000000000000000000000000000081526004016113349061412b565b60405180910390fd5b61012e600083815260200190815260200160002060405180604001604052908160008201805461136c90613a90565b80601f016020809104026020016040519081016040528092919081815260200182805461139890613a90565b80156113e55780601f106113ba576101008083540402835291602001916113e5565b820191906000526020600020905b8154815290600101906020018083116113c857829003601f168201915b505050505081526020016001820180546113fe90613a90565b80601f016020809104026020016040519081016040528092919081815260200182805461142a90613a90565b80156114775780601f1061144c57610100808354040283529160200191611477565b820191906000526020600020905b81548152906001019060200180831161145a57829003601f168201915b5050505050815250509050919050565b6000609760009054906101000a900473ffffffffffffffffffffffffffffffffffffffff16905090565b6060606680546114c090613a90565b80601f01602080910402602001604051908101604052809291908181526020018280546114ec90613a90565b80156115395780601f1061150e57610100808354040283529160200191611539565b820191906000526020600020905b81548152906001019060200180831161151c57829003601f168201915b5050505050905090565b61155561154e611d79565b83836125df565b5050565b600080736b175474e89094c44da98b954eedeac495271d0f9050600073c02aaa39b223fe8d0a0e5c4f27ead9083c756cc2905060006101f4905060006022945050505050919050565b61012d6020528060005260406000206000915054906101000a900460ff1681565b6115d46115ce611d79565b83611e3a565b611613576040517f08c379a000000000000000000000000000000000000000000000000000000000815260040161160a90613c57565b60405180910390fd5b61161f8484848461274b565b50505050565b61012e60205280600052604060002060009150905080600001805461164990613a90565b80601f016020809104026020016040519081016040528092919081815260200182805461167590613a90565b80156116c25780601f10611697576101008083540402835291602001916116c2565b820191906000526020600020905b8154815290600101906020018083116116a557829003601f168201915b5050505050908060010180546116d790613a90565b80601f016020809104026020016040519081016040528092919081815260200182805461170390613a90565b80156117505780601f1061172557610100808354040283529160200191611750565b820191906000526020600020905b81548152906001019060200180831161173357829003601f168201915b5050505050905082565b606061176582611d2e565b600061176f6127a7565b9050600081511161178f57604051806020016040528060008152506117ba565b80611799846127be565b6040516020016117aa929190614187565b6040516020818303038152906040525b915050919050565b600084846040516020016117d7929190613902565b6040516020818303038152906040528051906020012090506000151561012d600083815260200190815260200160002060009054906101000a900460ff16151514611857576040517f08c379a000000000000000000000000000000000000000000000000000000000815260040161184e906141f7565b60405180910390fd5b600073ffffffffffffffffffffffffffffffffffffffff1661013360009054906101000a900473ffffffffffffffffffffffffffffffffffffffff1673ffffffffffffffffffffffffffffffffffffffff161461197657600034036118f1576040517f08c379a00000000000000000000000000000000000000000000000000000000081526004016118e890614263565b60405180910390fd5b61013360009054906101000a900473ffffffffffffffffffffffffffffffffffffffff1673ffffffffffffffffffffffffffffffffffffffff166108fc6064610132543461193f91906142b2565b6119499190614323565b9081150290604051600060405180830381858888f19350505050158015611974573d6000803e3d6000fd5b505b600073ffffffffffffffffffffffffffffffffffffffff1661012f8660405161199f9190614385565b908152602001604051809103902060009054906101000a900473ffffffffffffffffffffffffffffffffffffffff1673ffffffffffffffffffffffffffffffffffffffff1614611acd5760003403611a2c576040517f08c379a0000000000000000000000000000000000000000000000000000000008152600401611a2390614263565b60405180910390fd5b61012f85604051611a3d9190614385565b908152602001604051809103902060009054906101000a900473ffffffffffffffffffffffffffffffffffffffff1673ffffffffffffffffffffffffffffffffffffffff166108fc60646101315434611a9691906142b2565b611aa09190614323565b9081150290604051600060405180830381858888f19350505050158015611acb573d6000803e3d6000fd5b505b611ad7838361291e565b60405180604001604052808681526020018581525061012e60008481526020019081526020016000206000820151816000019081611b15919061453e565b506020820151816001019081611b2b919061453e565b50905050600161012d600083815260200190815260200160002060006101000a81548160ff0219169083151502179055505050505050565b6000606a60008473ffffffffffffffffffffffffffffffffffffffff1673ffffffffffffffffffffffffffffffffffffffff16815260200190815260200160002060008373ffffffffffffffffffffffffffffffffffffffff1673ffffffffffffffffffffffffffffffffffffffff16815260200190815260200160002060009054906101000a900460ff16905092915050565b61012f818051602081018201805184825260208301602085012081835280955050505050506000915054906101000a900473ffffffffffffffffffffffffffffffffffffffff1681565b611c49612305565b600073ffffffffffffffffffffffffffffffffffffffff168173ffffffffffffffffffffffffffffffffffffffff1603611cb8576040517f08c379a0000000000000000000000000000000000000000000000000000000008152600401611caf90614682565b60405180910390fd5b611cc181612383565b50565b60007f01ffc9a7000000000000000000000000000000000000000000000000000000007bffffffffffffffffffffffffffffffffffffffffffffffffffffffff1916827bffffffffffffffffffffffffffffffffffffffffffffffffffffffff1916149050919050565b611d3781612573565b611d76576040517f08c379a0000000000000000000000000000000000000000000000000000000008152600401611d6d90613e79565b60405180910390fd5b50565b600033905090565b816069600083815260200190815260200160002060006101000a81548173ffffffffffffffffffffffffffffffffffffffff021916908373ffffffffffffffffffffffffffffffffffffffff160217905550808273ffffffffffffffffffffffffffffffffffffffff16611df483610e88565b73ffffffffffffffffffffffffffffffffffffffff167f8c5be1e5ebec7d5bd14f71427d1e84f3dd0314c0f7b2291e5b200ac8c7c3b92560405160405180910390a45050565b600080611e4683610e88565b90508073ffffffffffffffffffffffffffffffffffffffff168473ffffffffffffffffffffffffffffffffffffffff161480611e885750611e878185611b63565b5b80611ec657508373ffffffffffffffffffffffffffffffffffffffff16611eae846108bb565b73ffffffffffffffffffffffffffffffffffffffff16145b91505092915050565b8273ffffffffffffffffffffffffffffffffffffffff16611eef82610e88565b73ffffffffffffffffffffffffffffffffffffffff1614611f45576040517f08c379a0000000000000000000000000000000000000000000000000000000008152600401611f3c90614714565b60405180910390fd5b600073ffffffffffffffffffffffffffffffffffffffff168273ffffffffffffffffffffffffffffffffffffffff1603611fb4576040517f08c379a0000000000000000000000000000000000000000000000000000000008152600401611fab906147a6565b60405180910390fd5b611fbf83838361293c565b611fca600082611d81565b6001606860008573ffffffffffffffffffffffffffffffffffffffff1673ffffffffffffffffffffffffffffffffffffffff168152602001908152602001600020600082825461201a91906147c6565b925050819055506001606860008473ffffffffffffffffffffffffffffffffffffffff1673ffffffffffffffffffffffffffffffffffffffff168152602001908152602001600020600082825461207191906147fa565b92505081905550816067600083815260200190815260200160002060006101000a81548173ffffffffffffffffffffffffffffffffffffffff021916908373ffffffffffffffffffffffffffffffffffffffff160217905550808273ffffffffffffffffffffffffffffffffffffffff168473ffffffffffffffffffffffffffffffffffffffff167fddf252ad1be2c89b69c2b068fc378daa952ba7f163c4a11628f55a4df523b3ef60405160405180910390a4612130838383612941565b505050565b60006121637f360894a13ba1a3210667c828492db98dca3e2076cc3735a920a3ca505d382bbc60001b612946565b60000160009054906101000a900473ffffffffffffffffffffffffffffffffffffffff16905090565b612194612305565b50565b6121c37f4910fdfa16fed3260ed0e7147f7cc6da11a60208b5b9406d12a635614ffd914360001b612950565b60000160009054906101000a900460ff16156121e7576121e28361295a565b612300565b8273ffffffffffffffffffffffffffffffffffffffff166352d1902d6040518163ffffffff1660e01b8152600401602060405180830381865afa92505050801561224f57506040513d601f19601f8201168201806040525081019061224c9190614843565b60015b61228e576040517f08c379a0000000000000000000000000000000000000000000000000000000008152600401612285906148e2565b60405180910390fd5b7f360894a13ba1a3210667c828492db98dca3e2076cc3735a920a3ca505d382bbc60001b81146122f3576040517f08c379a00000000000000000000000000000000000000000000000000000000081526004016122ea90614974565b60405180910390fd5b506122ff838383612a13565b5b505050565b61230d611d79565b73ffffffffffffffffffffffffffffffffffffffff1661232b611487565b73ffffffffffffffffffffffffffffffffffffffff1614612381576040517f08c379a0000000000000000000000000000000000000000000000000000000008152600401612378906149e0565b60405180910390fd5b565b6000609760009054906101000a900473ffffffffffffffffffffffffffffffffffffffff16905081609760006101000a81548173ffffffffffffffffffffffffffffffffffffffff021916908373ffffffffffffffffffffffffffffffffffffffff1602179055508173ffffffffffffffffffffffffffffffffffffffff168173ffffffffffffffffffffffffffffffffffffffff167f8be0079c531659141344cd1fd0a4f28419497f9722a3daafe3b4186f6b6457e060405160405180910390a35050565b6000808273ffffffffffffffffffffffffffffffffffffffff163b119050919050565b600060019054906101000a900460ff166124bb576040517f08c379a00000000000000000000000000000000000000000000000000000000081526004016124b290614a72565b60405180910390fd5b6124c58282612a3f565b5050565b600060019054906101000a900460ff16612518576040517f08c379a000000000000000000000000000000000000000000000000000000000815260040161250f90614a72565b60405180910390fd5b612520612ab2565b565b600060019054906101000a900460ff16612571576040517f08c379a000000000000000000000000000000000000000000000000000000000815260040161256890614a72565b60405180910390fd5b565b60008073ffffffffffffffffffffffffffffffffffffffff166067600084815260200190815260200160002060009054906101000a900473ffffffffffffffffffffffffffffffffffffffff1673ffffffffffffffffffffffffffffffffffffffff1614159050919050565b8173ffffffffffffffffffffffffffffffffffffffff168373ffffffffffffffffffffffffffffffffffffffff160361264d576040517f08c379a000000000000000000000000000000000000000000000000000000000815260040161264490614ade565b60405180910390fd5b80606a60008573ffffffffffffffffffffffffffffffffffffffff1673ffffffffffffffffffffffffffffffffffffffff16815260200190815260200160002060008473ffffffffffffffffffffffffffffffffffffffff1673ffffffffffffffffffffffffffffffffffffffff16815260200190815260200160002060006101000a81548160ff0219169083151502179055508173ffffffffffffffffffffffffffffffffffffffff168373ffffffffffffffffffffffffffffffffffffffff167f17307eab39ab6107e8899845ad3d59bd9653f200f220920489ca2b5937696c318360405161273e9190613136565b60405180910390a3505050565b612756848484611ecf565b61276284848484612b13565b6127a1576040517f08c379a000000000000000000000000000000000000000000000000000000000815260040161279890614b70565b60405180910390fd5b50505050565b606060405180602001604052806000815250905090565b606060008203612805576040518060400160405280600181526020017f30000000000000000000000000000000000000000000000000000000000000008152509050612919565b600082905060005b6000821461283757808061282090614b90565b915050600a826128309190614323565b915061280d565b60008167ffffffffffffffff811115612853576128526133b8565b5b6040519080825280601f01601f1916602001820160405280156128855781602001600182028036833780820191505090505b5090505b600085146129125760018261289e91906147c6565b9150600a856128ad9190614bd8565b60306128b991906147fa565b60f81b8183815181106128cf576128ce614c09565b5b60200101907effffffffffffffffffffffffffffffffffffffffffffffffffffffffffffff1916908160001a905350600a8561290b9190614323565b9450612889565b8093505050505b919050565b612938828260405180602001604052806000815250612c9a565b5050565b505050565b505050565b6000819050919050565b6000819050919050565b61296381612449565b6129a2576040517f08c379a000000000000000000000000000000000000000000000000000000000815260040161299990614caa565b60405180910390fd5b806129cf7f360894a13ba1a3210667c828492db98dca3e2076cc3735a920a3ca505d382bbc60001b612946565b60000160006101000a81548173ffffffffffffffffffffffffffffffffffffffff021916908373ffffffffffffffffffffffffffffffffffffffff16021790555050565b612a1c83612cf5565b600082511180612a295750805b15612a3a57612a388383612d44565b505b505050565b600060019054906101000a900460ff16612a8e576040517f08c379a0000000000000000000000000000000000000000000000000000000008152600401612a8590614a72565b60405180910390fd5b8160659081612a9d9190614d25565b508060669081612aad9190614d25565b505050565b600060019054906101000a900460ff16612b01576040517f08c379a0000000000000000000000000000000000000000000000000000000008152600401612af890614a72565b60405180910390fd5b612b11612b0c611d79565b612383565b565b6000612b348473ffffffffffffffffffffffffffffffffffffffff16612449565b15612c8d578373ffffffffffffffffffffffffffffffffffffffff1663150b7a02612b5d611d79565b8786866040518563ffffffff1660e01b8152600401612b7f9493929190614df7565b6020604051808303816000875af1925050508015612bbb57506040513d601f19601f82011682018060405250810190612bb89190614e58565b60015b612c3d573d8060008114612beb576040519150601f19603f3d011682016040523d82523d6000602084013e612bf0565b606091505b506000815103612c35576040517f08c379a0000000000000000000000000000000000000000000000000000000008152600401612c2c90614b70565b60405180910390fd5b805181602001fd5b63150b7a0260e01b7bffffffffffffffffffffffffffffffffffffffffffffffffffffffff1916817bffffffffffffffffffffffffffffffffffffffffffffffffffffffff191614915050612c92565b600190505b949350505050565b612ca48383612e28565b612cb16000848484612b13565b612cf0576040517f08c379a0000000000000000000000000000000000000000000000000000000008152600401612ce790614b70565b60405180910390fd5b505050565b612cfe8161295a565b8073ffffffffffffffffffffffffffffffffffffffff167fbc7cd75a20ee27fd9adebab32041f755214dbc6bffa90cc0225b39da2e5c2d3b60405160405180910390a250565b6060612d4f83612449565b612d8e576040517f08c379a0000000000000000000000000000000000000000000000000000000008152600401612d8590614ef7565b60405180910390fd5b6000808473ffffffffffffffffffffffffffffffffffffffff1684604051612db69190614385565b600060405180830381855af49150503d8060008114612df1576040519150601f19603f3d011682016040523d82523d6000602084013e612df6565b606091505b5091509150612e1e8282604051806060016040528060278152602001614ff060279139613001565b9250505092915050565b600073ffffffffffffffffffffffffffffffffffffffff168273ffffffffffffffffffffffffffffffffffffffff1603612e97576040517f08c379a0000000000000000000000000000000000000000000000000000000008152600401612e8e90614f63565b60405180910390fd5b612ea081612573565b15612ee0576040517f08c379a0000000000000000000000000000000000000000000000000000000008152600401612ed790614fcf565b60405180910390fd5b612eec6000838361293c565b6001606860008473ffffffffffffffffffffffffffffffffffffffff1673ffffffffffffffffffffffffffffffffffffffff1681526020019081526020016000206000828254612f3c91906147fa565b92505081905550816067600083815260200190815260200160002060006101000a81548173ffffffffffffffffffffffffffffffffffffffff021916908373ffffffffffffffffffffffffffffffffffffffff160217905550808273ffffffffffffffffffffffffffffffffffffffff16600073ffffffffffffffffffffffffffffffffffffffff167fddf252ad1be2c89b69c2b068fc378daa952ba7f163c4a11628f55a4df523b3ef60405160405180910390a4612ffd60008383612941565b5050565b6060831561301157829050613061565b6000835111156130245782518084602001fd5b816040517f08c379a000000000000000000000000000000000000000000000000000000000815260040161305891906131e1565b60405180910390fd5b9392505050565b604051806040016040528060608152602001606081525090565b6000604051905090565b600080fd5b600080fd5b60007fffffffff0000000000000000000000000000000000000000000000000000000082169050919050565b6130cb81613096565b81146130d657600080fd5b50565b6000813590506130e8816130c2565b92915050565b6000602082840312156131045761310361308c565b5b6000613112848285016130d9565b91505092915050565b60008115159050919050565b6131308161311b565b82525050565b600060208201905061314b6000830184613127565b92915050565b600081519050919050565b600082825260208201905092915050565b60005b8381101561318b578082015181840152602081019050613170565b60008484015250505050565b6000601f19601f8301169050919050565b60006131b382613151565b6131bd818561315c565b93506131cd81856020860161316d565b6131d681613197565b840191505092915050565b600060208201905081810360008301526131fb81846131a8565b905092915050565b6000819050919050565b61321681613203565b811461322157600080fd5b50565b6000813590506132338161320d565b92915050565b60006020828403121561324f5761324e61308c565b5b600061325d84828501613224565b91505092915050565b600073ffffffffffffffffffffffffffffffffffffffff82169050919050565b600061329182613266565b9050919050565b6132a181613286565b82525050565b60006020820190506132bc6000830184613298565b92915050565b6132cb81613286565b81146132d657600080fd5b50565b6000813590506132e8816132c2565b92915050565b600080604083850312156133055761330461308c565b5b6000613313858286016132d9565b925050602061332485828601613224565b9150509250929050565b6000806000606084860312156133475761334661308c565b5b6000613355868287016132d9565b9350506020613366868287016132d9565b925050604061337786828701613224565b9150509250925092565b6000602082840312156133975761339661308c565b5b60006133a5848285016132d9565b91505092915050565b600080fd5b600080fd5b7f4e487b7100000000000000000000000000000000000000000000000000000000600052604160045260246000fd5b6133f082613197565b810181811067ffffffffffffffff8211171561340f5761340e6133b8565b5b80604052505050565b6000613422613082565b905061342e82826133e7565b919050565b600067ffffffffffffffff82111561344e5761344d6133b8565b5b61345782613197565b9050602081019050919050565b82818337600083830152505050565b600061348661348184613433565b613418565b9050828152602081018484840111156134a2576134a16133b3565b5b6134ad848285613464565b509392505050565b600082601f8301126134ca576134c96133ae565b5b81356134da848260208601613473565b91505092915050565b600080604083850312156134fa576134f961308c565b5b6000613508858286016132d9565b925050602083013567ffffffffffffffff81111561352957613528613091565b5b613535858286016134b5565b9150509250929050565b6000819050919050565b6135528161353f565b82525050565b600060208201905061356d6000830184613549565b92915050565b600061357e82613266565b9050919050565b61358e81613573565b811461359957600080fd5b50565b6000813590506135ab81613585565b92915050565b6000602082840312156135c7576135c661308c565b5b60006135d58482850161359c565b91505092915050565b600080fd5b600080fd5b60008083601f8401126135fe576135fd6133ae565b5b8235905067ffffffffffffffff81111561361b5761361a6135de565b5b602083019150836001820283011115613637576136366135e3565b5b9250929050565b600080602083850312156136555761365461308c565b5b600083013567ffffffffffffffff81111561367357613672613091565b5b61367f858286016135e8565b92509250509250929050565b61369481613203565b82525050565b60006020820190506136af600083018461368b565b92915050565b600081519050919050565b600082825260208201905092915050565b60006136dc826136b5565b6136e681856136c0565b93506136f681856020860161316d565b6136ff81613197565b840191505092915050565b6000604083016000830151848203600086015261372782826136d1565b9150506020830151848203602086015261374182826136d1565b9150508091505092915050565b60006020820190508181036000830152613768818461370a565b905092915050565b6137798161311b565b811461378457600080fd5b50565b60008135905061379681613770565b92915050565b600080604083850312156137b3576137b261308c565b5b60006137c1858286016132d9565b92505060206137d285828601613787565b9150509250929050565b6137e58161353f565b81146137f057600080fd5b50565b600081359050613802816137dc565b92915050565b60006020828403121561381e5761381d61308c565b5b600061382c848285016137f3565b91505092915050565b6000806000806080858703121561384f5761384e61308c565b5b600061385d878288016132d9565b945050602061386e878288016132d9565b935050604061387f87828801613224565b925050606085013567ffffffffffffffff8111156138a05761389f613091565b5b6138ac878288016134b5565b91505092959194509250565b600082825260208201905092915050565b60006138d4826136b5565b6138de81856138b8565b93506138ee81856020860161316d565b6138f781613197565b840191505092915050565b6000604082019050818103600083015261391c81856138c9565b9050818103602083015261393081846138c9565b90509392505050565b600080600080608085870312156139535761395261308c565b5b600085013567ffffffffffffffff81111561397157613970613091565b5b61397d878288016134b5565b945050602085013567ffffffffffffffff81111561399e5761399d613091565b5b6139aa878288016134b5565b93505060406139bb878288016132d9565b92505060606139cc87828801613224565b91505092959194509250565b600080604083850312156139ef576139ee61308c565b5b60006139fd858286016132d9565b9250506020613a0e858286016132d9565b9150509250929050565b600060208284031215613a2e57613a2d61308c565b5b600082013567ffffffffffffffff811115613a4c57613a4b613091565b5b613a58848285016134b5565b91505092915050565b7f4e487b7100000000000000000000000000000000000000000000000000000000600052602260045260246000fd5b60006002820490506001821680613aa857607f821691505b602082108103613abb57613aba613a61565b5b50919050565b7f4552433732313a20617070726f76616c20746f2063757272656e74206f776e6560008201527f7200000000000000000000000000000000000000000000000000000000000000602082015250565b6000613b1d60218361315c565b9150613b2882613ac1565b604082019050919050565b60006020820190508181036000830152613b4c81613b10565b9050919050565b7f4552433732313a20617070726f76652063616c6c6572206973206e6f7420746f60008201527f6b656e206f776e6572206e6f7220617070726f76656420666f7220616c6c0000602082015250565b6000613baf603e8361315c565b9150613bba82613b53565b604082019050919050565b60006020820190508181036000830152613bde81613ba2565b9050919050565b7f4552433732313a2063616c6c6572206973206e6f7420746f6b656e206f776e6560008201527f72206e6f7220617070726f766564000000000000000000000000000000000000602082015250565b6000613c41602e8361315c565b9150613c4c82613be5565b604082019050919050565b60006020820190508181036000830152613c7081613c34565b9050919050565b7f46756e6374696f6e206d7573742062652063616c6c6564207468726f7567682060008201527f64656c656761746563616c6c0000000000000000000000000000000000000000602082015250565b6000613cd3602c8361315c565b9150613cde82613c77565b604082019050919050565b60006020820190508181036000830152613d0281613cc6565b9050919050565b7f46756e6374696f6e206d7573742062652063616c6c6564207468726f7567682060008201527f6163746976652070726f78790000000000000000000000000000000000000000602082015250565b6000613d65602c8361315c565b9150613d7082613d09565b604082019050919050565b60006020820190508181036000830152613d9481613d58565b9050919050565b7f555550535570677261646561626c653a206d757374206e6f742062652063616c60008201527f6c6564207468726f7567682064656c656761746563616c6c0000000000000000602082015250565b6000613df760388361315c565b9150613e0282613d9b565b604082019050919050565b60006020820190508181036000830152613e2681613dea565b9050919050565b7f4552433732313a20696e76616c696420746f6b656e2049440000000000000000600082015250565b6000613e6360188361315c565b9150613e6e82613e2d565b602082019050919050565b60006020820190508181036000830152613e9281613e56565b9050919050565b600081905092915050565b6000613eb08385613e99565b9350613ebd838584613464565b82840190509392505050565b6000613ed6828486613ea4565b91508190509392505050565b7f6d6f64656c2073686f756c646e277420626520616c7265616479207365740000600082015250565b6000613f18601e8361315c565b9150613f2382613ee2565b602082019050919050565b60006020820190508181036000830152613f4781613f0b565b9050919050565b7f4552433732313a2061646472657373207a65726f206973206e6f74206120766160008201527f6c6964206f776e65720000000000000000000000000000000000000000000000602082015250565b6000613faa60298361315c565b9150613fb582613f4e565b604082019050919050565b60006020820190508181036000830152613fd981613f9d565b9050919050565b7f496e697469616c697a61626c653a20636f6e747261637420697320616c72656160008201527f647920696e697469616c697a6564000000000000000000000000000000000000602082015250565b600061403c602e8361315c565b915061404782613fe0565b604082019050919050565b6000602082019050818103600083015261406b8161402f565b9050919050565b6000819050919050565b600060ff82169050919050565b6000819050919050565b60006140ae6140a96140a484614072565b614089565b61407c565b9050919050565b6140be81614093565b82525050565b60006020820190506140d960008301846140b5565b92915050565b7f746f6b656e20646f6573206e6f74206578697374000000000000000000000000600082015250565b600061411560148361315c565b9150614120826140df565b602082019050919050565b6000602082019050818103600083015261414481614108565b9050919050565b600081905092915050565b600061416182613151565b61416b818561414b565b935061417b81856020860161316d565b80840191505092915050565b60006141938285614156565b915061419f8284614156565b91508190509392505050565b7f6c6174656e7420737061636520616c7265616479207573656400000000000000600082015250565b60006141e160198361315c565b91506141ec826141ab565b602082019050919050565b60006020820190508181036000830152614210816141d4565b9050919050565b7f76616c75652069732073657420746f2030000000000000000000000000000000600082015250565b600061424d60118361315c565b915061425882614217565b602082019050919050565b6000602082019050818103600083015261427c81614240565b9050919050565b7f4e487b7100000000000000000000000000000000000000000000000000000000600052601160045260246000fd5b60006142bd82613203565b91506142c883613203565b92508282026142d681613203565b915082820484148315176142ed576142ec614283565b5b5092915050565b7f4e487b7100000000000000000000000000000000000000000000000000000000600052601260045260246000fd5b600061432e82613203565b915061433983613203565b925082614349576143486142f4565b5b828204905092915050565b600061435f826136b5565b6143698185613e99565b935061437981856020860161316d565b80840191505092915050565b60006143918284614354565b915081905092915050565b60008190508160005260206000209050919050565b60006020601f8301049050919050565b600082821b905092915050565b6000600883026143fe7fffffffffffffffffffffffffffffffffffffffffffffffffffffffffffffffff826143c1565b61440886836143c1565b95508019841693508086168417925050509392505050565b600061443b61443661443184613203565b614089565b613203565b9050919050565b6000819050919050565b61445583614420565b61446961446182614442565b8484546143ce565b825550505050565b600090565b61447e614471565b61448981848461444c565b505050565b5b818110156144ad576144a2600082614476565b60018101905061448f565b5050565b601f8211156144f2576144c38161439c565b6144cc846143b1565b810160208510156144db578190505b6144ef6144e7856143b1565b83018261448e565b50505b505050565b600082821c905092915050565b6000614515600019846008026144f7565b1980831691505092915050565b600061452e8383614504565b9150826002028217905092915050565b614547826136b5565b67ffffffffffffffff8111156145605761455f6133b8565b5b61456a8254613a90565b6145758282856144b1565b600060209050601f8311600181146145a85760008415614596578287015190505b6145a08582614522565b865550614608565b601f1984166145b68661439c565b60005b828110156145de578489015182556001820191506020850194506020810190506145b9565b868310156145fb57848901516145f7601f891682614504565b8355505b6001600288020188555050505b505050505050565b7f4f776e61626c653a206e6577206f776e657220697320746865207a65726f206160008201527f6464726573730000000000000000000000000000000000000000000000000000602082015250565b600061466c60268361315c565b915061467782614610565b604082019050919050565b6000602082019050818103600083015261469b8161465f565b9050919050565b7f4552433732313a207472616e736665722066726f6d20696e636f72726563742060008201527f6f776e6572000000000000000000000000000000000000000000000000000000602082015250565b60006146fe60258361315c565b9150614709826146a2565b604082019050919050565b6000602082019050818103600083015261472d816146f1565b9050919050565b7f4552433732313a207472616e7366657220746f20746865207a65726f2061646460008201527f7265737300000000000000000000000000000000000000000000000000000000602082015250565b600061479060248361315c565b915061479b82614734565b604082019050919050565b600060208201905081810360008301526147bf81614783565b9050919050565b60006147d182613203565b91506147dc83613203565b92508282039050818111156147f4576147f3614283565b5b92915050565b600061480582613203565b915061481083613203565b925082820190508082111561482857614827614283565b5b92915050565b60008151905061483d816137dc565b92915050565b6000602082840312156148595761485861308c565b5b60006148678482850161482e565b91505092915050565b7f45524331393637557067726164653a206e657720696d706c656d656e7461746960008201527f6f6e206973206e6f742055555053000000000000000000000000000000000000602082015250565b60006148cc602e8361315c565b91506148d782614870565b604082019050919050565b600060208201905081810360008301526148fb816148bf565b9050919050565b7f45524331393637557067726164653a20756e737570706f727465642070726f7860008201527f6961626c65555549440000000000000000000000000000000000000000000000602082015250565b600061495e60298361315c565b915061496982614902565b604082019050919050565b6000602082019050818103600083015261498d81614951565b9050919050565b7f4f776e61626c653a2063616c6c6572206973206e6f7420746865206f776e6572600082015250565b60006149ca60208361315c565b91506149d582614994565b602082019050919050565b600060208201905081810360008301526149f9816149bd565b9050919050565b7f496e697469616c697a61626c653a20636f6e7472616374206973206e6f74206960008201527f6e697469616c697a696e67000000000000000000000000000000000000000000602082015250565b6000614a5c602b8361315c565b9150614a6782614a00565b604082019050919050565b60006020820190508181036000830152614a8b81614a4f565b9050919050565b7f4552433732313a20617070726f766520746f2063616c6c657200000000000000600082015250565b6000614ac860198361315c565b9150614ad382614a92565b602082019050919050565b60006020820190508181036000830152614af781614abb565b9050919050565b7f4552433732313a207472616e7366657220746f206e6f6e20455243373231526560008201527f63656976657220696d706c656d656e7465720000000000000000000000000000602082015250565b6000614b5a60328361315c565b9150614b6582614afe565b604082019050919050565b60006020820190508181036000830152614b8981614b4d565b9050919050565b6000614b9b82613203565b91507fffffffffffffffffffffffffffffffffffffffffffffffffffffffffffffffff8203614bcd57614bcc614283565b5b600182019050919050565b6000614be382613203565b9150614bee83613203565b925082614bfe57614bfd6142f4565b5b828206905092915050565b7f4e487b7100000000000000000000000000000000000000000000000000000000600052603260045260246000fd5b7f455243313936373a206e657720696d706c656d656e746174696f6e206973206e60008201527f6f74206120636f6e747261637400000000000000000000000000000000000000602082015250565b6000614c94602d8361315c565b9150614c9f82614c38565b604082019050919050565b60006020820190508181036000830152614cc381614c87565b9050919050565b60008190508160005260206000209050919050565b601f821115614d2057614cf181614cca565b614cfa846143b1565b81016020851015614d09578190505b614d1d614d15856143b1565b83018261448e565b50505b505050565b614d2e82613151565b67ffffffffffffffff811115614d4757614d466133b8565b5b614d518254613a90565b614d5c828285614cdf565b600060209050601f831160018114614d8f5760008415614d7d578287015190505b614d878582614522565b865550614def565b601f198416614d9d86614cca565b60005b82811015614dc557848901518255600182019150602085019450602081019050614da0565b86831015614de25784890151614dde601f891682614504565b8355505b6001600288020188555050505b505050505050565b6000608082019050614e0c6000830187613298565b614e196020830186613298565b614e26604083018561368b565b8181036060830152614e3881846138c9565b905095945050505050565b600081519050614e52816130c2565b92915050565b600060208284031215614e6e57614e6d61308c565b5b6000614e7c84828501614e43565b91505092915050565b7f416464726573733a2064656c65676174652063616c6c20746f206e6f6e2d636f60008201527f6e74726163740000000000000000000000000000000000000000000000000000602082015250565b6000614ee160268361315c565b9150614eec82614e85565b604082019050919050565b60006020820190508181036000830152614f1081614ed4565b9050919050565b7f4552433732313a206d696e7420746f20746865207a65726f2061646472657373600082015250565b6000614f4d60208361315c565b9150614f5882614f17565b602082019050919050565b60006020820190508181036000830152614f7c81614f40565b9050919050565b7f4552433732313a20746f6b656e20616c7265616479206d696e74656400000000600082015250565b6000614fb9601c8361315c565b9150614fc482614f83565b602082019050919050565b60006020820190508181036000830152614fe881614fac565b905091905056fe416464726573733a206c6f772d6c6576656c2064656c65676174652063616c6c206661696c6564a264697066735822122025e1c3a117e5efe5e99379a0b185ff5732ce0ea8499b5b3fac13b6b79121d57564736f6c63430008120033",
			"opcodes": "PUSH1 0xA0 PUSH1 0x40 MSTORE ADDRESS PUSH20 0xFFFFFFFFFFFFFFFFFFFFFFFFFFFFFFFFFFFFFFFF AND PUSH1 0x80 SWAP1 PUSH20 0xFFFFFFFFFFFFFFFFFFFFFFFFFFFFFFFFFFFFFFFF AND DUP2 MSTORE POP CALLVALUE DUP1 ISZERO PUSH3 0x44 JUMPI PUSH1 0x0 DUP1 REVERT JUMPDEST POP PUSH3 0x55 PUSH3 0x5B PUSH1 0x20 SHL PUSH1 0x20 SHR JUMP JUMPDEST PUSH3 0x206 JUMP JUMPDEST PUSH1 0x0 PUSH1 0x1 SWAP1 SLOAD SWAP1 PUSH2 0x100 EXP SWAP1 DIV PUSH1 0xFF AND ISZERO PUSH3 0xAE JUMPI PUSH1 0x40 MLOAD PUSH32 0x8C379A000000000000000000000000000000000000000000000000000000000 DUP2 MSTORE PUSH1 0x4 ADD PUSH3 0xA5 SWAP1 PUSH3 0x1A9 JUMP JUMPDEST PUSH1 0x40 MLOAD DUP1 SWAP2 SUB SWAP1 REVERT JUMPDEST PUSH1 0xFF DUP1 AND PUSH1 0x0 DUP1 SLOAD SWAP1 PUSH2 0x100 EXP SWAP1 DIV PUSH1 0xFF AND PUSH1 0xFF AND LT ISZERO PUSH3 0x120 JUMPI PUSH1 0xFF PUSH1 0x0 DUP1 PUSH2 0x100 EXP DUP2 SLOAD DUP2 PUSH1 0xFF MUL NOT AND SWAP1 DUP4 PUSH1 0xFF AND MUL OR SWAP1 SSTORE POP PUSH32 0x7F26B83FF96E1F2B6A682F133852F6798A09C465DA95921460CEFB3847402498 PUSH1 0xFF PUSH1 0x40 MLOAD PUSH3 0x117 SWAP2 SWAP1 PUSH3 0x1E9 JUMP JUMPDEST PUSH1 0x40 MLOAD DUP1 SWAP2 SUB SWAP1 LOG1 JUMPDEST JUMP JUMPDEST PUSH1 0x0 DUP3 DUP3 MSTORE PUSH1 0x20 DUP3 ADD SWAP1 POP SWAP3 SWAP2 POP POP JUMP JUMPDEST PUSH32 0x496E697469616C697A61626C653A20636F6E747261637420697320696E697469 PUSH1 0x0 DUP3 ADD MSTORE PUSH32 0x616C697A696E6700000000000000000000000000000000000000000000000000 PUSH1 0x20 DUP3 ADD MSTORE POP JUMP JUMPDEST PUSH1 0x0 PUSH3 0x191 PUSH1 0x27 DUP4 PUSH3 0x122 JUMP JUMPDEST SWAP2 POP PUSH3 0x19E DUP3 PUSH3 0x133 JUMP JUMPDEST PUSH1 0x40 DUP3 ADD SWAP1 POP SWAP2 SWAP1 POP JUMP JUMPDEST PUSH1 0x0 PUSH1 0x20 DUP3 ADD SWAP1 POP DUP2 DUP2 SUB PUSH1 0x0 DUP4 ADD MSTORE PUSH3 0x1C4 DUP2 PUSH3 0x182 JUMP JUMPDEST SWAP1 POP SWAP2 SWAP1 POP JUMP JUMPDEST PUSH1 0x0 PUSH1 0xFF DUP3 AND SWAP1 POP SWAP2 SWAP1 POP JUMP JUMPDEST PUSH3 0x1E3 DUP2 PUSH3 0x1CB JUMP JUMPDEST DUP3 MSTORE POP POP JUMP JUMPDEST PUSH1 0x0 PUSH1 0x20 DUP3 ADD SWAP1 POP PUSH3 0x200 PUSH1 0x0 DUP4 ADD DUP5 PUSH3 0x1D8 JUMP JUMPDEST SWAP3 SWAP2 POP POP JUMP JUMPDEST PUSH1 0x80 MLOAD PUSH2 0x504C PUSH3 0x23E PUSH1 0x0 CODECOPY PUSH1 0x0 DUP2 DUP2 PUSH2 0xA7A ADD MSTORE DUP2 DUP2 PUSH2 0xB08 ADD MSTORE DUP2 DUP2 PUSH2 0xC22 ADD MSTORE DUP2 DUP2 PUSH2 0xCB0 ADD MSTORE PUSH2 0xD60 ADD MSTORE PUSH2 0x504C PUSH1 0x0 RETURN INVALID PUSH1 0x80 PUSH1 0x40 MSTORE PUSH1 0x4 CALLDATASIZE LT PUSH2 0x1CD JUMPI PUSH1 0x0 CALLDATALOAD PUSH1 0xE0 SHR DUP1 PUSH4 0x715018A6 GT PUSH2 0xF7 JUMPI DUP1 PUSH4 0xB5D74C08 GT PUSH2 0x95 JUMPI DUP1 PUSH4 0xC8A27F24 GT PUSH2 0x64 JUMPI DUP1 PUSH4 0xC8A27F24 EQ PUSH2 0x688 JUMPI DUP1 PUSH4 0xE985E9C5 EQ PUSH2 0x6A4 JUMPI DUP1 PUSH4 0xED3B0ECA EQ PUSH2 0x6E1 JUMPI DUP1 PUSH4 0xF2FDE38B EQ PUSH2 0x71E JUMPI PUSH2 0x1CD JUMP JUMPDEST DUP1 PUSH4 0xB5D74C08 EQ PUSH2 0x5A7 JUMPI DUP1 PUSH4 0xB88D4FDE EQ PUSH2 0x5E4 JUMPI DUP1 PUSH4 0xC0A094FD EQ PUSH2 0x60D JUMPI DUP1 PUSH4 0xC87B56DD EQ PUSH2 0x64B JUMPI PUSH2 0x1CD JUMP JUMPDEST DUP1 PUSH4 0x8DA5CB5B GT PUSH2 0xD1 JUMPI DUP1 PUSH4 0x8DA5CB5B EQ PUSH2 0x4EB JUMPI DUP1 PUSH4 0x95D89B41 EQ PUSH2 0x516 JUMPI DUP1 PUSH4 0xA22CB465 EQ PUSH2 0x541 JUMPI DUP1 PUSH4 0xADA8B83D EQ PUSH2 0x56A JUMPI PUSH2 0x1CD JUMP JUMPDEST DUP1 PUSH4 0x715018A6 EQ PUSH2 0x480 JUMPI DUP1 PUSH4 0x8129FC1C EQ PUSH2 0x497 JUMPI DUP1 PUSH4 0x871CAA98 EQ PUSH2 0x4AE JUMPI PUSH2 0x1CD JUMP JUMPDEST DUP1 PUSH4 0x4F1EF286 GT PUSH2 0x16F JUMPI DUP1 PUSH4 0x625C593F GT PUSH2 0x13E JUMPI DUP1 PUSH4 0x625C593F EQ PUSH2 0x3B4 JUMPI DUP1 PUSH4 0x6352211E EQ PUSH2 0x3DD JUMPI DUP1 PUSH4 0x6F5547B6 EQ PUSH2 0x41A JUMPI DUP1 PUSH4 0x70A08231 EQ PUSH2 0x443 JUMPI PUSH2 0x1CD JUMP JUMPDEST DUP1 PUSH4 0x4F1EF286 EQ PUSH2 0x31B JUMPI DUP1 PUSH4 0x52D1902D EQ PUSH2 0x337 JUMPI DUP1 PUSH4 0x5DB0CB94 EQ PUSH2 0x362 JUMPI DUP1 PUSH4 0x5E2E7E8E EQ PUSH2 0x38B JUMPI PUSH2 0x1CD JUMP JUMPDEST DUP1 PUSH4 0x95EA7B3 GT PUSH2 0x1AB JUMPI DUP1 PUSH4 0x95EA7B3 EQ PUSH2 0x277 JUMPI DUP1 PUSH4 0x23B872DD EQ PUSH2 0x2A0 JUMPI DUP1 PUSH4 0x3659CFE6 EQ PUSH2 0x2C9 JUMPI DUP1 PUSH4 0x42842E0E EQ PUSH2 0x2F2 JUMPI PUSH2 0x1CD JUMP JUMPDEST DUP1 PUSH4 0x1FFC9A7 EQ PUSH2 0x1D2 JUMPI DUP1 PUSH4 0x6FDDE03 EQ PUSH2 0x20F JUMPI DUP1 PUSH4 0x81812FC EQ PUSH2 0x23A JUMPI JUMPDEST PUSH1 0x0 DUP1 REVERT JUMPDEST CALLVALUE DUP1 ISZERO PUSH2 0x1DE JUMPI PUSH1 0x0 DUP1 REVERT JUMPDEST POP PUSH2 0x1F9 PUSH1 0x4 DUP1 CALLDATASIZE SUB DUP2 ADD SWAP1 PUSH2 0x1F4 SWAP2 SWAP1 PUSH2 0x30EE JUMP JUMPDEST PUSH2 0x747 JUMP JUMPDEST PUSH1 0x40 MLOAD PUSH2 0x206 SWAP2 SWAP1 PUSH2 0x3136 JUMP JUMPDEST PUSH1 0x40 MLOAD DUP1 SWAP2 SUB SWAP1 RETURN JUMPDEST CALLVALUE DUP1 ISZERO PUSH2 0x21B JUMPI PUSH1 0x0 DUP1 REVERT JUMPDEST POP PUSH2 0x224 PUSH2 0x829 JUMP JUMPDEST PUSH1 0x40 MLOAD PUSH2 0x231 SWAP2 SWAP1 PUSH2 0x31E1 JUMP JUMPDEST PUSH1 0x40 MLOAD DUP1 SWAP2 SUB SWAP1 RETURN JUMPDEST CALLVALUE DUP1 ISZERO PUSH2 0x246 JUMPI PUSH1 0x0 DUP1 REVERT JUMPDEST POP PUSH2 0x261 PUSH1 0x4 DUP1 CALLDATASIZE SUB DUP2 ADD SWAP1 PUSH2 0x25C SWAP2 SWAP1 PUSH2 0x3239 JUMP JUMPDEST PUSH2 0x8BB JUMP JUMPDEST PUSH1 0x40 MLOAD PUSH2 0x26E SWAP2 SWAP1 PUSH2 0x32A7 JUMP JUMPDEST PUSH1 0x40 MLOAD DUP1 SWAP2 SUB SWAP1 RETURN JUMPDEST CALLVALUE DUP1 ISZERO PUSH2 0x283 JUMPI PUSH1 0x0 DUP1 REVERT JUMPDEST POP PUSH2 0x29E PUSH1 0x4 DUP1 CALLDATASIZE SUB DUP2 ADD SWAP1 PUSH2 0x299 SWAP2 SWAP1 PUSH2 0x32EE JUMP JUMPDEST PUSH2 0x901 JUMP JUMPDEST STOP JUMPDEST CALLVALUE DUP1 ISZERO PUSH2 0x2AC JUMPI PUSH1 0x0 DUP1 REVERT JUMPDEST POP PUSH2 0x2C7 PUSH1 0x4 DUP1 CALLDATASIZE SUB DUP2 ADD SWAP1 PUSH2 0x2C2 SWAP2 SWAP1 PUSH2 0x332E JUMP JUMPDEST PUSH2 0xA18 JUMP JUMPDEST STOP JUMPDEST CALLVALUE DUP1 ISZERO PUSH2 0x2D5 JUMPI PUSH1 0x0 DUP1 REVERT JUMPDEST POP PUSH2 0x2F0 PUSH1 0x4 DUP1 CALLDATASIZE SUB DUP2 ADD SWAP1 PUSH2 0x2EB SWAP2 SWAP1 PUSH2 0x3381 JUMP JUMPDEST PUSH2 0xA78 JUMP JUMPDEST STOP JUMPDEST CALLVALUE DUP1 ISZERO PUSH2 0x2FE JUMPI PUSH1 0x0 DUP1 REVERT JUMPDEST POP PUSH2 0x319 PUSH1 0x4 DUP1 CALLDATASIZE SUB DUP2 ADD SWAP1 PUSH2 0x314 SWAP2 SWAP1 PUSH2 0x332E JUMP JUMPDEST PUSH2 0xC00 JUMP JUMPDEST STOP JUMPDEST PUSH2 0x335 PUSH1 0x4 DUP1 CALLDATASIZE SUB DUP2 ADD SWAP1 PUSH2 0x330 SWAP2 SWAP1 PUSH2 0x34E3 JUMP JUMPDEST PUSH2 0xC20 JUMP JUMPDEST STOP JUMPDEST CALLVALUE DUP1 ISZERO PUSH2 0x343 JUMPI PUSH1 0x0 DUP1 REVERT JUMPDEST POP PUSH2 0x34C PUSH2 0xD5C JUMP JUMPDEST PUSH1 0x40 MLOAD PUSH2 0x359 SWAP2 SWAP1 PUSH2 0x3558 JUMP JUMPDEST PUSH1 0x40 MLOAD DUP1 SWAP2 SUB SWAP1 RETURN JUMPDEST CALLVALUE DUP1 ISZERO PUSH2 0x36E JUMPI PUSH1 0x0 DUP1 REVERT JUMPDEST POP PUSH2 0x389 PUSH1 0x4 DUP1 CALLDATASIZE SUB DUP2 ADD SWAP1 PUSH2 0x384 SWAP2 SWAP1 PUSH2 0x35B1 JUMP JUMPDEST PUSH2 0xE15 JUMP JUMPDEST STOP JUMPDEST CALLVALUE DUP1 ISZERO PUSH2 0x397 JUMPI PUSH1 0x0 DUP1 REVERT JUMPDEST POP PUSH2 0x3B2 PUSH1 0x4 DUP1 CALLDATASIZE SUB DUP2 ADD SWAP1 PUSH2 0x3AD SWAP2 SWAP1 PUSH2 0x3239 JUMP JUMPDEST PUSH2 0xE62 JUMP JUMPDEST STOP JUMPDEST CALLVALUE DUP1 ISZERO PUSH2 0x3C0 JUMPI PUSH1 0x0 DUP1 REVERT JUMPDEST POP PUSH2 0x3DB PUSH1 0x4 DUP1 CALLDATASIZE SUB DUP2 ADD SWAP1 PUSH2 0x3D6 SWAP2 SWAP1 PUSH2 0x3239 JUMP JUMPDEST PUSH2 0xE75 JUMP JUMPDEST STOP JUMPDEST CALLVALUE DUP1 ISZERO PUSH2 0x3E9 JUMPI PUSH1 0x0 DUP1 REVERT JUMPDEST POP PUSH2 0x404 PUSH1 0x4 DUP1 CALLDATASIZE SUB DUP2 ADD SWAP1 PUSH2 0x3FF SWAP2 SWAP1 PUSH2 0x3239 JUMP JUMPDEST PUSH2 0xE88 JUMP JUMPDEST PUSH1 0x40 MLOAD PUSH2 0x411 SWAP2 SWAP1 PUSH2 0x32A7 JUMP JUMPDEST PUSH1 0x40 MLOAD DUP1 SWAP2 SUB SWAP1 RETURN JUMPDEST CALLVALUE DUP1 ISZERO PUSH2 0x426 JUMPI PUSH1 0x0 DUP1 REVERT JUMPDEST POP PUSH2 0x441 PUSH1 0x4 DUP1 CALLDATASIZE SUB DUP2 ADD SWAP1 PUSH2 0x43C SWAP2 SWAP1 PUSH2 0x363E JUMP JUMPDEST PUSH2 0xF39 JUMP JUMPDEST STOP JUMPDEST CALLVALUE DUP1 ISZERO PUSH2 0x44F JUMPI PUSH1 0x0 DUP1 REVERT JUMPDEST POP PUSH2 0x46A PUSH1 0x4 DUP1 CALLDATASIZE SUB DUP2 ADD SWAP1 PUSH2 0x465 SWAP2 SWAP1 PUSH2 0x3381 JUMP JUMPDEST PUSH2 0x104D JUMP JUMPDEST PUSH1 0x40 MLOAD PUSH2 0x477 SWAP2 SWAP1 PUSH2 0x369A JUMP JUMPDEST PUSH1 0x40 MLOAD DUP1 SWAP2 SUB SWAP1 RETURN JUMPDEST CALLVALUE DUP1 ISZERO PUSH2 0x48C JUMPI PUSH1 0x0 DUP1 REVERT JUMPDEST POP PUSH2 0x495 PUSH2 0x1104 JUMP JUMPDEST STOP JUMPDEST CALLVALUE DUP1 ISZERO PUSH2 0x4A3 JUMPI PUSH1 0x0 DUP1 REVERT JUMPDEST POP PUSH2 0x4AC PUSH2 0x1118 JUMP JUMPDEST STOP JUMPDEST CALLVALUE DUP1 ISZERO PUSH2 0x4BA JUMPI PUSH1 0x0 DUP1 REVERT JUMPDEST POP PUSH2 0x4D5 PUSH1 0x4 DUP1 CALLDATASIZE SUB DUP2 ADD SWAP1 PUSH2 0x4D0 SWAP2 SWAP1 PUSH2 0x3239 JUMP JUMPDEST PUSH2 0x12ED JUMP JUMPDEST PUSH1 0x40 MLOAD PUSH2 0x4E2 SWAP2 SWAP1 PUSH2 0x374E JUMP JUMPDEST PUSH1 0x40 MLOAD DUP1 SWAP2 SUB SWAP1 RETURN JUMPDEST CALLVALUE DUP1 ISZERO PUSH2 0x4F7 JUMPI PUSH1 0x0 DUP1 REVERT JUMPDEST POP PUSH2 0x500 PUSH2 0x1487 JUMP JUMPDEST PUSH1 0x40 MLOAD PUSH2 0x50D SWAP2 SWAP1 PUSH2 0x32A7 JUMP JUMPDEST PUSH1 0x40 MLOAD DUP1 SWAP2 SUB SWAP1 RETURN JUMPDEST CALLVALUE DUP1 ISZERO PUSH2 0x522 JUMPI PUSH1 0x0 DUP1 REVERT JUMPDEST POP PUSH2 0x52B PUSH2 0x14B1 JUMP JUMPDEST PUSH1 0x40 MLOAD PUSH2 0x538 SWAP2 SWAP1 PUSH2 0x31E1 JUMP JUMPDEST PUSH1 0x40 MLOAD DUP1 SWAP2 SUB SWAP1 RETURN JUMPDEST CALLVALUE DUP1 ISZERO PUSH2 0x54D JUMPI PUSH1 0x0 DUP1 REVERT JUMPDEST POP PUSH2 0x568 PUSH1 0x4 DUP1 CALLDATASIZE SUB DUP2 ADD SWAP1 PUSH2 0x563 SWAP2 SWAP1 PUSH2 0x379C JUMP JUMPDEST PUSH2 0x1543 JUMP JUMPDEST STOP JUMPDEST CALLVALUE DUP1 ISZERO PUSH2 0x576 JUMPI PUSH1 0x0 DUP1 REVERT JUMPDEST POP PUSH2 0x591 PUSH1 0x4 DUP1 CALLDATASIZE SUB DUP2 ADD SWAP1 PUSH2 0x58C SWAP2 SWAP1 PUSH2 0x3239 JUMP JUMPDEST PUSH2 0x1559 JUMP JUMPDEST PUSH1 0x40 MLOAD PUSH2 0x59E SWAP2 SWAP1 PUSH2 0x369A JUMP JUMPDEST PUSH1 0x40 MLOAD DUP1 SWAP2 SUB SWAP1 RETURN JUMPDEST CALLVALUE DUP1 ISZERO PUSH2 0x5B3 JUMPI PUSH1 0x0 DUP1 REVERT JUMPDEST POP PUSH2 0x5CE PUSH1 0x4 DUP1 CALLDATASIZE SUB DUP2 ADD SWAP1 PUSH2 0x5C9 SWAP2 SWAP1 PUSH2 0x3808 JUMP JUMPDEST PUSH2 0x15A2 JUMP JUMPDEST PUSH1 0x40 MLOAD PUSH2 0x5DB SWAP2 SWAP1 PUSH2 0x3136 JUMP JUMPDEST PUSH1 0x40 MLOAD DUP1 SWAP2 SUB SWAP1 RETURN JUMPDEST CALLVALUE DUP1 ISZERO PUSH2 0x5F0 JUMPI PUSH1 0x0 DUP1 REVERT JUMPDEST POP PUSH2 0x60B PUSH1 0x4 DUP1 CALLDATASIZE SUB DUP2 ADD SWAP1 PUSH2 0x606 SWAP2 SWAP1 PUSH2 0x3835 JUMP JUMPDEST PUSH2 0x15C3 JUMP JUMPDEST STOP JUMPDEST CALLVALUE DUP1 ISZERO PUSH2 0x619 JUMPI PUSH1 0x0 DUP1 REVERT JUMPDEST POP PUSH2 0x634 PUSH1 0x4 DUP1 CALLDATASIZE SUB DUP2 ADD SWAP1 PUSH2 0x62F SWAP2 SWAP1 PUSH2 0x3239 JUMP JUMPDEST PUSH2 0x1625 JUMP JUMPDEST PUSH1 0x40 MLOAD PUSH2 0x642 SWAP3 SWAP2 SWAP1 PUSH2 0x3902 JUMP JUMPDEST PUSH1 0x40 MLOAD DUP1 SWAP2 SUB SWAP1 RETURN JUMPDEST CALLVALUE DUP1 ISZERO PUSH2 0x657 JUMPI PUSH1 0x0 DUP1 REVERT JUMPDEST POP PUSH2 0x672 PUSH1 0x4 DUP1 CALLDATASIZE SUB DUP2 ADD SWAP1 PUSH2 0x66D SWAP2 SWAP1 PUSH2 0x3239 JUMP JUMPDEST PUSH2 0x175A JUMP JUMPDEST PUSH1 0x40 MLOAD PUSH2 0x67F SWAP2 SWAP1 PUSH2 0x31E1 JUMP JUMPDEST PUSH1 0x40 MLOAD DUP1 SWAP2 SUB SWAP1 RETURN JUMPDEST PUSH2 0x6A2 PUSH1 0x4 DUP1 CALLDATASIZE SUB DUP2 ADD SWAP1 PUSH2 0x69D SWAP2 SWAP1 PUSH2 0x3939 JUMP JUMPDEST PUSH2 0x17C2 JUMP JUMPDEST STOP JUMPDEST CALLVALUE DUP1 ISZERO PUSH2 0x6B0 JUMPI PUSH1 0x0 DUP1 REVERT JUMPDEST POP PUSH2 0x6CB PUSH1 0x4 DUP1 CALLDATASIZE SUB DUP2 ADD SWAP1 PUSH2 0x6C6 SWAP2 SWAP1 PUSH2 0x39D8 JUMP JUMPDEST PUSH2 0x1B63 JUMP JUMPDEST PUSH1 0x40 MLOAD PUSH2 0x6D8 SWAP2 SWAP1 PUSH2 0x3136 JUMP JUMPDEST PUSH1 0x40 MLOAD DUP1 SWAP2 SUB SWAP1 RETURN JUMPDEST CALLVALUE DUP1 ISZERO PUSH2 0x6ED JUMPI PUSH1 0x0 DUP1 REVERT JUMPDEST POP PUSH2 0x708 PUSH1 0x4 DUP1 CALLDATASIZE SUB DUP2 ADD SWAP1 PUSH2 0x703 SWAP2 SWAP1 PUSH2 0x3A18 JUMP JUMPDEST PUSH2 0x1BF7 JUMP JUMPDEST PUSH1 0x40 MLOAD PUSH2 0x715 SWAP2 SWAP1 PUSH2 0x32A7 JUMP JUMPDEST PUSH1 0x40 MLOAD DUP1 SWAP2 SUB SWAP1 RETURN JUMPDEST CALLVALUE DUP1 ISZERO PUSH2 0x72A JUMPI PUSH1 0x0 DUP1 REVERT JUMPDEST POP PUSH2 0x745 PUSH1 0x4 DUP1 CALLDATASIZE SUB DUP2 ADD SWAP1 PUSH2 0x740 SWAP2 SWAP1 PUSH2 0x3381 JUMP JUMPDEST PUSH2 0x1C41 JUMP JUMPDEST STOP JUMPDEST PUSH1 0x0 PUSH32 0x80AC58CD00000000000000000000000000000000000000000000000000000000 PUSH28 0xFFFFFFFFFFFFFFFFFFFFFFFFFFFFFFFFFFFFFFFFFFFFFFFFFFFFFFFF NOT AND DUP3 PUSH28 0xFFFFFFFFFFFFFFFFFFFFFFFFFFFFFFFFFFFFFFFFFFFFFFFFFFFFFFFF NOT AND EQ DUP1 PUSH2 0x812 JUMPI POP PUSH32 0x5B5E139F00000000000000000000000000000000000000000000000000000000 PUSH28 0xFFFFFFFFFFFFFFFFFFFFFFFFFFFFFFFFFFFFFFFFFFFFFFFFFFFFFFFF NOT AND DUP3 PUSH28 0xFFFFFFFFFFFFFFFFFFFFFFFFFFFFFFFFFFFFFFFFFFFFFFFFFFFFFFFF NOT AND EQ JUMPDEST DUP1 PUSH2 0x822 JUMPI POP PUSH2 0x821 DUP3 PUSH2 0x1CC4 JUMP JUMPDEST JUMPDEST SWAP1 POP SWAP2 SWAP1 POP JUMP JUMPDEST PUSH1 0x60 PUSH1 0x65 DUP1 SLOAD PUSH2 0x838 SWAP1 PUSH2 0x3A90 JUMP JUMPDEST DUP1 PUSH1 0x1F ADD PUSH1 0x20 DUP1 SWAP2 DIV MUL PUSH1 0x20 ADD PUSH1 0x40 MLOAD SWAP1 DUP2 ADD PUSH1 0x40 MSTORE DUP1 SWAP3 SWAP2 SWAP1 DUP2 DUP2 MSTORE PUSH1 0x20 ADD DUP3 DUP1 SLOAD PUSH2 0x864 SWAP1 PUSH2 0x3A90 JUMP JUMPDEST DUP1 ISZERO PUSH2 0x8B1 JUMPI DUP1 PUSH1 0x1F LT PUSH2 0x886 JUMPI PUSH2 0x100 DUP1 DUP4 SLOAD DIV MUL DUP4 MSTORE SWAP2 PUSH1 0x20 ADD SWAP2 PUSH2 0x8B1 JUMP JUMPDEST DUP3 ADD SWAP2 SWAP1 PUSH1 0x0 MSTORE PUSH1 0x20 PUSH1 0x0 KECCAK256 SWAP1 JUMPDEST DUP2 SLOAD DUP2 MSTORE SWAP1 PUSH1 0x1 ADD SWAP1 PUSH1 0x20 ADD DUP1 DUP4 GT PUSH2 0x894 JUMPI DUP3 SWAP1 SUB PUSH1 0x1F AND DUP3 ADD SWAP2 JUMPDEST POP POP POP POP POP SWAP1 POP SWAP1 JUMP JUMPDEST PUSH1 0x0 PUSH2 0x8C6 DUP3 PUSH2 0x1D2E JUMP JUMPDEST PUSH1 0x69 PUSH1 0x0 DUP4 DUP2 MSTORE PUSH1 0x20 ADD SWAP1 DUP2 MSTORE PUSH1 0x20 ADD PUSH1 0x0 KECCAK256 PUSH1 0x0 SWAP1 SLOAD SWAP1 PUSH2 0x100 EXP SWAP1 DIV PUSH20 0xFFFFFFFFFFFFFFFFFFFFFFFFFFFFFFFFFFFFFFFF AND SWAP1 POP SWAP2 SWAP1 POP JUMP JUMPDEST PUSH1 0x0 PUSH2 0x90C DUP3 PUSH2 0xE88 JUMP JUMPDEST SWAP1 POP DUP1 PUSH20 0xFFFFFFFFFFFFFFFFFFFFFFFFFFFFFFFFFFFFFFFF AND DUP4 PUSH20 0xFFFFFFFFFFFFFFFFFFFFFFFFFFFFFFFFFFFFFFFF AND SUB PUSH2 0x97C JUMPI PUSH1 0x40 MLOAD PUSH32 0x8C379A000000000000000000000000000000000000000000000000000000000 DUP2 MSTORE PUSH1 0x4 ADD PUSH2 0x973 SWAP1 PUSH2 0x3B33 JUMP JUMPDEST PUSH1 0x40 MLOAD DUP1 SWAP2 SUB SWAP1 REVERT JUMPDEST DUP1 PUSH20 0xFFFFFFFFFFFFFFFFFFFFFFFFFFFFFFFFFFFFFFFF AND PUSH2 0x99B PUSH2 0x1D79 JUMP JUMPDEST PUSH20 0xFFFFFFFFFFFFFFFFFFFFFFFFFFFFFFFFFFFFFFFF AND EQ DUP1 PUSH2 0x9CA JUMPI POP PUSH2 0x9C9 DUP2 PUSH2 0x9C4 PUSH2 0x1D79 JUMP JUMPDEST PUSH2 0x1B63 JUMP JUMPDEST JUMPDEST PUSH2 0xA09 JUMPI PUSH1 0x40 MLOAD PUSH32 0x8C379A000000000000000000000000000000000000000000000000000000000 DUP2 MSTORE PUSH1 0x4 ADD PUSH2 0xA00 SWAP1 PUSH2 0x3BC5 JUMP JUMPDEST PUSH1 0x40 MLOAD DUP1 SWAP2 SUB SWAP1 REVERT JUMPDEST PUSH2 0xA13 DUP4 DUP4 PUSH2 0x1D81 JUMP JUMPDEST POP POP POP JUMP JUMPDEST PUSH2 0xA29 PUSH2 0xA23 PUSH2 0x1D79 JUMP JUMPDEST DUP3 PUSH2 0x1E3A JUMP JUMPDEST PUSH2 0xA68 JUMPI PUSH1 0x40 MLOAD PUSH32 0x8C379A000000000000000000000000000000000000000000000000000000000 DUP2 MSTORE PUSH1 0x4 ADD PUSH2 0xA5F SWAP1 PUSH2 0x3C57 JUMP JUMPDEST PUSH1 0x40 MLOAD DUP1 SWAP2 SUB SWAP1 REVERT JUMPDEST PUSH2 0xA73 DUP4 DUP4 DUP4 PUSH2 0x1ECF JUMP JUMPDEST POP POP POP JUMP JUMPDEST PUSH32 0x0 PUSH20 0xFFFFFFFFFFFFFFFFFFFFFFFFFFFFFFFFFFFFFFFF AND ADDRESS PUSH20 0xFFFFFFFFFFFFFFFFFFFFFFFFFFFFFFFFFFFFFFFF AND SUB PUSH2 0xB06 JUMPI PUSH1 0x40 MLOAD PUSH32 0x8C379A000000000000000000000000000000000000000000000000000000000 DUP2 MSTORE PUSH1 0x4 ADD PUSH2 0xAFD SWAP1 PUSH2 0x3CE9 JUMP JUMPDEST PUSH1 0x40 MLOAD DUP1 SWAP2 SUB SWAP1 REVERT JUMPDEST PUSH32 0x0 PUSH20 0xFFFFFFFFFFFFFFFFFFFFFFFFFFFFFFFFFFFFFFFF AND PUSH2 0xB45 PUSH2 0x2135 JUMP JUMPDEST PUSH20 0xFFFFFFFFFFFFFFFFFFFFFFFFFFFFFFFFFFFFFFFF AND EQ PUSH2 0xB9B JUMPI PUSH1 0x40 MLOAD PUSH32 0x8C379A000000000000000000000000000000000000000000000000000000000 DUP2 MSTORE PUSH1 0x4 ADD PUSH2 0xB92 SWAP1 PUSH2 0x3D7B JUMP JUMPDEST PUSH1 0x40 MLOAD DUP1 SWAP2 SUB SWAP1 REVERT JUMPDEST PUSH2 0xBA4 DUP2 PUSH2 0x218C JUMP JUMPDEST PUSH2 0xBFD DUP2 PUSH1 0x0 PUSH8 0xFFFFFFFFFFFFFFFF DUP2 GT ISZERO PUSH2 0xBC3 JUMPI PUSH2 0xBC2 PUSH2 0x33B8 JUMP JUMPDEST JUMPDEST PUSH1 0x40 MLOAD SWAP1 DUP1 DUP3 MSTORE DUP1 PUSH1 0x1F ADD PUSH1 0x1F NOT AND PUSH1 0x20 ADD DUP3 ADD PUSH1 0x40 MSTORE DUP1 ISZERO PUSH2 0xBF5 JUMPI DUP2 PUSH1 0x20 ADD PUSH1 0x1 DUP3 MUL DUP1 CALLDATASIZE DUP4 CALLDATACOPY DUP1 DUP3 ADD SWAP2 POP POP SWAP1 POP JUMPDEST POP PUSH1 0x0 PUSH2 0x2197 JUMP JUMPDEST POP JUMP JUMPDEST PUSH2 0xC1B DUP4 DUP4 DUP4 PUSH1 0x40 MLOAD DUP1 PUSH1 0x20 ADD PUSH1 0x40 MSTORE DUP1 PUSH1 0x0 DUP2 MSTORE POP PUSH2 0x15C3 JUMP JUMPDEST POP POP POP JUMP JUMPDEST PUSH32 0x0 PUSH20 0xFFFFFFFFFFFFFFFFFFFFFFFFFFFFFFFFFFFFFFFF AND ADDRESS PUSH20 0xFFFFFFFFFFFFFFFFFFFFFFFFFFFFFFFFFFFFFFFF AND SUB PUSH2 0xCAE JUMPI PUSH1 0x40 MLOAD PUSH32 0x8C379A000000000000000000000000000000000000000000000000000000000 DUP2 MSTORE PUSH1 0x4 ADD PUSH2 0xCA5 SWAP1 PUSH2 0x3CE9 JUMP JUMPDEST PUSH1 0x40 MLOAD DUP1 SWAP2 SUB SWAP1 REVERT JUMPDEST PUSH32 0x0 PUSH20 0xFFFFFFFFFFFFFFFFFFFFFFFFFFFFFFFFFFFFFFFF AND PUSH2 0xCED PUSH2 0x2135 JUMP JUMPDEST PUSH20 0xFFFFFFFFFFFFFFFFFFFFFFFFFFFFFFFFFFFFFFFF AND EQ PUSH2 0xD43 JUMPI PUSH1 0x40 MLOAD PUSH32 0x8C379A000000000000000000000000000000000000000000000000000000000 DUP2 MSTORE PUSH1 0x4 ADD PUSH2 0xD3A SWAP1 PUSH2 0x3D7B JUMP JUMPDEST PUSH1 0x40 MLOAD DUP1 SWAP2 SUB SWAP1 REVERT JUMPDEST PUSH2 0xD4C DUP3 PUSH2 0x218C JUMP JUMPDEST PUSH2 0xD58 DUP3 DUP3 PUSH1 0x1 PUSH2 0x2197 JUMP JUMPDEST POP POP JUMP JUMPDEST PUSH1 0x0 PUSH32 0x0 PUSH20 0xFFFFFFFFFFFFFFFFFFFFFFFFFFFFFFFFFFFFFFFF AND ADDRESS PUSH20 0xFFFFFFFFFFFFFFFFFFFFFFFFFFFFFFFFFFFFFFFF AND EQ PUSH2 0xDEC JUMPI PUSH1 0x40 MLOAD PUSH32 0x8C379A000000000000000000000000000000000000000000000000000000000 DUP2 MSTORE PUSH1 0x4 ADD PUSH2 0xDE3 SWAP1 PUSH2 0x3E0D JUMP JUMPDEST PUSH1 0x40 MLOAD DUP1 SWAP2 SUB SWAP1 REVERT JUMPDEST PUSH32 0x360894A13BA1A3210667C828492DB98DCA3E2076CC3735A920A3CA505D382BBC PUSH1 0x0 SHL SWAP1 POP SWAP1 JUMP JUMPDEST PUSH2 0xE1D PUSH2 0x2305 JUMP JUMPDEST DUP1 PUSH2 0x133 PUSH1 0x0 PUSH2 0x100 EXP DUP2 SLOAD DUP2 PUSH20 0xFFFFFFFFFFFFFFFFFFFFFFFFFFFFFFFFFFFFFFFF MUL NOT AND SWAP1 DUP4 PUSH20 0xFFFFFFFFFFFFFFFFFFFFFFFFFFFFFFFFFFFFFFFF AND MUL OR SWAP1 SSTORE POP POP JUMP JUMPDEST PUSH2 0xE6A PUSH2 0x2305 JUMP JUMPDEST DUP1 PUSH2 0x132 DUP2 SWAP1 SSTORE POP POP JUMP JUMPDEST PUSH2 0xE7D PUSH2 0x2305 JUMP JUMPDEST DUP1 PUSH2 0x131 DUP2 SWAP1 SSTORE POP POP JUMP JUMPDEST PUSH1 0x0 DUP1 PUSH1 0x67 PUSH1 0x0 DUP5 DUP2 MSTORE PUSH1 0x20 ADD SWAP1 DUP2 MSTORE PUSH1 0x20 ADD PUSH1 0x0 KECCAK256 PUSH1 0x0 SWAP1 SLOAD SWAP1 PUSH2 0x100 EXP SWAP1 DIV PUSH20 0xFFFFFFFFFFFFFFFFFFFFFFFFFFFFFFFFFFFFFFFF AND SWAP1 POP PUSH1 0x0 PUSH20 0xFFFFFFFFFFFFFFFFFFFFFFFFFFFFFFFFFFFFFFFF AND DUP2 PUSH20 0xFFFFFFFFFFFFFFFFFFFFFFFFFFFFFFFFFFFFFFFF AND SUB PUSH2 0xF30 JUMPI PUSH1 0x40 MLOAD PUSH32 0x8C379A000000000000000000000000000000000000000000000000000000000 DUP2 MSTORE PUSH1 0x4 ADD PUSH2 0xF27 SWAP1 PUSH2 0x3E79 JUMP JUMPDEST PUSH1 0x40 MLOAD DUP1 SWAP2 SUB SWAP1 REVERT JUMPDEST DUP1 SWAP2 POP POP SWAP2 SWAP1 POP JUMP JUMPDEST PUSH1 0x0 PUSH20 0xFFFFFFFFFFFFFFFFFFFFFFFFFFFFFFFFFFFFFFFF AND PUSH2 0x12F DUP4 DUP4 PUSH1 0x40 MLOAD PUSH2 0xF64 SWAP3 SWAP2 SWAP1 PUSH2 0x3EC9 JUMP JUMPDEST SWAP1 DUP2 MSTORE PUSH1 0x20 ADD PUSH1 0x40 MLOAD DUP1 SWAP2 SUB SWAP1 KECCAK256 PUSH1 0x0 SWAP1 SLOAD SWAP1 PUSH2 0x100 EXP SWAP1 DIV PUSH20 0xFFFFFFFFFFFFFFFFFFFFFFFFFFFFFFFFFFFFFFFF AND PUSH20 0xFFFFFFFFFFFFFFFFFFFFFFFFFFFFFFFFFFFFFFFF AND EQ PUSH2 0xFE9 JUMPI PUSH1 0x40 MLOAD PUSH32 0x8C379A000000000000000000000000000000000000000000000000000000000 DUP2 MSTORE PUSH1 0x4 ADD PUSH2 0xFE0 SWAP1 PUSH2 0x3F2E JUMP JUMPDEST PUSH1 0x40 MLOAD DUP1 SWAP2 SUB SWAP1 REVERT JUMPDEST CALLER PUSH2 0x12F DUP4 DUP4 PUSH1 0x40 MLOAD PUSH2 0xFFD SWAP3 SWAP2 SWAP1 PUSH2 0x3EC9 JUMP JUMPDEST SWAP1 DUP2 MSTORE PUSH1 0x20 ADD PUSH1 0x40 MLOAD DUP1 SWAP2 SUB SWAP1 KECCAK256 PUSH1 0x0 PUSH2 0x100 EXP DUP2 SLOAD DUP2 PUSH20 0xFFFFFFFFFFFFFFFFFFFFFFFFFFFFFFFFFFFFFFFF MUL NOT AND SWAP1 DUP4 PUSH20 0xFFFFFFFFFFFFFFFFFFFFFFFFFFFFFFFFFFFFFFFF AND MUL OR SWAP1 SSTORE POP POP POP JUMP JUMPDEST PUSH1 0x0 DUP1 PUSH20 0xFFFFFFFFFFFFFFFFFFFFFFFFFFFFFFFFFFFFFFFF AND DUP3 PUSH20 0xFFFFFFFFFFFFFFFFFFFFFFFFFFFFFFFFFFFFFFFF AND SUB PUSH2 0x10BD JUMPI PUSH1 0x40 MLOAD PUSH32 0x8C379A000000000000000000000000000000000000000000000000000000000 DUP2 MSTORE PUSH1 0x4 ADD PUSH2 0x10B4 SWAP1 PUSH2 0x3FC0 JUMP JUMPDEST PUSH1 0x40 MLOAD DUP1 SWAP2 SUB SWAP1 REVERT JUMPDEST PUSH1 0x68 PUSH1 0x0 DUP4 PUSH20 0xFFFFFFFFFFFFFFFFFFFFFFFFFFFFFFFFFFFFFFFF AND PUSH20 0xFFFFFFFFFFFFFFFFFFFFFFFFFFFFFFFFFFFFFFFF AND DUP2 MSTORE PUSH1 0x20 ADD SWAP1 DUP2 MSTORE PUSH1 0x20 ADD PUSH1 0x0 KECCAK256 SLOAD SWAP1 POP SWAP2 SWAP1 POP JUMP JUMPDEST PUSH2 0x110C PUSH2 0x2305 JUMP JUMPDEST PUSH2 0x1116 PUSH1 0x0 PUSH2 0x2383 JUMP JUMPDEST JUMP JUMPDEST PUSH1 0x0 DUP1 PUSH1 0x1 SWAP1 SLOAD SWAP1 PUSH2 0x100 EXP SWAP1 DIV PUSH1 0xFF AND ISZERO SWAP1 POP DUP1 DUP1 ISZERO PUSH2 0x1149 JUMPI POP PUSH1 0x1 PUSH1 0x0 DUP1 SLOAD SWAP1 PUSH2 0x100 EXP SWAP1 DIV PUSH1 0xFF AND PUSH1 0xFF AND LT JUMPDEST DUP1 PUSH2 0x1176 JUMPI POP PUSH2 0x1158 ADDRESS PUSH2 0x2449 JUMP JUMPDEST ISZERO DUP1 ISZERO PUSH2 0x1175 JUMPI POP PUSH1 0x1 PUSH1 0x0 DUP1 SLOAD SWAP1 PUSH2 0x100 EXP SWAP1 DIV PUSH1 0xFF AND PUSH1 0xFF AND EQ JUMPDEST JUMPDEST PUSH2 0x11B5 JUMPI PUSH1 0x40 MLOAD PUSH32 0x8C379A000000000000000000000000000000000000000000000000000000000 DUP2 MSTORE PUSH1 0x4 ADD PUSH2 0x11AC SWAP1 PUSH2 0x4052 JUMP JUMPDEST PUSH1 0x40 MLOAD DUP1 SWAP2 SUB SWAP1 REVERT JUMPDEST PUSH1 0x1 PUSH1 0x0 DUP1 PUSH2 0x100 EXP DUP2 SLOAD DUP2 PUSH1 0xFF MUL NOT AND SWAP1 DUP4 PUSH1 0xFF AND MUL OR SWAP1 SSTORE POP DUP1 ISZERO PUSH2 0x11F2 JUMPI PUSH1 0x1 PUSH1 0x0 PUSH1 0x1 PUSH2 0x100 EXP DUP2 SLOAD DUP2 PUSH1 0xFF MUL NOT AND SWAP1 DUP4 ISZERO ISZERO MUL OR SWAP1 SSTORE POP JUMPDEST PUSH2 0x1266 PUSH1 0x40 MLOAD DUP1 PUSH1 0x40 ADD PUSH1 0x40 MSTORE DUP1 PUSH1 0x7 DUP2 MSTORE PUSH1 0x20 ADD PUSH32 0x47616E50756E6B00000000000000000000000000000000000000000000000000 DUP2 MSTORE POP PUSH1 0x40 MLOAD DUP1 PUSH1 0x40 ADD PUSH1 0x40 MSTORE DUP1 PUSH1 0x5 DUP2 MSTORE PUSH1 0x20 ADD PUSH32 0x4750756E6B000000000000000000000000000000000000000000000000000000 DUP2 MSTORE POP PUSH2 0x246C JUMP JUMPDEST PUSH2 0x126E PUSH2 0x24C9 JUMP JUMPDEST PUSH2 0x1276 PUSH2 0x2522 JUMP JUMPDEST PUSH1 0x32 PUSH2 0x130 DUP2 SWAP1 SSTORE POP PUSH1 0x3C PUSH2 0x131 DUP2 SWAP1 SSTORE POP PUSH1 0x28 PUSH2 0x132 DUP2 SWAP1 SSTORE POP DUP1 ISZERO PUSH2 0x12EA JUMPI PUSH1 0x0 DUP1 PUSH1 0x1 PUSH2 0x100 EXP DUP2 SLOAD DUP2 PUSH1 0xFF MUL NOT AND SWAP1 DUP4 ISZERO ISZERO MUL OR SWAP1 SSTORE POP PUSH32 0x7F26B83FF96E1F2B6A682F133852F6798A09C465DA95921460CEFB3847402498 PUSH1 0x1 PUSH1 0x40 MLOAD PUSH2 0x12E1 SWAP2 SWAP1 PUSH2 0x40C4 JUMP JUMPDEST PUSH1 0x40 MLOAD DUP1 SWAP2 SUB SWAP1 LOG1 JUMPDEST POP JUMP JUMPDEST PUSH2 0x12F5 PUSH2 0x3068 JUMP JUMPDEST PUSH2 0x12FE DUP3 PUSH2 0x2573 JUMP JUMPDEST PUSH2 0x133D JUMPI PUSH1 0x40 MLOAD PUSH32 0x8C379A000000000000000000000000000000000000000000000000000000000 DUP2 MSTORE PUSH1 0x4 ADD PUSH2 0x1334 SWAP1 PUSH2 0x412B JUMP JUMPDEST PUSH1 0x40 MLOAD DUP1 SWAP2 SUB SWAP1 REVERT JUMPDEST PUSH2 0x12E PUSH1 0x0 DUP4 DUP2 MSTORE PUSH1 0x20 ADD SWAP1 DUP2 MSTORE PUSH1 0x20 ADD PUSH1 0x0 KECCAK256 PUSH1 0x40 MLOAD DUP1 PUSH1 0x40 ADD PUSH1 0x40 MSTORE SWAP1 DUP2 PUSH1 0x0 DUP3 ADD DUP1 SLOAD PUSH2 0x136C SWAP1 PUSH2 0x3A90 JUMP JUMPDEST DUP1 PUSH1 0x1F ADD PUSH1 0x20 DUP1 SWAP2 DIV MUL PUSH1 0x20 ADD PUSH1 0x40 MLOAD SWAP1 DUP2 ADD PUSH1 0x40 MSTORE DUP1 SWAP3 SWAP2 SWAP1 DUP2 DUP2 MSTORE PUSH1 0x20 ADD DUP3 DUP1 SLOAD PUSH2 0x1398 SWAP1 PUSH2 0x3A90 JUMP JUMPDEST DUP1 ISZERO PUSH2 0x13E5 JUMPI DUP1 PUSH1 0x1F LT PUSH2 0x13BA JUMPI PUSH2 0x100 DUP1 DUP4 SLOAD DIV MUL DUP4 MSTORE SWAP2 PUSH1 0x20 ADD SWAP2 PUSH2 0x13E5 JUMP JUMPDEST DUP3 ADD SWAP2 SWAP1 PUSH1 0x0 MSTORE PUSH1 0x20 PUSH1 0x0 KECCAK256 SWAP1 JUMPDEST DUP2 SLOAD DUP2 MSTORE SWAP1 PUSH1 0x1 ADD SWAP1 PUSH1 0x20 ADD DUP1 DUP4 GT PUSH2 0x13C8 JUMPI DUP3 SWAP1 SUB PUSH1 0x1F AND DUP3 ADD SWAP2 JUMPDEST POP POP POP POP POP DUP2 MSTORE PUSH1 0x20 ADD PUSH1 0x1 DUP3 ADD DUP1 SLOAD PUSH2 0x13FE SWAP1 PUSH2 0x3A90 JUMP JUMPDEST DUP1 PUSH1 0x1F ADD PUSH1 0x20 DUP1 SWAP2 DIV MUL PUSH1 0x20 ADD PUSH1 0x40 MLOAD SWAP1 DUP2 ADD PUSH1 0x40 MSTORE DUP1 SWAP3 SWAP2 SWAP1 DUP2 DUP2 MSTORE PUSH1 0x20 ADD DUP3 DUP1 SLOAD PUSH2 0x142A SWAP1 PUSH2 0x3A90 JUMP JUMPDEST DUP1 ISZERO PUSH2 0x1477 JUMPI DUP1 PUSH1 0x1F LT PUSH2 0x144C JUMPI PUSH2 0x100 DUP1 DUP4 SLOAD DIV MUL DUP4 MSTORE SWAP2 PUSH1 0x20 ADD SWAP2 PUSH2 0x1477 JUMP JUMPDEST DUP3 ADD SWAP2 SWAP1 PUSH1 0x0 MSTORE PUSH1 0x20 PUSH1 0x0 KECCAK256 SWAP1 JUMPDEST DUP2 SLOAD DUP2 MSTORE SWAP1 PUSH1 0x1 ADD SWAP1 PUSH1 0x20 ADD DUP1 DUP4 GT PUSH2 0x145A JUMPI DUP3 SWAP1 SUB PUSH1 0x1F AND DUP3 ADD SWAP2 JUMPDEST POP POP POP POP POP DUP2 MSTORE POP POP SWAP1 POP SWAP2 SWAP1 POP JUMP JUMPDEST PUSH1 0x0 PUSH1 0x97 PUSH1 0x0 SWAP1 SLOAD SWAP1 PUSH2 0x100 EXP SWAP1 DIV PUSH20 0xFFFFFFFFFFFFFFFFFFFFFFFFFFFFFFFFFFFFFFFF AND SWAP1 POP SWAP1 JUMP JUMPDEST PUSH1 0x60 PUSH1 0x66 DUP1 SLOAD PUSH2 0x14C0 SWAP1 PUSH2 0x3A90 JUMP JUMPDEST DUP1 PUSH1 0x1F ADD PUSH1 0x20 DUP1 SWAP2 DIV MUL PUSH1 0x20 ADD PUSH1 0x40 MLOAD SWAP1 DUP2 ADD PUSH1 0x40 MSTORE DUP1 SWAP3 SWAP2 SWAP1 DUP2 DUP2 MSTORE PUSH1 0x20 ADD DUP3 DUP1 SLOAD PUSH2 0x14EC SWAP1 PUSH2 0x3A90 JUMP JUMPDEST DUP1 ISZERO PUSH2 0x1539 JUMPI DUP1 PUSH1 0x1F LT PUSH2 0x150E JUMPI PUSH2 0x100 DUP1 DUP4 SLOAD DIV MUL DUP4 MSTORE SWAP2 PUSH1 0x20 ADD SWAP2 PUSH2 0x1539 JUMP JUMPDEST DUP3 ADD SWAP2 SWAP1 PUSH1 0x0 MSTORE PUSH1 0x20 PUSH1 0x0 KECCAK256 SWAP1 JUMPDEST DUP2 SLOAD DUP2 MSTORE SWAP1 PUSH1 0x1 ADD SWAP1 PUSH1 0x20 ADD DUP1 DUP4 GT PUSH2 0x151C JUMPI DUP3 SWAP1 SUB PUSH1 0x1F AND DUP3 ADD SWAP2 JUMPDEST POP POP POP POP POP SWAP1 POP SWAP1 JUMP JUMPDEST PUSH2 0x1555 PUSH2 0x154E PUSH2 0x1D79 JUMP JUMPDEST DUP4 DUP4 PUSH2 0x25DF JUMP JUMPDEST POP POP JUMP JUMPDEST PUSH1 0x0 DUP1 PUSH20 0x6B175474E89094C44DA98B954EEDEAC495271D0F SWAP1 POP PUSH1 0x0 PUSH20 0xC02AAA39B223FE8D0A0E5C4F27EAD9083C756CC2 SWAP1 POP PUSH1 0x0 PUSH2 0x1F4 SWAP1 POP PUSH1 0x0 PUSH1 0x22 SWAP5 POP POP POP POP POP SWAP2 SWAP1 POP JUMP JUMPDEST PUSH2 0x12D PUSH1 0x20 MSTORE DUP1 PUSH1 0x0 MSTORE PUSH1 0x40 PUSH1 0x0 KECCAK256 PUSH1 0x0 SWAP2 POP SLOAD SWAP1 PUSH2 0x100 EXP SWAP1 DIV PUSH1 0xFF AND DUP2 JUMP JUMPDEST PUSH2 0x15D4 PUSH2 0x15CE PUSH2 0x1D79 JUMP JUMPDEST DUP4 PUSH2 0x1E3A JUMP JUMPDEST PUSH2 0x1613 JUMPI PUSH1 0x40 MLOAD PUSH32 0x8C379A000000000000000000000000000000000000000000000000000000000 DUP2 MSTORE PUSH1 0x4 ADD PUSH2 0x160A SWAP1 PUSH2 0x3C57 JUMP JUMPDEST PUSH1 0x40 MLOAD DUP1 SWAP2 SUB SWAP1 REVERT JUMPDEST PUSH2 0x161F DUP5 DUP5 DUP5 DUP5 PUSH2 0x274B JUMP JUMPDEST POP POP POP POP JUMP JUMPDEST PUSH2 0x12E PUSH1 0x20 MSTORE DUP1 PUSH1 0x0 MSTORE PUSH1 0x40 PUSH1 0x0 KECCAK256 PUSH1 0x0 SWAP2 POP SWAP1 POP DUP1 PUSH1 0x0 ADD DUP1 SLOAD PUSH2 0x1649 SWAP1 PUSH2 0x3A90 JUMP JUMPDEST DUP1 PUSH1 0x1F ADD PUSH1 0x20 DUP1 SWAP2 DIV MUL PUSH1 0x20 ADD PUSH1 0x40 MLOAD SWAP1 DUP2 ADD PUSH1 0x40 MSTORE DUP1 SWAP3 SWAP2 SWAP1 DUP2 DUP2 MSTORE PUSH1 0x20 ADD DUP3 DUP1 SLOAD PUSH2 0x1675 SWAP1 PUSH2 0x3A90 JUMP JUMPDEST DUP1 ISZERO PUSH2 0x16C2 JUMPI DUP1 PUSH1 0x1F LT PUSH2 0x1697 JUMPI PUSH2 0x100 DUP1 DUP4 SLOAD DIV MUL DUP4 MSTORE SWAP2 PUSH1 0x20 ADD SWAP2 PUSH2 0x16C2 JUMP JUMPDEST DUP3 ADD SWAP2 SWAP1 PUSH1 0x0 MSTORE PUSH1 0x20 PUSH1 0x0 KECCAK256 SWAP1 JUMPDEST DUP2 SLOAD DUP2 MSTORE SWAP1 PUSH1 0x1 ADD SWAP1 PUSH1 0x20 ADD DUP1 DUP4 GT PUSH2 0x16A5 JUMPI DUP3 SWAP1 SUB PUSH1 0x1F AND DUP3 ADD SWAP2 JUMPDEST POP POP POP POP POP SWAP1 DUP1 PUSH1 0x1 ADD DUP1 SLOAD PUSH2 0x16D7 SWAP1 PUSH2 0x3A90 JUMP JUMPDEST DUP1 PUSH1 0x1F ADD PUSH1 0x20 DUP1 SWAP2 DIV MUL PUSH1 0x20 ADD PUSH1 0x40 MLOAD SWAP1 DUP2 ADD PUSH1 0x40 MSTORE DUP1 SWAP3 SWAP2 SWAP1 DUP2 DUP2 MSTORE PUSH1 0x20 ADD DUP3 DUP1 SLOAD PUSH2 0x1703 SWAP1 PUSH2 0x3A90 JUMP JUMPDEST DUP1 ISZERO PUSH2 0x1750 JUMPI DUP1 PUSH1 0x1F LT PUSH2 0x1725 JUMPI PUSH2 0x100 DUP1 DUP4 SLOAD DIV MUL DUP4 MSTORE SWAP2 PUSH1 0x20 ADD SWAP2 PUSH2 0x1750 JUMP JUMPDEST DUP3 ADD SWAP2 SWAP1 PUSH1 0x0 MSTORE PUSH1 0x20 PUSH1 0x0 KECCAK256 SWAP1 JUMPDEST DUP2 SLOAD DUP2 MSTORE SWAP1 PUSH1 0x1 ADD SWAP1 PUSH1 0x20 ADD DUP1 DUP4 GT PUSH2 0x1733 JUMPI DUP3 SWAP1 SUB PUSH1 0x1F AND DUP3 ADD SWAP2 JUMPDEST POP POP POP POP POP SWAP1 POP DUP3 JUMP JUMPDEST PUSH1 0x60 PUSH2 0x1765 DUP3 PUSH2 0x1D2E JUMP JUMPDEST PUSH1 0x0 PUSH2 0x176F PUSH2 0x27A7 JUMP JUMPDEST SWAP1 POP PUSH1 0x0 DUP2 MLOAD GT PUSH2 0x178F JUMPI PUSH1 0x40 MLOAD DUP1 PUSH1 0x20 ADD PUSH1 0x40 MSTORE DUP1 PUSH1 0x0 DUP2 MSTORE POP PUSH2 0x17BA JUMP JUMPDEST DUP1 PUSH2 0x1799 DUP5 PUSH2 0x27BE JUMP JUMPDEST PUSH1 0x40 MLOAD PUSH1 0x20 ADD PUSH2 0x17AA SWAP3 SWAP2 SWAP1 PUSH2 0x4187 JUMP JUMPDEST PUSH1 0x40 MLOAD PUSH1 0x20 DUP2 DUP4 SUB SUB DUP2 MSTORE SWAP1 PUSH1 0x40 MSTORE JUMPDEST SWAP2 POP POP SWAP2 SWAP1 POP JUMP JUMPDEST PUSH1 0x0 DUP5 DUP5 PUSH1 0x40 MLOAD PUSH1 0x20 ADD PUSH2 0x17D7 SWAP3 SWAP2 SWAP1 PUSH2 0x3902 JUMP JUMPDEST PUSH1 0x40 MLOAD PUSH1 0x20 DUP2 DUP4 SUB SUB DUP2 MSTORE SWAP1 PUSH1 0x40 MSTORE DUP1 MLOAD SWAP1 PUSH1 0x20 ADD KECCAK256 SWAP1 POP PUSH1 0x0 ISZERO ISZERO PUSH2 0x12D PUSH1 0x0 DUP4 DUP2 MSTORE PUSH1 0x20 ADD SWAP1 DUP2 MSTORE PUSH1 0x20 ADD PUSH1 0x0 KECCAK256 PUSH1 0x0 SWAP1 SLOAD SWAP1 PUSH2 0x100 EXP SWAP1 DIV PUSH1 0xFF AND ISZERO ISZERO EQ PUSH2 0x1857 JUMPI PUSH1 0x40 MLOAD PUSH32 0x8C379A000000000000000000000000000000000000000000000000000000000 DUP2 MSTORE PUSH1 0x4 ADD PUSH2 0x184E SWAP1 PUSH2 0x41F7 JUMP JUMPDEST PUSH1 0x40 MLOAD DUP1 SWAP2 SUB SWAP1 REVERT JUMPDEST PUSH1 0x0 PUSH20 0xFFFFFFFFFFFFFFFFFFFFFFFFFFFFFFFFFFFFFFFF AND PUSH2 0x133 PUSH1 0x0 SWAP1 SLOAD SWAP1 PUSH2 0x100 EXP SWAP1 DIV PUSH20 0xFFFFFFFFFFFFFFFFFFFFFFFFFFFFFFFFFFFFFFFF AND PUSH20 0xFFFFFFFFFFFFFFFFFFFFFFFFFFFFFFFFFFFFFFFF AND EQ PUSH2 0x1976 JUMPI PUSH1 0x0 CALLVALUE SUB PUSH2 0x18F1 JUMPI PUSH1 0x40 MLOAD PUSH32 0x8C379A000000000000000000000000000000000000000000000000000000000 DUP2 MSTORE PUSH1 0x4 ADD PUSH2 0x18E8 SWAP1 PUSH2 0x4263 JUMP JUMPDEST PUSH1 0x40 MLOAD DUP1 SWAP2 SUB SWAP1 REVERT JUMPDEST PUSH2 0x133 PUSH1 0x0 SWAP1 SLOAD SWAP1 PUSH2 0x100 EXP SWAP1 DIV PUSH20 0xFFFFFFFFFFFFFFFFFFFFFFFFFFFFFFFFFFFFFFFF AND PUSH20 0xFFFFFFFFFFFFFFFFFFFFFFFFFFFFFFFFFFFFFFFF AND PUSH2 0x8FC PUSH1 0x64 PUSH2 0x132 SLOAD CALLVALUE PUSH2 0x193F SWAP2 SWAP1 PUSH2 0x42B2 JUMP JUMPDEST PUSH2 0x1949 SWAP2 SWAP1 PUSH2 0x4323 JUMP JUMPDEST SWAP1 DUP2 ISZERO MUL SWAP1 PUSH1 0x40 MLOAD PUSH1 0x0 PUSH1 0x40 MLOAD DUP1 DUP4 SUB DUP2 DUP6 DUP9 DUP9 CALL SWAP4 POP POP POP POP ISZERO DUP1 ISZERO PUSH2 0x1974 JUMPI RETURNDATASIZE PUSH1 0x0 DUP1 RETURNDATACOPY RETURNDATASIZE PUSH1 0x0 REVERT JUMPDEST POP JUMPDEST PUSH1 0x0 PUSH20 0xFFFFFFFFFFFFFFFFFFFFFFFFFFFFFFFFFFFFFFFF AND PUSH2 0x12F DUP7 PUSH1 0x40 MLOAD PUSH2 0x199F SWAP2 SWAP1 PUSH2 0x4385 JUMP JUMPDEST SWAP1 DUP2 MSTORE PUSH1 0x20 ADD PUSH1 0x40 MLOAD DUP1 SWAP2 SUB SWAP1 KECCAK256 PUSH1 0x0 SWAP1 SLOAD SWAP1 PUSH2 0x100 EXP SWAP1 DIV PUSH20 0xFFFFFFFFFFFFFFFFFFFFFFFFFFFFFFFFFFFFFFFF AND PUSH20 0xFFFFFFFFFFFFFFFFFFFFFFFFFFFFFFFFFFFFFFFF AND EQ PUSH2 0x1ACD JUMPI PUSH1 0x0 CALLVALUE SUB PUSH2 0x1A2C JUMPI PUSH1 0x40 MLOAD PUSH32 0x8C379A000000000000000000000000000000000000000000000000000000000 DUP2 MSTORE PUSH1 0x4 ADD PUSH2 0x1A23 SWAP1 PUSH2 0x4263 JUMP JUMPDEST PUSH1 0x40 MLOAD DUP1 SWAP2 SUB SWAP1 REVERT JUMPDEST PUSH2 0x12F DUP6 PUSH1 0x40 MLOAD PUSH2 0x1A3D SWAP2 SWAP1 PUSH2 0x4385 JUMP JUMPDEST SWAP1 DUP2 MSTORE PUSH1 0x20 ADD PUSH1 0x40 MLOAD DUP1 SWAP2 SUB SWAP1 KECCAK256 PUSH1 0x0 SWAP1 SLOAD SWAP1 PUSH2 0x100 EXP SWAP1 DIV PUSH20 0xFFFFFFFFFFFFFFFFFFFFFFFFFFFFFFFFFFFFFFFF AND PUSH20 0xFFFFFFFFFFFFFFFFFFFFFFFFFFFFFFFFFFFFFFFF AND PUSH2 0x8FC PUSH1 0x64 PUSH2 0x131 SLOAD CALLVALUE PUSH2 0x1A96 SWAP2 SWAP1 PUSH2 0x42B2 JUMP JUMPDEST PUSH2 0x1AA0 SWAP2 SWAP1 PUSH2 0x4323 JUMP JUMPDEST SWAP1 DUP2 ISZERO MUL SWAP1 PUSH1 0x40 MLOAD PUSH1 0x0 PUSH1 0x40 MLOAD DUP1 DUP4 SUB DUP2 DUP6 DUP9 DUP9 CALL SWAP4 POP POP POP POP ISZERO DUP1 ISZERO PUSH2 0x1ACB JUMPI RETURNDATASIZE PUSH1 0x0 DUP1 RETURNDATACOPY RETURNDATASIZE PUSH1 0x0 REVERT JUMPDEST POP JUMPDEST PUSH2 0x1AD7 DUP4 DUP4 PUSH2 0x291E JUMP JUMPDEST PUSH1 0x40 MLOAD DUP1 PUSH1 0x40 ADD PUSH1 0x40 MSTORE DUP1 DUP7 DUP2 MSTORE PUSH1 0x20 ADD DUP6 DUP2 MSTORE POP PUSH2 0x12E PUSH1 0x0 DUP5 DUP2 MSTORE PUSH1 0x20 ADD SWAP1 DUP2 MSTORE PUSH1 0x20 ADD PUSH1 0x0 KECCAK256 PUSH1 0x0 DUP3 ADD MLOAD DUP2 PUSH1 0x0 ADD SWAP1 DUP2 PUSH2 0x1B15 SWAP2 SWAP1 PUSH2 0x453E JUMP JUMPDEST POP PUSH1 0x20 DUP3 ADD MLOAD DUP2 PUSH1 0x1 ADD SWAP1 DUP2 PUSH2 0x1B2B SWAP2 SWAP1 PUSH2 0x453E JUMP JUMPDEST POP SWAP1 POP POP PUSH1 0x1 PUSH2 0x12D PUSH1 0x0 DUP4 DUP2 MSTORE PUSH1 0x20 ADD SWAP1 DUP2 MSTORE PUSH1 0x20 ADD PUSH1 0x0 KECCAK256 PUSH1 0x0 PUSH2 0x100 EXP DUP2 SLOAD DUP2 PUSH1 0xFF MUL NOT AND SWAP1 DUP4 ISZERO ISZERO MUL OR SWAP1 SSTORE POP POP POP POP POP POP JUMP JUMPDEST PUSH1 0x0 PUSH1 0x6A PUSH1 0x0 DUP5 PUSH20 0xFFFFFFFFFFFFFFFFFFFFFFFFFFFFFFFFFFFFFFFF AND PUSH20 0xFFFFFFFFFFFFFFFFFFFFFFFFFFFFFFFFFFFFFFFF AND DUP2 MSTORE PUSH1 0x20 ADD SWAP1 DUP2 MSTORE PUSH1 0x20 ADD PUSH1 0x0 KECCAK256 PUSH1 0x0 DUP4 PUSH20 0xFFFFFFFFFFFFFFFFFFFFFFFFFFFFFFFFFFFFFFFF AND PUSH20 0xFFFFFFFFFFFFFFFFFFFFFFFFFFFFFFFFFFFFFFFF AND DUP2 MSTORE PUSH1 0x20 ADD SWAP1 DUP2 MSTORE PUSH1 0x20 ADD PUSH1 0x0 KECCAK256 PUSH1 0x0 SWAP1 SLOAD SWAP1 PUSH2 0x100 EXP SWAP1 DIV PUSH1 0xFF AND SWAP1 POP SWAP3 SWAP2 POP POP JUMP JUMPDEST PUSH2 0x12F DUP2 DUP1 MLOAD PUSH1 0x20 DUP2 ADD DUP3 ADD DUP1 MLOAD DUP5 DUP3 MSTORE PUSH1 0x20 DUP4 ADD PUSH1 0x20 DUP6 ADD KECCAK256 DUP2 DUP4 MSTORE DUP1 SWAP6 POP POP POP POP POP POP PUSH1 0x0 SWAP2 POP SLOAD SWAP1 PUSH2 0x100 EXP SWAP1 DIV PUSH20 0xFFFFFFFFFFFFFFFFFFFFFFFFFFFFFFFFFFFFFFFF AND DUP2 JUMP JUMPDEST PUSH2 0x1C49 PUSH2 0x2305 JUMP JUMPDEST PUSH1 0x0 PUSH20 0xFFFFFFFFFFFFFFFFFFFFFFFFFFFFFFFFFFFFFFFF AND DUP2 PUSH20 0xFFFFFFFFFFFFFFFFFFFFFFFFFFFFFFFFFFFFFFFF AND SUB PUSH2 0x1CB8 JUMPI PUSH1 0x40 MLOAD PUSH32 0x8C379A000000000000000000000000000000000000000000000000000000000 DUP2 MSTORE PUSH1 0x4 ADD PUSH2 0x1CAF SWAP1 PUSH2 0x4682 JUMP JUMPDEST PUSH1 0x40 MLOAD DUP1 SWAP2 SUB SWAP1 REVERT JUMPDEST PUSH2 0x1CC1 DUP2 PUSH2 0x2383 JUMP JUMPDEST POP JUMP JUMPDEST PUSH1 0x0 PUSH32 0x1FFC9A700000000000000000000000000000000000000000000000000000000 PUSH28 0xFFFFFFFFFFFFFFFFFFFFFFFFFFFFFFFFFFFFFFFFFFFFFFFFFFFFFFFF NOT AND DUP3 PUSH28 0xFFFFFFFFFFFFFFFFFFFFFFFFFFFFFFFFFFFFFFFFFFFFFFFFFFFFFFFF NOT AND EQ SWAP1 POP SWAP2 SWAP1 POP JUMP JUMPDEST PUSH2 0x1D37 DUP2 PUSH2 0x2573 JUMP JUMPDEST PUSH2 0x1D76 JUMPI PUSH1 0x40 MLOAD PUSH32 0x8C379A000000000000000000000000000000000000000000000000000000000 DUP2 MSTORE PUSH1 0x4 ADD PUSH2 0x1D6D SWAP1 PUSH2 0x3E79 JUMP JUMPDEST PUSH1 0x40 MLOAD DUP1 SWAP2 SUB SWAP1 REVERT JUMPDEST POP JUMP JUMPDEST PUSH1 0x0 CALLER SWAP1 POP SWAP1 JUMP JUMPDEST DUP2 PUSH1 0x69 PUSH1 0x0 DUP4 DUP2 MSTORE PUSH1 0x20 ADD SWAP1 DUP2 MSTORE PUSH1 0x20 ADD PUSH1 0x0 KECCAK256 PUSH1 0x0 PUSH2 0x100 EXP DUP2 SLOAD DUP2 PUSH20 0xFFFFFFFFFFFFFFFFFFFFFFFFFFFFFFFFFFFFFFFF MUL NOT AND SWAP1 DUP4 PUSH20 0xFFFFFFFFFFFFFFFFFFFFFFFFFFFFFFFFFFFFFFFF AND MUL OR SWAP1 SSTORE POP DUP1 DUP3 PUSH20 0xFFFFFFFFFFFFFFFFFFFFFFFFFFFFFFFFFFFFFFFF AND PUSH2 0x1DF4 DUP4 PUSH2 0xE88 JUMP JUMPDEST PUSH20 0xFFFFFFFFFFFFFFFFFFFFFFFFFFFFFFFFFFFFFFFF AND PUSH32 0x8C5BE1E5EBEC7D5BD14F71427D1E84F3DD0314C0F7B2291E5B200AC8C7C3B925 PUSH1 0x40 MLOAD PUSH1 0x40 MLOAD DUP1 SWAP2 SUB SWAP1 LOG4 POP POP JUMP JUMPDEST PUSH1 0x0 DUP1 PUSH2 0x1E46 DUP4 PUSH2 0xE88 JUMP JUMPDEST SWAP1 POP DUP1 PUSH20 0xFFFFFFFFFFFFFFFFFFFFFFFFFFFFFFFFFFFFFFFF AND DUP5 PUSH20 0xFFFFFFFFFFFFFFFFFFFFFFFFFFFFFFFFFFFFFFFF AND EQ DUP1 PUSH2 0x1E88 JUMPI POP PUSH2 0x1E87 DUP2 DUP6 PUSH2 0x1B63 JUMP JUMPDEST JUMPDEST DUP1 PUSH2 0x1EC6 JUMPI POP DUP4 PUSH20 0xFFFFFFFFFFFFFFFFFFFFFFFFFFFFFFFFFFFFFFFF AND PUSH2 0x1EAE DUP5 PUSH2 0x8BB JUMP JUMPDEST PUSH20 0xFFFFFFFFFFFFFFFFFFFFFFFFFFFFFFFFFFFFFFFF AND EQ JUMPDEST SWAP2 POP POP SWAP3 SWAP2 POP POP JUMP JUMPDEST DUP3 PUSH20 0xFFFFFFFFFFFFFFFFFFFFFFFFFFFFFFFFFFFFFFFF AND PUSH2 0x1EEF DUP3 PUSH2 0xE88 JUMP JUMPDEST PUSH20 0xFFFFFFFFFFFFFFFFFFFFFFFFFFFFFFFFFFFFFFFF AND EQ PUSH2 0x1F45 JUMPI PUSH1 0x40 MLOAD PUSH32 0x8C379A000000000000000000000000000000000000000000000000000000000 DUP2 MSTORE PUSH1 0x4 ADD PUSH2 0x1F3C SWAP1 PUSH2 0x4714 JUMP JUMPDEST PUSH1 0x40 MLOAD DUP1 SWAP2 SUB SWAP1 REVERT JUMPDEST PUSH1 0x0 PUSH20 0xFFFFFFFFFFFFFFFFFFFFFFFFFFFFFFFFFFFFFFFF AND DUP3 PUSH20 0xFFFFFFFFFFFFFFFFFFFFFFFFFFFFFFFFFFFFFFFF AND SUB PUSH2 0x1FB4 JUMPI PUSH1 0x40 MLOAD PUSH32 0x8C379A000000000000000000000000000000000000000000000000000000000 DUP2 MSTORE PUSH1 0x4 ADD PUSH2 0x1FAB SWAP1 PUSH2 0x47A6 JUMP JUMPDEST PUSH1 0x40 MLOAD DUP1 SWAP2 SUB SWAP1 REVERT JUMPDEST PUSH2 0x1FBF DUP4 DUP4 DUP4 PUSH2 0x293C JUMP JUMPDEST PUSH2 0x1FCA PUSH1 0x0 DUP3 PUSH2 0x1D81 JUMP JUMPDEST PUSH1 0x1 PUSH1 0x68 PUSH1 0x0 DUP6 PUSH20 0xFFFFFFFFFFFFFFFFFFFFFFFFFFFFFFFFFFFFFFFF AND PUSH20 0xFFFFFFFFFFFFFFFFFFFFFFFFFFFFFFFFFFFFFFFF AND DUP2 MSTORE PUSH1 0x20 ADD SWAP1 DUP2 MSTORE PUSH1 0x20 ADD PUSH1 0x0 KECCAK256 PUSH1 0x0 DUP3 DUP3 SLOAD PUSH2 0x201A SWAP2 SWAP1 PUSH2 0x47C6 JUMP JUMPDEST SWAP3 POP POP DUP2 SWAP1 SSTORE POP PUSH1 0x1 PUSH1 0x68 PUSH1 0x0 DUP5 PUSH20 0xFFFFFFFFFFFFFFFFFFFFFFFFFFFFFFFFFFFFFFFF AND PUSH20 0xFFFFFFFFFFFFFFFFFFFFFFFFFFFFFFFFFFFFFFFF AND DUP2 MSTORE PUSH1 0x20 ADD SWAP1 DUP2 MSTORE PUSH1 0x20 ADD PUSH1 0x0 KECCAK256 PUSH1 0x0 DUP3 DUP3 SLOAD PUSH2 0x2071 SWAP2 SWAP1 PUSH2 0x47FA JUMP JUMPDEST SWAP3 POP POP DUP2 SWAP1 SSTORE POP DUP2 PUSH1 0x67 PUSH1 0x0 DUP4 DUP2 MSTORE PUSH1 0x20 ADD SWAP1 DUP2 MSTORE PUSH1 0x20 ADD PUSH1 0x0 KECCAK256 PUSH1 0x0 PUSH2 0x100 EXP DUP2 SLOAD DUP2 PUSH20 0xFFFFFFFFFFFFFFFFFFFFFFFFFFFFFFFFFFFFFFFF MUL NOT AND SWAP1 DUP4 PUSH20 0xFFFFFFFFFFFFFFFFFFFFFFFFFFFFFFFFFFFFFFFF AND MUL OR SWAP1 SSTORE POP DUP1 DUP3 PUSH20 0xFFFFFFFFFFFFFFFFFFFFFFFFFFFFFFFFFFFFFFFF AND DUP5 PUSH20 0xFFFFFFFFFFFFFFFFFFFFFFFFFFFFFFFFFFFFFFFF AND PUSH32 0xDDF252AD1BE2C89B69C2B068FC378DAA952BA7F163C4A11628F55A4DF523B3EF PUSH1 0x40 MLOAD PUSH1 0x40 MLOAD DUP1 SWAP2 SUB SWAP1 LOG4 PUSH2 0x2130 DUP4 DUP4 DUP4 PUSH2 0x2941 JUMP JUMPDEST POP POP POP JUMP JUMPDEST PUSH1 0x0 PUSH2 0x2163 PUSH32 0x360894A13BA1A3210667C828492DB98DCA3E2076CC3735A920A3CA505D382BBC PUSH1 0x0 SHL PUSH2 0x2946 JUMP JUMPDEST PUSH1 0x0 ADD PUSH1 0x0 SWAP1 SLOAD SWAP1 PUSH2 0x100 EXP SWAP1 DIV PUSH20 0xFFFFFFFFFFFFFFFFFFFFFFFFFFFFFFFFFFFFFFFF AND SWAP1 POP SWAP1 JUMP JUMPDEST PUSH2 0x2194 PUSH2 0x2305 JUMP JUMPDEST POP JUMP JUMPDEST PUSH2 0x21C3 PUSH32 0x4910FDFA16FED3260ED0E7147F7CC6DA11A60208B5B9406D12A635614FFD9143 PUSH1 0x0 SHL PUSH2 0x2950 JUMP JUMPDEST PUSH1 0x0 ADD PUSH1 0x0 SWAP1 SLOAD SWAP1 PUSH2 0x100 EXP SWAP1 DIV PUSH1 0xFF AND ISZERO PUSH2 0x21E7 JUMPI PUSH2 0x21E2 DUP4 PUSH2 0x295A JUMP JUMPDEST PUSH2 0x2300 JUMP JUMPDEST DUP3 PUSH20 0xFFFFFFFFFFFFFFFFFFFFFFFFFFFFFFFFFFFFFFFF AND PUSH4 0x52D1902D PUSH1 0x40 MLOAD DUP2 PUSH4 0xFFFFFFFF AND PUSH1 0xE0 SHL DUP2 MSTORE PUSH1 0x4 ADD PUSH1 0x20 PUSH1 0x40 MLOAD DUP1 DUP4 SUB DUP2 DUP7 GAS STATICCALL SWAP3 POP POP POP DUP1 ISZERO PUSH2 0x224F JUMPI POP PUSH1 0x40 MLOAD RETURNDATASIZE PUSH1 0x1F NOT PUSH1 0x1F DUP3 ADD AND DUP3 ADD DUP1 PUSH1 0x40 MSTORE POP DUP2 ADD SWAP1 PUSH2 0x224C SWAP2 SWAP1 PUSH2 0x4843 JUMP JUMPDEST PUSH1 0x1 JUMPDEST PUSH2 0x228E JUMPI PUSH1 0x40 MLOAD PUSH32 0x8C379A000000000000000000000000000000000000000000000000000000000 DUP2 MSTORE PUSH1 0x4 ADD PUSH2 0x2285 SWAP1 PUSH2 0x48E2 JUMP JUMPDEST PUSH1 0x40 MLOAD DUP1 SWAP2 SUB SWAP1 REVERT JUMPDEST PUSH32 0x360894A13BA1A3210667C828492DB98DCA3E2076CC3735A920A3CA505D382BBC PUSH1 0x0 SHL DUP2 EQ PUSH2 0x22F3 JUMPI PUSH1 0x40 MLOAD PUSH32 0x8C379A000000000000000000000000000000000000000000000000000000000 DUP2 MSTORE PUSH1 0x4 ADD PUSH2 0x22EA SWAP1 PUSH2 0x4974 JUMP JUMPDEST PUSH1 0x40 MLOAD DUP1 SWAP2 SUB SWAP1 REVERT JUMPDEST POP PUSH2 0x22FF DUP4 DUP4 DUP4 PUSH2 0x2A13 JUMP JUMPDEST JUMPDEST POP POP POP JUMP JUMPDEST PUSH2 0x230D PUSH2 0x1D79 JUMP JUMPDEST PUSH20 0xFFFFFFFFFFFFFFFFFFFFFFFFFFFFFFFFFFFFFFFF AND PUSH2 0x232B PUSH2 0x1487 JUMP JUMPDEST PUSH20 0xFFFFFFFFFFFFFFFFFFFFFFFFFFFFFFFFFFFFFFFF AND EQ PUSH2 0x2381 JUMPI PUSH1 0x40 MLOAD PUSH32 0x8C379A000000000000000000000000000000000000000000000000000000000 DUP2 MSTORE PUSH1 0x4 ADD PUSH2 0x2378 SWAP1 PUSH2 0x49E0 JUMP JUMPDEST PUSH1 0x40 MLOAD DUP1 SWAP2 SUB SWAP1 REVERT JUMPDEST JUMP JUMPDEST PUSH1 0x0 PUSH1 0x97 PUSH1 0x0 SWAP1 SLOAD SWAP1 PUSH2 0x100 EXP SWAP1 DIV PUSH20 0xFFFFFFFFFFFFFFFFFFFFFFFFFFFFFFFFFFFFFFFF AND SWAP1 POP DUP2 PUSH1 0x97 PUSH1 0x0 PUSH2 0x100 EXP DUP2 SLOAD DUP2 PUSH20 0xFFFFFFFFFFFFFFFFFFFFFFFFFFFFFFFFFFFFFFFF MUL NOT AND SWAP1 DUP4 PUSH20 0xFFFFFFFFFFFFFFFFFFFFFFFFFFFFFFFFFFFFFFFF AND MUL OR SWAP1 SSTORE POP DUP2 PUSH20 0xFFFFFFFFFFFFFFFFFFFFFFFFFFFFFFFFFFFFFFFF AND DUP2 PUSH20 0xFFFFFFFFFFFFFFFFFFFFFFFFFFFFFFFFFFFFFFFF AND PUSH32 0x8BE0079C531659141344CD1FD0A4F28419497F9722A3DAAFE3B4186F6B6457E0 PUSH1 0x40 MLOAD PUSH1 0x40 MLOAD DUP1 SWAP2 SUB SWAP1 LOG3 POP POP JUMP JUMPDEST PUSH1 0x0 DUP1 DUP3 PUSH20 0xFFFFFFFFFFFFFFFFFFFFFFFFFFFFFFFFFFFFFFFF AND EXTCODESIZE GT SWAP1 POP SWAP2 SWAP1 POP JUMP JUMPDEST PUSH1 0x0 PUSH1 0x1 SWAP1 SLOAD SWAP1 PUSH2 0x100 EXP SWAP1 DIV PUSH1 0xFF AND PUSH2 0x24BB JUMPI PUSH1 0x40 MLOAD PUSH32 0x8C379A000000000000000000000000000000000000000000000000000000000 DUP2 MSTORE PUSH1 0x4 ADD PUSH2 0x24B2 SWAP1 PUSH2 0x4A72 JUMP JUMPDEST PUSH1 0x40 MLOAD DUP1 SWAP2 SUB SWAP1 REVERT JUMPDEST PUSH2 0x24C5 DUP3 DUP3 PUSH2 0x2A3F JUMP JUMPDEST POP POP JUMP JUMPDEST PUSH1 0x0 PUSH1 0x1 SWAP1 SLOAD SWAP1 PUSH2 0x100 EXP SWAP1 DIV PUSH1 0xFF AND PUSH2 0x2518 JUMPI PUSH1 0x40 MLOAD PUSH32 0x8C379A000000000000000000000000000000000000000000000000000000000 DUP2 MSTORE PUSH1 0x4 ADD PUSH2 0x250F SWAP1 PUSH2 0x4A72 JUMP JUMPDEST PUSH1 0x40 MLOAD DUP1 SWAP2 SUB SWAP1 REVERT JUMPDEST PUSH2 0x2520 PUSH2 0x2AB2 JUMP JUMPDEST JUMP JUMPDEST PUSH1 0x0 PUSH1 0x1 SWAP1 SLOAD SWAP1 PUSH2 0x100 EXP SWAP1 DIV PUSH1 0xFF AND PUSH2 0x2571 JUMPI PUSH1 0x40 MLOAD PUSH32 0x8C379A000000000000000000000000000000000000000000000000000000000 DUP2 MSTORE PUSH1 0x4 ADD PUSH2 0x2568 SWAP1 PUSH2 0x4A72 JUMP JUMPDEST PUSH1 0x40 MLOAD DUP1 SWAP2 SUB SWAP1 REVERT JUMPDEST JUMP JUMPDEST PUSH1 0x0 DUP1 PUSH20 0xFFFFFFFFFFFFFFFFFFFFFFFFFFFFFFFFFFFFFFFF AND PUSH1 0x67 PUSH1 0x0 DUP5 DUP2 MSTORE PUSH1 0x20 ADD SWAP1 DUP2 MSTORE PUSH1 0x20 ADD PUSH1 0x0 KECCAK256 PUSH1 0x0 SWAP1 SLOAD SWAP1 PUSH2 0x100 EXP SWAP1 DIV PUSH20 0xFFFFFFFFFFFFFFFFFFFFFFFFFFFFFFFFFFFFFFFF AND PUSH20 0xFFFFFFFFFFFFFFFFFFFFFFFFFFFFFFFFFFFFFFFF AND EQ ISZERO SWAP1 POP SWAP2 SWAP1 POP JUMP JUMPDEST DUP2 PUSH20 0xFFFFFFFFFFFFFFFFFFFFFFFFFFFFFFFFFFFFFFFF AND DUP4 PUSH20 0xFFFFFFFFFFFFFFFFFFFFFFFFFFFFFFFFFFFFFFFF AND SUB PUSH2 0x264D JUMPI PUSH1 0x40 MLOAD PUSH32 0x8C379A000000000000000000000000000000000000000000000000000000000 DUP2 MSTORE PUSH1 0x4 ADD PUSH2 0x2644 SWAP1 PUSH2 0x4ADE JUMP JUMPDEST PUSH1 0x40 MLOAD DUP1 SWAP2 SUB SWAP1 REVERT JUMPDEST DUP1 PUSH1 0x6A PUSH1 0x0 DUP6 PUSH20 0xFFFFFFFFFFFFFFFFFFFFFFFFFFFFFFFFFFFFFFFF AND PUSH20 0xFFFFFFFFFFFFFFFFFFFFFFFFFFFFFFFFFFFFFFFF AND DUP2 MSTORE PUSH1 0x20 ADD SWAP1 DUP2 MSTORE PUSH1 0x20 ADD PUSH1 0x0 KECCAK256 PUSH1 0x0 DUP5 PUSH20 0xFFFFFFFFFFFFFFFFFFFFFFFFFFFFFFFFFFFFFFFF AND PUSH20 0xFFFFFFFFFFFFFFFFFFFFFFFFFFFFFFFFFFFFFFFF AND DUP2 MSTORE PUSH1 0x20 ADD SWAP1 DUP2 MSTORE PUSH1 0x20 ADD PUSH1 0x0 KECCAK256 PUSH1 0x0 PUSH2 0x100 EXP DUP2 SLOAD DUP2 PUSH1 0xFF MUL NOT AND SWAP1 DUP4 ISZERO ISZERO MUL OR SWAP1 SSTORE POP DUP2 PUSH20 0xFFFFFFFFFFFFFFFFFFFFFFFFFFFFFFFFFFFFFFFF AND DUP4 PUSH20 0xFFFFFFFFFFFFFFFFFFFFFFFFFFFFFFFFFFFFFFFF AND PUSH32 0x17307EAB39AB6107E8899845AD3D59BD9653F200F220920489CA2B5937696C31 DUP4 PUSH1 0x40 MLOAD PUSH2 0x273E SWAP2 SWAP1 PUSH2 0x3136 JUMP JUMPDEST PUSH1 0x40 MLOAD DUP1 SWAP2 SUB SWAP1 LOG3 POP POP POP JUMP JUMPDEST PUSH2 0x2756 DUP5 DUP5 DUP5 PUSH2 0x1ECF JUMP JUMPDEST PUSH2 0x2762 DUP5 DUP5 DUP5 DUP5 PUSH2 0x2B13 JUMP JUMPDEST PUSH2 0x27A1 JUMPI PUSH1 0x40 MLOAD PUSH32 0x8C379A000000000000000000000000000000000000000000000000000000000 DUP2 MSTORE PUSH1 0x4 ADD PUSH2 0x2798 SWAP1 PUSH2 0x4B70 JUMP JUMPDEST PUSH1 0x40 MLOAD DUP1 SWAP2 SUB SWAP1 REVERT JUMPDEST POP POP POP POP JUMP JUMPDEST PUSH1 0x60 PUSH1 0x40 MLOAD DUP1 PUSH1 0x20 ADD PUSH1 0x40 MSTORE DUP1 PUSH1 0x0 DUP2 MSTORE POP SWAP1 POP SWAP1 JUMP JUMPDEST PUSH1 0x60 PUSH1 0x0 DUP3 SUB PUSH2 0x2805 JUMPI PUSH1 0x40 MLOAD DUP1 PUSH1 0x40 ADD PUSH1 0x40 MSTORE DUP1 PUSH1 0x1 DUP2 MSTORE PUSH1 0x20 ADD PUSH32 0x3000000000000000000000000000000000000000000000000000000000000000 DUP2 MSTORE POP SWAP1 POP PUSH2 0x2919 JUMP JUMPDEST PUSH1 0x0 DUP3 SWAP1 POP PUSH1 0x0 JUMPDEST PUSH1 0x0 DUP3 EQ PUSH2 0x2837 JUMPI DUP1 DUP1 PUSH2 0x2820 SWAP1 PUSH2 0x4B90 JUMP JUMPDEST SWAP2 POP POP PUSH1 0xA DUP3 PUSH2 0x2830 SWAP2 SWAP1 PUSH2 0x4323 JUMP JUMPDEST SWAP2 POP PUSH2 0x280D JUMP JUMPDEST PUSH1 0x0 DUP2 PUSH8 0xFFFFFFFFFFFFFFFF DUP2 GT ISZERO PUSH2 0x2853 JUMPI PUSH2 0x2852 PUSH2 0x33B8 JUMP JUMPDEST JUMPDEST PUSH1 0x40 MLOAD SWAP1 DUP1 DUP3 MSTORE DUP1 PUSH1 0x1F ADD PUSH1 0x1F NOT AND PUSH1 0x20 ADD DUP3 ADD PUSH1 0x40 MSTORE DUP1 ISZERO PUSH2 0x2885 JUMPI DUP2 PUSH1 0x20 ADD PUSH1 0x1 DUP3 MUL DUP1 CALLDATASIZE DUP4 CALLDATACOPY DUP1 DUP3 ADD SWAP2 POP POP SWAP1 POP JUMPDEST POP SWAP1 POP JUMPDEST PUSH1 0x0 DUP6 EQ PUSH2 0x2912 JUMPI PUSH1 0x1 DUP3 PUSH2 0x289E SWAP2 SWAP1 PUSH2 0x47C6 JUMP JUMPDEST SWAP2 POP PUSH1 0xA DUP6 PUSH2 0x28AD SWAP2 SWAP1 PUSH2 0x4BD8 JUMP JUMPDEST PUSH1 0x30 PUSH2 0x28B9 SWAP2 SWAP1 PUSH2 0x47FA JUMP JUMPDEST PUSH1 0xF8 SHL DUP2 DUP4 DUP2 MLOAD DUP2 LT PUSH2 0x28CF JUMPI PUSH2 0x28CE PUSH2 0x4C09 JUMP JUMPDEST JUMPDEST PUSH1 0x20 ADD ADD SWAP1 PUSH31 0xFFFFFFFFFFFFFFFFFFFFFFFFFFFFFFFFFFFFFFFFFFFFFFFFFFFFFFFFFFFFFF NOT AND SWAP1 DUP2 PUSH1 0x0 BYTE SWAP1 MSTORE8 POP PUSH1 0xA DUP6 PUSH2 0x290B SWAP2 SWAP1 PUSH2 0x4323 JUMP JUMPDEST SWAP5 POP PUSH2 0x2889 JUMP JUMPDEST DUP1 SWAP4 POP POP POP POP JUMPDEST SWAP2 SWAP1 POP JUMP JUMPDEST PUSH2 0x2938 DUP3 DUP3 PUSH1 0x40 MLOAD DUP1 PUSH1 0x20 ADD PUSH1 0x40 MSTORE DUP1 PUSH1 0x0 DUP2 MSTORE POP PUSH2 0x2C9A JUMP JUMPDEST POP POP JUMP JUMPDEST POP POP POP JUMP JUMPDEST POP POP POP JUMP JUMPDEST PUSH1 0x0 DUP2 SWAP1 POP SWAP2 SWAP1 POP JUMP JUMPDEST PUSH1 0x0 DUP2 SWAP1 POP SWAP2 SWAP1 POP JUMP JUMPDEST PUSH2 0x2963 DUP2 PUSH2 0x2449 JUMP JUMPDEST PUSH2 0x29A2 JUMPI PUSH1 0x40 MLOAD PUSH32 0x8C379A000000000000000000000000000000000000000000000000000000000 DUP2 MSTORE PUSH1 0x4 ADD PUSH2 0x2999 SWAP1 PUSH2 0x4CAA JUMP JUMPDEST PUSH1 0x40 MLOAD DUP1 SWAP2 SUB SWAP1 REVERT JUMPDEST DUP1 PUSH2 0x29CF PUSH32 0x360894A13BA1A3210667C828492DB98DCA3E2076CC3735A920A3CA505D382BBC PUSH1 0x0 SHL PUSH2 0x2946 JUMP JUMPDEST PUSH1 0x0 ADD PUSH1 0x0 PUSH2 0x100 EXP DUP2 SLOAD DUP2 PUSH20 0xFFFFFFFFFFFFFFFFFFFFFFFFFFFFFFFFFFFFFFFF MUL NOT AND SWAP1 DUP4 PUSH20 0xFFFFFFFFFFFFFFFFFFFFFFFFFFFFFFFFFFFFFFFF AND MUL OR SWAP1 SSTORE POP POP JUMP JUMPDEST PUSH2 0x2A1C DUP4 PUSH2 0x2CF5 JUMP JUMPDEST PUSH1 0x0 DUP3 MLOAD GT DUP1 PUSH2 0x2A29 JUMPI POP DUP1 JUMPDEST ISZERO PUSH2 0x2A3A JUMPI PUSH2 0x2A38 DUP4 DUP4 PUSH2 0x2D44 JUMP JUMPDEST POP JUMPDEST POP POP POP JUMP JUMPDEST PUSH1 0x0 PUSH1 0x1 SWAP1 SLOAD SWAP1 PUSH2 0x100 EXP SWAP1 DIV PUSH1 0xFF AND PUSH2 0x2A8E JUMPI PUSH1 0x40 MLOAD PUSH32 0x8C379A000000000000000000000000000000000000000000000000000000000 DUP2 MSTORE PUSH1 0x4 ADD PUSH2 0x2A85 SWAP1 PUSH2 0x4A72 JUMP JUMPDEST PUSH1 0x40 MLOAD DUP1 SWAP2 SUB SWAP1 REVERT JUMPDEST DUP2 PUSH1 0x65 SWAP1 DUP2 PUSH2 0x2A9D SWAP2 SWAP1 PUSH2 0x4D25 JUMP JUMPDEST POP DUP1 PUSH1 0x66 SWAP1 DUP2 PUSH2 0x2AAD SWAP2 SWAP1 PUSH2 0x4D25 JUMP JUMPDEST POP POP POP JUMP JUMPDEST PUSH1 0x0 PUSH1 0x1 SWAP1 SLOAD SWAP1 PUSH2 0x100 EXP SWAP1 DIV PUSH1 0xFF AND PUSH2 0x2B01 JUMPI PUSH1 0x40 MLOAD PUSH32 0x8C379A000000000000000000000000000000000000000000000000000000000 DUP2 MSTORE PUSH1 0x4 ADD PUSH2 0x2AF8 SWAP1 PUSH2 0x4A72 JUMP JUMPDEST PUSH1 0x40 MLOAD DUP1 SWAP2 SUB SWAP1 REVERT JUMPDEST PUSH2 0x2B11 PUSH2 0x2B0C PUSH2 0x1D79 JUMP JUMPDEST PUSH2 0x2383 JUMP JUMPDEST JUMP JUMPDEST PUSH1 0x0 PUSH2 0x2B34 DUP5 PUSH20 0xFFFFFFFFFFFFFFFFFFFFFFFFFFFFFFFFFFFFFFFF AND PUSH2 0x2449 JUMP JUMPDEST ISZERO PUSH2 0x2C8D JUMPI DUP4 PUSH20 0xFFFFFFFFFFFFFFFFFFFFFFFFFFFFFFFFFFFFFFFF AND PUSH4 0x150B7A02 PUSH2 0x2B5D PUSH2 0x1D79 JUMP JUMPDEST DUP8 DUP7 DUP7 PUSH1 0x40 MLOAD DUP6 PUSH4 0xFFFFFFFF AND PUSH1 0xE0 SHL DUP2 MSTORE PUSH1 0x4 ADD PUSH2 0x2B7F SWAP5 SWAP4 SWAP3 SWAP2 SWAP1 PUSH2 0x4DF7 JUMP JUMPDEST PUSH1 0x20 PUSH1 0x40 MLOAD DUP1 DUP4 SUB DUP2 PUSH1 0x0 DUP8 GAS CALL SWAP3 POP POP POP DUP1 ISZERO PUSH2 0x2BBB JUMPI POP PUSH1 0x40 MLOAD RETURNDATASIZE PUSH1 0x1F NOT PUSH1 0x1F DUP3 ADD AND DUP3 ADD DUP1 PUSH1 0x40 MSTORE POP DUP2 ADD SWAP1 PUSH2 0x2BB8 SWAP2 SWAP1 PUSH2 0x4E58 JUMP JUMPDEST PUSH1 0x1 JUMPDEST PUSH2 0x2C3D JUMPI RETURNDATASIZE DUP1 PUSH1 0x0 DUP2 EQ PUSH2 0x2BEB JUMPI PUSH1 0x40 MLOAD SWAP2 POP PUSH1 0x1F NOT PUSH1 0x3F RETURNDATASIZE ADD AND DUP3 ADD PUSH1 0x40 MSTORE RETURNDATASIZE DUP3 MSTORE RETURNDATASIZE PUSH1 0x0 PUSH1 0x20 DUP5 ADD RETURNDATACOPY PUSH2 0x2BF0 JUMP JUMPDEST PUSH1 0x60 SWAP2 POP JUMPDEST POP PUSH1 0x0 DUP2 MLOAD SUB PUSH2 0x2C35 JUMPI PUSH1 0x40 MLOAD PUSH32 0x8C379A000000000000000000000000000000000000000000000000000000000 DUP2 MSTORE PUSH1 0x4 ADD PUSH2 0x2C2C SWAP1 PUSH2 0x4B70 JUMP JUMPDEST PUSH1 0x40 MLOAD DUP1 SWAP2 SUB SWAP1 REVERT JUMPDEST DUP1 MLOAD DUP2 PUSH1 0x20 ADD REVERT JUMPDEST PUSH4 0x150B7A02 PUSH1 0xE0 SHL PUSH28 0xFFFFFFFFFFFFFFFFFFFFFFFFFFFFFFFFFFFFFFFFFFFFFFFFFFFFFFFF NOT AND DUP2 PUSH28 0xFFFFFFFFFFFFFFFFFFFFFFFFFFFFFFFFFFFFFFFFFFFFFFFFFFFFFFFF NOT AND EQ SWAP2 POP POP PUSH2 0x2C92 JUMP JUMPDEST PUSH1 0x1 SWAP1 POP JUMPDEST SWAP5 SWAP4 POP POP POP POP JUMP JUMPDEST PUSH2 0x2CA4 DUP4 DUP4 PUSH2 0x2E28 JUMP JUMPDEST PUSH2 0x2CB1 PUSH1 0x0 DUP5 DUP5 DUP5 PUSH2 0x2B13 JUMP JUMPDEST PUSH2 0x2CF0 JUMPI PUSH1 0x40 MLOAD PUSH32 0x8C379A000000000000000000000000000000000000000000000000000000000 DUP2 MSTORE PUSH1 0x4 ADD PUSH2 0x2CE7 SWAP1 PUSH2 0x4B70 JUMP JUMPDEST PUSH1 0x40 MLOAD DUP1 SWAP2 SUB SWAP1 REVERT JUMPDEST POP POP POP JUMP JUMPDEST PUSH2 0x2CFE DUP2 PUSH2 0x295A JUMP JUMPDEST DUP1 PUSH20 0xFFFFFFFFFFFFFFFFFFFFFFFFFFFFFFFFFFFFFFFF AND PUSH32 0xBC7CD75A20EE27FD9ADEBAB32041F755214DBC6BFFA90CC0225B39DA2E5C2D3B PUSH1 0x40 MLOAD PUSH1 0x40 MLOAD DUP1 SWAP2 SUB SWAP1 LOG2 POP JUMP JUMPDEST PUSH1 0x60 PUSH2 0x2D4F DUP4 PUSH2 0x2449 JUMP JUMPDEST PUSH2 0x2D8E JUMPI PUSH1 0x40 MLOAD PUSH32 0x8C379A000000000000000000000000000000000000000000000000000000000 DUP2 MSTORE PUSH1 0x4 ADD PUSH2 0x2D85 SWAP1 PUSH2 0x4EF7 JUMP JUMPDEST PUSH1 0x40 MLOAD DUP1 SWAP2 SUB SWAP1 REVERT JUMPDEST PUSH1 0x0 DUP1 DUP5 PUSH20 0xFFFFFFFFFFFFFFFFFFFFFFFFFFFFFFFFFFFFFFFF AND DUP5 PUSH1 0x40 MLOAD PUSH2 0x2DB6 SWAP2 SWAP1 PUSH2 0x4385 JUMP JUMPDEST PUSH1 0x0 PUSH1 0x40 MLOAD DUP1 DUP4 SUB DUP2 DUP6 GAS DELEGATECALL SWAP2 POP POP RETURNDATASIZE DUP1 PUSH1 0x0 DUP2 EQ PUSH2 0x2DF1 JUMPI PUSH1 0x40 MLOAD SWAP2 POP PUSH1 0x1F NOT PUSH1 0x3F RETURNDATASIZE ADD AND DUP3 ADD PUSH1 0x40 MSTORE RETURNDATASIZE DUP3 MSTORE RETURNDATASIZE PUSH1 0x0 PUSH1 0x20 DUP5 ADD RETURNDATACOPY PUSH2 0x2DF6 JUMP JUMPDEST PUSH1 0x60 SWAP2 POP JUMPDEST POP SWAP2 POP SWAP2 POP PUSH2 0x2E1E DUP3 DUP3 PUSH1 0x40 MLOAD DUP1 PUSH1 0x60 ADD PUSH1 0x40 MSTORE DUP1 PUSH1 0x27 DUP2 MSTORE PUSH1 0x20 ADD PUSH2 0x4FF0 PUSH1 0x27 SWAP2 CODECOPY PUSH2 0x3001 JUMP JUMPDEST SWAP3 POP POP POP SWAP3 SWAP2 POP POP JUMP JUMPDEST PUSH1 0x0 PUSH20 0xFFFFFFFFFFFFFFFFFFFFFFFFFFFFFFFFFFFFFFFF AND DUP3 PUSH20 0xFFFFFFFFFFFFFFFFFFFFFFFFFFFFFFFFFFFFFFFF AND SUB PUSH2 0x2E97 JUMPI PUSH1 0x40 MLOAD PUSH32 0x8C379A000000000000000000000000000000000000000000000000000000000 DUP2 MSTORE PUSH1 0x4 ADD PUSH2 0x2E8E SWAP1 PUSH2 0x4F63 JUMP JUMPDEST PUSH1 0x40 MLOAD DUP1 SWAP2 SUB SWAP1 REVERT JUMPDEST PUSH2 0x2EA0 DUP2 PUSH2 0x2573 JUMP JUMPDEST ISZERO PUSH2 0x2EE0 JUMPI PUSH1 0x40 MLOAD PUSH32 0x8C379A000000000000000000000000000000000000000000000000000000000 DUP2 MSTORE PUSH1 0x4 ADD PUSH2 0x2ED7 SWAP1 PUSH2 0x4FCF JUMP JUMPDEST PUSH1 0x40 MLOAD DUP1 SWAP2 SUB SWAP1 REVERT JUMPDEST PUSH2 0x2EEC PUSH1 0x0 DUP4 DUP4 PUSH2 0x293C JUMP JUMPDEST PUSH1 0x1 PUSH1 0x68 PUSH1 0x0 DUP5 PUSH20 0xFFFFFFFFFFFFFFFFFFFFFFFFFFFFFFFFFFFFFFFF AND PUSH20 0xFFFFFFFFFFFFFFFFFFFFFFFFFFFFFFFFFFFFFFFF AND DUP2 MSTORE PUSH1 0x20 ADD SWAP1 DUP2 MSTORE PUSH1 0x20 ADD PUSH1 0x0 KECCAK256 PUSH1 0x0 DUP3 DUP3 SLOAD PUSH2 0x2F3C SWAP2 SWAP1 PUSH2 0x47FA JUMP JUMPDEST SWAP3 POP POP DUP2 SWAP1 SSTORE POP DUP2 PUSH1 0x67 PUSH1 0x0 DUP4 DUP2 MSTORE PUSH1 0x20 ADD SWAP1 DUP2 MSTORE PUSH1 0x20 ADD PUSH1 0x0 KECCAK256 PUSH1 0x0 PUSH2 0x100 EXP DUP2 SLOAD DUP2 PUSH20 0xFFFFFFFFFFFFFFFFFFFFFFFFFFFFFFFFFFFFFFFF MUL NOT AND SWAP1 DUP4 PUSH20 0xFFFFFFFFFFFFFFFFFFFFFFFFFFFFFFFFFFFFFFFF AND MUL OR SWAP1 SSTORE POP DUP1 DUP3 PUSH20 0xFFFFFFFFFFFFFFFFFFFFFFFFFFFFFFFFFFFFFFFF AND PUSH1 0x0 PUSH20 0xFFFFFFFFFFFFFFFFFFFFFFFFFFFFFFFFFFFFFFFF AND PUSH32 0xDDF252AD1BE2C89B69C2B068FC378DAA952BA7F163C4A11628F55A4DF523B3EF PUSH1 0x40 MLOAD PUSH1 0x40 MLOAD DUP1 SWAP2 SUB SWAP1 LOG4 PUSH2 0x2FFD PUSH1 0x0 DUP4 DUP4 PUSH2 0x2941 JUMP JUMPDEST POP POP JUMP JUMPDEST PUSH1 0x60 DUP4 ISZERO PUSH2 0x3011 JUMPI DUP3 SWAP1 POP PUSH2 0x3061 JUMP JUMPDEST PUSH1 0x0 DUP4 MLOAD GT ISZERO PUSH2 0x3024 JUMPI DUP3 MLOAD DUP1 DUP5 PUSH1 0x20 ADD REVERT JUMPDEST DUP2 PUSH1 0x40 MLOAD PUSH32 0x8C379A000000000000000000000000000000000000000000000000000000000 DUP2 MSTORE PUSH1 0x4 ADD PUSH2 0x3058 SWAP2 SWAP1 PUSH2 0x31E1 JUMP JUMPDEST PUSH1 0x40 MLOAD DUP1 SWAP2 SUB SWAP1 REVERT JUMPDEST SWAP4 SWAP3 POP POP POP JUMP JUMPDEST PUSH1 0x40 MLOAD DUP1 PUSH1 0x40 ADD PUSH1 0x40 MSTORE DUP1 PUSH1 0x60 DUP2 MSTORE PUSH1 0x20 ADD PUSH1 0x60 DUP2 MSTORE POP SWAP1 JUMP JUMPDEST PUSH1 0x0 PUSH1 0x40 MLOAD SWAP1 POP SWAP1 JUMP JUMPDEST PUSH1 0x0 DUP1 REVERT JUMPDEST PUSH1 0x0 DUP1 REVERT JUMPDEST PUSH1 0x0 PUSH32 0xFFFFFFFF00000000000000000000000000000000000000000000000000000000 DUP3 AND SWAP1 POP SWAP2 SWAP1 POP JUMP JUMPDEST PUSH2 0x30CB DUP2 PUSH2 0x3096 JUMP JUMPDEST DUP2 EQ PUSH2 0x30D6 JUMPI PUSH1 0x0 DUP1 REVERT JUMPDEST POP JUMP JUMPDEST PUSH1 0x0 DUP2 CALLDATALOAD SWAP1 POP PUSH2 0x30E8 DUP2 PUSH2 0x30C2 JUMP JUMPDEST SWAP3 SWAP2 POP POP JUMP JUMPDEST PUSH1 0x0 PUSH1 0x20 DUP3 DUP5 SUB SLT ISZERO PUSH2 0x3104 JUMPI PUSH2 0x3103 PUSH2 0x308C JUMP JUMPDEST JUMPDEST PUSH1 0x0 PUSH2 0x3112 DUP5 DUP3 DUP6 ADD PUSH2 0x30D9 JUMP JUMPDEST SWAP2 POP POP SWAP3 SWAP2 POP POP JUMP JUMPDEST PUSH1 0x0 DUP2 ISZERO ISZERO SWAP1 POP SWAP2 SWAP1 POP JUMP JUMPDEST PUSH2 0x3130 DUP2 PUSH2 0x311B JUMP JUMPDEST DUP3 MSTORE POP POP JUMP JUMPDEST PUSH1 0x0 PUSH1 0x20 DUP3 ADD SWAP1 POP PUSH2 0x314B PUSH1 0x0 DUP4 ADD DUP5 PUSH2 0x3127 JUMP JUMPDEST SWAP3 SWAP2 POP POP JUMP JUMPDEST PUSH1 0x0 DUP2 MLOAD SWAP1 POP SWAP2 SWAP1 POP JUMP JUMPDEST PUSH1 0x0 DUP3 DUP3 MSTORE PUSH1 0x20 DUP3 ADD SWAP1 POP SWAP3 SWAP2 POP POP JUMP JUMPDEST PUSH1 0x0 JUMPDEST DUP4 DUP2 LT ISZERO PUSH2 0x318B JUMPI DUP1 DUP3 ADD MLOAD DUP2 DUP5 ADD MSTORE PUSH1 0x20 DUP2 ADD SWAP1 POP PUSH2 0x3170 JUMP JUMPDEST PUSH1 0x0 DUP5 DUP5 ADD MSTORE POP POP POP POP JUMP JUMPDEST PUSH1 0x0 PUSH1 0x1F NOT PUSH1 0x1F DUP4 ADD AND SWAP1 POP SWAP2 SWAP1 POP JUMP JUMPDEST PUSH1 0x0 PUSH2 0x31B3 DUP3 PUSH2 0x3151 JUMP JUMPDEST PUSH2 0x31BD DUP2 DUP6 PUSH2 0x315C JUMP JUMPDEST SWAP4 POP PUSH2 0x31CD DUP2 DUP6 PUSH1 0x20 DUP7 ADD PUSH2 0x316D JUMP JUMPDEST PUSH2 0x31D6 DUP2 PUSH2 0x3197 JUMP JUMPDEST DUP5 ADD SWAP2 POP POP SWAP3 SWAP2 POP POP JUMP JUMPDEST PUSH1 0x0 PUSH1 0x20 DUP3 ADD SWAP1 POP DUP2 DUP2 SUB PUSH1 0x0 DUP4 ADD MSTORE PUSH2 0x31FB DUP2 DUP5 PUSH2 0x31A8 JUMP JUMPDEST SWAP1 POP SWAP3 SWAP2 POP POP JUMP JUMPDEST PUSH1 0x0 DUP2 SWAP1 POP SWAP2 SWAP1 POP JUMP JUMPDEST PUSH2 0x3216 DUP2 PUSH2 0x3203 JUMP JUMPDEST DUP2 EQ PUSH2 0x3221 JUMPI PUSH1 0x0 DUP1 REVERT JUMPDEST POP JUMP JUMPDEST PUSH1 0x0 DUP2 CALLDATALOAD SWAP1 POP PUSH2 0x3233 DUP2 PUSH2 0x320D JUMP JUMPDEST SWAP3 SWAP2 POP POP JUMP JUMPDEST PUSH1 0x0 PUSH1 0x20 DUP3 DUP5 SUB SLT ISZERO PUSH2 0x324F JUMPI PUSH2 0x324E PUSH2 0x308C JUMP JUMPDEST JUMPDEST PUSH1 0x0 PUSH2 0x325D DUP5 DUP3 DUP6 ADD PUSH2 0x3224 JUMP JUMPDEST SWAP2 POP POP SWAP3 SWAP2 POP POP JUMP JUMPDEST PUSH1 0x0 PUSH20 0xFFFFFFFFFFFFFFFFFFFFFFFFFFFFFFFFFFFFFFFF DUP3 AND SWAP1 POP SWAP2 SWAP1 POP JUMP JUMPDEST PUSH1 0x0 PUSH2 0x3291 DUP3 PUSH2 0x3266 JUMP JUMPDEST SWAP1 POP SWAP2 SWAP1 POP JUMP JUMPDEST PUSH2 0x32A1 DUP2 PUSH2 0x3286 JUMP JUMPDEST DUP3 MSTORE POP POP JUMP JUMPDEST PUSH1 0x0 PUSH1 0x20 DUP3 ADD SWAP1 POP PUSH2 0x32BC PUSH1 0x0 DUP4 ADD DUP5 PUSH2 0x3298 JUMP JUMPDEST SWAP3 SWAP2 POP POP JUMP JUMPDEST PUSH2 0x32CB DUP2 PUSH2 0x3286 JUMP JUMPDEST DUP2 EQ PUSH2 0x32D6 JUMPI PUSH1 0x0 DUP1 REVERT JUMPDEST POP JUMP JUMPDEST PUSH1 0x0 DUP2 CALLDATALOAD SWAP1 POP PUSH2 0x32E8 DUP2 PUSH2 0x32C2 JUMP JUMPDEST SWAP3 SWAP2 POP POP JUMP JUMPDEST PUSH1 0x0 DUP1 PUSH1 0x40 DUP4 DUP6 SUB SLT ISZERO PUSH2 0x3305 JUMPI PUSH2 0x3304 PUSH2 0x308C JUMP JUMPDEST JUMPDEST PUSH1 0x0 PUSH2 0x3313 DUP6 DUP3 DUP7 ADD PUSH2 0x32D9 JUMP JUMPDEST SWAP3 POP POP PUSH1 0x20 PUSH2 0x3324 DUP6 DUP3 DUP7 ADD PUSH2 0x3224 JUMP JUMPDEST SWAP2 POP POP SWAP3 POP SWAP3 SWAP1 POP JUMP JUMPDEST PUSH1 0x0 DUP1 PUSH1 0x0 PUSH1 0x60 DUP5 DUP7 SUB SLT ISZERO PUSH2 0x3347 JUMPI PUSH2 0x3346 PUSH2 0x308C JUMP JUMPDEST JUMPDEST PUSH1 0x0 PUSH2 0x3355 DUP7 DUP3 DUP8 ADD PUSH2 0x32D9 JUMP JUMPDEST SWAP4 POP POP PUSH1 0x20 PUSH2 0x3366 DUP7 DUP3 DUP8 ADD PUSH2 0x32D9 JUMP JUMPDEST SWAP3 POP POP PUSH1 0x40 PUSH2 0x3377 DUP7 DUP3 DUP8 ADD PUSH2 0x3224 JUMP JUMPDEST SWAP2 POP POP SWAP3 POP SWAP3 POP SWAP3 JUMP JUMPDEST PUSH1 0x0 PUSH1 0x20 DUP3 DUP5 SUB SLT ISZERO PUSH2 0x3397 JUMPI PUSH2 0x3396 PUSH2 0x308C JUMP JUMPDEST JUMPDEST PUSH1 0x0 PUSH2 0x33A5 DUP5 DUP3 DUP6 ADD PUSH2 0x32D9 JUMP JUMPDEST SWAP2 POP POP SWAP3 SWAP2 POP POP JUMP JUMPDEST PUSH1 0x0 DUP1 REVERT JUMPDEST PUSH1 0x0 DUP1 REVERT JUMPDEST PUSH32 0x4E487B7100000000000000000000000000000000000000000000000000000000 PUSH1 0x0 MSTORE PUSH1 0x41 PUSH1 0x4 MSTORE PUSH1 0x24 PUSH1 0x0 REVERT JUMPDEST PUSH2 0x33F0 DUP3 PUSH2 0x3197 JUMP JUMPDEST DUP2 ADD DUP2 DUP2 LT PUSH8 0xFFFFFFFFFFFFFFFF DUP3 GT OR ISZERO PUSH2 0x340F JUMPI PUSH2 0x340E PUSH2 0x33B8 JUMP JUMPDEST JUMPDEST DUP1 PUSH1 0x40 MSTORE POP POP POP JUMP JUMPDEST PUSH1 0x0 PUSH2 0x3422 PUSH2 0x3082 JUMP JUMPDEST SWAP1 POP PUSH2 0x342E DUP3 DUP3 PUSH2 0x33E7 JUMP JUMPDEST SWAP2 SWAP1 POP JUMP JUMPDEST PUSH1 0x0 PUSH8 0xFFFFFFFFFFFFFFFF DUP3 GT ISZERO PUSH2 0x344E JUMPI PUSH2 0x344D PUSH2 0x33B8 JUMP JUMPDEST JUMPDEST PUSH2 0x3457 DUP3 PUSH2 0x3197 JUMP JUMPDEST SWAP1 POP PUSH1 0x20 DUP2 ADD SWAP1 POP SWAP2 SWAP1 POP JUMP JUMPDEST DUP3 DUP2 DUP4 CALLDATACOPY PUSH1 0x0 DUP4 DUP4 ADD MSTORE POP POP POP JUMP JUMPDEST PUSH1 0x0 PUSH2 0x3486 PUSH2 0x3481 DUP5 PUSH2 0x3433 JUMP JUMPDEST PUSH2 0x3418 JUMP JUMPDEST SWAP1 POP DUP3 DUP2 MSTORE PUSH1 0x20 DUP2 ADD DUP5 DUP5 DUP5 ADD GT ISZERO PUSH2 0x34A2 JUMPI PUSH2 0x34A1 PUSH2 0x33B3 JUMP JUMPDEST JUMPDEST PUSH2 0x34AD DUP5 DUP3 DUP6 PUSH2 0x3464 JUMP JUMPDEST POP SWAP4 SWAP3 POP POP POP JUMP JUMPDEST PUSH1 0x0 DUP3 PUSH1 0x1F DUP4 ADD SLT PUSH2 0x34CA JUMPI PUSH2 0x34C9 PUSH2 0x33AE JUMP JUMPDEST JUMPDEST DUP2 CALLDATALOAD PUSH2 0x34DA DUP5 DUP3 PUSH1 0x20 DUP7 ADD PUSH2 0x3473 JUMP JUMPDEST SWAP2 POP POP SWAP3 SWAP2 POP POP JUMP JUMPDEST PUSH1 0x0 DUP1 PUSH1 0x40 DUP4 DUP6 SUB SLT ISZERO PUSH2 0x34FA JUMPI PUSH2 0x34F9 PUSH2 0x308C JUMP JUMPDEST JUMPDEST PUSH1 0x0 PUSH2 0x3508 DUP6 DUP3 DUP7 ADD PUSH2 0x32D9 JUMP JUMPDEST SWAP3 POP POP PUSH1 0x20 DUP4 ADD CALLDATALOAD PUSH8 0xFFFFFFFFFFFFFFFF DUP2 GT ISZERO PUSH2 0x3529 JUMPI PUSH2 0x3528 PUSH2 0x3091 JUMP JUMPDEST JUMPDEST PUSH2 0x3535 DUP6 DUP3 DUP7 ADD PUSH2 0x34B5 JUMP JUMPDEST SWAP2 POP POP SWAP3 POP SWAP3 SWAP1 POP JUMP JUMPDEST PUSH1 0x0 DUP2 SWAP1 POP SWAP2 SWAP1 POP JUMP JUMPDEST PUSH2 0x3552 DUP2 PUSH2 0x353F JUMP JUMPDEST DUP3 MSTORE POP POP JUMP JUMPDEST PUSH1 0x0 PUSH1 0x20 DUP3 ADD SWAP1 POP PUSH2 0x356D PUSH1 0x0 DUP4 ADD DUP5 PUSH2 0x3549 JUMP JUMPDEST SWAP3 SWAP2 POP POP JUMP JUMPDEST PUSH1 0x0 PUSH2 0x357E DUP3 PUSH2 0x3266 JUMP JUMPDEST SWAP1 POP SWAP2 SWAP1 POP JUMP JUMPDEST PUSH2 0x358E DUP2 PUSH2 0x3573 JUMP JUMPDEST DUP2 EQ PUSH2 0x3599 JUMPI PUSH1 0x0 DUP1 REVERT JUMPDEST POP JUMP JUMPDEST PUSH1 0x0 DUP2 CALLDATALOAD SWAP1 POP PUSH2 0x35AB DUP2 PUSH2 0x3585 JUMP JUMPDEST SWAP3 SWAP2 POP POP JUMP JUMPDEST PUSH1 0x0 PUSH1 0x20 DUP3 DUP5 SUB SLT ISZERO PUSH2 0x35C7 JUMPI PUSH2 0x35C6 PUSH2 0x308C JUMP JUMPDEST JUMPDEST PUSH1 0x0 PUSH2 0x35D5 DUP5 DUP3 DUP6 ADD PUSH2 0x359C JUMP JUMPDEST SWAP2 POP POP SWAP3 SWAP2 POP POP JUMP JUMPDEST PUSH1 0x0 DUP1 REVERT JUMPDEST PUSH1 0x0 DUP1 REVERT JUMPDEST PUSH1 0x0 DUP1 DUP4 PUSH1 0x1F DUP5 ADD SLT PUSH2 0x35FE JUMPI PUSH2 0x35FD PUSH2 0x33AE JUMP JUMPDEST JUMPDEST DUP3 CALLDATALOAD SWAP1 POP PUSH8 0xFFFFFFFFFFFFFFFF DUP2 GT ISZERO PUSH2 0x361B JUMPI PUSH2 0x361A PUSH2 0x35DE JUMP JUMPDEST JUMPDEST PUSH1 0x20 DUP4 ADD SWAP2 POP DUP4 PUSH1 0x1 DUP3 MUL DUP4 ADD GT ISZERO PUSH2 0x3637 JUMPI PUSH2 0x3636 PUSH2 0x35E3 JUMP JUMPDEST JUMPDEST SWAP3 POP SWAP3 SWAP1 POP JUMP JUMPDEST PUSH1 0x0 DUP1 PUSH1 0x20 DUP4 DUP6 SUB SLT ISZERO PUSH2 0x3655 JUMPI PUSH2 0x3654 PUSH2 0x308C JUMP JUMPDEST JUMPDEST PUSH1 0x0 DUP4 ADD CALLDATALOAD PUSH8 0xFFFFFFFFFFFFFFFF DUP2 GT ISZERO PUSH2 0x3673 JUMPI PUSH2 0x3672 PUSH2 0x3091 JUMP JUMPDEST JUMPDEST PUSH2 0x367F DUP6 DUP3 DUP7 ADD PUSH2 0x35E8 JUMP JUMPDEST SWAP3 POP SWAP3 POP POP SWAP3 POP SWAP3 SWAP1 POP JUMP JUMPDEST PUSH2 0x3694 DUP2 PUSH2 0x3203 JUMP JUMPDEST DUP3 MSTORE POP POP JUMP JUMPDEST PUSH1 0x0 PUSH1 0x20 DUP3 ADD SWAP1 POP PUSH2 0x36AF PUSH1 0x0 DUP4 ADD DUP5 PUSH2 0x368B JUMP JUMPDEST SWAP3 SWAP2 POP POP JUMP JUMPDEST PUSH1 0x0 DUP2 MLOAD SWAP1 POP SWAP2 SWAP1 POP JUMP JUMPDEST PUSH1 0x0 DUP3 DUP3 MSTORE PUSH1 0x20 DUP3 ADD SWAP1 POP SWAP3 SWAP2 POP POP JUMP JUMPDEST PUSH1 0x0 PUSH2 0x36DC DUP3 PUSH2 0x36B5 JUMP JUMPDEST PUSH2 0x36E6 DUP2 DUP6 PUSH2 0x36C0 JUMP JUMPDEST SWAP4 POP PUSH2 0x36F6 DUP2 DUP6 PUSH1 0x20 DUP7 ADD PUSH2 0x316D JUMP JUMPDEST PUSH2 0x36FF DUP2 PUSH2 0x3197 JUMP JUMPDEST DUP5 ADD SWAP2 POP POP SWAP3 SWAP2 POP POP JUMP JUMPDEST PUSH1 0x0 PUSH1 0x40 DUP4 ADD PUSH1 0x0 DUP4 ADD MLOAD DUP5 DUP3 SUB PUSH1 0x0 DUP7 ADD MSTORE PUSH2 0x3727 DUP3 DUP3 PUSH2 0x36D1 JUMP JUMPDEST SWAP2 POP POP PUSH1 0x20 DUP4 ADD MLOAD DUP5 DUP3 SUB PUSH1 0x20 DUP7 ADD MSTORE PUSH2 0x3741 DUP3 DUP3 PUSH2 0x36D1 JUMP JUMPDEST SWAP2 POP POP DUP1 SWAP2 POP POP SWAP3 SWAP2 POP POP JUMP JUMPDEST PUSH1 0x0 PUSH1 0x20 DUP3 ADD SWAP1 POP DUP2 DUP2 SUB PUSH1 0x0 DUP4 ADD MSTORE PUSH2 0x3768 DUP2 DUP5 PUSH2 0x370A JUMP JUMPDEST SWAP1 POP SWAP3 SWAP2 POP POP JUMP JUMPDEST PUSH2 0x3779 DUP2 PUSH2 0x311B JUMP JUMPDEST DUP2 EQ PUSH2 0x3784 JUMPI PUSH1 0x0 DUP1 REVERT JUMPDEST POP JUMP JUMPDEST PUSH1 0x0 DUP2 CALLDATALOAD SWAP1 POP PUSH2 0x3796 DUP2 PUSH2 0x3770 JUMP JUMPDEST SWAP3 SWAP2 POP POP JUMP JUMPDEST PUSH1 0x0 DUP1 PUSH1 0x40 DUP4 DUP6 SUB SLT ISZERO PUSH2 0x37B3 JUMPI PUSH2 0x37B2 PUSH2 0x308C JUMP JUMPDEST JUMPDEST PUSH1 0x0 PUSH2 0x37C1 DUP6 DUP3 DUP7 ADD PUSH2 0x32D9 JUMP JUMPDEST SWAP3 POP POP PUSH1 0x20 PUSH2 0x37D2 DUP6 DUP3 DUP7 ADD PUSH2 0x3787 JUMP JUMPDEST SWAP2 POP POP SWAP3 POP SWAP3 SWAP1 POP JUMP JUMPDEST PUSH2 0x37E5 DUP2 PUSH2 0x353F JUMP JUMPDEST DUP2 EQ PUSH2 0x37F0 JUMPI PUSH1 0x0 DUP1 REVERT JUMPDEST POP JUMP JUMPDEST PUSH1 0x0 DUP2 CALLDATALOAD SWAP1 POP PUSH2 0x3802 DUP2 PUSH2 0x37DC JUMP JUMPDEST SWAP3 SWAP2 POP POP JUMP JUMPDEST PUSH1 0x0 PUSH1 0x20 DUP3 DUP5 SUB SLT ISZERO PUSH2 0x381E JUMPI PUSH2 0x381D PUSH2 0x308C JUMP JUMPDEST JUMPDEST PUSH1 0x0 PUSH2 0x382C DUP5 DUP3 DUP6 ADD PUSH2 0x37F3 JUMP JUMPDEST SWAP2 POP POP SWAP3 SWAP2 POP POP JUMP JUMPDEST PUSH1 0x0 DUP1 PUSH1 0x0 DUP1 PUSH1 0x80 DUP6 DUP8 SUB SLT ISZERO PUSH2 0x384F JUMPI PUSH2 0x384E PUSH2 0x308C JUMP JUMPDEST JUMPDEST PUSH1 0x0 PUSH2 0x385D DUP8 DUP3 DUP9 ADD PUSH2 0x32D9 JUMP JUMPDEST SWAP5 POP POP PUSH1 0x20 PUSH2 0x386E DUP8 DUP3 DUP9 ADD PUSH2 0x32D9 JUMP JUMPDEST SWAP4 POP POP PUSH1 0x40 PUSH2 0x387F DUP8 DUP3 DUP9 ADD PUSH2 0x3224 JUMP JUMPDEST SWAP3 POP POP PUSH1 0x60 DUP6 ADD CALLDATALOAD PUSH8 0xFFFFFFFFFFFFFFFF DUP2 GT ISZERO PUSH2 0x38A0 JUMPI PUSH2 0x389F PUSH2 0x3091 JUMP JUMPDEST JUMPDEST PUSH2 0x38AC DUP8 DUP3 DUP9 ADD PUSH2 0x34B5 JUMP JUMPDEST SWAP2 POP POP SWAP3 SWAP6 SWAP2 SWAP5 POP SWAP3 POP JUMP JUMPDEST PUSH1 0x0 DUP3 DUP3 MSTORE PUSH1 0x20 DUP3 ADD SWAP1 POP SWAP3 SWAP2 POP POP JUMP JUMPDEST PUSH1 0x0 PUSH2 0x38D4 DUP3 PUSH2 0x36B5 JUMP JUMPDEST PUSH2 0x38DE DUP2 DUP6 PUSH2 0x38B8 JUMP JUMPDEST SWAP4 POP PUSH2 0x38EE DUP2 DUP6 PUSH1 0x20 DUP7 ADD PUSH2 0x316D JUMP JUMPDEST PUSH2 0x38F7 DUP2 PUSH2 0x3197 JUMP JUMPDEST DUP5 ADD SWAP2 POP POP SWAP3 SWAP2 POP POP JUMP JUMPDEST PUSH1 0x0 PUSH1 0x40 DUP3 ADD SWAP1 POP DUP2 DUP2 SUB PUSH1 0x0 DUP4 ADD MSTORE PUSH2 0x391C DUP2 DUP6 PUSH2 0x38C9 JUMP JUMPDEST SWAP1 POP DUP2 DUP2 SUB PUSH1 0x20 DUP4 ADD MSTORE PUSH2 0x3930 DUP2 DUP5 PUSH2 0x38C9 JUMP JUMPDEST SWAP1 POP SWAP4 SWAP3 POP POP POP JUMP JUMPDEST PUSH1 0x0 DUP1 PUSH1 0x0 DUP1 PUSH1 0x80 DUP6 DUP8 SUB SLT ISZERO PUSH2 0x3953 JUMPI PUSH2 0x3952 PUSH2 0x308C JUMP JUMPDEST JUMPDEST PUSH1 0x0 DUP6 ADD CALLDATALOAD PUSH8 0xFFFFFFFFFFFFFFFF DUP2 GT ISZERO PUSH2 0x3971 JUMPI PUSH2 0x3970 PUSH2 0x3091 JUMP JUMPDEST JUMPDEST PUSH2 0x397D DUP8 DUP3 DUP9 ADD PUSH2 0x34B5 JUMP JUMPDEST SWAP5 POP POP PUSH1 0x20 DUP6 ADD CALLDATALOAD PUSH8 0xFFFFFFFFFFFFFFFF DUP2 GT ISZERO PUSH2 0x399E JUMPI PUSH2 0x399D PUSH2 0x3091 JUMP JUMPDEST JUMPDEST PUSH2 0x39AA DUP8 DUP3 DUP9 ADD PUSH2 0x34B5 JUMP JUMPDEST SWAP4 POP POP PUSH1 0x40 PUSH2 0x39BB DUP8 DUP3 DUP9 ADD PUSH2 0x32D9 JUMP JUMPDEST SWAP3 POP POP PUSH1 0x60 PUSH2 0x39CC DUP8 DUP3 DUP9 ADD PUSH2 0x3224 JUMP JUMPDEST SWAP2 POP POP SWAP3 SWAP6 SWAP2 SWAP5 POP SWAP3 POP JUMP JUMPDEST PUSH1 0x0 DUP1 PUSH1 0x40 DUP4 DUP6 SUB SLT ISZERO PUSH2 0x39EF JUMPI PUSH2 0x39EE PUSH2 0x308C JUMP JUMPDEST JUMPDEST PUSH1 0x0 PUSH2 0x39FD DUP6 DUP3 DUP7 ADD PUSH2 0x32D9 JUMP JUMPDEST SWAP3 POP POP PUSH1 0x20 PUSH2 0x3A0E DUP6 DUP3 DUP7 ADD PUSH2 0x32D9 JUMP JUMPDEST SWAP2 POP POP SWAP3 POP SWAP3 SWAP1 POP JUMP JUMPDEST PUSH1 0x0 PUSH1 0x20 DUP3 DUP5 SUB SLT ISZERO PUSH2 0x3A2E JUMPI PUSH2 0x3A2D PUSH2 0x308C JUMP JUMPDEST JUMPDEST PUSH1 0x0 DUP3 ADD CALLDATALOAD PUSH8 0xFFFFFFFFFFFFFFFF DUP2 GT ISZERO PUSH2 0x3A4C JUMPI PUSH2 0x3A4B PUSH2 0x3091 JUMP JUMPDEST JUMPDEST PUSH2 0x3A58 DUP5 DUP3 DUP6 ADD PUSH2 0x34B5 JUMP JUMPDEST SWAP2 POP POP SWAP3 SWAP2 POP POP JUMP JUMPDEST PUSH32 0x4E487B7100000000000000000000000000000000000000000000000000000000 PUSH1 0x0 MSTORE PUSH1 0x22 PUSH1 0x4 MSTORE PUSH1 0x24 PUSH1 0x0 REVERT JUMPDEST PUSH1 0x0 PUSH1 0x2 DUP3 DIV SWAP1 POP PUSH1 0x1 DUP3 AND DUP1 PUSH2 0x3AA8 JUMPI PUSH1 0x7F DUP3 AND SWAP2 POP JUMPDEST PUSH1 0x20 DUP3 LT DUP2 SUB PUSH2 0x3ABB JUMPI PUSH2 0x3ABA PUSH2 0x3A61 JUMP JUMPDEST JUMPDEST POP SWAP2 SWAP1 POP JUMP JUMPDEST PUSH32 0x4552433732313A20617070726F76616C20746F2063757272656E74206F776E65 PUSH1 0x0 DUP3 ADD MSTORE PUSH32 0x7200000000000000000000000000000000000000000000000000000000000000 PUSH1 0x20 DUP3 ADD MSTORE POP JUMP JUMPDEST PUSH1 0x0 PUSH2 0x3B1D PUSH1 0x21 DUP4 PUSH2 0x315C JUMP JUMPDEST SWAP2 POP PUSH2 0x3B28 DUP3 PUSH2 0x3AC1 JUMP JUMPDEST PUSH1 0x40 DUP3 ADD SWAP1 POP SWAP2 SWAP1 POP JUMP JUMPDEST PUSH1 0x0 PUSH1 0x20 DUP3 ADD SWAP1 POP DUP2 DUP2 SUB PUSH1 0x0 DUP4 ADD MSTORE PUSH2 0x3B4C DUP2 PUSH2 0x3B10 JUMP JUMPDEST SWAP1 POP SWAP2 SWAP1 POP JUMP JUMPDEST PUSH32 0x4552433732313A20617070726F76652063616C6C6572206973206E6F7420746F PUSH1 0x0 DUP3 ADD MSTORE PUSH32 0x6B656E206F776E6572206E6F7220617070726F76656420666F7220616C6C0000 PUSH1 0x20 DUP3 ADD MSTORE POP JUMP JUMPDEST PUSH1 0x0 PUSH2 0x3BAF PUSH1 0x3E DUP4 PUSH2 0x315C JUMP JUMPDEST SWAP2 POP PUSH2 0x3BBA DUP3 PUSH2 0x3B53 JUMP JUMPDEST PUSH1 0x40 DUP3 ADD SWAP1 POP SWAP2 SWAP1 POP JUMP JUMPDEST PUSH1 0x0 PUSH1 0x20 DUP3 ADD SWAP1 POP DUP2 DUP2 SUB PUSH1 0x0 DUP4 ADD MSTORE PUSH2 0x3BDE DUP2 PUSH2 0x3BA2 JUMP JUMPDEST SWAP1 POP SWAP2 SWAP1 POP JUMP JUMPDEST PUSH32 0x4552433732313A2063616C6C6572206973206E6F7420746F6B656E206F776E65 PUSH1 0x0 DUP3 ADD MSTORE PUSH32 0x72206E6F7220617070726F766564000000000000000000000000000000000000 PUSH1 0x20 DUP3 ADD MSTORE POP JUMP JUMPDEST PUSH1 0x0 PUSH2 0x3C41 PUSH1 0x2E DUP4 PUSH2 0x315C JUMP JUMPDEST SWAP2 POP PUSH2 0x3C4C DUP3 PUSH2 0x3BE5 JUMP JUMPDEST PUSH1 0x40 DUP3 ADD SWAP1 POP SWAP2 SWAP1 POP JUMP JUMPDEST PUSH1 0x0 PUSH1 0x20 DUP3 ADD SWAP1 POP DUP2 DUP2 SUB PUSH1 0x0 DUP4 ADD MSTORE PUSH2 0x3C70 DUP2 PUSH2 0x3C34 JUMP JUMPDEST SWAP1 POP SWAP2 SWAP1 POP JUMP JUMPDEST PUSH32 0x46756E6374696F6E206D7573742062652063616C6C6564207468726F75676820 PUSH1 0x0 DUP3 ADD MSTORE PUSH32 0x64656C656761746563616C6C0000000000000000000000000000000000000000 PUSH1 0x20 DUP3 ADD MSTORE POP JUMP JUMPDEST PUSH1 0x0 PUSH2 0x3CD3 PUSH1 0x2C DUP4 PUSH2 0x315C JUMP JUMPDEST SWAP2 POP PUSH2 0x3CDE DUP3 PUSH2 0x3C77 JUMP JUMPDEST PUSH1 0x40 DUP3 ADD SWAP1 POP SWAP2 SWAP1 POP JUMP JUMPDEST PUSH1 0x0 PUSH1 0x20 DUP3 ADD SWAP1 POP DUP2 DUP2 SUB PUSH1 0x0 DUP4 ADD MSTORE PUSH2 0x3D02 DUP2 PUSH2 0x3CC6 JUMP JUMPDEST SWAP1 POP SWAP2 SWAP1 POP JUMP JUMPDEST PUSH32 0x46756E6374696F6E206D7573742062652063616C6C6564207468726F75676820 PUSH1 0x0 DUP3 ADD MSTORE PUSH32 0x6163746976652070726F78790000000000000000000000000000000000000000 PUSH1 0x20 DUP3 ADD MSTORE POP JUMP JUMPDEST PUSH1 0x0 PUSH2 0x3D65 PUSH1 0x2C DUP4 PUSH2 0x315C JUMP JUMPDEST SWAP2 POP PUSH2 0x3D70 DUP3 PUSH2 0x3D09 JUMP JUMPDEST PUSH1 0x40 DUP3 ADD SWAP1 POP SWAP2 SWAP1 POP JUMP JUMPDEST PUSH1 0x0 PUSH1 0x20 DUP3 ADD SWAP1 POP DUP2 DUP2 SUB PUSH1 0x0 DUP4 ADD MSTORE PUSH2 0x3D94 DUP2 PUSH2 0x3D58 JUMP JUMPDEST SWAP1 POP SWAP2 SWAP1 POP JUMP JUMPDEST PUSH32 0x555550535570677261646561626C653A206D757374206E6F742062652063616C PUSH1 0x0 DUP3 ADD MSTORE PUSH32 0x6C6564207468726F7567682064656C656761746563616C6C0000000000000000 PUSH1 0x20 DUP3 ADD MSTORE POP JUMP JUMPDEST PUSH1 0x0 PUSH2 0x3DF7 PUSH1 0x38 DUP4 PUSH2 0x315C JUMP JUMPDEST SWAP2 POP PUSH2 0x3E02 DUP3 PUSH2 0x3D9B JUMP JUMPDEST PUSH1 0x40 DUP3 ADD SWAP1 POP SWAP2 SWAP1 POP JUMP JUMPDEST PUSH1 0x0 PUSH1 0x20 DUP3 ADD SWAP1 POP DUP2 DUP2 SUB PUSH1 0x0 DUP4 ADD MSTORE PUSH2 0x3E26 DUP2 PUSH2 0x3DEA JUMP JUMPDEST SWAP1 POP SWAP2 SWAP1 POP JUMP JUMPDEST PUSH32 0x4552433732313A20696E76616C696420746F6B656E2049440000000000000000 PUSH1 0x0 DUP3 ADD MSTORE POP JUMP JUMPDEST PUSH1 0x0 PUSH2 0x3E63 PUSH1 0x18 DUP4 PUSH2 0x315C JUMP JUMPDEST SWAP2 POP PUSH2 0x3E6E DUP3 PUSH2 0x3E2D JUMP JUMPDEST PUSH1 0x20 DUP3 ADD SWAP1 POP SWAP2 SWAP1 POP JUMP JUMPDEST PUSH1 0x0 PUSH1 0x20 DUP3 ADD SWAP1 POP DUP2 DUP2 SUB PUSH1 0x0 DUP4 ADD MSTORE PUSH2 0x3E92 DUP2 PUSH2 0x3E56 JUMP JUMPDEST SWAP1 POP SWAP2 SWAP1 POP JUMP JUMPDEST PUSH1 0x0 DUP2 SWAP1 POP SWAP3 SWAP2 POP POP JUMP JUMPDEST PUSH1 0x0 PUSH2 0x3EB0 DUP4 DUP6 PUSH2 0x3E99 JUMP JUMPDEST SWAP4 POP PUSH2 0x3EBD DUP4 DUP6 DUP5 PUSH2 0x3464 JUMP JUMPDEST DUP3 DUP5 ADD SWAP1 POP SWAP4 SWAP3 POP POP POP JUMP JUMPDEST PUSH1 0x0 PUSH2 0x3ED6 DUP3 DUP5 DUP7 PUSH2 0x3EA4 JUMP JUMPDEST SWAP2 POP DUP2 SWAP1 POP SWAP4 SWAP3 POP POP POP JUMP JUMPDEST PUSH32 0x6D6F64656C2073686F756C646E277420626520616C7265616479207365740000 PUSH1 0x0 DUP3 ADD MSTORE POP JUMP JUMPDEST PUSH1 0x0 PUSH2 0x3F18 PUSH1 0x1E DUP4 PUSH2 0x315C JUMP JUMPDEST SWAP2 POP PUSH2 0x3F23 DUP3 PUSH2 0x3EE2 JUMP JUMPDEST PUSH1 0x20 DUP3 ADD SWAP1 POP SWAP2 SWAP1 POP JUMP JUMPDEST PUSH1 0x0 PUSH1 0x20 DUP3 ADD SWAP1 POP DUP2 DUP2 SUB PUSH1 0x0 DUP4 ADD MSTORE PUSH2 0x3F47 DUP2 PUSH2 0x3F0B JUMP JUMPDEST SWAP1 POP SWAP2 SWAP1 POP JUMP JUMPDEST PUSH32 0x4552433732313A2061646472657373207A65726F206973206E6F742061207661 PUSH1 0x0 DUP3 ADD MSTORE PUSH32 0x6C6964206F776E65720000000000000000000000000000000000000000000000 PUSH1 0x20 DUP3 ADD MSTORE POP JUMP JUMPDEST PUSH1 0x0 PUSH2 0x3FAA PUSH1 0x29 DUP4 PUSH2 0x315C JUMP JUMPDEST SWAP2 POP PUSH2 0x3FB5 DUP3 PUSH2 0x3F4E JUMP JUMPDEST PUSH1 0x40 DUP3 ADD SWAP1 POP SWAP2 SWAP1 POP JUMP JUMPDEST PUSH1 0x0 PUSH1 0x20 DUP3 ADD SWAP1 POP DUP2 DUP2 SUB PUSH1 0x0 DUP4 ADD MSTORE PUSH2 0x3FD9 DUP2 PUSH2 0x3F9D JUMP JUMPDEST SWAP1 POP SWAP2 SWAP1 POP JUMP JUMPDEST PUSH32 0x496E697469616C697A61626C653A20636F6E747261637420697320616C726561 PUSH1 0x0 DUP3 ADD MSTORE PUSH32 0x647920696E697469616C697A6564000000000000000000000000000000000000 PUSH1 0x20 DUP3 ADD MSTORE POP JUMP JUMPDEST PUSH1 0x0 PUSH2 0x403C PUSH1 0x2E DUP4 PUSH2 0x315C JUMP JUMPDEST SWAP2 POP PUSH2 0x4047 DUP3 PUSH2 0x3FE0 JUMP JUMPDEST PUSH1 0x40 DUP3 ADD SWAP1 POP SWAP2 SWAP1 POP JUMP JUMPDEST PUSH1 0x0 PUSH1 0x20 DUP3 ADD SWAP1 POP DUP2 DUP2 SUB PUSH1 0x0 DUP4 ADD MSTORE PUSH2 0x406B DUP2 PUSH2 0x402F JUMP JUMPDEST SWAP1 POP SWAP2 SWAP1 POP JUMP JUMPDEST PUSH1 0x0 DUP2 SWAP1 POP SWAP2 SWAP1 POP JUMP JUMPDEST PUSH1 0x0 PUSH1 0xFF DUP3 AND SWAP1 POP SWAP2 SWAP1 POP JUMP JUMPDEST PUSH1 0x0 DUP2 SWAP1 POP SWAP2 SWAP1 POP JUMP JUMPDEST PUSH1 0x0 PUSH2 0x40AE PUSH2 0x40A9 PUSH2 0x40A4 DUP5 PUSH2 0x4072 JUMP JUMPDEST PUSH2 0x4089 JUMP JUMPDEST PUSH2 0x407C JUMP JUMPDEST SWAP1 POP SWAP2 SWAP1 POP JUMP JUMPDEST PUSH2 0x40BE DUP2 PUSH2 0x4093 JUMP JUMPDEST DUP3 MSTORE POP POP JUMP JUMPDEST PUSH1 0x0 PUSH1 0x20 DUP3 ADD SWAP1 POP PUSH2 0x40D9 PUSH1 0x0 DUP4 ADD DUP5 PUSH2 0x40B5 JUMP JUMPDEST SWAP3 SWAP2 POP POP JUMP JUMPDEST PUSH32 0x746F6B656E20646F6573206E6F74206578697374000000000000000000000000 PUSH1 0x0 DUP3 ADD MSTORE POP JUMP JUMPDEST PUSH1 0x0 PUSH2 0x4115 PUSH1 0x14 DUP4 PUSH2 0x315C JUMP JUMPDEST SWAP2 POP PUSH2 0x4120 DUP3 PUSH2 0x40DF JUMP JUMPDEST PUSH1 0x20 DUP3 ADD SWAP1 POP SWAP2 SWAP1 POP JUMP JUMPDEST PUSH1 0x0 PUSH1 0x20 DUP3 ADD SWAP1 POP DUP2 DUP2 SUB PUSH1 0x0 DUP4 ADD MSTORE PUSH2 0x4144 DUP2 PUSH2 0x4108 JUMP JUMPDEST SWAP1 POP SWAP2 SWAP1 POP JUMP JUMPDEST PUSH1 0x0 DUP2 SWAP1 POP SWAP3 SWAP2 POP POP JUMP JUMPDEST PUSH1 0x0 PUSH2 0x4161 DUP3 PUSH2 0x3151 JUMP JUMPDEST PUSH2 0x416B DUP2 DUP6 PUSH2 0x414B JUMP JUMPDEST SWAP4 POP PUSH2 0x417B DUP2 DUP6 PUSH1 0x20 DUP7 ADD PUSH2 0x316D JUMP JUMPDEST DUP1 DUP5 ADD SWAP2 POP POP SWAP3 SWAP2 POP POP JUMP JUMPDEST PUSH1 0x0 PUSH2 0x4193 DUP3 DUP6 PUSH2 0x4156 JUMP JUMPDEST SWAP2 POP PUSH2 0x419F DUP3 DUP5 PUSH2 0x4156 JUMP JUMPDEST SWAP2 POP DUP2 SWAP1 POP SWAP4 SWAP3 POP POP POP JUMP JUMPDEST PUSH32 0x6C6174656E7420737061636520616C7265616479207573656400000000000000 PUSH1 0x0 DUP3 ADD MSTORE POP JUMP JUMPDEST PUSH1 0x0 PUSH2 0x41E1 PUSH1 0x19 DUP4 PUSH2 0x315C JUMP JUMPDEST SWAP2 POP PUSH2 0x41EC DUP3 PUSH2 0x41AB JUMP JUMPDEST PUSH1 0x20 DUP3 ADD SWAP1 POP SWAP2 SWAP1 POP JUMP JUMPDEST PUSH1 0x0 PUSH1 0x20 DUP3 ADD SWAP1 POP DUP2 DUP2 SUB PUSH1 0x0 DUP4 ADD MSTORE PUSH2 0x4210 DUP2 PUSH2 0x41D4 JUMP JUMPDEST SWAP1 POP SWAP2 SWAP1 POP JUMP JUMPDEST PUSH32 0x76616C75652069732073657420746F2030000000000000000000000000000000 PUSH1 0x0 DUP3 ADD MSTORE POP JUMP JUMPDEST PUSH1 0x0 PUSH2 0x424D PUSH1 0x11 DUP4 PUSH2 0x315C JUMP JUMPDEST SWAP2 POP PUSH2 0x4258 DUP3 PUSH2 0x4217 JUMP JUMPDEST PUSH1 0x20 DUP3 ADD SWAP1 POP SWAP2 SWAP1 POP JUMP JUMPDEST PUSH1 0x0 PUSH1 0x20 DUP3 ADD SWAP1 POP DUP2 DUP2 SUB PUSH1 0x0 DUP4 ADD MSTORE PUSH2 0x427C DUP2 PUSH2 0x4240 JUMP JUMPDEST SWAP1 POP SWAP2 SWAP1 POP JUMP JUMPDEST PUSH32 0x4E487B7100000000000000000000000000000000000000000000000000000000 PUSH1 0x0 MSTORE PUSH1 0x11 PUSH1 0x4 MSTORE PUSH1 0x24 PUSH1 0x0 REVERT JUMPDEST PUSH1 0x0 PUSH2 0x42BD DUP3 PUSH2 0x3203 JUMP JUMPDEST SWAP2 POP PUSH2 0x42C8 DUP4 PUSH2 0x3203 JUMP JUMPDEST SWAP3 POP DUP3 DUP3 MUL PUSH2 0x42D6 DUP2 PUSH2 0x3203 JUMP JUMPDEST SWAP2 POP DUP3 DUP3 DIV DUP5 EQ DUP4 ISZERO OR PUSH2 0x42ED JUMPI PUSH2 0x42EC PUSH2 0x4283 JUMP JUMPDEST JUMPDEST POP SWAP3 SWAP2 POP POP JUMP JUMPDEST PUSH32 0x4E487B7100000000000000000000000000000000000000000000000000000000 PUSH1 0x0 MSTORE PUSH1 0x12 PUSH1 0x4 MSTORE PUSH1 0x24 PUSH1 0x0 REVERT JUMPDEST PUSH1 0x0 PUSH2 0x432E DUP3 PUSH2 0x3203 JUMP JUMPDEST SWAP2 POP PUSH2 0x4339 DUP4 PUSH2 0x3203 JUMP JUMPDEST SWAP3 POP DUP3 PUSH2 0x4349 JUMPI PUSH2 0x4348 PUSH2 0x42F4 JUMP JUMPDEST JUMPDEST DUP3 DUP3 DIV SWAP1 POP SWAP3 SWAP2 POP POP JUMP JUMPDEST PUSH1 0x0 PUSH2 0x435F DUP3 PUSH2 0x36B5 JUMP JUMPDEST PUSH2 0x4369 DUP2 DUP6 PUSH2 0x3E99 JUMP JUMPDEST SWAP4 POP PUSH2 0x4379 DUP2 DUP6 PUSH1 0x20 DUP7 ADD PUSH2 0x316D JUMP JUMPDEST DUP1 DUP5 ADD SWAP2 POP POP SWAP3 SWAP2 POP POP JUMP JUMPDEST PUSH1 0x0 PUSH2 0x4391 DUP3 DUP5 PUSH2 0x4354 JUMP JUMPDEST SWAP2 POP DUP2 SWAP1 POP SWAP3 SWAP2 POP POP JUMP JUMPDEST PUSH1 0x0 DUP2 SWAP1 POP DUP2 PUSH1 0x0 MSTORE PUSH1 0x20 PUSH1 0x0 KECCAK256 SWAP1 POP SWAP2 SWAP1 POP JUMP JUMPDEST PUSH1 0x0 PUSH1 0x20 PUSH1 0x1F DUP4 ADD DIV SWAP1 POP SWAP2 SWAP1 POP JUMP JUMPDEST PUSH1 0x0 DUP3 DUP3 SHL SWAP1 POP SWAP3 SWAP2 POP POP JUMP JUMPDEST PUSH1 0x0 PUSH1 0x8 DUP4 MUL PUSH2 0x43FE PUSH32 0xFFFFFFFFFFFFFFFFFFFFFFFFFFFFFFFFFFFFFFFFFFFFFFFFFFFFFFFFFFFFFFFF DUP3 PUSH2 0x43C1 JUMP JUMPDEST PUSH2 0x4408 DUP7 DUP4 PUSH2 0x43C1 JUMP JUMPDEST SWAP6 POP DUP1 NOT DUP5 AND SWAP4 POP DUP1 DUP7 AND DUP5 OR SWAP3 POP POP POP SWAP4 SWAP3 POP POP POP JUMP JUMPDEST PUSH1 0x0 PUSH2 0x443B PUSH2 0x4436 PUSH2 0x4431 DUP5 PUSH2 0x3203 JUMP JUMPDEST PUSH2 0x4089 JUMP JUMPDEST PUSH2 0x3203 JUMP JUMPDEST SWAP1 POP SWAP2 SWAP1 POP JUMP JUMPDEST PUSH1 0x0 DUP2 SWAP1 POP SWAP2 SWAP1 POP JUMP JUMPDEST PUSH2 0x4455 DUP4 PUSH2 0x4420 JUMP JUMPDEST PUSH2 0x4469 PUSH2 0x4461 DUP3 PUSH2 0x4442 JUMP JUMPDEST DUP5 DUP5 SLOAD PUSH2 0x43CE JUMP JUMPDEST DUP3 SSTORE POP POP POP POP JUMP JUMPDEST PUSH1 0x0 SWAP1 JUMP JUMPDEST PUSH2 0x447E PUSH2 0x4471 JUMP JUMPDEST PUSH2 0x4489 DUP2 DUP5 DUP5 PUSH2 0x444C JUMP JUMPDEST POP POP POP JUMP JUMPDEST JUMPDEST DUP2 DUP2 LT ISZERO PUSH2 0x44AD JUMPI PUSH2 0x44A2 PUSH1 0x0 DUP3 PUSH2 0x4476 JUMP JUMPDEST PUSH1 0x1 DUP2 ADD SWAP1 POP PUSH2 0x448F JUMP JUMPDEST POP POP JUMP JUMPDEST PUSH1 0x1F DUP3 GT ISZERO PUSH2 0x44F2 JUMPI PUSH2 0x44C3 DUP2 PUSH2 0x439C JUMP JUMPDEST PUSH2 0x44CC DUP5 PUSH2 0x43B1 JUMP JUMPDEST DUP2 ADD PUSH1 0x20 DUP6 LT ISZERO PUSH2 0x44DB JUMPI DUP2 SWAP1 POP JUMPDEST PUSH2 0x44EF PUSH2 0x44E7 DUP6 PUSH2 0x43B1 JUMP JUMPDEST DUP4 ADD DUP3 PUSH2 0x448E JUMP JUMPDEST POP POP JUMPDEST POP POP POP JUMP JUMPDEST PUSH1 0x0 DUP3 DUP3 SHR SWAP1 POP SWAP3 SWAP2 POP POP JUMP JUMPDEST PUSH1 0x0 PUSH2 0x4515 PUSH1 0x0 NOT DUP5 PUSH1 0x8 MUL PUSH2 0x44F7 JUMP JUMPDEST NOT DUP1 DUP4 AND SWAP2 POP POP SWAP3 SWAP2 POP POP JUMP JUMPDEST PUSH1 0x0 PUSH2 0x452E DUP4 DUP4 PUSH2 0x4504 JUMP JUMPDEST SWAP2 POP DUP3 PUSH1 0x2 MUL DUP3 OR SWAP1 POP SWAP3 SWAP2 POP POP JUMP JUMPDEST PUSH2 0x4547 DUP3 PUSH2 0x36B5 JUMP JUMPDEST PUSH8 0xFFFFFFFFFFFFFFFF DUP2 GT ISZERO PUSH2 0x4560 JUMPI PUSH2 0x455F PUSH2 0x33B8 JUMP JUMPDEST JUMPDEST PUSH2 0x456A DUP3 SLOAD PUSH2 0x3A90 JUMP JUMPDEST PUSH2 0x4575 DUP3 DUP3 DUP6 PUSH2 0x44B1 JUMP JUMPDEST PUSH1 0x0 PUSH1 0x20 SWAP1 POP PUSH1 0x1F DUP4 GT PUSH1 0x1 DUP2 EQ PUSH2 0x45A8 JUMPI PUSH1 0x0 DUP5 ISZERO PUSH2 0x4596 JUMPI DUP3 DUP8 ADD MLOAD SWAP1 POP JUMPDEST PUSH2 0x45A0 DUP6 DUP3 PUSH2 0x4522 JUMP JUMPDEST DUP7 SSTORE POP PUSH2 0x4608 JUMP JUMPDEST PUSH1 0x1F NOT DUP5 AND PUSH2 0x45B6 DUP7 PUSH2 0x439C JUMP JUMPDEST PUSH1 0x0 JUMPDEST DUP3 DUP2 LT ISZERO PUSH2 0x45DE JUMPI DUP5 DUP10 ADD MLOAD DUP3 SSTORE PUSH1 0x1 DUP3 ADD SWAP2 POP PUSH1 0x20 DUP6 ADD SWAP5 POP PUSH1 0x20 DUP2 ADD SWAP1 POP PUSH2 0x45B9 JUMP JUMPDEST DUP7 DUP4 LT ISZERO PUSH2 0x45FB JUMPI DUP5 DUP10 ADD MLOAD PUSH2 0x45F7 PUSH1 0x1F DUP10 AND DUP3 PUSH2 0x4504 JUMP JUMPDEST DUP4 SSTORE POP JUMPDEST PUSH1 0x1 PUSH1 0x2 DUP9 MUL ADD DUP9 SSTORE POP POP POP JUMPDEST POP POP POP POP POP POP JUMP JUMPDEST PUSH32 0x4F776E61626C653A206E6577206F776E657220697320746865207A65726F2061 PUSH1 0x0 DUP3 ADD MSTORE PUSH32 0x6464726573730000000000000000000000000000000000000000000000000000 PUSH1 0x20 DUP3 ADD MSTORE POP JUMP JUMPDEST PUSH1 0x0 PUSH2 0x466C PUSH1 0x26 DUP4 PUSH2 0x315C JUMP JUMPDEST SWAP2 POP PUSH2 0x4677 DUP3 PUSH2 0x4610 JUMP JUMPDEST PUSH1 0x40 DUP3 ADD SWAP1 POP SWAP2 SWAP1 POP JUMP JUMPDEST PUSH1 0x0 PUSH1 0x20 DUP3 ADD SWAP1 POP DUP2 DUP2 SUB PUSH1 0x0 DUP4 ADD MSTORE PUSH2 0x469B DUP2 PUSH2 0x465F JUMP JUMPDEST SWAP1 POP SWAP2 SWAP1 POP JUMP JUMPDEST PUSH32 0x4552433732313A207472616E736665722066726F6D20696E636F727265637420 PUSH1 0x0 DUP3 ADD MSTORE PUSH32 0x6F776E6572000000000000000000000000000000000000000000000000000000 PUSH1 0x20 DUP3 ADD MSTORE POP JUMP JUMPDEST PUSH1 0x0 PUSH2 0x46FE PUSH1 0x25 DUP4 PUSH2 0x315C JUMP JUMPDEST SWAP2 POP PUSH2 0x4709 DUP3 PUSH2 0x46A2 JUMP JUMPDEST PUSH1 0x40 DUP3 ADD SWAP1 POP SWAP2 SWAP1 POP JUMP JUMPDEST PUSH1 0x0 PUSH1 0x20 DUP3 ADD SWAP1 POP DUP2 DUP2 SUB PUSH1 0x0 DUP4 ADD MSTORE PUSH2 0x472D DUP2 PUSH2 0x46F1 JUMP JUMPDEST SWAP1 POP SWAP2 SWAP1 POP JUMP JUMPDEST PUSH32 0x4552433732313A207472616E7366657220746F20746865207A65726F20616464 PUSH1 0x0 DUP3 ADD MSTORE PUSH32 0x7265737300000000000000000000000000000000000000000000000000000000 PUSH1 0x20 DUP3 ADD MSTORE POP JUMP JUMPDEST PUSH1 0x0 PUSH2 0x4790 PUSH1 0x24 DUP4 PUSH2 0x315C JUMP JUMPDEST SWAP2 POP PUSH2 0x479B DUP3 PUSH2 0x4734 JUMP JUMPDEST PUSH1 0x40 DUP3 ADD SWAP1 POP SWAP2 SWAP1 POP JUMP JUMPDEST PUSH1 0x0 PUSH1 0x20 DUP3 ADD SWAP1 POP DUP2 DUP2 SUB PUSH1 0x0 DUP4 ADD MSTORE PUSH2 0x47BF DUP2 PUSH2 0x4783 JUMP JUMPDEST SWAP1 POP SWAP2 SWAP1 POP JUMP JUMPDEST PUSH1 0x0 PUSH2 0x47D1 DUP3 PUSH2 0x3203 JUMP JUMPDEST SWAP2 POP PUSH2 0x47DC DUP4 PUSH2 0x3203 JUMP JUMPDEST SWAP3 POP DUP3 DUP3 SUB SWAP1 POP DUP2 DUP2 GT ISZERO PUSH2 0x47F4 JUMPI PUSH2 0x47F3 PUSH2 0x4283 JUMP JUMPDEST JUMPDEST SWAP3 SWAP2 POP POP JUMP JUMPDEST PUSH1 0x0 PUSH2 0x4805 DUP3 PUSH2 0x3203 JUMP JUMPDEST SWAP2 POP PUSH2 0x4810 DUP4 PUSH2 0x3203 JUMP JUMPDEST SWAP3 POP DUP3 DUP3 ADD SWAP1 POP DUP1 DUP3 GT ISZERO PUSH2 0x4828 JUMPI PUSH2 0x4827 PUSH2 0x4283 JUMP JUMPDEST JUMPDEST SWAP3 SWAP2 POP POP JUMP JUMPDEST PUSH1 0x0 DUP2 MLOAD SWAP1 POP PUSH2 0x483D DUP2 PUSH2 0x37DC JUMP JUMPDEST SWAP3 SWAP2 POP POP JUMP JUMPDEST PUSH1 0x0 PUSH1 0x20 DUP3 DUP5 SUB SLT ISZERO PUSH2 0x4859 JUMPI PUSH2 0x4858 PUSH2 0x308C JUMP JUMPDEST JUMPDEST PUSH1 0x0 PUSH2 0x4867 DUP5 DUP3 DUP6 ADD PUSH2 0x482E JUMP JUMPDEST SWAP2 POP POP SWAP3 SWAP2 POP POP JUMP JUMPDEST PUSH32 0x45524331393637557067726164653A206E657720696D706C656D656E74617469 PUSH1 0x0 DUP3 ADD MSTORE PUSH32 0x6F6E206973206E6F742055555053000000000000000000000000000000000000 PUSH1 0x20 DUP3 ADD MSTORE POP JUMP JUMPDEST PUSH1 0x0 PUSH2 0x48CC PUSH1 0x2E DUP4 PUSH2 0x315C JUMP JUMPDEST SWAP2 POP PUSH2 0x48D7 DUP3 PUSH2 0x4870 JUMP JUMPDEST PUSH1 0x40 DUP3 ADD SWAP1 POP SWAP2 SWAP1 POP JUMP JUMPDEST PUSH1 0x0 PUSH1 0x20 DUP3 ADD SWAP1 POP DUP2 DUP2 SUB PUSH1 0x0 DUP4 ADD MSTORE PUSH2 0x48FB DUP2 PUSH2 0x48BF JUMP JUMPDEST SWAP1 POP SWAP2 SWAP1 POP JUMP JUMPDEST PUSH32 0x45524331393637557067726164653A20756E737570706F727465642070726F78 PUSH1 0x0 DUP3 ADD MSTORE PUSH32 0x6961626C65555549440000000000000000000000000000000000000000000000 PUSH1 0x20 DUP3 ADD MSTORE POP JUMP JUMPDEST PUSH1 0x0 PUSH2 0x495E PUSH1 0x29 DUP4 PUSH2 0x315C JUMP JUMPDEST SWAP2 POP PUSH2 0x4969 DUP3 PUSH2 0x4902 JUMP JUMPDEST PUSH1 0x40 DUP3 ADD SWAP1 POP SWAP2 SWAP1 POP JUMP JUMPDEST PUSH1 0x0 PUSH1 0x20 DUP3 ADD SWAP1 POP DUP2 DUP2 SUB PUSH1 0x0 DUP4 ADD MSTORE PUSH2 0x498D DUP2 PUSH2 0x4951 JUMP JUMPDEST SWAP1 POP SWAP2 SWAP1 POP JUMP JUMPDEST PUSH32 0x4F776E61626C653A2063616C6C6572206973206E6F7420746865206F776E6572 PUSH1 0x0 DUP3 ADD MSTORE POP JUMP JUMPDEST PUSH1 0x0 PUSH2 0x49CA PUSH1 0x20 DUP4 PUSH2 0x315C JUMP JUMPDEST SWAP2 POP PUSH2 0x49D5 DUP3 PUSH2 0x4994 JUMP JUMPDEST PUSH1 0x20 DUP3 ADD SWAP1 POP SWAP2 SWAP1 POP JUMP JUMPDEST PUSH1 0x0 PUSH1 0x20 DUP3 ADD SWAP1 POP DUP2 DUP2 SUB PUSH1 0x0 DUP4 ADD MSTORE PUSH2 0x49F9 DUP2 PUSH2 0x49BD JUMP JUMPDEST SWAP1 POP SWAP2 SWAP1 POP JUMP JUMPDEST PUSH32 0x496E697469616C697A61626C653A20636F6E7472616374206973206E6F742069 PUSH1 0x0 DUP3 ADD MSTORE PUSH32 0x6E697469616C697A696E67000000000000000000000000000000000000000000 PUSH1 0x20 DUP3 ADD MSTORE POP JUMP JUMPDEST PUSH1 0x0 PUSH2 0x4A5C PUSH1 0x2B DUP4 PUSH2 0x315C JUMP JUMPDEST SWAP2 POP PUSH2 0x4A67 DUP3 PUSH2 0x4A00 JUMP JUMPDEST PUSH1 0x40 DUP3 ADD SWAP1 POP SWAP2 SWAP1 POP JUMP JUMPDEST PUSH1 0x0 PUSH1 0x20 DUP3 ADD SWAP1 POP DUP2 DUP2 SUB PUSH1 0x0 DUP4 ADD MSTORE PUSH2 0x4A8B DUP2 PUSH2 0x4A4F JUMP JUMPDEST SWAP1 POP SWAP2 SWAP1 POP JUMP JUMPDEST PUSH32 0x4552433732313A20617070726F766520746F2063616C6C657200000000000000 PUSH1 0x0 DUP3 ADD MSTORE POP JUMP JUMPDEST PUSH1 0x0 PUSH2 0x4AC8 PUSH1 0x19 DUP4 PUSH2 0x315C JUMP JUMPDEST SWAP2 POP PUSH2 0x4AD3 DUP3 PUSH2 0x4A92 JUMP JUMPDEST PUSH1 0x20 DUP3 ADD SWAP1 POP SWAP2 SWAP1 POP JUMP JUMPDEST PUSH1 0x0 PUSH1 0x20 DUP3 ADD SWAP1 POP DUP2 DUP2 SUB PUSH1 0x0 DUP4 ADD MSTORE PUSH2 0x4AF7 DUP2 PUSH2 0x4ABB JUMP JUMPDEST SWAP1 POP SWAP2 SWAP1 POP JUMP JUMPDEST PUSH32 0x4552433732313A207472616E7366657220746F206E6F6E204552433732315265 PUSH1 0x0 DUP3 ADD MSTORE PUSH32 0x63656976657220696D706C656D656E7465720000000000000000000000000000 PUSH1 0x20 DUP3 ADD MSTORE POP JUMP JUMPDEST PUSH1 0x0 PUSH2 0x4B5A PUSH1 0x32 DUP4 PUSH2 0x315C JUMP JUMPDEST SWAP2 POP PUSH2 0x4B65 DUP3 PUSH2 0x4AFE JUMP JUMPDEST PUSH1 0x40 DUP3 ADD SWAP1 POP SWAP2 SWAP1 POP JUMP JUMPDEST PUSH1 0x0 PUSH1 0x20 DUP3 ADD SWAP1 POP DUP2 DUP2 SUB PUSH1 0x0 DUP4 ADD MSTORE PUSH2 0x4B89 DUP2 PUSH2 0x4B4D JUMP JUMPDEST SWAP1 POP SWAP2 SWAP1 POP JUMP JUMPDEST PUSH1 0x0 PUSH2 0x4B9B DUP3 PUSH2 0x3203 JUMP JUMPDEST SWAP2 POP PUSH32 0xFFFFFFFFFFFFFFFFFFFFFFFFFFFFFFFFFFFFFFFFFFFFFFFFFFFFFFFFFFFFFFFF DUP3 SUB PUSH2 0x4BCD JUMPI PUSH2 0x4BCC PUSH2 0x4283 JUMP JUMPDEST JUMPDEST PUSH1 0x1 DUP3 ADD SWAP1 POP SWAP2 SWAP1 POP JUMP JUMPDEST PUSH1 0x0 PUSH2 0x4BE3 DUP3 PUSH2 0x3203 JUMP JUMPDEST SWAP2 POP PUSH2 0x4BEE DUP4 PUSH2 0x3203 JUMP JUMPDEST SWAP3 POP DUP3 PUSH2 0x4BFE JUMPI PUSH2 0x4BFD PUSH2 0x42F4 JUMP JUMPDEST JUMPDEST DUP3 DUP3 MOD SWAP1 POP SWAP3 SWAP2 POP POP JUMP JUMPDEST PUSH32 0x4E487B7100000000000000000000000000000000000000000000000000000000 PUSH1 0x0 MSTORE PUSH1 0x32 PUSH1 0x4 MSTORE PUSH1 0x24 PUSH1 0x0 REVERT JUMPDEST PUSH32 0x455243313936373A206E657720696D706C656D656E746174696F6E206973206E PUSH1 0x0 DUP3 ADD MSTORE PUSH32 0x6F74206120636F6E747261637400000000000000000000000000000000000000 PUSH1 0x20 DUP3 ADD MSTORE POP JUMP JUMPDEST PUSH1 0x0 PUSH2 0x4C94 PUSH1 0x2D DUP4 PUSH2 0x315C JUMP JUMPDEST SWAP2 POP PUSH2 0x4C9F DUP3 PUSH2 0x4C38 JUMP JUMPDEST PUSH1 0x40 DUP3 ADD SWAP1 POP SWAP2 SWAP1 POP JUMP JUMPDEST PUSH1 0x0 PUSH1 0x20 DUP3 ADD SWAP1 POP DUP2 DUP2 SUB PUSH1 0x0 DUP4 ADD MSTORE PUSH2 0x4CC3 DUP2 PUSH2 0x4C87 JUMP JUMPDEST SWAP1 POP SWAP2 SWAP1 POP JUMP JUMPDEST PUSH1 0x0 DUP2 SWAP1 POP DUP2 PUSH1 0x0 MSTORE PUSH1 0x20 PUSH1 0x0 KECCAK256 SWAP1 POP SWAP2 SWAP1 POP JUMP JUMPDEST PUSH1 0x1F DUP3 GT ISZERO PUSH2 0x4D20 JUMPI PUSH2 0x4CF1 DUP2 PUSH2 0x4CCA JUMP JUMPDEST PUSH2 0x4CFA DUP5 PUSH2 0x43B1 JUMP JUMPDEST DUP2 ADD PUSH1 0x20 DUP6 LT ISZERO PUSH2 0x4D09 JUMPI DUP2 SWAP1 POP JUMPDEST PUSH2 0x4D1D PUSH2 0x4D15 DUP6 PUSH2 0x43B1 JUMP JUMPDEST DUP4 ADD DUP3 PUSH2 0x448E JUMP JUMPDEST POP POP JUMPDEST POP POP POP JUMP JUMPDEST PUSH2 0x4D2E DUP3 PUSH2 0x3151 JUMP JUMPDEST PUSH8 0xFFFFFFFFFFFFFFFF DUP2 GT ISZERO PUSH2 0x4D47 JUMPI PUSH2 0x4D46 PUSH2 0x33B8 JUMP JUMPDEST JUMPDEST PUSH2 0x4D51 DUP3 SLOAD PUSH2 0x3A90 JUMP JUMPDEST PUSH2 0x4D5C DUP3 DUP3 DUP6 PUSH2 0x4CDF JUMP JUMPDEST PUSH1 0x0 PUSH1 0x20 SWAP1 POP PUSH1 0x1F DUP4 GT PUSH1 0x1 DUP2 EQ PUSH2 0x4D8F JUMPI PUSH1 0x0 DUP5 ISZERO PUSH2 0x4D7D JUMPI DUP3 DUP8 ADD MLOAD SWAP1 POP JUMPDEST PUSH2 0x4D87 DUP6 DUP3 PUSH2 0x4522 JUMP JUMPDEST DUP7 SSTORE POP PUSH2 0x4DEF JUMP JUMPDEST PUSH1 0x1F NOT DUP5 AND PUSH2 0x4D9D DUP7 PUSH2 0x4CCA JUMP JUMPDEST PUSH1 0x0 JUMPDEST DUP3 DUP2 LT ISZERO PUSH2 0x4DC5 JUMPI DUP5 DUP10 ADD MLOAD DUP3 SSTORE PUSH1 0x1 DUP3 ADD SWAP2 POP PUSH1 0x20 DUP6 ADD SWAP5 POP PUSH1 0x20 DUP2 ADD SWAP1 POP PUSH2 0x4DA0 JUMP JUMPDEST DUP7 DUP4 LT ISZERO PUSH2 0x4DE2 JUMPI DUP5 DUP10 ADD MLOAD PUSH2 0x4DDE PUSH1 0x1F DUP10 AND DUP3 PUSH2 0x4504 JUMP JUMPDEST DUP4 SSTORE POP JUMPDEST PUSH1 0x1 PUSH1 0x2 DUP9 MUL ADD DUP9 SSTORE POP POP POP JUMPDEST POP POP POP POP POP POP JUMP JUMPDEST PUSH1 0x0 PUSH1 0x80 DUP3 ADD SWAP1 POP PUSH2 0x4E0C PUSH1 0x0 DUP4 ADD DUP8 PUSH2 0x3298 JUMP JUMPDEST PUSH2 0x4E19 PUSH1 0x20 DUP4 ADD DUP7 PUSH2 0x3298 JUMP JUMPDEST PUSH2 0x4E26 PUSH1 0x40 DUP4 ADD DUP6 PUSH2 0x368B JUMP JUMPDEST DUP2 DUP2 SUB PUSH1 0x60 DUP4 ADD MSTORE PUSH2 0x4E38 DUP2 DUP5 PUSH2 0x38C9 JUMP JUMPDEST SWAP1 POP SWAP6 SWAP5 POP POP POP POP POP JUMP JUMPDEST PUSH1 0x0 DUP2 MLOAD SWAP1 POP PUSH2 0x4E52 DUP2 PUSH2 0x30C2 JUMP JUMPDEST SWAP3 SWAP2 POP POP JUMP JUMPDEST PUSH1 0x0 PUSH1 0x20 DUP3 DUP5 SUB SLT ISZERO PUSH2 0x4E6E JUMPI PUSH2 0x4E6D PUSH2 0x308C JUMP JUMPDEST JUMPDEST PUSH1 0x0 PUSH2 0x4E7C DUP5 DUP3 DUP6 ADD PUSH2 0x4E43 JUMP JUMPDEST SWAP2 POP POP SWAP3 SWAP2 POP POP JUMP JUMPDEST PUSH32 0x416464726573733A2064656C65676174652063616C6C20746F206E6F6E2D636F PUSH1 0x0 DUP3 ADD MSTORE PUSH32 0x6E74726163740000000000000000000000000000000000000000000000000000 PUSH1 0x20 DUP3 ADD MSTORE POP JUMP JUMPDEST PUSH1 0x0 PUSH2 0x4EE1 PUSH1 0x26 DUP4 PUSH2 0x315C JUMP JUMPDEST SWAP2 POP PUSH2 0x4EEC DUP3 PUSH2 0x4E85 JUMP JUMPDEST PUSH1 0x40 DUP3 ADD SWAP1 POP SWAP2 SWAP1 POP JUMP JUMPDEST PUSH1 0x0 PUSH1 0x20 DUP3 ADD SWAP1 POP DUP2 DUP2 SUB PUSH1 0x0 DUP4 ADD MSTORE PUSH2 0x4F10 DUP2 PUSH2 0x4ED4 JUMP JUMPDEST SWAP1 POP SWAP2 SWAP1 POP JUMP JUMPDEST PUSH32 0x4552433732313A206D696E7420746F20746865207A65726F2061646472657373 PUSH1 0x0 DUP3 ADD MSTORE POP JUMP JUMPDEST PUSH1 0x0 PUSH2 0x4F4D PUSH1 0x20 DUP4 PUSH2 0x315C JUMP JUMPDEST SWAP2 POP PUSH2 0x4F58 DUP3 PUSH2 0x4F17 JUMP JUMPDEST PUSH1 0x20 DUP3 ADD SWAP1 POP SWAP2 SWAP1 POP JUMP JUMPDEST PUSH1 0x0 PUSH1 0x20 DUP3 ADD SWAP1 POP DUP2 DUP2 SUB PUSH1 0x0 DUP4 ADD MSTORE PUSH2 0x4F7C DUP2 PUSH2 0x4F40 JUMP JUMPDEST SWAP1 POP SWAP2 SWAP1 POP JUMP JUMPDEST PUSH32 0x4552433732313A20746F6B656E20616C7265616479206D696E74656400000000 PUSH1 0x0 DUP3 ADD MSTORE POP JUMP JUMPDEST PUSH1 0x0 PUSH2 0x4FB9 PUSH1 0x1C DUP4 PUSH2 0x315C JUMP JUMPDEST SWAP2 POP PUSH2 0x4FC4 DUP3 PUSH2 0x4F83 JUMP JUMPDEST PUSH1 0x20 DUP3 ADD SWAP1 POP SWAP2 SWAP1 POP JUMP JUMPDEST PUSH1 0x0 PUSH1 0x20 DUP3 ADD SWAP1 POP DUP2 DUP2 SUB PUSH1 0x0 DUP4 ADD MSTORE PUSH2 0x4FE8 DUP2 PUSH2 0x4FAC JUMP JUMPDEST SWAP1 POP SWAP2 SWAP1 POP JUMP INVALID COINBASE PUSH5 0x6472657373 GASPRICE KECCAK256 PUSH13 0x6F772D6C6576656C2064656C65 PUSH8 0x6174652063616C6C KECCAK256 PUSH7 0x61696C6564A264 PUSH10 0x7066735822122025E1C3 LOG1 OR 0xE5 0xEF 0xE5 0xE9 SWAP4 PUSH26 0xA0B185FF5732CE0EA8499B5B3FAC13B6B79121D57564736F6C63 NUMBER STOP ADDMOD SLT STOP CALLER "
		},
		"gasEstimates": {
			"creation": {
				"codeDepositCost": "4111200",
				"executionCost": "infinite",
				"totalCost": "infinite"
			},
			"external": {
				"approve(address,uint256)": "infinite",
				"balanceOf(address)": "2987",
				"dataOf(uint256)": "infinite",
				"datas(uint256)": "infinite",
				"getApproved(uint256)": "5280",
				"getEstimatedETHforDAI(uint256)": "infinite",
				"initialize()": "infinite",
				"isApprovedForAll(address,address)": "infinite",
				"latentSpaceHashes(bytes32)": "2841",
				"mint(bytes,bytes,address,uint256)": "infinite",
				"modelOwner(bytes)": "infinite",
				"name()": "infinite",
				"owner()": "2567",
				"ownerOf(uint256)": "3023",
				"proxiableUUID()": "infinite",
				"renounceOwnership()": "30444",
				"safeTransferFrom(address,address,uint256)": "infinite",
				"safeTransferFrom(address,address,uint256,bytes)": "infinite",
				"setApprovalForAll(address,bool)": "infinite",
				"setModel(bytes)": "infinite",
				"setModelOwnerPercent(uint256)": "24829",
				"setSafe(address)": "27076",
				"setSafePercent(uint256)": "24896",
				"supportsInterface(bytes4)": "820",
				"symbol()": "infinite",
				"tokenURI(uint256)": "3461",
				"transferFrom(address,address,uint256)": "infinite",
				"transferOwnership(address)": "30854",
				"upgradeTo(address)": "infinite",
				"upgradeToAndCall(address,bytes)": "infinite"
			},
			"internal": {
				"_authorizeUpgrade(address)": "infinite"
			}
		},
		"methodIdentifiers": {
			"approve(address,uint256)": "095ea7b3",
			"balanceOf(address)": "70a08231",
			"dataOf(uint256)": "871caa98",
			"datas(uint256)": "c0a094fd",
			"getApproved(uint256)": "081812fc",
			"getEstimatedETHforDAI(uint256)": "ada8b83d",
			"initialize()": "8129fc1c",
			"isApprovedForAll(address,address)": "e985e9c5",
			"latentSpaceHashes(bytes32)": "b5d74c08",
			"mint(bytes,bytes,address,uint256)": "c8a27f24",
			"modelOwner(bytes)": "ed3b0eca",
			"name()": "06fdde03",
			"owner()": "8da5cb5b",
			"ownerOf(uint256)": "6352211e",
			"proxiableUUID()": "52d1902d",
			"renounceOwnership()": "715018a6",
			"safeTransferFrom(address,address,uint256)": "42842e0e",
			"safeTransferFrom(address,address,uint256,bytes)": "b88d4fde",
			"setApprovalForAll(address,bool)": "a22cb465",
			"setModel(bytes)": "6f5547b6",
			"setModelOwnerPercent(uint256)": "625c593f",
			"setSafe(address)": "5db0cb94",
			"setSafePercent(uint256)": "5e2e7e8e",
			"supportsInterface(bytes4)": "01ffc9a7",
			"symbol()": "95d89b41",
			"tokenURI(uint256)": "c87b56dd",
			"transferFrom(address,address,uint256)": "23b872dd",
			"transferOwnership(address)": "f2fde38b",
			"upgradeTo(address)": "3659cfe6",
			"upgradeToAndCall(address,bytes)": "4f1ef286"
		}
	},
	"abi": [
		{
			"inputs": [],
			"stateMutability": "nonpayable",
			"type": "constructor"
		},
		{
			"anonymous": false,
			"inputs": [
				{
					"indexed": false,
					"internalType": "address",
					"name": "previousAdmin",
					"type": "address"
				},
				{
					"indexed": false,
					"internalType": "address",
					"name": "newAdmin",
					"type": "address"
				}
			],
			"name": "AdminChanged",
			"type": "event"
		},
		{
			"anonymous": false,
			"inputs": [
				{
					"indexed": true,
					"internalType": "address",
					"name": "owner",
					"type": "address"
				},
				{
					"indexed": true,
					"internalType": "address",
					"name": "approved",
					"type": "address"
				},
				{
					"indexed": true,
					"internalType": "uint256",
					"name": "tokenId",
					"type": "uint256"
				}
			],
			"name": "Approval",
			"type": "event"
		},
		{
			"anonymous": false,
			"inputs": [
				{
					"indexed": true,
					"internalType": "address",
					"name": "owner",
					"type": "address"
				},
				{
					"indexed": true,
					"internalType": "address",
					"name": "operator",
					"type": "address"
				},
				{
					"indexed": false,
					"internalType": "bool",
					"name": "approved",
					"type": "bool"
				}
			],
			"name": "ApprovalForAll",
			"type": "event"
		},
		{
			"anonymous": false,
			"inputs": [
				{
					"indexed": true,
					"internalType": "address",
					"name": "beacon",
					"type": "address"
				}
			],
			"name": "BeaconUpgraded",
			"type": "event"
		},
		{
			"anonymous": false,
			"inputs": [
				{
					"indexed": false,
					"internalType": "uint8",
					"name": "version",
					"type": "uint8"
				}
			],
			"name": "Initialized",
			"type": "event"
		},
		{
			"anonymous": false,
			"inputs": [
				{
					"indexed": true,
					"internalType": "address",
					"name": "previousOwner",
					"type": "address"
				},
				{
					"indexed": true,
					"internalType": "address",
					"name": "newOwner",
					"type": "address"
				}
			],
			"name": "OwnershipTransferred",
			"type": "event"
		},
		{
			"anonymous": false,
			"inputs": [
				{
					"indexed": true,
					"internalType": "address",
					"name": "from",
					"type": "address"
				},
				{
					"indexed": true,
					"internalType": "address",
					"name": "to",
					"type": "address"
				},
				{
					"indexed": true,
					"internalType": "uint256",
					"name": "tokenId",
					"type": "uint256"
				}
			],
			"name": "Transfer",
			"type": "event"
		},
		{
			"anonymous": false,
			"inputs": [
				{
					"indexed": true,
					"internalType": "address",
					"name": "implementation",
					"type": "address"
				}
			],
			"name": "Upgraded",
			"type": "event"
		},
		{
			"inputs": [
				{
					"internalType": "address",
					"name": "to",
					"type": "address"
				},
				{
					"internalType": "uint256",
					"name": "tokenId",
					"type": "uint256"
				}
			],
			"name": "approve",
			"outputs": [],
			"stateMutability": "nonpayable",
			"type": "function"
		},
		{
			"inputs": [
				{
					"internalType": "address",
					"name": "owner",
					"type": "address"
				}
			],
			"name": "balanceOf",
			"outputs": [
				{
					"internalType": "uint256",
					"name": "",
					"type": "uint256"
				}
			],
			"stateMutability": "view",
			"type": "function"
		},
		{
			"inputs": [
				{
					"internalType": "uint256",
					"name": "tokenId",
					"type": "uint256"
				}
			],
			"name": "dataOf",
			"outputs": [
				{
					"components": [
						{
							"internalType": "bytes",
							"name": "model",
							"type": "bytes"
						},
						{
							"internalType": "bytes",
							"name": "latentSpace",
							"type": "bytes"
						}
					],
					"internalType": "struct GanPunk.data",
					"name": "",
					"type": "tuple"
				}
			],
			"stateMutability": "view",
			"type": "function"
		},
		{
			"inputs": [
				{
					"internalType": "uint256",
					"name": "",
					"type": "uint256"
				}
			],
			"name": "datas",
			"outputs": [
				{
					"internalType": "bytes",
					"name": "model",
					"type": "bytes"
				},
				{
					"internalType": "bytes",
					"name": "latentSpace",
					"type": "bytes"
				}
			],
			"stateMutability": "view",
			"type": "function"
		},
		{
			"inputs": [
				{
					"internalType": "uint256",
					"name": "tokenId",
					"type": "uint256"
				}
			],
			"name": "getApproved",
			"outputs": [
				{
					"internalType": "address",
					"name": "",
					"type": "address"
				}
			],
			"stateMutability": "view",
			"type": "function"
		},
		{
			"inputs": [
				{
					"internalType": "uint256",
					"name": "daiAmount",
					"type": "uint256"
				}
			],
			"name": "getEstimatedETHforDAI",
			"outputs": [
				{
					"internalType": "uint256",
					"name": "",
					"type": "uint256"
				}
			],
			"stateMutability": "nonpayable",
			"type": "function"
		},
		{
			"inputs": [],
			"name": "initialize",
			"outputs": [],
			"stateMutability": "nonpayable",
			"type": "function"
		},
		{
			"inputs": [
				{
					"internalType": "address",
					"name": "owner",
					"type": "address"
				},
				{
					"internalType": "address",
					"name": "operator",
					"type": "address"
				}
			],
			"name": "isApprovedForAll",
			"outputs": [
				{
					"internalType": "bool",
					"name": "",
					"type": "bool"
				}
			],
			"stateMutability": "view",
			"type": "function"
		},
		{
			"inputs": [
				{
					"internalType": "bytes32",
					"name": "",
					"type": "bytes32"
				}
			],
			"name": "latentSpaceHashes",
			"outputs": [
				{
					"internalType": "bool",
					"name": "",
					"type": "bool"
				}
			],
			"stateMutability": "view",
			"type": "function"
		},
		{
			"inputs": [
				{
					"internalType": "bytes",
					"name": "_model",
					"type": "bytes"
				},
				{
					"internalType": "bytes",
					"name": "_input",
					"type": "bytes"
				},
				{
					"internalType": "address",
					"name": "_to",
					"type": "address"
				},
				{
					"internalType": "uint256",
					"name": "tokenId",
					"type": "uint256"
				}
			],
			"name": "mint",
			"outputs": [],
			"stateMutability": "payable",
			"type": "function"
		},
		{
			"inputs": [
				{
					"internalType": "bytes",
					"name": "",
					"type": "bytes"
				}
			],
			"name": "modelOwner",
			"outputs": [
				{
					"internalType": "address",
					"name": "",
					"type": "address"
				}
			],
			"stateMutability": "view",
			"type": "function"
		},
		{
			"inputs": [],
			"name": "name",
			"outputs": [
				{
					"internalType": "string",
					"name": "",
					"type": "string"
				}
			],
			"stateMutability": "view",
			"type": "function"
		},
		{
			"inputs": [],
			"name": "owner",
			"outputs": [
				{
					"internalType": "address",
					"name": "",
					"type": "address"
				}
			],
			"stateMutability": "view",
			"type": "function"
		},
		{
			"inputs": [
				{
					"internalType": "uint256",
					"name": "tokenId",
					"type": "uint256"
				}
			],
			"name": "ownerOf",
			"outputs": [
				{
					"internalType": "address",
					"name": "",
					"type": "address"
				}
			],
			"stateMutability": "view",
			"type": "function"
		},
		{
			"inputs": [],
			"name": "proxiableUUID",
			"outputs": [
				{
					"internalType": "bytes32",
					"name": "",
					"type": "bytes32"
				}
			],
			"stateMutability": "view",
			"type": "function"
		},
		{
			"inputs": [],
			"name": "renounceOwnership",
			"outputs": [],
			"stateMutability": "nonpayable",
			"type": "function"
		},
		{
			"inputs": [
				{
					"internalType": "address",
					"name": "from",
					"type": "address"
				},
				{
					"internalType": "address",
					"name": "to",
					"type": "address"
				},
				{
					"internalType": "uint256",
					"name": "tokenId",
					"type": "uint256"
				}
			],
			"name": "safeTransferFrom",
			"outputs": [],
			"stateMutability": "nonpayable",
			"type": "function"
		},
		{
			"inputs": [
				{
					"internalType": "address",
					"name": "from",
					"type": "address"
				},
				{
					"internalType": "address",
					"name": "to",
					"type": "address"
				},
				{
					"internalType": "uint256",
					"name": "tokenId",
					"type": "uint256"
				},
				{
					"internalType": "bytes",
					"name": "data",
					"type": "bytes"
				}
			],
			"name": "safeTransferFrom",
			"outputs": [],
			"stateMutability": "nonpayable",
			"type": "function"
		},
		{
			"inputs": [
				{
					"internalType": "address",
					"name": "operator",
					"type": "address"
				},
				{
					"internalType": "bool",
					"name": "approved",
					"type": "bool"
				}
			],
			"name": "setApprovalForAll",
			"outputs": [],
			"stateMutability": "nonpayable",
			"type": "function"
		},
		{
			"inputs": [
				{
					"internalType": "bytes",
					"name": "_model",
					"type": "bytes"
				}
			],
			"name": "setModel",
			"outputs": [],
			"stateMutability": "nonpayable",
			"type": "function"
		},
		{
			"inputs": [
				{
					"internalType": "uint256",
					"name": "percent",
					"type": "uint256"
				}
			],
			"name": "setModelOwnerPercent",
			"outputs": [],
			"stateMutability": "nonpayable",
			"type": "function"
		},
		{
			"inputs": [
				{
					"internalType": "address payable",
					"name": "_safe",
					"type": "address"
				}
			],
			"name": "setSafe",
			"outputs": [],
			"stateMutability": "nonpayable",
			"type": "function"
		},
		{
			"inputs": [
				{
					"internalType": "uint256",
					"name": "percent",
					"type": "uint256"
				}
			],
			"name": "setSafePercent",
			"outputs": [],
			"stateMutability": "nonpayable",
			"type": "function"
		},
		{
			"inputs": [
				{
					"internalType": "bytes4",
					"name": "interfaceId",
					"type": "bytes4"
				}
			],
			"name": "supportsInterface",
			"outputs": [
				{
					"internalType": "bool",
					"name": "",
					"type": "bool"
				}
			],
			"stateMutability": "view",
			"type": "function"
		},
		{
			"inputs": [],
			"name": "symbol",
			"outputs": [
				{
					"internalType": "string",
					"name": "",
					"type": "string"
				}
			],
			"stateMutability": "view",
			"type": "function"
		},
		{
			"inputs": [
				{
					"internalType": "uint256",
					"name": "tokenId",
					"type": "uint256"
				}
			],
			"name": "tokenURI",
			"outputs": [
				{
					"internalType": "string",
					"name": "",
					"type": "string"
				}
			],
			"stateMutability": "view",
			"type": "function"
		},
		{
			"inputs": [
				{
					"internalType": "address",
					"name": "from",
					"type": "address"
				},
				{
					"internalType": "address",
					"name": "to",
					"type": "address"
				},
				{
					"internalType": "uint256",
					"name": "tokenId",
					"type": "uint256"
				}
			],
			"name": "transferFrom",
			"outputs": [],
			"stateMutability": "nonpayable",
			"type": "function"
		},
		{
			"inputs": [
				{
					"internalType": "address",
					"name": "newOwner",
					"type": "address"
				}
			],
			"name": "transferOwnership",
			"outputs": [],
			"stateMutability": "nonpayable",
			"type": "function"
		},
		{
			"inputs": [
				{
					"internalType": "address",
					"name": "newImplementation",
					"type": "address"
				}
			],
			"name": "upgradeTo",
			"outputs": [],
			"stateMutability": "nonpayable",
			"type": "function"
		},
		{
			"inputs": [
				{
					"internalType": "address",
					"name": "newImplementation",
					"type": "address"
				},
				{
					"internalType": "bytes",
					"name": "data",
					"type": "bytes"
				}
			],
			"name": "upgradeToAndCall",
			"outputs": [],
			"stateMutability": "payable",
			"type": "function"
		}
	]
}